{
  "address": "0x487288646a7422379F7ee8bB00C487322Eaa692D",
  "abi": [
    {
      "inputs": [],
      "stateMutability": "nonpayable",
      "type": "constructor"
    },
    {
      "anonymous": false,
      "inputs": [
        {
          "indexed": true,
          "internalType": "address",
          "name": "account",
          "type": "address"
        },
        {
          "indexed": true,
          "internalType": "address",
          "name": "operator",
          "type": "address"
        },
        {
          "indexed": false,
          "internalType": "bool",
          "name": "approved",
          "type": "bool"
        }
      ],
      "name": "ApprovalForAll",
      "type": "event"
    },
    {
      "anonymous": false,
      "inputs": [
        {
          "indexed": false,
          "internalType": "address",
          "name": "customer",
          "type": "address"
        },
        {
          "indexed": false,
          "internalType": "uint256",
          "name": "spotAmount",
          "type": "uint256"
        }
      ],
      "name": "FundsAdded",
      "type": "event"
    },
    {
      "anonymous": false,
      "inputs": [
        {
          "indexed": false,
          "internalType": "string",
          "name": "orderId",
          "type": "string"
        }
      ],
      "name": "OrderCanceled",
      "type": "event"
    },
    {
      "anonymous": false,
      "inputs": [
        {
          "indexed": false,
          "internalType": "address",
          "name": "customer",
          "type": "address"
        },
        {
          "indexed": false,
          "internalType": "string",
          "name": "orderId",
          "type": "string"
        },
        {
          "indexed": false,
          "internalType": "uint256",
          "name": "orderValue",
          "type": "uint256"
        },
        {
          "indexed": false,
          "internalType": "address",
          "name": "fundDisbursementAddress",
          "type": "address"
        }
      ],
      "name": "OrderCreated",
      "type": "event"
    },
    {
      "anonymous": false,
      "inputs": [
        {
          "indexed": false,
          "internalType": "address",
          "name": "customer",
          "type": "address"
        },
        {
          "indexed": false,
          "internalType": "string",
          "name": "orderId",
          "type": "string"
        }
      ],
      "name": "OrderRedeemed",
      "type": "event"
    },
    {
      "anonymous": false,
      "inputs": [
        {
          "indexed": true,
          "internalType": "address",
          "name": "previousOwner",
          "type": "address"
        },
        {
          "indexed": true,
          "internalType": "address",
          "name": "newOwner",
          "type": "address"
        }
      ],
      "name": "OwnershipTransferred",
      "type": "event"
    },
    {
      "anonymous": false,
      "inputs": [
        {
          "indexed": false,
          "internalType": "address",
          "name": "beneficiary",
          "type": "address"
        },
        {
          "indexed": false,
          "internalType": "address",
          "name": "ERC20Token",
          "type": "address"
        },
        {
          "indexed": false,
          "internalType": "uint256",
          "name": "ERC20TokenValue",
          "type": "uint256"
        }
      ],
      "name": "PBMrevokeWithdraw",
      "type": "event"
    },
    {
      "anonymous": false,
      "inputs": [
        {
          "indexed": false,
          "internalType": "address",
          "name": "account",
          "type": "address"
        }
      ],
      "name": "Paused",
      "type": "event"
    },
    {
      "anonymous": false,
      "inputs": [
        {
          "indexed": true,
          "internalType": "address",
          "name": "operator",
          "type": "address"
        },
        {
          "indexed": true,
          "internalType": "address",
          "name": "from",
          "type": "address"
        },
        {
          "indexed": true,
          "internalType": "address",
          "name": "to",
          "type": "address"
        },
        {
          "indexed": false,
          "internalType": "uint256[]",
          "name": "ids",
          "type": "uint256[]"
        },
        {
          "indexed": false,
          "internalType": "uint256[]",
          "name": "values",
          "type": "uint256[]"
        }
      ],
      "name": "TransferBatch",
      "type": "event"
    },
    {
      "anonymous": false,
      "inputs": [
        {
          "indexed": true,
          "internalType": "address",
          "name": "operator",
          "type": "address"
        },
        {
          "indexed": true,
          "internalType": "address",
          "name": "from",
          "type": "address"
        },
        {
          "indexed": true,
          "internalType": "address",
          "name": "to",
          "type": "address"
        },
        {
          "indexed": false,
          "internalType": "uint256",
          "name": "id",
          "type": "uint256"
        },
        {
          "indexed": false,
          "internalType": "uint256",
          "name": "value",
          "type": "uint256"
        }
      ],
      "name": "TransferSingle",
      "type": "event"
    },
    {
      "anonymous": false,
      "inputs": [
        {
          "indexed": false,
          "internalType": "string",
          "name": "value",
          "type": "string"
        },
        {
          "indexed": true,
          "internalType": "uint256",
          "name": "id",
          "type": "uint256"
        }
      ],
      "name": "URI",
      "type": "event"
    },
    {
      "anonymous": false,
      "inputs": [
        {
          "indexed": false,
          "internalType": "address",
          "name": "account",
          "type": "address"
        }
      ],
      "name": "Unpaused",
      "type": "event"
    },
    {
      "inputs": [
        {
          "internalType": "address",
          "name": "account",
          "type": "address"
        }
      ],
      "name": "addToWhitelist",
      "outputs": [],
      "stateMutability": "nonpayable",
      "type": "function"
    },
    {
      "inputs": [
        {
          "internalType": "address",
          "name": "account",
          "type": "address"
        },
        {
          "internalType": "uint256",
          "name": "id",
          "type": "uint256"
        }
      ],
      "name": "balanceOf",
      "outputs": [
        {
          "internalType": "uint256",
          "name": "",
          "type": "uint256"
        }
      ],
      "stateMutability": "view",
      "type": "function"
    },
    {
      "inputs": [
        {
          "internalType": "address[]",
          "name": "accounts",
          "type": "address[]"
        },
        {
          "internalType": "uint256[]",
          "name": "ids",
          "type": "uint256[]"
        }
      ],
      "name": "balanceOfBatch",
      "outputs": [
        {
          "internalType": "uint256[]",
          "name": "",
          "type": "uint256[]"
        }
      ],
      "stateMutability": "view",
      "type": "function"
    },
    {
      "inputs": [
        {
          "internalType": "string",
          "name": "orderId",
          "type": "string"
        },
        {
          "internalType": "uint256",
          "name": "tokenId",
          "type": "uint256"
        }
      ],
      "name": "cancelOrder",
      "outputs": [],
      "stateMutability": "nonpayable",
      "type": "function"
    },
    {
      "inputs": [],
      "name": "contractExpiry",
      "outputs": [
        {
          "internalType": "uint256",
          "name": "",
          "type": "uint256"
        }
      ],
      "stateMutability": "view",
      "type": "function"
    },
    {
      "inputs": [
        {
          "internalType": "address",
          "name": "customerWalletAddr",
          "type": "address"
        },
        {
          "internalType": "uint256",
          "name": "tokenId",
          "type": "uint256"
        },
        {
          "internalType": "string",
          "name": "orderId",
          "type": "string"
        },
        {
          "internalType": "uint256",
          "name": "orderValue",
          "type": "uint256"
        },
        {
          "internalType": "address",
          "name": "fundDisbursementAddr",
          "type": "address"
        }
      ],
      "name": "createOrder",
      "outputs": [],
      "stateMutability": "nonpayable",
      "type": "function"
    },
    {
      "inputs": [
        {
          "internalType": "uint256",
          "name": "spotAmount",
          "type": "uint256"
        },
        {
          "internalType": "uint256",
          "name": "tokenExpiry",
          "type": "uint256"
        },
        {
          "internalType": "string",
          "name": "tokenURI",
          "type": "string"
        },
        {
          "internalType": "string",
          "name": "postExpiryURI",
          "type": "string"
        }
      ],
      "name": "createPBMTokenType",
      "outputs": [],
      "stateMutability": "nonpayable",
      "type": "function"
    },
    {
      "inputs": [
        {
          "internalType": "uint256",
          "name": "tokenId",
          "type": "uint256"
        }
      ],
      "name": "getTokenDetails",
      "outputs": [
        {
          "internalType": "uint256",
          "name": "",
          "type": "uint256"
        },
        {
          "internalType": "uint256",
          "name": "",
          "type": "uint256"
        }
      ],
      "stateMutability": "view",
      "type": "function"
    },
    {
      "inputs": [
        {
          "internalType": "address",
          "name": "user",
          "type": "address"
        },
        {
          "internalType": "uint256",
          "name": "tokenId",
          "type": "uint256"
        }
      ],
      "name": "getUserBalance",
      "outputs": [
        {
          "components": [
            {
              "internalType": "uint256",
              "name": "walletBalance",
              "type": "uint256"
            },
            {
              "internalType": "uint256",
              "name": "availableBalance",
              "type": "uint256"
            }
          ],
          "internalType": "struct PBM.UserBalance",
          "name": "userBalance",
          "type": "tuple"
        }
      ],
      "stateMutability": "view",
      "type": "function"
    },
    {
      "inputs": [
        {
          "internalType": "address",
          "name": "_spotToken",
          "type": "address"
        },
        {
          "internalType": "uint256",
          "name": "_expiry",
          "type": "uint256"
        }
      ],
      "name": "initialise",
      "outputs": [],
      "stateMutability": "nonpayable",
      "type": "function"
    },
    {
      "inputs": [
        {
          "internalType": "address",
          "name": "account",
          "type": "address"
        },
        {
          "internalType": "address",
          "name": "operator",
          "type": "address"
        }
      ],
      "name": "isApprovedForAll",
      "outputs": [
        {
          "internalType": "bool",
          "name": "",
          "type": "bool"
        }
      ],
      "stateMutability": "view",
      "type": "function"
    },
    {
      "inputs": [
        {
          "internalType": "uint256",
          "name": "tokenId",
          "type": "uint256"
        },
        {
          "internalType": "uint256",
          "name": "amount",
          "type": "uint256"
        },
        {
          "internalType": "address",
          "name": "userAddress",
          "type": "address"
        }
      ],
      "name": "mint",
      "outputs": [],
      "stateMutability": "nonpayable",
      "type": "function"
    },
    {
      "inputs": [
        {
          "internalType": "uint256",
          "name": "tokenId",
          "type": "uint256"
        },
        {
          "internalType": "uint256",
          "name": "amount",
          "type": "uint256"
        },
        {
          "internalType": "address[]",
          "name": "userAddresses",
          "type": "address[]"
        }
      ],
      "name": "mintBatch",
      "outputs": [],
      "stateMutability": "nonpayable",
      "type": "function"
    },
    {
      "inputs": [
        {
          "internalType": "bytes32",
          "name": "",
          "type": "bytes32"
        }
      ],
      "name": "orders",
      "outputs": [
        {
          "internalType": "uint256",
          "name": "orderValue",
          "type": "uint256"
        },
        {
          "internalType": "string",
          "name": "orderId",
          "type": "string"
        },
        {
          "internalType": "address",
          "name": "customerWallet",
          "type": "address"
        },
        {
          "internalType": "address",
          "name": "fundDisbursementAddress",
          "type": "address"
        },
        {
          "internalType": "enum PBM.OrderStatus",
          "name": "status",
          "type": "uint8"
        }
      ],
      "stateMutability": "view",
      "type": "function"
    },
    {
      "inputs": [],
      "name": "owner",
      "outputs": [
        {
          "internalType": "address",
          "name": "",
          "type": "address"
        }
      ],
      "stateMutability": "view",
      "type": "function"
    },
    {
      "inputs": [],
      "name": "pause",
      "outputs": [],
      "stateMutability": "nonpayable",
      "type": "function"
    },
    {
      "inputs": [],
      "name": "paused",
      "outputs": [
        {
          "internalType": "bool",
          "name": "",
          "type": "bool"
        }
      ],
      "stateMutability": "view",
      "type": "function"
    },
    {
      "inputs": [],
      "name": "pbmTokenManager",
      "outputs": [
        {
          "internalType": "address",
          "name": "",
          "type": "address"
        }
      ],
      "stateMutability": "view",
      "type": "function"
    },
    {
      "inputs": [
        {
          "internalType": "string",
          "name": "orderId",
          "type": "string"
        },
        {
          "internalType": "uint256",
          "name": "tokenId",
          "type": "uint256"
        },
        {
          "internalType": "address",
          "name": "userWallet",
          "type": "address"
        }
      ],
      "name": "redeemOrder",
      "outputs": [],
      "stateMutability": "nonpayable",
      "type": "function"
    },
    {
      "inputs": [
        {
          "internalType": "address",
          "name": "account",
          "type": "address"
        }
      ],
      "name": "removeFromWhitelist",
      "outputs": [],
      "stateMutability": "nonpayable",
      "type": "function"
    },
    {
      "inputs": [],
      "name": "renounceOwnership",
      "outputs": [],
      "stateMutability": "nonpayable",
      "type": "function"
    },
    {
      "inputs": [],
      "name": "revokePBM",
      "outputs": [],
      "stateMutability": "nonpayable",
      "type": "function"
    },
    {
      "inputs": [
        {
          "internalType": "address",
          "name": "from",
          "type": "address"
        },
        {
          "internalType": "address",
          "name": "to",
          "type": "address"
        },
        {
          "internalType": "uint256[]",
          "name": "ids",
          "type": "uint256[]"
        },
        {
          "internalType": "uint256[]",
          "name": "amounts",
          "type": "uint256[]"
        },
        {
          "internalType": "bytes",
          "name": "data",
          "type": "bytes"
        }
      ],
      "name": "safeBatchTransferFrom",
      "outputs": [],
      "stateMutability": "nonpayable",
      "type": "function"
    },
    {
      "inputs": [
        {
          "internalType": "address",
          "name": "from",
          "type": "address"
        },
        {
          "internalType": "address",
          "name": "to",
          "type": "address"
        },
        {
          "internalType": "uint256",
          "name": "id",
          "type": "uint256"
        },
        {
          "internalType": "uint256",
          "name": "amount",
          "type": "uint256"
        },
        {
          "internalType": "bytes",
          "name": "data",
          "type": "bytes"
        }
      ],
      "name": "safeTransferFrom",
      "outputs": [],
      "stateMutability": "nonpayable",
      "type": "function"
    },
    {
      "inputs": [
        {
          "internalType": "address",
          "name": "operator",
          "type": "address"
        },
        {
          "internalType": "bool",
          "name": "approved",
          "type": "bool"
        }
      ],
      "name": "setApprovalForAll",
      "outputs": [],
      "stateMutability": "nonpayable",
      "type": "function"
    },
    {
      "inputs": [],
      "name": "spotToken",
      "outputs": [
        {
          "internalType": "address",
          "name": "",
          "type": "address"
        }
      ],
      "stateMutability": "view",
      "type": "function"
    },
    {
      "inputs": [
        {
          "internalType": "bytes4",
          "name": "interfaceId",
          "type": "bytes4"
        }
      ],
      "name": "supportsInterface",
      "outputs": [
        {
          "internalType": "bool",
          "name": "",
          "type": "bool"
        }
      ],
      "stateMutability": "view",
      "type": "function"
    },
    {
      "inputs": [
        {
          "internalType": "address",
          "name": "newOwner",
          "type": "address"
        }
      ],
      "name": "transferOwnership",
      "outputs": [],
      "stateMutability": "nonpayable",
      "type": "function"
    },
    {
      "inputs": [],
      "name": "unpause",
      "outputs": [],
      "stateMutability": "nonpayable",
      "type": "function"
    },
    {
      "inputs": [
        {
          "internalType": "uint256",
          "name": "tokenId",
          "type": "uint256"
        }
      ],
      "name": "uri",
      "outputs": [
        {
          "internalType": "string",
          "name": "",
          "type": "string"
        }
      ],
      "stateMutability": "view",
      "type": "function"
    },
    {
      "inputs": [
        {
          "internalType": "address",
          "name": "",
          "type": "address"
        }
      ],
      "name": "whitelist",
      "outputs": [
        {
          "internalType": "bool",
          "name": "",
          "type": "bool"
        }
      ],
      "stateMutability": "view",
      "type": "function"
    }
  ],
  "transactionHash": "0x5ee13a5b5637513ba714abf3e32ff7841b0b5222c20d2e76f0833d1228c72a3e",
  "args": [],
  "numDeployments": 1,
  "solcInputHash": "351d7384d5dc4b1ce9e12741051b33fc",
  "bytecode": "0x6080604052600480546001600160a01b0319169055600580546001600160a81b03191690553480156200003157600080fd5b506040805160208101909152600081526200004c81620000b7565b506200005833620000d0565b6003805460ff60a01b19169055604051620000739062000122565b604051809103906000f08015801562000090573d6000803e3d6000fd5b50600580546001600160a01b0319166001600160a01b039290921691909117905562000213565b8051620000cc90600290602084019062000130565b5050565b600380546001600160a01b038381166001600160a01b0319831681179093556040519116919082907f8be0079c531659141344cd1fd0a4f28419497f9722a3daafe3b4186f6b6457e090600090a35050565b610bb880620037e683390190565b8280546200013e90620001d6565b90600052602060002090601f016020900481019282620001625760008555620001ad565b82601f106200017d57805160ff1916838001178555620001ad565b82800160010185558215620001ad579182015b82811115620001ad57825182559160200191906001019062000190565b50620001bb929150620001bf565b5090565b5b80821115620001bb5760008155600101620001c0565b600181811c90821680620001eb57607f821691505b602082108114156200020d57634e487b7160e01b600052602260045260246000fd5b50919050565b6135c380620002236000396000f3fe608060405234801561001057600080fd5b50600436106101e45760003560e01c80638da5cb5b1161010f578063c1e03728116100a2578063e985e9c511610071578063e985e9c514610459578063f242432a14610495578063f2fde38b146104a8578063f859aec1146104bb57600080fd5b8063c1e03728146103f8578063c270ef2414610420578063e43252d714610433578063e7d3fe6b1461044657600080fd5b80639617e885116100de5780639617e8851461038b5780639b19251a1461039e5780639c3f1e90146103c1578063a22cb465146103e557600080fd5b80638da5cb5b146103315780638edb9ae21461034257806390df76181461035557806391a9648a1461035d57600080fd5b80633f4ba83a11610187578063715018a611610156578063715018a6146103055780638456cb591461030d57806389aba642146103155780638ab1d6811461031e57600080fd5b80633f4ba83a146102b85780634e1273f4146102c05780635c975abb146102e057806363be47d2146102f257600080fd5b80630e89341c116101c35780630e89341c1461025d578063270ccf2d1461027d5780632eb2c2d6146102925780633b4d206b146102a557600080fd5b8062fdd58e146101e957806301ffc9a71461020f5780630ad8946214610232575b600080fd5b6101fc6101f736600461281f565b6104ce565b6040519081526020015b60405180910390f35b61022261021d36600461285f565b610564565b6040519015158152602001610206565b600454610245906001600160a01b031681565b6040516001600160a01b039091168152602001610206565b61027061026b366004612883565b6105b6565b60405161020691906128f8565b61029061028b3660046129d0565b610637565b005b6102906102a0366004612aba565b610902565b6102906102b336600461281f565b61094e565b610290610a36565b6102d36102ce366004612bd0565b610a48565b6040516102069190612c6e565b600354600160a01b900460ff16610222565b600554610245906001600160a01b031681565b610290610b71565b610290610b83565b6101fc60065481565b61029061032c366004612c81565b610b93565b6003546001600160a01b0316610245565b610290610350366004612c9c565b610bbc565b610290610c35565b61037061036b36600461281f565b610d33565b60408051825181526020928301519281019290925201610206565b610290610399366004612d12565b610d8e565b6102226103ac366004612c81565b60096020526000908152604090205460ff1681565b6103d46103cf366004612883565b611039565b604051610206959493929190612d6c565b6102906103f3366004612dda565b611103565b61040b610406366004612883565b611112565b60408051928352602083019190915201610206565b61029061042e366004612e11565b61119b565b610290610441366004612c81565b611421565b610290610454366004612e60565b61144d565b610222610467366004612e8c565b6001600160a01b03918216600090815260016020908152604080832093909416825291909152205460ff1690565b6102906104a3366004612ebf565b611662565b6102906104b6366004612c81565b6116a7565b6102906104c9366004612f23565b611720565b60006001600160a01b03831661053e5760405162461bcd60e51b815260206004820152602a60248201527f455243313135353a2061646472657373207a65726f206973206e6f742061207660448201526930b634b21037bbb732b960b11b60648201526084015b60405180910390fd5b506000908152602081815260408083206001600160a01b03949094168352929052205490565b60006001600160e01b03198216636cdb3d1360e11b148061059557506001600160e01b031982166303a24d0760e21b145b806105b057506301ffc9a760e01b6001600160e01b03198316145b92915050565b6005546040516303a24d0760e21b8152600481018390526060916001600160a01b031690630e89341c9060240160006040518083038186803b1580156105fb57600080fd5b505afa15801561060f573d6000803e3d6000fd5b505050506040513d6000823e601f3d908101601f191682016040526105b09190810190612f94565b61063f611a97565b3360009081526009602052604090205460ff1661066e5760405162461bcd60e51b815260040161053590613015565b826000816040516020016106829190613061565b60408051601f198184030181529181528151602092830120600081815260089093529120549091506106c65760405162461bcd60e51b81526004016105359061307d565b6000856040516020016106d99190613061565b60408051601f198184030181529190528051602090910120905060008082815260086020526040902060030154600160a01b900460ff16600281111561072157610721612d56565b1461076e5760405162461bcd60e51b815260206004820152601f60248201527f54686973206f72646572206973206e6f206c6f6e6765722070656e64696e67006044820152606401610535565b6000818152600860209081526040808320546001600160a01b03881684526007835281842089855290925290912080548211156107ed5760405162461bcd60e51b815260206004820152601b60248201527f496e73756666696369656e742077616c6c65742062616c616e636500000000006044820152606401610535565b6001810154815410156108685760405162461bcd60e51b815260206004820152603b60248201527f536f6d657468696e672069732077726f6e672c20617661696c61626c6542616c60448201527f616e6365206d75737420626520646564756374656420666972737400000000006064820152608401610535565b8181600001600082825461087c91906130d4565b909155505060008381526008602052604090206003018054600160a01b60ff60a01b198216179091556004546108bf916001600160a01b03918216911684611ae4565b7fd0471941026c36b264279f214e4f93d94de41e157f993054018f5bb3cdbe153686896040516108f09291906130eb565b60405180910390a15050505050505050565b6001600160a01b03851633148061091e575061091e8533610467565b61093a5760405162461bcd60e51b815260040161053590613117565b6109478585858585611ca0565b5050505050565b610956611e7d565b600554600160a01b900460ff16156109b05760405162461bcd60e51b815260206004820152601860248201527f50424d3a20416c726561647920696e697469616c6973656400000000000000006044820152606401610535565b6001600160a01b0382163b6109fc5760405162461bcd60e51b815260206004820152601260248201527124b73b30b634b21039b837ba103a37b5b2b760711b6044820152606401610535565b600480546001600160a01b039093166001600160a01b0319909316929092179091556006556005805460ff60a01b1916600160a01b179055565b610a3e611e7d565b610a46611ed7565b565b60608151835114610aad5760405162461bcd60e51b815260206004820152602960248201527f455243313135353a206163636f756e747320616e6420696473206c656e677468604482015268040dad2e6dac2e8c6d60bb1b6064820152608401610535565b600083516001600160401b03811115610ac857610ac861290b565b604051908082528060200260200182016040528015610af1578160200160208202803683370190505b50905060005b8451811015610b6957610b3c858281518110610b1557610b15613165565b6020026020010151858381518110610b2f57610b2f613165565b60200260200101516104ce565b828281518110610b4e57610b4e613165565b6020908102919091010152610b628161317b565b9050610af7565b509392505050565b610b79611e7d565b610a466000611f2c565b610b8b611e7d565b610a46611f7e565b610b9b611e7d565b6001600160a01b03166000908152600960205260409020805460ff19169055565b610bc4611e7d565b6005546006546040516313a6c5f760e21b81526001600160a01b0390921691634e9b17dc91610bfd918891889188918891600401613196565b600060405180830381600087803b158015610c1757600080fd5b505af1158015610c2b573d6000803e3d6000fd5b5050505050505050565b610c3d611e7d565b610c45611a97565b600480546040516370a0823160e01b815230928101929092526001600160a01b03169060009082906370a082319060240160206040518083038186803b158015610c8e57600080fd5b505afa158015610ca2573d6000803e3d6000fd5b505050506040513d601f19601f82011682018060405250810190610cc691906131da565b9050610ce482610cde6003546001600160a01b031690565b83611ae4565b600454604080513381526001600160a01b039092166020830152818101839052517fef957a4ccd3a764d8119b98e2f88707e1f467beafd127ebf9e78903159f78ec29181900360600190a15050565b6040805180820190915260008082526020820152610d4f611a97565b506001600160a01b0382166000908152600760209081526040808320848452825291829020825180840190935280548352600101549082015292915050565b610d96611a97565b3360009081526009602052604090205460ff16610dc55760405162461bcd60e51b815260040161053590613015565b81600081604051602001610dd99190613061565b60408051601f19818403018152918152815160209283012060008181526008909352912054909150610e1d5760405162461bcd60e51b81526004016105359061307d565b600084604051602001610e309190613061565b60408051601f198184030181529190528051602090910120905060008082815260086020526040902060030154600160a01b900460ff166002811115610e7857610e78612d56565b14610ec55760405162461bcd60e51b815260206004820152601f60248201527f54686973206f72646572206973206e6f206c6f6e6765722070656e64696e67006044820152606401610535565b600081815260086020908152604080832080546002909101546001600160a01b03168452600783528184208885529092529091206001810154610f099083906131f3565b81541015610f775760405162461bcd60e51b815260206004820152603560248201527f417661696c2062616c616e63652063616e206e657665722062652067726561746044820152746572207468616e2077616c6c657442616c616e636560581b6064820152608401610535565b8054610fbd5760405162461bcd60e51b815260206004820152601560248201527424b73b30b634b2103ab9b2b9103130b630b731b29760591b6044820152606401610535565b6000838152600860205260408120600301805460ff60a01b1916600160a11b179055600182018054849290610ff39084906131f3565b90915550506040517ff5adc3e725c515c95698d481a1ad428b0305e928eb61dee6d481a6b9fa83179a906110289089906128f8565b60405180910390a150505050505050565b6008602052600090815260409020805460018201805491929161105b9061320b565b80601f01602080910402602001604051908101604052809291908181526020018280546110879061320b565b80156110d45780601f106110a9576101008083540402835291602001916110d4565b820191906000526020600020905b8154815290600101906020018083116110b757829003601f168201915b50505050600283015460039093015491926001600160a01b03908116929081169150600160a01b900460ff1685565b61110e338383611fc1565b5050565b60055460405163183c06e560e31b81526004810183905260009182916001600160a01b039091169063c1e0372890602401604080518083038186803b15801561115a57600080fd5b505afa15801561116e573d6000803e3d6000fd5b505050506040513d601f19601f820116820180604052508101906111929190613246565b91509150915091565b6111a3611a97565b6111ab611e7d565b60055460405163d10424c760e01b8152600481018590526000916001600160a01b03169063d10424c79060240160206040518083038186803b1580156111f057600080fd5b505afa158015611204573d6000803e3d6000fd5b505050506040513d601f19601f8201168201806040525081019061122891906131da565b82519091506000611239828461326a565b600454909150611254906001600160a01b03163330846120a2565b60005b8281101561141857600085828151811061127357611273613165565b6020026020010151905061128781896104ce565b156112a45760405162461bcd60e51b815260040161053590613289565b6001600160a01b0381166112f15760405162461bcd60e51b8152602060048201526014602482015273496e76616c69642075736572206164647265737360601b6044820152606401610535565b8660011461134d5760405162461bcd60e51b815260206004820152602360248201527f416d6f756e742063616e206f6e6c79206265203120666f72206561636820746f60448201526235b2b760e91b6064820152608401610535565b6001600160a01b03811660009081526007602090815260408083208b845290915281208054909187918391906113849084906131f3565b925050819055508581600101600082825461139f91906131f3565b925050819055506113c1828a8a60405180602001604052806000815250612265565b604080516001600160a01b0384168152602081018890527f8fe10ae416f22f5e5220b0018a6c1d4ff534d6aa3a471f2a20cb7747fe63e5b9910160405180910390a1505080806114109061317b565b915050611257565b50505050505050565b611429611e7d565b6001600160a01b03166000908152600960205260409020805460ff19166001179055565b611455611a97565b61145d611e7d565b61146781846104ce565b156114845760405162461bcd60e51b815260040161053590613289565b6001600160a01b0381166114d15760405162461bcd60e51b8152602060048201526014602482015273496e76616c69642075736572206164647265737360601b6044820152606401610535565b816001146115185760405162461bcd60e51b8152602060048201526014602482015273416d6f756e742063616e206f6e6c79206265203160601b6044820152606401610535565b60055460405163d10424c760e01b8152600481018590526000916001600160a01b03169063d10424c79060240160206040518083038186803b15801561155d57600080fd5b505afa158015611571573d6000803e3d6000fd5b505050506040513d601f19601f8201168201806040525081019061159591906131da565b6001600160a01b03831660009081526007602090815260408083208884529091528120805492935091839183916115cd9084906131f3565b92505081905550818160010160008282546115e891906131f3565b9091555050600454611605906001600160a01b03163330856120a2565b604080516001600160a01b0385168152602081018490527f8fe10ae416f22f5e5220b0018a6c1d4ff534d6aa3a471f2a20cb7747fe63e5b9910160405180910390a161094783868660405180602001604052806000815250612265565b6001600160a01b03851633148061167e575061167e8533610467565b61169a5760405162461bcd60e51b815260040161053590613117565b6109478585858585612370565b6116af611e7d565b6001600160a01b0381166117145760405162461bcd60e51b815260206004820152602660248201527f4f776e61626c653a206e6577206f776e657220697320746865207a65726f206160448201526564647265737360d01b6064820152608401610535565b61171d81611f2c565b50565b611728611a97565b3360009081526009602052604090205460ff166117575760405162461bcd60e51b815260040161053590613015565b6001600160a01b0385166117ad5760405162461bcd60e51b815260206004820152601860248201527f496e76616c696420637573746f6d6572206164647265737300000000000000006044820152606401610535565b600082116117f35760405162461bcd60e51b8152602060048201526013602482015272496e76616c6964206f726465722076616c756560681b6044820152606401610535565b6001600160a01b0381166118535760405162461bcd60e51b815260206004820152602160248201527f496e76616c69642066756e642064697362757273656d656e74206164647265736044820152607360f81b6064820152608401610535565b6000836040516020016118669190613061565b60408051601f19818403018152918152815160209283012060008181526008909352912054909150156118e55760405162461bcd60e51b815260206004820152602160248201527f4f726465722077697468207468697320494420616c72656164792065786973746044820152607360f81b6064820152608401610535565b6001600160a01b03861660009081526007602090815260408083208884529091529020600181015484111561195c5760405162461bcd60e51b815260206004820152601c60248201527f496e73756666696369656e7420617661696c61626c652066756e6473000000006044820152606401610535565b6040518060a00160405280858152602001868152602001886001600160a01b03168152602001846001600160a01b03168152602001600060028111156119a4576119a4612d56565b905260008381526008602090815260409091208251815582820151805191926119d59260018501929091019061276a565b506040820151600282810180546001600160a01b03199081166001600160a01b03948516179091556060850151600385018054928316919094169081178455608086015193926001600160a81b03199092161790600160a01b908490811115611a4057611a40612d56565b021790555090505083816001016000828254611a5c91906130d4565b90915550506040517f876de63952f3572464593ba66c6a47e2a98d027d084b98fcd69e035671c06937906110289089908890889088906132cb565b600354600160a01b900460ff1615610a465760405162461bcd60e51b815260206004820152601060248201526f14185d5cd8589b194e881c185d5cd95960821b6044820152606401610535565b6001600160a01b038316611b2f5760405162461bcd60e51b815260206004820152601260248201527145524332303a204e696c206164647265737360701b6044820152606401610535565b6001600160a01b0383163b611b7c5760405162461bcd60e51b8152602060048201526013602482015272115490cc8c0e881153d0481c1c9bdd9a591959606a1b6044820152606401610535565b604080516001600160a01b038481166024830152604480830185905283518084039091018152606490920183526020820180516001600160e01b031663a9059cbb60e01b1790529151600092839290871691611bd89190613061565b6000604051808303816000865af19150503d8060008114611c15576040519150601f19603f3d011682016040523d82523d6000602084013e611c1a565b606091505b5091509150818015611c44575080511580611c44575080806020019051810190611c449190613306565b6109475760405162461bcd60e51b815260206004820152602760248201527f496e746572616374696f6e2077697468207468652073706f7420746f6b656e206044820152663330b4b632b21760c91b6064820152608401610535565b8151835114611d025760405162461bcd60e51b815260206004820152602860248201527f455243313135353a2069647320616e6420616d6f756e7473206c656e677468206044820152670dad2e6dac2e8c6d60c31b6064820152608401610535565b6001600160a01b038416611d285760405162461bcd60e51b815260040161053590613323565b3360005b8451811015611e0f576000858281518110611d4957611d49613165565b602002602001015190506000858381518110611d6757611d67613165565b602090810291909101810151600084815280835260408082206001600160a01b038e168352909352919091205490915081811015611db75760405162461bcd60e51b815260040161053590613368565b6000838152602081815260408083206001600160a01b038e8116855292528083208585039055908b16825281208054849290611df49084906131f3565b9250508190555050505080611e089061317b565b9050611d2c565b50846001600160a01b0316866001600160a01b0316826001600160a01b03167f4a39dc06d4c0dbc64b70af90fd698a233a518aa5d07e595d983b8c0526c8f7fb8787604051611e5f9291906133b2565b60405180910390a4611e7581878787878761249a565b505050505050565b6003546001600160a01b03163314610a465760405162461bcd60e51b815260206004820181905260248201527f4f776e61626c653a2063616c6c6572206973206e6f7420746865206f776e65726044820152606401610535565b611edf612605565b6003805460ff60a01b191690557f5db9ee0a495bf2e6ff9c91a7834c1ba4fdd244a5e8aa4e537bd38aeae4b073aa335b6040516001600160a01b03909116815260200160405180910390a1565b600380546001600160a01b038381166001600160a01b0319831681179093556040519116919082907f8be0079c531659141344cd1fd0a4f28419497f9722a3daafe3b4186f6b6457e090600090a35050565b611f86611a97565b6003805460ff60a01b1916600160a01b1790557f62e78cea01bee320cd4e420270b5ea74000d11b0c9f74754ebdbfc544b05a258611f0f3390565b816001600160a01b0316836001600160a01b031614156120355760405162461bcd60e51b815260206004820152602960248201527f455243313135353a2073657474696e6720617070726f76616c20737461747573604482015268103337b91039b2b63360b91b6064820152608401610535565b6001600160a01b03838116600081815260016020908152604080832094871680845294825291829020805460ff191686151590811790915591519182527f17307eab39ab6107e8899845ad3d59bd9653f200f220920489ca2b5937696c31910160405180910390a3505050565b6001600160a01b0384166120ed5760405162461bcd60e51b815260206004820152601260248201527145524332303a204e696c206164647265737360701b6044820152606401610535565b6001600160a01b0384163b61213a5760405162461bcd60e51b8152602060048201526013602482015272115490cc8c0e881153d0481c1c9bdd9a591959606a1b6044820152606401610535565b604080516001600160a01b0385811660248301528481166044830152606480830185905283518084039091018152608490920183526020820180516001600160e01b03166323b872dd60e01b179052915160009283929088169161219e9190613061565b6000604051808303816000865af19150503d80600081146121db576040519150601f19603f3d011682016040523d82523d6000602084013e6121e0565b606091505b509150915081801561220a57508051158061220a57508080602001905181019061220a9190613306565b611e755760405162461bcd60e51b815260206004820152602660248201527f45524332303a20496e737566666963656e742062616c616e6365206f722061706044820152651c1c9bdd985b60d21b6064820152608401610535565b6001600160a01b0384166122c55760405162461bcd60e51b815260206004820152602160248201527f455243313135353a206d696e7420746f20746865207a65726f206164647265736044820152607360f81b6064820152608401610535565b3360006122d185612655565b905060006122de85612655565b90506000868152602081815260408083206001600160a01b038b168452909152812080548792906123109084906131f3565b909155505060408051878152602081018790526001600160a01b03808a1692600092918716917fc3d58168c5ae7397731d063d5bbf3d657854427343f4c083240f7aacaa2d0f62910160405180910390a4611418836000898989896126a0565b6001600160a01b0384166123965760405162461bcd60e51b815260040161053590613323565b3360006123a285612655565b905060006123af85612655565b90506000868152602081815260408083206001600160a01b038c168452909152902054858110156123f25760405162461bcd60e51b815260040161053590613368565b6000878152602081815260408083206001600160a01b038d8116855292528083208985039055908a1682528120805488929061242f9084906131f3565b909155505060408051888152602081018890526001600160a01b03808b16928c821692918816917fc3d58168c5ae7397731d063d5bbf3d657854427343f4c083240f7aacaa2d0f62910160405180910390a461248f848a8a8a8a8a6126a0565b505050505050505050565b6001600160a01b0384163b15611e755760405163bc197c8160e01b81526001600160a01b0385169063bc197c81906124de90899089908890889088906004016133e0565b602060405180830381600087803b1580156124f857600080fd5b505af1925050508015612528575060408051601f3d908101601f191682019092526125259181019061343e565b60015b6125d55761253461345b565b806308c379a0141561256e5750612549613477565b806125545750612570565b8060405162461bcd60e51b815260040161053591906128f8565b505b60405162461bcd60e51b815260206004820152603460248201527f455243313135353a207472616e7366657220746f206e6f6e2d455243313135356044820152732932b1b2b4bb32b91034b6b83632b6b2b73a32b960611b6064820152608401610535565b6001600160e01b0319811663bc197c8160e01b146114185760405162461bcd60e51b815260040161053590613500565b600354600160a01b900460ff16610a465760405162461bcd60e51b815260206004820152601460248201527314185d5cd8589b194e881b9bdd081c185d5cd95960621b6044820152606401610535565b6040805160018082528183019092526060916000919060208083019080368337019050509050828160008151811061268f5761268f613165565b602090810291909101015292915050565b6001600160a01b0384163b15611e755760405163f23a6e6160e01b81526001600160a01b0385169063f23a6e61906126e49089908990889088908890600401613548565b602060405180830381600087803b1580156126fe57600080fd5b505af192505050801561272e575060408051601f3d908101601f1916820190925261272b9181019061343e565b60015b61273a5761253461345b565b6001600160e01b0319811663f23a6e6160e01b146114185760405162461bcd60e51b815260040161053590613500565b8280546127769061320b565b90600052602060002090601f01602090048101928261279857600085556127de565b82601f106127b157805160ff19168380011785556127de565b828001600101855582156127de579182015b828111156127de5782518255916020019190600101906127c3565b506127ea9291506127ee565b5090565b5b808211156127ea57600081556001016127ef565b80356001600160a01b038116811461281a57600080fd5b919050565b6000806040838503121561283257600080fd5b61283b83612803565b946020939093013593505050565b6001600160e01b03198116811461171d57600080fd5b60006020828403121561287157600080fd5b813561287c81612849565b9392505050565b60006020828403121561289557600080fd5b5035919050565b60005b838110156128b757818101518382015260200161289f565b838111156128c6576000848401525b50505050565b600081518084526128e481602086016020860161289c565b601f01601f19169290920160200192915050565b60208152600061287c60208301846128cc565b634e487b7160e01b600052604160045260246000fd5b601f8201601f191681016001600160401b03811182821017156129465761294661290b565b6040525050565b60006001600160401b038211156129665761296661290b565b50601f01601f191660200190565b600082601f83011261298557600080fd5b81356129908161294d565b60405161299d8282612921565b8281528560208487010111156129b257600080fd5b82602086016020830137600092810160200192909252509392505050565b6000806000606084860312156129e557600080fd5b83356001600160401b038111156129fb57600080fd5b612a0786828701612974565b93505060208401359150612a1d60408501612803565b90509250925092565b60006001600160401b03821115612a3f57612a3f61290b565b5060051b60200190565b600082601f830112612a5a57600080fd5b81356020612a6782612a26565b604051612a748282612921565b83815260059390931b8501820192828101915086841115612a9457600080fd5b8286015b84811015612aaf5780358352918301918301612a98565b509695505050505050565b600080600080600060a08688031215612ad257600080fd5b612adb86612803565b9450612ae960208701612803565b935060408601356001600160401b0380821115612b0557600080fd5b612b1189838a01612a49565b94506060880135915080821115612b2757600080fd5b612b3389838a01612a49565b93506080880135915080821115612b4957600080fd5b50612b5688828901612974565b9150509295509295909350565b600082601f830112612b7457600080fd5b81356020612b8182612a26565b604051612b8e8282612921565b83815260059390931b8501820192828101915086841115612bae57600080fd5b8286015b84811015612aaf57612bc381612803565b8352918301918301612bb2565b60008060408385031215612be357600080fd5b82356001600160401b0380821115612bfa57600080fd5b612c0686838701612b63565b93506020850135915080821115612c1c57600080fd5b50612c2985828601612a49565b9150509250929050565b600081518084526020808501945080840160005b83811015612c6357815187529582019590820190600101612c47565b509495945050505050565b60208152600061287c6020830184612c33565b600060208284031215612c9357600080fd5b61287c82612803565b60008060008060808587031215612cb257600080fd5b843593506020850135925060408501356001600160401b0380821115612cd757600080fd5b612ce388838901612974565b93506060870135915080821115612cf957600080fd5b50612d0687828801612974565b91505092959194509250565b60008060408385031215612d2557600080fd5b82356001600160401b03811115612d3b57600080fd5b612d4785828601612974565b95602094909401359450505050565b634e487b7160e01b600052602160045260246000fd5b85815260a060208201526000612d8560a08301876128cc565b6001600160a01b03868116604085015285166060840152905060038310612dbc57634e487b7160e01b600052602160045260246000fd5b8260808301529695505050505050565b801515811461171d57600080fd5b60008060408385031215612ded57600080fd5b612df683612803565b91506020830135612e0681612dcc565b809150509250929050565b600080600060608486031215612e2657600080fd5b833592506020840135915060408401356001600160401b03811115612e4a57600080fd5b612e5686828701612b63565b9150509250925092565b600080600060608486031215612e7557600080fd5b8335925060208401359150612a1d60408501612803565b60008060408385031215612e9f57600080fd5b612ea883612803565b9150612eb660208401612803565b90509250929050565b600080600080600060a08688031215612ed757600080fd5b612ee086612803565b9450612eee60208701612803565b9350604086013592506060860135915060808601356001600160401b03811115612f1757600080fd5b612b5688828901612974565b600080600080600060a08688031215612f3b57600080fd5b612f4486612803565b94506020860135935060408601356001600160401b03811115612f6657600080fd5b612f7288828901612974565b93505060608601359150612f8860808701612803565b90509295509295909350565b600060208284031215612fa657600080fd5b81516001600160401b03811115612fbc57600080fd5b8201601f81018413612fcd57600080fd5b8051612fd88161294d565b604051612fe58282612921565b828152866020848601011115612ffa57600080fd5b61300b83602083016020870161289c565b9695505050505050565b6020808252602c908201527f596f7520617265206e6f7420617574686f72697a656420746f2063616c6c207460408201526b3434b990333ab731ba34b7b760a11b606082015260800190565b6000825161307381846020870161289c565b9190910192915050565b60208082526021908201527f4f726465722077697468207468697320494420646f6573206e6f7420657869736040820152601d60fa1b606082015260800190565b634e487b7160e01b600052601160045260246000fd5b6000828210156130e6576130e66130be565b500390565b6001600160a01b038316815260406020820181905260009061310f908301846128cc565b949350505050565b6020808252602e908201527f455243313135353a2063616c6c6572206973206e6f7420746f6b656e206f776e60408201526d195c881bdc88185c1c1c9bdd995960921b606082015260800190565b634e487b7160e01b600052603260045260246000fd5b600060001982141561318f5761318f6130be565b5060010190565b85815284602082015260a0604082015260006131b560a08301866128cc565b82810360608401526131c781866128cc565b9150508260808301529695505050505050565b6000602082840312156131ec57600080fd5b5051919050565b60008219821115613206576132066130be565b500190565b600181811c9082168061321f57607f821691505b6020821081141561324057634e487b7160e01b600052602260045260246000fd5b50919050565b6000806040838503121561325957600080fd5b505080516020909101519092909150565b6000816000190483118215151615613284576132846130be565b500290565b60208082526022908201527f4164647265737320616c726561647920686f6c64732074686973206163636f756040820152611b9d60f21b606082015260800190565b600060018060a01b038087168352608060208401526132ed60808401876128cc565b6040840195909552929092166060909101525092915050565b60006020828403121561331857600080fd5b815161287c81612dcc565b60208082526025908201527f455243313135353a207472616e7366657220746f20746865207a65726f206164604082015264647265737360d81b606082015260800190565b6020808252602a908201527f455243313135353a20696e73756666696369656e742062616c616e636520666f60408201526939103a3930b739b332b960b11b606082015260800190565b6040815260006133c56040830185612c33565b82810360208401526133d78185612c33565b95945050505050565b6001600160a01b0386811682528516602082015260a06040820181905260009061340c90830186612c33565b828103606084015261341e8186612c33565b9050828103608084015261343281856128cc565b98975050505050505050565b60006020828403121561345057600080fd5b815161287c81612849565b600060033d11156134745760046000803e5060005160e01c5b90565b600060443d10156134855790565b6040516003193d81016004833e81513d6001600160401b0381602484011181841117156134b457505050505090565b82850191508151818111156134cc5750505050505090565b843d87010160208285010111156134e65750505050505090565b6134f560208286010187612921565b509095945050505050565b60208082526028908201527f455243313135353a204552433131353552656365697665722072656a656374656040820152676420746f6b656e7360c01b606082015260800190565b6001600160a01b03868116825285166020820152604081018490526060810183905260a060808201819052600090613582908301846128cc565b97965050505050505056fea26469706673582212205dc7afa9b6f58874fdb840f6b6491b8996f581f383c0e085c3f055f1d666088a64736f6c6343000809003360a06040526001805534801561001457600080fd5b5061001e33610027565b30608052610077565b600080546001600160a01b038381166001600160a01b0319831681178455604051919092169283917f8be0079c531659141344cd1fd0a4f28419497f9722a3daafe3b4186f6b6457e09190a35050565b608051610b2661009260003960006106860152610b266000f3fe608060405234801561001057600080fd5b50600436106100885760003560e01c80638da5cb5b1161005b5780638da5cb5b146100f6578063c1e0372814610111578063d10424c714610139578063f2fde38b1461015a57600080fd5b80630e89341c1461008d57806348fd09f5146100b65780634e9b17dc146100d9578063715018a6146100ee575b600080fd5b6100a061009b3660046107dc565b61016d565b6040516100ad91906107f5565b60405180910390f35b6100c96100c4366004610891565b610246565b60405190151581526020016100ad565b6100ec6100e73660046109a7565b6102e8565b005b6100ec610499565b6000546040516001600160a01b0390911681526020016100ad565b61012461011f3660046107dc565b6104ad565b604080519283526020830191909152016100ad565b61014c6101473660046107dc565b610521565b6040519081526020016100ad565b6100ec610168366004610a26565b6105a8565b600081815260026020526040902060010154606090421061022957600082815260026020526040902060030180546101a490610a56565b80601f01602080910402602001604051908101604052809291908181526020018280546101d090610a56565b801561021d5780601f106101f25761010080835404028352916020019161021d565b820191906000526020600020905b81548152906001019060200180831161020057829003601f168201915b50505050509050919050565b60008281526002602081905260409091200180546101a490610a56565b6000805b82518110156102df576002600084838151811061026957610269610a91565b60200260200101518152602001908152602001600020600101544211806102bf5750600260008483815181106102a1576102a1610a91565b60200260200101518152602001908152602001600020600001546000145b156102cd5750600092915050565b806102d781610abd565b91505061024a565b50600192915050565b6102f0610621565b6102f861067b565b808411156103465760405162461bcd60e51b8152602060048201526016602482015275496e76616c696420746f6b656e206578706972792d3160501b60448201526064015b60405180910390fd5b42841161038e5760405162461bcd60e51b815260206004820152601660248201527524b73b30b634b2103a37b5b2b71032bc3834b93c969960511b604482015260640161033d565b846103ce5760405162461bcd60e51b815260206004820152601060248201526f053706f7420616d6f756e7420697320360841b604482015260640161033d565b6001805460009081526002602081815260408084208a90558454845280842085018990559354835292909120855161040e93919092019190860190610743565b506001546000908152600260209081526040909120835161043792600390920191850190610743565b50600154604080519182526020820187905281018590527feb74f27fcf6869d91bf51661e42dd9d20227b00afaab5c59243a0140a69784c49060600160405180910390a1600180600082825461048d9190610ad8565b90915550505050505050565b6104a1610621565b6104ab60006106f3565b565b60008181526002602052604081205481906105055760405162461bcd60e51b815260206004820152601860248201527750424d3a20496e76616c696420546f6b656e20496428732960401b604482015260640161033d565b5050600090815260026020526040902080546001909101549091565b6000818152600260205260408120541580159061054e575060008281526002602052604090206001015442105b6105955760405162461bcd60e51b815260206004820152601860248201527750424d3a20496e76616c696420546f6b656e20496428732960401b604482015260640161033d565b5060009081526002602052604090205490565b6105b0610621565b6001600160a01b0381166106155760405162461bcd60e51b815260206004820152602660248201527f4f776e61626c653a206e6577206f776e657220697320746865207a65726f206160448201526564647265737360d01b606482015260840161033d565b61061e816106f3565b50565b6000546001600160a01b031633146104ab5760405162461bcd60e51b815260206004820181905260248201527f4f776e61626c653a2063616c6c6572206973206e6f7420746865206f776e6572604482015260640161033d565b306001600160a01b037f000000000000000000000000000000000000000000000000000000000000000016146104ab5760405162461bcd60e51b815260206004820152601960248201527f44656c65676174652063616c6c73207265737472696374656400000000000000604482015260640161033d565b600080546001600160a01b038381166001600160a01b0319831681178455604051919092169283917f8be0079c531659141344cd1fd0a4f28419497f9722a3daafe3b4186f6b6457e09190a35050565b82805461074f90610a56565b90600052602060002090601f01602090048101928261077157600085556107b7565b82601f1061078a57805160ff19168380011785556107b7565b828001600101855582156107b7579182015b828111156107b757825182559160200191906001019061079c565b506107c39291506107c7565b5090565b5b808211156107c357600081556001016107c8565b6000602082840312156107ee57600080fd5b5035919050565b600060208083528351808285015260005b8181101561082257858101830151858201604001528201610806565b81811115610834576000604083870101525b50601f01601f1916929092016040019392505050565b634e487b7160e01b600052604160045260246000fd5b604051601f8201601f1916810167ffffffffffffffff811182821017156108895761088961084a565b604052919050565b600060208083850312156108a457600080fd5b823567ffffffffffffffff808211156108bc57600080fd5b818501915085601f8301126108d057600080fd5b8135818111156108e2576108e261084a565b8060051b91506108f3848301610860565b818152918301840191848101908884111561090d57600080fd5b938501935b8385101561092b57843582529385019390850190610912565b98975050505050505050565b600082601f83011261094857600080fd5b813567ffffffffffffffff8111156109625761096261084a565b610975601f8201601f1916602001610860565b81815284602083860101111561098a57600080fd5b816020850160208301376000918101602001919091529392505050565b600080600080600060a086880312156109bf57600080fd5b8535945060208601359350604086013567ffffffffffffffff808211156109e557600080fd5b6109f189838a01610937565b94506060880135915080821115610a0757600080fd5b50610a1488828901610937565b95989497509295608001359392505050565b600060208284031215610a3857600080fd5b81356001600160a01b0381168114610a4f57600080fd5b9392505050565b600181811c90821680610a6a57607f821691505b60208210811415610a8b57634e487b7160e01b600052602260045260246000fd5b50919050565b634e487b7160e01b600052603260045260246000fd5b634e487b7160e01b600052601160045260246000fd5b6000600019821415610ad157610ad1610aa7565b5060010190565b60008219821115610aeb57610aeb610aa7565b50019056fea2646970667358221220b3ab6dd7384fe9502218c1c1215267d23a1d4a388553c563401e4c5b24e8ab4164736f6c63430008090033",
  "devdoc": {
    "kind": "dev",
    "methods": {
      "balanceOf(address,uint256)": {
        "details": "See {IERC1155-balanceOf}. Requirements: - `account` cannot be the zero address."
      },
      "balanceOfBatch(address[],uint256[])": {
        "details": "See {IERC1155-balanceOfBatch}. Requirements: - `accounts` and `ids` must have the same length."
      },
      "createPBMTokenType(uint256,uint256,string,string)": {
        "details": "See {IPBM-createPBMTokenType}. Requirements: - caller must be owner - contract must not be expired - `tokenExpiry` must be less than contract expiry - `amount` should not be 0"
      },
      "getTokenDetails(uint256)": {
        "details": "See {IPBM-getTokenDetails}."
      },
      "initialise(address,uint256)": {
        "params": {
          "_expiry": "contract wide expiry ( in epoch )",
          "_spotToken": "address of the underlying ERC20 token"
        }
      },
      "isApprovedForAll(address,address)": {
        "details": "See {IERC1155-isApprovedForAll}."
      },
      "mint(uint256,uint256,address)": {
        "details": "See {IPBM-mint}.      IMPT: Before minting, the caller should approve the contract address to spend ERC-20 tokens on behalf of the caller.       This can be done by calling the `approve` or `increaseMinterAllowance` functions of the ERC-20 contract and specifying `_spender` to be the PBM contract address.  Ref : https://eips.ethereum.org/EIPS/eip-20 WARNING: Any contracts that externally call these mint() and batchMint() functions should implement some sort of reentrancy guard procedure (such as OpenZeppelin's ReentrancyGuard). Requirements: - contract must not be paused - tokens must not be expired - `tokenId` should be a valid id that has already been created - caller should have the necessary amount of the ERC-20 tokens required to mint - caller should have approved the PBM contract to spend the ERC-20 tokens - receiver should not be blacklisted"
      },
      "owner()": {
        "details": "Returns the address of the current owner."
      },
      "pause()": {
        "details": "see {Pausable _pause} Requirements : - caller should be owner"
      },
      "paused()": {
        "details": "Returns true if the contract is paused, and false otherwise."
      },
      "renounceOwnership()": {
        "details": "Leaves the contract without owner. It will not be possible to call `onlyOwner` functions. Can only be called by the current owner. NOTE: Renouncing ownership will leave the contract without an owner, thereby disabling any functionality that is only available to the owner."
      },
      "revokePBM()": {
        "details": "See {IPBM-revokePBM}. Requirements: - caller must be the owner of the contract - token must be expired"
      },
      "safeBatchTransferFrom(address,address,uint256[],uint256[],bytes)": {
        "details": "See {IERC1155-safeBatchTransferFrom}."
      },
      "safeTransferFrom(address,address,uint256,uint256,bytes)": {
        "details": "See {IERC1155-safeTransferFrom}."
      },
      "setApprovalForAll(address,bool)": {
        "details": "See {IERC1155-setApprovalForAll}."
      },
      "supportsInterface(bytes4)": {
        "details": "See {IERC165-supportsInterface}."
      },
      "transferOwnership(address)": {
        "details": "Transfers ownership of the contract to a new account (`newOwner`). Can only be called by the current owner."
      },
      "unpause()": {
        "details": "see {Pausable _unpause} Requirements : - caller should be owner"
      },
      "uri(uint256)": {
        "details": "See {IPBM-uri}."
      }
    },
    "version": 1
  },
  "userdoc": {
    "events": {
      "PBMrevokeWithdraw(address,address,uint256)": {
        "notice": "Emitted when a PBM type creator withdraws the underlying ERC-20 tokens from all the remaining expired PBMs"
      }
    },
    "kind": "user",
    "methods": {
      "initialise(address,uint256)": {
        "notice": "sets the address of the underlying ERC20 token, Contract Expiry, and the address of pbm address list"
      }
    },
    "version": 1
  },
  "storageLayout": {
    "storage": [
      {
        "astId": 249,
        "contract": "contracts/PBM.sol:PBM",
        "label": "_balances",
        "offset": 0,
        "slot": "0",
        "type": "t_mapping(t_uint256,t_mapping(t_address,t_uint256))"
      },
      {
        "astId": 255,
        "contract": "contracts/PBM.sol:PBM",
        "label": "_operatorApprovals",
        "offset": 0,
        "slot": "1",
        "type": "t_mapping(t_address,t_mapping(t_address,t_bool))"
      },
      {
        "astId": 257,
        "contract": "contracts/PBM.sol:PBM",
        "label": "_uri",
        "offset": 0,
        "slot": "2",
        "type": "t_string_storage"
      },
      {
        "astId": 7,
        "contract": "contracts/PBM.sol:PBM",
        "label": "_owner",
        "offset": 0,
        "slot": "3",
        "type": "t_address"
      },
      {
        "astId": 133,
        "contract": "contracts/PBM.sol:PBM",
        "label": "_paused",
        "offset": 20,
        "slot": "3",
        "type": "t_bool"
      },
      {
        "astId": 4242,
        "contract": "contracts/PBM.sol:PBM",
        "label": "spotToken",
        "offset": 0,
        "slot": "4",
        "type": "t_address"
      },
      {
        "astId": 4248,
        "contract": "contracts/PBM.sol:PBM",
        "label": "pbmTokenManager",
        "offset": 0,
        "slot": "5",
        "type": "t_address"
      },
      {
        "astId": 4251,
        "contract": "contracts/PBM.sol:PBM",
        "label": "initialised",
        "offset": 20,
        "slot": "5",
        "type": "t_bool"
      },
      {
        "astId": 4253,
        "contract": "contracts/PBM.sol:PBM",
        "label": "contractExpiry",
        "offset": 0,
        "slot": "6",
        "type": "t_uint256"
      },
      {
        "astId": 4335,
        "contract": "contracts/PBM.sol:PBM",
        "label": "userBalances",
        "offset": 0,
        "slot": "7",
        "type": "t_mapping(t_address,t_mapping(t_uint256,t_struct(UserBalance)4312_storage))"
      },
      {
        "astId": 4364,
        "contract": "contracts/PBM.sol:PBM",
        "label": "orders",
        "offset": 0,
        "slot": "8",
        "type": "t_mapping(t_bytes32,t_struct(Order)4328_storage)"
      },
      {
        "astId": 4368,
        "contract": "contracts/PBM.sol:PBM",
        "label": "whitelist",
        "offset": 0,
        "slot": "9",
        "type": "t_mapping(t_address,t_bool)"
      }
    ],
    "types": {
      "t_address": {
        "encoding": "inplace",
        "label": "address",
        "numberOfBytes": "20"
      },
      "t_bool": {
        "encoding": "inplace",
        "label": "bool",
        "numberOfBytes": "1"
      },
      "t_bytes32": {
        "encoding": "inplace",
        "label": "bytes32",
        "numberOfBytes": "32"
      },
      "t_enum(OrderStatus)4316": {
        "encoding": "inplace",
        "label": "enum PBM.OrderStatus",
        "numberOfBytes": "1"
      },
      "t_mapping(t_address,t_bool)": {
        "encoding": "mapping",
        "key": "t_address",
        "label": "mapping(address => bool)",
        "numberOfBytes": "32",
        "value": "t_bool"
      },
      "t_mapping(t_address,t_mapping(t_address,t_bool))": {
        "encoding": "mapping",
        "key": "t_address",
        "label": "mapping(address => mapping(address => bool))",
        "numberOfBytes": "32",
        "value": "t_mapping(t_address,t_bool)"
      },
      "t_mapping(t_address,t_mapping(t_uint256,t_struct(UserBalance)4312_storage))": {
        "encoding": "mapping",
        "key": "t_address",
        "label": "mapping(address => mapping(uint256 => struct PBM.UserBalance))",
        "numberOfBytes": "32",
        "value": "t_mapping(t_uint256,t_struct(UserBalance)4312_storage)"
      },
      "t_mapping(t_address,t_uint256)": {
        "encoding": "mapping",
        "key": "t_address",
        "label": "mapping(address => uint256)",
        "numberOfBytes": "32",
        "value": "t_uint256"
      },
      "t_mapping(t_bytes32,t_struct(Order)4328_storage)": {
        "encoding": "mapping",
        "key": "t_bytes32",
        "label": "mapping(bytes32 => struct PBM.Order)",
        "numberOfBytes": "32",
        "value": "t_struct(Order)4328_storage"
      },
      "t_mapping(t_uint256,t_mapping(t_address,t_uint256))": {
        "encoding": "mapping",
        "key": "t_uint256",
        "label": "mapping(uint256 => mapping(address => uint256))",
        "numberOfBytes": "32",
        "value": "t_mapping(t_address,t_uint256)"
      },
      "t_mapping(t_uint256,t_struct(UserBalance)4312_storage)": {
        "encoding": "mapping",
        "key": "t_uint256",
        "label": "mapping(uint256 => struct PBM.UserBalance)",
        "numberOfBytes": "32",
        "value": "t_struct(UserBalance)4312_storage"
      },
      "t_string_storage": {
        "encoding": "bytes",
        "label": "string",
        "numberOfBytes": "32"
      },
      "t_struct(Order)4328_storage": {
        "encoding": "inplace",
        "label": "struct PBM.Order",
        "members": [
          {
            "astId": 4318,
            "contract": "contracts/PBM.sol:PBM",
            "label": "orderValue",
            "offset": 0,
            "slot": "0",
            "type": "t_uint256"
          },
          {
            "astId": 4320,
            "contract": "contracts/PBM.sol:PBM",
            "label": "orderId",
            "offset": 0,
            "slot": "1",
            "type": "t_string_storage"
          },
          {
            "astId": 4322,
            "contract": "contracts/PBM.sol:PBM",
            "label": "customerWallet",
            "offset": 0,
            "slot": "2",
            "type": "t_address"
          },
          {
            "astId": 4324,
            "contract": "contracts/PBM.sol:PBM",
            "label": "fundDisbursementAddress",
            "offset": 0,
            "slot": "3",
            "type": "t_address"
          },
          {
            "astId": 4327,
            "contract": "contracts/PBM.sol:PBM",
            "label": "status",
            "offset": 20,
            "slot": "3",
            "type": "t_enum(OrderStatus)4316"
          }
        ],
        "numberOfBytes": "128"
      },
      "t_struct(UserBalance)4312_storage": {
        "encoding": "inplace",
        "label": "struct PBM.UserBalance",
        "members": [
          {
            "astId": 4309,
            "contract": "contracts/PBM.sol:PBM",
            "label": "walletBalance",
            "offset": 0,
            "slot": "0",
            "type": "t_uint256"
          },
          {
            "astId": 4311,
            "contract": "contracts/PBM.sol:PBM",
            "label": "availableBalance",
            "offset": 0,
            "slot": "1",
            "type": "t_uint256"
          }
        ],
        "numberOfBytes": "64"
      },
      "t_uint256": {
        "encoding": "inplace",
        "label": "uint256",
        "numberOfBytes": "32"
      }
    }
  }
}