{
  "address": "0x80BbAbC822F36Ef1CA6B3cB43B57a1211835e211",
  "abi": [
    {
      "inputs": [],
      "stateMutability": "nonpayable",
      "type": "constructor"
    },
    {
      "anonymous": false,
      "inputs": [
        {
          "indexed": true,
          "internalType": "address",
          "name": "account",
          "type": "address"
        },
        {
          "indexed": true,
          "internalType": "address",
          "name": "operator",
          "type": "address"
        },
        {
          "indexed": false,
          "internalType": "bool",
          "name": "approved",
          "type": "bool"
        }
      ],
      "name": "ApprovalForAll",
      "type": "event"
    },
    {
      "anonymous": false,
      "inputs": [
        {
          "indexed": false,
          "internalType": "address",
          "name": "customer",
          "type": "address"
        },
        {
          "indexed": false,
          "internalType": "uint256",
          "name": "spotAmount",
          "type": "uint256"
        }
      ],
      "name": "FundsAdded",
      "type": "event"
    },
    {
      "anonymous": false,
      "inputs": [
        {
          "indexed": false,
          "internalType": "uint256",
          "name": "tokenId",
          "type": "uint256"
        },
        {
          "indexed": false,
          "internalType": "string",
          "name": "uri",
          "type": "string"
        }
      ],
      "name": "MetadataUpdated",
      "type": "event"
    },
    {
      "anonymous": false,
      "inputs": [
        {
          "indexed": false,
          "internalType": "string",
          "name": "orderId",
          "type": "string"
        }
      ],
      "name": "OrderCanceled",
      "type": "event"
    },
    {
      "anonymous": false,
      "inputs": [
        {
          "indexed": false,
          "internalType": "address",
          "name": "customer",
          "type": "address"
        },
        {
          "indexed": false,
          "internalType": "string",
          "name": "orderId",
          "type": "string"
        },
        {
          "indexed": false,
          "internalType": "uint256",
          "name": "orderValue",
          "type": "uint256"
        },
        {
          "indexed": false,
          "internalType": "address",
          "name": "fundDisbursementAddress",
          "type": "address"
        }
      ],
      "name": "OrderCreated",
      "type": "event"
    },
    {
      "anonymous": false,
      "inputs": [
        {
          "indexed": false,
          "internalType": "address",
          "name": "customer",
          "type": "address"
        },
        {
          "indexed": false,
          "internalType": "string",
          "name": "orderId",
          "type": "string"
        }
      ],
      "name": "OrderRedeemed",
      "type": "event"
    },
    {
      "anonymous": false,
      "inputs": [
        {
          "indexed": true,
          "internalType": "address",
          "name": "previousOwner",
          "type": "address"
        },
        {
          "indexed": true,
          "internalType": "address",
          "name": "newOwner",
          "type": "address"
        }
      ],
      "name": "OwnershipTransferred",
      "type": "event"
    },
    {
      "anonymous": false,
      "inputs": [
        {
          "indexed": false,
          "internalType": "address",
          "name": "beneficiary",
          "type": "address"
        },
        {
          "indexed": false,
          "internalType": "address",
          "name": "ERC20Token",
          "type": "address"
        },
        {
          "indexed": false,
          "internalType": "uint256",
          "name": "ERC20TokenValue",
          "type": "uint256"
        }
      ],
      "name": "PBMrevokeWithdraw",
      "type": "event"
    },
    {
      "anonymous": false,
      "inputs": [
        {
          "indexed": false,
          "internalType": "address",
          "name": "account",
          "type": "address"
        }
      ],
      "name": "Paused",
      "type": "event"
    },
    {
      "anonymous": false,
      "inputs": [
        {
          "indexed": false,
          "internalType": "uint256",
          "name": "tokenId",
          "type": "uint256"
        },
        {
          "indexed": false,
          "internalType": "string",
          "name": "uri",
          "type": "string"
        }
      ],
      "name": "PostExpiryMetadataUpdated",
      "type": "event"
    },
    {
      "anonymous": false,
      "inputs": [
        {
          "indexed": true,
          "internalType": "address",
          "name": "operator",
          "type": "address"
        },
        {
          "indexed": true,
          "internalType": "address",
          "name": "from",
          "type": "address"
        },
        {
          "indexed": true,
          "internalType": "address",
          "name": "to",
          "type": "address"
        },
        {
          "indexed": false,
          "internalType": "uint256[]",
          "name": "ids",
          "type": "uint256[]"
        },
        {
          "indexed": false,
          "internalType": "uint256[]",
          "name": "values",
          "type": "uint256[]"
        }
      ],
      "name": "TransferBatch",
      "type": "event"
    },
    {
      "anonymous": false,
      "inputs": [
        {
          "indexed": true,
          "internalType": "address",
          "name": "operator",
          "type": "address"
        },
        {
          "indexed": true,
          "internalType": "address",
          "name": "from",
          "type": "address"
        },
        {
          "indexed": true,
          "internalType": "address",
          "name": "to",
          "type": "address"
        },
        {
          "indexed": false,
          "internalType": "uint256",
          "name": "id",
          "type": "uint256"
        },
        {
          "indexed": false,
          "internalType": "uint256",
          "name": "value",
          "type": "uint256"
        }
      ],
      "name": "TransferSingle",
      "type": "event"
    },
    {
      "anonymous": false,
      "inputs": [
        {
          "indexed": false,
          "internalType": "string",
          "name": "value",
          "type": "string"
        },
        {
          "indexed": true,
          "internalType": "uint256",
          "name": "id",
          "type": "uint256"
        }
      ],
      "name": "URI",
      "type": "event"
    },
    {
      "anonymous": false,
      "inputs": [
        {
          "indexed": false,
          "internalType": "address",
          "name": "account",
          "type": "address"
        }
      ],
      "name": "Unpaused",
      "type": "event"
    },
    {
      "anonymous": false,
      "inputs": [
        {
          "indexed": true,
          "internalType": "address",
          "name": "user",
          "type": "address"
        },
        {
          "indexed": false,
          "internalType": "uint256",
          "name": "tokenId",
          "type": "uint256"
        },
        {
          "indexed": false,
          "internalType": "uint256",
          "name": "newWalletBalance",
          "type": "uint256"
        },
        {
          "indexed": false,
          "internalType": "uint256",
          "name": "newAvailableBalance",
          "type": "uint256"
        }
      ],
      "name": "UserBalanceUpdated",
      "type": "event"
    },
    {
      "inputs": [
        {
          "internalType": "address",
          "name": "account",
          "type": "address"
        }
      ],
      "name": "addToWhitelist",
      "outputs": [],
      "stateMutability": "nonpayable",
      "type": "function"
    },
    {
      "inputs": [
        {
          "internalType": "uint256",
          "name": "tokenId",
          "type": "uint256"
        },
        {
          "internalType": "uint256",
          "name": "spotAmount",
          "type": "uint256"
        },
        {
          "internalType": "address",
          "name": "recipientAddress",
          "type": "address"
        }
      ],
      "name": "addUserBalance",
      "outputs": [],
      "stateMutability": "nonpayable",
      "type": "function"
    },
    {
      "inputs": [
        {
          "internalType": "address",
          "name": "account",
          "type": "address"
        },
        {
          "internalType": "uint256",
          "name": "id",
          "type": "uint256"
        },
        {
          "internalType": "uint256",
          "name": "amount",
          "type": "uint256"
        }
      ],
      "name": "adminBurn",
      "outputs": [],
      "stateMutability": "nonpayable",
      "type": "function"
    },
    {
      "inputs": [
        {
          "internalType": "address",
          "name": "account",
          "type": "address"
        },
        {
          "internalType": "uint256",
          "name": "id",
          "type": "uint256"
        }
      ],
      "name": "balanceOf",
      "outputs": [
        {
          "internalType": "uint256",
          "name": "",
          "type": "uint256"
        }
      ],
      "stateMutability": "view",
      "type": "function"
    },
    {
      "inputs": [
        {
          "internalType": "address[]",
          "name": "accounts",
          "type": "address[]"
        },
        {
          "internalType": "uint256[]",
          "name": "ids",
          "type": "uint256[]"
        }
      ],
      "name": "balanceOfBatch",
      "outputs": [
        {
          "internalType": "uint256[]",
          "name": "",
          "type": "uint256[]"
        }
      ],
      "stateMutability": "view",
      "type": "function"
    },
    {
      "inputs": [
        {
          "internalType": "string",
          "name": "orderId",
          "type": "string"
        },
        {
          "internalType": "uint256",
          "name": "tokenId",
          "type": "uint256"
        }
      ],
      "name": "cancelOrder",
      "outputs": [],
      "stateMutability": "nonpayable",
      "type": "function"
    },
    {
      "inputs": [],
      "name": "contractExpiry",
      "outputs": [
        {
          "internalType": "uint256",
          "name": "",
          "type": "uint256"
        }
      ],
      "stateMutability": "view",
      "type": "function"
    },
    {
      "inputs": [
        {
          "internalType": "address",
          "name": "customerWalletAddr",
          "type": "address"
        },
        {
          "internalType": "uint256",
          "name": "tokenId",
          "type": "uint256"
        },
        {
          "internalType": "string",
          "name": "orderId",
          "type": "string"
        },
        {
          "internalType": "uint256",
          "name": "orderValue",
          "type": "uint256"
        },
        {
          "internalType": "address",
          "name": "fundDisbursementAddr",
          "type": "address"
        }
      ],
      "name": "createOrder",
      "outputs": [],
      "stateMutability": "nonpayable",
      "type": "function"
    },
    {
      "inputs": [
        {
          "internalType": "address",
          "name": "grabWalletAddr",
          "type": "address"
        },
        {
          "internalType": "uint256",
          "name": "tokenId",
          "type": "uint256"
        },
        {
          "internalType": "string",
          "name": "orderId",
          "type": "string"
        },
        {
          "internalType": "uint256",
          "name": "orderValue",
          "type": "uint256"
        },
        {
          "internalType": "address",
          "name": "fundDisbursementAddr",
          "type": "address"
        }
      ],
      "name": "createOrderGrab",
      "outputs": [],
      "stateMutability": "nonpayable",
      "type": "function"
    },
    {
      "inputs": [
        {
          "internalType": "uint256",
          "name": "spotAmount",
          "type": "uint256"
        },
        {
          "internalType": "uint256",
          "name": "tokenExpiry",
          "type": "uint256"
        },
        {
          "internalType": "string",
          "name": "tokenURI",
          "type": "string"
        },
        {
          "internalType": "string",
          "name": "postExpiryURI",
          "type": "string"
        }
      ],
      "name": "createPBMTokenType",
      "outputs": [],
      "stateMutability": "nonpayable",
      "type": "function"
    },
    {
      "inputs": [
        {
          "internalType": "uint256",
          "name": "tokenId",
          "type": "uint256"
        }
      ],
      "name": "getTokenDetails",
      "outputs": [
        {
          "internalType": "uint256",
          "name": "",
          "type": "uint256"
        },
        {
          "internalType": "uint256",
          "name": "",
          "type": "uint256"
        }
      ],
      "stateMutability": "view",
      "type": "function"
    },
    {
      "inputs": [
        {
          "internalType": "address",
          "name": "user",
          "type": "address"
        },
        {
          "internalType": "uint256",
          "name": "tokenId",
          "type": "uint256"
        }
      ],
      "name": "getUserBalance",
      "outputs": [
        {
          "components": [
            {
              "internalType": "uint256",
              "name": "walletBalance",
              "type": "uint256"
            },
            {
              "internalType": "uint256",
              "name": "availableBalance",
              "type": "uint256"
            }
          ],
          "internalType": "struct IPBM.UserBalance",
          "name": "userBalance",
          "type": "tuple"
        }
      ],
      "stateMutability": "view",
      "type": "function"
    },
    {
      "inputs": [
        {
          "internalType": "address",
          "name": "_spotToken",
          "type": "address"
        },
        {
          "internalType": "uint256",
          "name": "_expiry",
          "type": "uint256"
        }
      ],
      "name": "initialise",
      "outputs": [],
      "stateMutability": "nonpayable",
      "type": "function"
    },
    {
      "inputs": [
        {
          "internalType": "address",
          "name": "account",
          "type": "address"
        },
        {
          "internalType": "address",
          "name": "operator",
          "type": "address"
        }
      ],
      "name": "isApprovedForAll",
      "outputs": [
        {
          "internalType": "bool",
          "name": "",
          "type": "bool"
        }
      ],
      "stateMutability": "view",
      "type": "function"
    },
    {
      "inputs": [
        {
          "internalType": "uint256",
          "name": "tokenId",
          "type": "uint256"
        },
        {
          "internalType": "uint256",
          "name": "amount",
          "type": "uint256"
        },
        {
          "internalType": "address",
          "name": "recipientAddress",
          "type": "address"
        }
      ],
      "name": "mint",
      "outputs": [],
      "stateMutability": "nonpayable",
      "type": "function"
    },
    {
      "inputs": [
        {
          "internalType": "uint256",
          "name": "tokenId",
          "type": "uint256"
        },
        {
          "internalType": "uint256",
          "name": "amount",
          "type": "uint256"
        },
        {
          "internalType": "address[]",
          "name": "recipientAddresses",
          "type": "address[]"
        }
      ],
      "name": "mintBatch",
      "outputs": [],
      "stateMutability": "nonpayable",
      "type": "function"
    },
    {
      "inputs": [
        {
          "internalType": "bytes32",
          "name": "",
          "type": "bytes32"
        }
      ],
      "name": "orders",
      "outputs": [
        {
          "internalType": "uint256",
          "name": "orderValue",
          "type": "uint256"
        },
        {
          "internalType": "string",
          "name": "orderId",
          "type": "string"
        },
        {
          "internalType": "address",
          "name": "customerWallet",
          "type": "address"
        },
        {
          "internalType": "address",
          "name": "fundDisbursementAddress",
          "type": "address"
        },
        {
          "internalType": "enum PBM.OrderStatus",
          "name": "status",
          "type": "uint8"
        }
      ],
      "stateMutability": "view",
      "type": "function"
    },
    {
      "inputs": [],
      "name": "owner",
      "outputs": [
        {
          "internalType": "address",
          "name": "",
          "type": "address"
        }
      ],
      "stateMutability": "view",
      "type": "function"
    },
    {
      "inputs": [],
      "name": "pause",
      "outputs": [],
      "stateMutability": "nonpayable",
      "type": "function"
    },
    {
      "inputs": [],
      "name": "paused",
      "outputs": [
        {
          "internalType": "bool",
          "name": "",
          "type": "bool"
        }
      ],
      "stateMutability": "view",
      "type": "function"
    },
    {
      "inputs": [],
      "name": "pbmTokenManager",
      "outputs": [
        {
          "internalType": "address",
          "name": "",
          "type": "address"
        }
      ],
      "stateMutability": "view",
      "type": "function"
    },
    {
      "inputs": [
        {
          "internalType": "address",
          "name": "_token",
          "type": "address"
        }
      ],
      "name": "recoverAllERC20",
      "outputs": [],
      "stateMutability": "nonpayable",
      "type": "function"
    },
    {
      "inputs": [
        {
          "internalType": "address",
          "name": "_token",
          "type": "address"
        },
        {
          "internalType": "uint256",
          "name": "amount",
          "type": "uint256"
        }
      ],
      "name": "recoverERC20",
      "outputs": [],
      "stateMutability": "nonpayable",
      "type": "function"
    },
    {
      "inputs": [
        {
          "internalType": "string",
          "name": "orderId",
          "type": "string"
        },
        {
          "internalType": "uint256",
          "name": "tokenId",
          "type": "uint256"
        },
        {
          "internalType": "address",
          "name": "userWallet",
          "type": "address"
        }
      ],
      "name": "redeemOrder",
      "outputs": [],
      "stateMutability": "nonpayable",
      "type": "function"
    },
    {
      "inputs": [
        {
          "internalType": "address",
          "name": "account",
          "type": "address"
        }
      ],
      "name": "removeFromWhitelist",
      "outputs": [],
      "stateMutability": "nonpayable",
      "type": "function"
    },
    {
      "inputs": [],
      "name": "renounceOwnership",
      "outputs": [],
      "stateMutability": "nonpayable",
      "type": "function"
    },
    {
      "inputs": [],
      "name": "revokePBM",
      "outputs": [],
      "stateMutability": "nonpayable",
      "type": "function"
    },
    {
      "inputs": [
        {
          "internalType": "address",
          "name": "from",
          "type": "address"
        },
        {
          "internalType": "address",
          "name": "to",
          "type": "address"
        },
        {
          "internalType": "uint256[]",
          "name": "tokenIds",
          "type": "uint256[]"
        },
        {
          "internalType": "uint256[]",
          "name": "transferAmounts",
          "type": "uint256[]"
        },
        {
          "internalType": "bytes",
          "name": "data",
          "type": "bytes"
        }
      ],
      "name": "safeBatchTransferFrom",
      "outputs": [],
      "stateMutability": "nonpayable",
      "type": "function"
    },
    {
      "inputs": [
        {
          "internalType": "address",
          "name": "from",
          "type": "address"
        },
        {
          "internalType": "address",
          "name": "to",
          "type": "address"
        },
        {
          "internalType": "uint256",
          "name": "tokenId",
          "type": "uint256"
        },
        {
          "internalType": "uint256",
          "name": "transferAmount",
          "type": "uint256"
        },
        {
          "internalType": "bytes",
          "name": "data",
          "type": "bytes"
        }
      ],
      "name": "safeTransferFrom",
      "outputs": [],
      "stateMutability": "nonpayable",
      "type": "function"
    },
    {
      "inputs": [
        {
          "internalType": "address",
          "name": "operator",
          "type": "address"
        },
        {
          "internalType": "bool",
          "name": "approved",
          "type": "bool"
        }
      ],
      "name": "setApprovalForAll",
      "outputs": [],
      "stateMutability": "nonpayable",
      "type": "function"
    },
    {
      "inputs": [],
      "name": "spotToken",
      "outputs": [
        {
          "internalType": "address",
          "name": "",
          "type": "address"
        }
      ],
      "stateMutability": "view",
      "type": "function"
    },
    {
      "inputs": [
        {
          "internalType": "bytes4",
          "name": "interfaceId",
          "type": "bytes4"
        }
      ],
      "name": "supportsInterface",
      "outputs": [
        {
          "internalType": "bool",
          "name": "",
          "type": "bool"
        }
      ],
      "stateMutability": "view",
      "type": "function"
    },
    {
      "inputs": [
        {
          "internalType": "address",
          "name": "newOwner",
          "type": "address"
        }
      ],
      "name": "transferOwnership",
      "outputs": [],
      "stateMutability": "nonpayable",
      "type": "function"
    },
    {
      "inputs": [],
      "name": "unpause",
      "outputs": [],
      "stateMutability": "nonpayable",
      "type": "function"
    },
    {
      "inputs": [
        {
          "internalType": "uint256",
          "name": "tokenId",
          "type": "uint256"
        },
        {
          "internalType": "string",
          "name": "postExpiryURI",
          "type": "string"
        }
      ],
      "name": "updatePostExpiryURI",
      "outputs": [],
      "stateMutability": "nonpayable",
      "type": "function"
    },
    {
      "inputs": [
        {
          "internalType": "uint256",
          "name": "tokenId",
          "type": "uint256"
        },
        {
          "internalType": "uint256",
          "name": "expiry",
          "type": "uint256"
        }
      ],
      "name": "updateTokenExpiry",
      "outputs": [],
      "stateMutability": "nonpayable",
      "type": "function"
    },
    {
      "inputs": [
        {
          "internalType": "uint256",
          "name": "tokenId",
          "type": "uint256"
        },
        {
          "internalType": "string",
          "name": "tokenURI",
          "type": "string"
        }
      ],
      "name": "updateTokenURI",
      "outputs": [],
      "stateMutability": "nonpayable",
      "type": "function"
    },
    {
      "inputs": [
        {
          "internalType": "uint256",
          "name": "tokenId",
          "type": "uint256"
        }
      ],
      "name": "uri",
      "outputs": [
        {
          "internalType": "string",
          "name": "",
          "type": "string"
        }
      ],
      "stateMutability": "view",
      "type": "function"
    },
    {
      "inputs": [
        {
          "internalType": "address",
          "name": "",
          "type": "address"
        }
      ],
      "name": "whitelist",
      "outputs": [
        {
          "internalType": "bool",
          "name": "",
          "type": "bool"
        }
      ],
      "stateMutability": "view",
      "type": "function"
    }
  ],
  "transactionHash": "0x8ac31dc9e5af5e7c92fbf2866767f8581520df40b1338797eb54888418e40ada",
  "args": [],
  "numDeployments": 8,
  "solcInputHash": "56bb01618f39efc915b55375ae6e5624",
  "bytecode": "0x6080604052600580546001600160a01b0319169055600680546001600160a81b03191690553480156200003157600080fd5b506040805160208101909152600081526200004c81620000bc565b506200005833620000d5565b6003805460ff60a01b191690556001600455604051620000789062000127565b604051809103906000f08015801562000095573d6000803e3d6000fd5b50600680546001600160a01b0319166001600160a01b039290921691909117905562000218565b8051620000d190600290602084019062000135565b5050565b600380546001600160a01b038381166001600160a01b0319831681179093556040519116919082907f8be0079c531659141344cd1fd0a4f28419497f9722a3daafe3b4186f6b6457e090600090a35050565b610d878062003f9383390190565b8280546200014390620001db565b90600052602060002090601f016020900481019282620001675760008555620001b2565b82601f106200018257805160ff1916838001178555620001b2565b82800160010185558215620001b2579182015b82811115620001b257825182559160200191906001019062000195565b50620001c0929150620001c4565b5090565b5b80821115620001c05760008155600101620001c5565b600181811c90821680620001f057607f821691505b602082108114156200021257634e487b7160e01b600052602260045260246000fd5b50919050565b613d6b80620002286000396000f3fe608060405234801561001057600080fd5b506004361061023c5760003560e01c80638da5cb5b1161013b578063c1e03728116100b8578063e7d3fe6b1161007c578063e7d3fe6b14610536578063e985e9c514610549578063f242432a14610585578063f2fde38b14610598578063f859aec1146105ab57600080fd5b8063c1e03728146104c2578063c270ef24146104ea578063d380d870146104fd578063d8597f5714610510578063e43252d71461052357600080fd5b80639b19251a116100ff5780639b19251a146104425780639c3f1e9014610465578063a22cb46514610489578063a5bfafbe1461049c578063b054b536146104af57600080fd5b80638da5cb5b146103d55780638edb9ae2146103e657806390df7618146103f957806391a9648a146104015780639617e8851461042f57600080fd5b80633f4ba83a116101c9578063715018a61161018d578063715018a6146103965780638456cb591461039e5780638980f11f146103a657806389aba642146103b95780638ab1d681146103c257600080fd5b80633f4ba83a146103365780634e1273f41461033e5780635c975abb1461035e57806363be47d21461037057806371262b621461038357600080fd5b806318e97fd11161021057806318e97fd1146102d55780631b56a5be146102ea578063270ccf2d146102fd5780632eb2c2d6146103105780633b4d206b1461032357600080fd5b8062fdd58e1461024157806301ffc9a7146102675780630ad894621461028a5780630e89341c146102b5575b600080fd5b61025461024f366004613055565b6105be565b6040519081526020015b60405180910390f35b61027a610275366004613095565b610654565b604051901515815260200161025e565b60055461029d906001600160a01b031681565b6040516001600160a01b03909116815260200161025e565b6102c86102c33660046130b9565b6106a6565b60405161025e919061312e565b6102e86102e3366004613206565b610727565b005b6102e86102f836600461324c565b6107d0565b6102e861030b36600461327f565b6107e8565b6102e861031e366004613369565b610abf565b6102e8610331366004613055565b610d41565b6102e8610e29565b61035161034c36600461347f565b610e3b565b60405161025e91906134d8565b600354600160a01b900460ff1661027a565b60065461029d906001600160a01b031681565b6102e861039136600461351c565b610f64565b6102e8610fa8565b6102e8610fba565b6102e86103b4366004613055565b610fca565b61025460075481565b6102e86103d036600461358d565b610fef565b6003546001600160a01b031661029d565b6102e86103f43660046135a8565b611018565b6102e8611091565b61041461040f366004613055565b611188565b6040805182518152602092830151928101929092520161025e565b6102e861043d36600461361e565b6111e3565b61027a61045036600461358d565b600a6020526000908152604090205460ff1681565b6104786104733660046130b9565b61148e565b60405161025e959493929190613678565b6102e86104973660046136e6565b611558565b6102e86104aa36600461371d565b611567565b6102e86104bd36600461358d565b6115d8565b6104d56104d03660046130b9565b611673565b6040805192835260208301919091520161025e565b6102e86104f836600461373f565b6116fc565b6102e861050b36600461378e565b6117e7565b6102e861051e366004613206565b61197f565b6102e861053136600461358d565b611a1c565b6102e861054436600461378e565b611a48565b61027a6105573660046137ba565b6001600160a01b03918216600090815260016020908152604080832093909416825291909152205460ff1690565b6102e86105933660046137ed565b611b0f565b6102e86105a636600461358d565b611cbc565b6102e86105b936600461351c565b611d35565b60006001600160a01b03831661062e5760405162461bcd60e51b815260206004820152602a60248201527f455243313135353a2061646472657373207a65726f206973206e6f742061207660448201526930b634b21037bbb732b960b11b60648201526084015b60405180910390fd5b506000908152602081815260408083206001600160a01b03949094168352929052205490565b60006001600160e01b03198216636cdb3d1360e11b148061068557506001600160e01b031982166303a24d0760e21b145b806106a057506301ffc9a760e01b6001600160e01b03198316145b92915050565b6006546040516303a24d0760e21b8152600481018390526060916001600160a01b031690630e89341c9060240160006040518083038186803b1580156106eb57600080fd5b505afa1580156106ff573d6000803e3d6000fd5b505050506040513d6000823e601f3d908101601f191682016040526106a09190810190613851565b61072f611ddb565b6006546040516318e97fd160e01b81526001600160a01b03909116906318e97fd19061076190859085906004016138d2565b600060405180830381600087803b15801561077b57600080fd5b505af115801561078f573d6000803e3d6000fd5b505050507f459157ba24c7ab9878b165ef465fa6ae2ab42bcd8445f576be378768b0c4730982826040516107c49291906138d2565b60405180910390a15050565b6107d8611ddb565b6107e3838383611e35565b505050565b6107f0611fb6565b336000908152600a602052604090205460ff1661081f5760405162461bcd60e51b8152600401610625906138f3565b82600081604051602001610833919061393f565b60408051601f198184030181529181528151602092830120600081815260099093529120549091506108775760405162461bcd60e51b81526004016106259061395b565b60008560405160200161088a919061393f565b60408051601f198184030181529190528051602090910120905060008082815260096020526040902060030154600160a01b900460ff1660028111156108d2576108d2613662565b1461091f5760405162461bcd60e51b815260206004820152601f60248201527f54686973206f72646572206973206e6f206c6f6e6765722070656e64696e67006044820152606401610625565b6000818152600960209081526040808320546001600160a01b038816845260088352818420898552909252909120805482111561099e5760405162461bcd60e51b815260206004820152601b60248201527f496e73756666696369656e742077616c6c65742062616c616e636500000000006044820152606401610625565b600181015481541015610a195760405162461bcd60e51b815260206004820152603b60248201527f536f6d657468696e672069732077726f6e672c20617661696c61626c6542616c60448201527f616e6365206d75737420626520646564756374656420666972737400000000006064820152608401610625565b81816000016000828254610a2d91906139b2565b909155505060008381526009602052604090206003018054600160a01b60ff60a01b19821617909155600554610a70916001600160a01b03918216911684612003565b610a7c86886001611e35565b7fd0471941026c36b264279f214e4f93d94de41e157f993054018f5bb3cdbe15368689604051610aad9291906139c9565b60405180910390a15050505050505050565b610ac7611fb6565b336000908152600a602052604090205460ff16610af65760405162461bcd60e51b8152600401610625906138f3565b610afe6121bf565b6001600160a01b038416610b245760405162461bcd60e51b8152600401610625906139ed565b6001600160a01b038516331480610b405750610b408533610557565b610b5c5760405162461bcd60e51b815260040161062590613a24565b8151835114610bb95760405162461bcd60e51b8152602060048201526024808201527f546f6b656e49447320616e6420616d6f756e7473206c656e677468206d69736d6044820152630c2e8c6d60e31b6064820152608401610625565b60005b8351811015610d2f576000848281518110610bd957610bd9613a69565b602002602001015190506000848381518110610bf757610bf7613a69565b6020026020010151905080600860008a6001600160a01b03166001600160a01b031681526020019081526020016000206000848152602001908152602001600020600101541015610c865760405162461bcd60e51b8152602060048201526019602482015278496e76616c696420617661696c61626c652062616c616e636560381b6044820152606401610625565b6001600160a01b0388166000908152600860209081526040808320858452909152902054811115610cf25760405162461bcd60e51b8152602060048201526016602482015275496e76616c69642077616c6c65742062616c616e636560501b6044820152606401610625565b610cfc87836105be565b610d0e57610d0e888884600188612219565b610d1a888884846123c4565b50508080610d2790613a7f565b915050610bbc565b50610d3a6001600455565b5050505050565b610d49611ddb565b600654600160a01b900460ff1615610da35760405162461bcd60e51b815260206004820152601860248201527f50424d3a20416c726561647920696e697469616c6973656400000000000000006044820152606401610625565b6001600160a01b0382163b610def5760405162461bcd60e51b815260206004820152601260248201527124b73b30b634b21039b837ba103a37b5b2b760711b6044820152606401610625565b600580546001600160a01b039093166001600160a01b0319909316929092179091556007556006805460ff60a01b1916600160a01b179055565b610e31611ddb565b610e39612580565b565b60608151835114610ea05760405162461bcd60e51b815260206004820152602960248201527f455243313135353a206163636f756e747320616e6420696473206c656e677468604482015268040dad2e6dac2e8c6d60bb1b6064820152608401610625565b600083516001600160401b03811115610ebb57610ebb613141565b604051908082528060200260200182016040528015610ee4578160200160208202803683370190505b50905060005b8451811015610f5c57610f2f858281518110610f0857610f08613a69565b6020026020010151858381518110610f2257610f22613a69565b60200260200101516105be565b828281518110610f4157610f41613a69565b6020908102919091010152610f5581613a7f565b9050610eea565b509392505050565b610f6c611fb6565b336000908152600a602052604090205460ff16610f9b5760405162461bcd60e51b8152600401610625906138f3565b610d3a85858585856125d5565b610fb0611ddb565b610e396000612915565b610fc2611ddb565b610e39612967565b610fd2611ddb565b816107e381610fe96003546001600160a01b031690565b84612003565b610ff7611ddb565b6001600160a01b03166000908152600a60205260409020805460ff19169055565b611020611ddb565b6006546007546040516313a6c5f760e21b81526001600160a01b0390921691634e9b17dc91611059918891889188918891600401613a9a565b600060405180830381600087803b15801561107357600080fd5b505af1158015611087573d6000803e3d6000fd5b5050505050505050565b611099611ddb565b6110a1611fb6565b6005546040516370a0823160e01b81523060048201526001600160a01b039091169060009082906370a082319060240160206040518083038186803b1580156110e957600080fd5b505afa1580156110fd573d6000803e3d6000fd5b505050506040513d601f19601f820116820180604052508101906111219190613ade565b905061113f826111396003546001600160a01b031690565b83612003565b600554604080513381526001600160a01b03909216602083015281018290527fef957a4ccd3a764d8119b98e2f88707e1f467beafd127ebf9e78903159f78ec2906060016107c4565b60408051808201909152600080825260208201526111a4611fb6565b506001600160a01b0382166000908152600860209081526040808320848452825291829020825180840190935280548352600101549082015292915050565b6111eb611fb6565b336000908152600a602052604090205460ff1661121a5760405162461bcd60e51b8152600401610625906138f3565b8160008160405160200161122e919061393f565b60408051601f198184030181529181528151602092830120600081815260099093529120549091506112725760405162461bcd60e51b81526004016106259061395b565b600084604051602001611285919061393f565b60408051601f198184030181529190528051602090910120905060008082815260096020526040902060030154600160a01b900460ff1660028111156112cd576112cd613662565b1461131a5760405162461bcd60e51b815260206004820152601f60248201527f54686973206f72646572206973206e6f206c6f6e6765722070656e64696e67006044820152606401610625565b600081815260096020908152604080832080546002909101546001600160a01b0316845260088352818420888552909252909120600181015461135e908390613af7565b815410156113cc5760405162461bcd60e51b815260206004820152603560248201527f417661696c2062616c616e63652063616e206e657665722062652067726561746044820152746572207468616e2077616c6c657442616c616e636560581b6064820152608401610625565b80546114125760405162461bcd60e51b815260206004820152601560248201527424b73b30b634b2103ab9b2b9103130b630b731b29760591b6044820152606401610625565b6000838152600960205260408120600301805460ff60a01b1916600160a11b179055600182018054849290611448908490613af7565b90915550506040517ff5adc3e725c515c95698d481a1ad428b0305e928eb61dee6d481a6b9fa83179a9061147d90899061312e565b60405180910390a150505050505050565b600960205260009081526040902080546001820180549192916114b090613b0f565b80601f01602080910402602001604051908101604052809291908181526020018280546114dc90613b0f565b80156115295780601f106114fe57610100808354040283529160200191611529565b820191906000526020600020905b81548152906001019060200180831161150c57829003601f168201915b50505050600283015460039093015491926001600160a01b03908116929081169150600160a01b900460ff1685565b6115633383836129aa565b5050565b61156f611ddb565b6006546040516352dfd7df60e11b815260048101849052602481018390526001600160a01b039091169063a5bfafbe90604401600060405180830381600087803b1580156115bc57600080fd5b505af11580156115d0573d6000803e3d6000fd5b505050505050565b6115e0611ddb565b80611563816115f76003546001600160a01b031690565b6040516370a0823160e01b81523060048201526001600160a01b038516906370a082319060240160206040518083038186803b15801561163657600080fd5b505afa15801561164a573d6000803e3d6000fd5b505050506040513d601f19601f8201168201806040525081019061166e9190613ade565b612003565b60065460405163183c06e560e31b81526004810183905260009182916001600160a01b039091169063c1e0372890602401604080518083038186803b1580156116bb57600080fd5b505afa1580156116cf573d6000803e3d6000fd5b505050506040513d601f19601f820116820180604052508101906116f39190613b4a565b91509150915091565b611704611fb6565b61170c611ddb565b805160005b81811015610d3a57600083828151811061172d5761172d613a69565b6020026020010151905060006001600160a01b0316816001600160a01b0316141561176a5760405162461bcd60e51b8152600401610625906139ed565b61177481876105be565b158061179d57506001600160a01b0381166000908152600a602052604090205460ff1615156001145b6117b95760405162461bcd60e51b815260040161062590613b6e565b6117d481878760405180602001604052806000815250612a8b565b50806117df81613a7f565b915050611711565b6117ef611fb6565b6117f7611ddb565b6001600160a01b03811661181d5760405162461bcd60e51b8152600401610625906139ed565b600082116118635760405162461bcd60e51b8152602060048201526013602482015272125b9d985b1a59081cdc1bdd08185b5bdd5b9d606a1b6044820152606401610625565b600061186f82856105be565b116118c85760405162461bcd60e51b8152602060048201526024808201527f526563697069656e7420646f6573206e6f7420686176652074686520746f6b656044820152631b881a5960e21b6064820152608401610625565b6005546118e0906001600160a01b0316333085612b96565b6001600160a01b03811660009081526008602090815260408083208684529091528120805490918491839190611917908490613af7565b92505081905550828160010160008282546119329190613af7565b9091555050604080516001600160a01b0384168152602081018590527f8fe10ae416f22f5e5220b0018a6c1d4ff534d6aa3a471f2a20cb7747fe63e5b9910160405180910390a150505050565b611987611ddb565b60065460405163d8597f5760e01b81526001600160a01b039091169063d8597f57906119b990859085906004016138d2565b600060405180830381600087803b1580156119d357600080fd5b505af11580156119e7573d6000803e3d6000fd5b505050507f438194643e1cdeebc5179a848caf72925ebabd8dc870e23dd55ba0a86fe9c23782826040516107c49291906138d2565b611a24611ddb565b6001600160a01b03166000908152600a60205260409020805460ff19166001179055565b611a50611fb6565b611a58611ddb565b6001600160a01b038116611aa55760405162461bcd60e51b8152602060048201526014602482015273496e76616c69642075736572206164647265737360601b6044820152606401610625565b611aaf81846105be565b1580611ad857506001600160a01b0381166000908152600a602052604090205460ff1615156001145b611af45760405162461bcd60e51b815260040161062590613b6e565b6107e381848460405180602001604052806000815250612a8b565b611b17611fb6565b336000908152600a602052604090205460ff16611b465760405162461bcd60e51b8152600401610625906138f3565b611b4e6121bf565b6001600160a01b038416611b745760405162461bcd60e51b8152600401610625906139ed565b6001600160a01b038516331480611b905750611b908533610557565b611bac5760405162461bcd60e51b815260040161062590613a24565b6001600160a01b0385166000908152600860209081526040808320868452909152902060010154821115611c1e5760405162461bcd60e51b8152602060048201526019602482015278496e76616c696420617661696c61626c652062616c616e636560381b6044820152606401610625565b6001600160a01b0385166000908152600860209081526040808320868452909152902054821115611c8a5760405162461bcd60e51b8152602060048201526016602482015275496e76616c69642077616c6c65742062616c616e636560501b6044820152606401610625565b611c9484846105be565b611ca657611ca6858585600185612219565b611cb2858585856123c4565b610d3a6001600455565b611cc4611ddb565b6001600160a01b038116611d295760405162461bcd60e51b815260206004820152602660248201527f4f776e61626c653a206e6577206f776e657220697320746865207a65726f206160448201526564647265737360d01b6064820152608401610625565b611d3281612915565b50565b611d3d611fb6565b6001600160a01b038516331480611d595750611d598533610557565b610f9b5760405162461bcd60e51b815260206004820152604760248201527f43616c6c6572206973206e6f7420746f6b656e206f776e6572206f722061707060448201527f726f76656420746f20637265617465206f72646572206f6e20626568616c662060648201526637b3103ab9b2b960c91b608482015260a401610625565b6003546001600160a01b03163314610e395760405162461bcd60e51b815260206004820181905260248201527f4f776e61626c653a2063616c6c6572206973206e6f7420746865206f776e65726044820152606401610625565b6001600160a01b038316611e975760405162461bcd60e51b815260206004820152602360248201527f455243313135353a206275726e2066726f6d20746865207a65726f206164647260448201526265737360e81b6064820152608401610625565b336000611ea384612d59565b90506000611eb084612d59565b60408051602080820183526000918290528882528181528282206001600160a01b038b1683529052205490915084811015611f395760405162461bcd60e51b8152602060048201526024808201527f455243313135353a206275726e20616d6f756e7420657863656564732062616c604482015263616e636560e01b6064820152608401610625565b6000868152602081815260408083206001600160a01b038b81168086529184528285208a8703905582518b81529384018a90529092908816917fc3d58168c5ae7397731d063d5bbf3d657854427343f4c083240f7aacaa2d0f62910160405180910390a46040805160208101909152600090525b50505050505050565b600354600160a01b900460ff1615610e395760405162461bcd60e51b815260206004820152601060248201526f14185d5cd8589b194e881c185d5cd95960821b6044820152606401610625565b6001600160a01b03831661204e5760405162461bcd60e51b815260206004820152601260248201527145524332303a204e696c206164647265737360701b6044820152606401610625565b6001600160a01b0383163b61209b5760405162461bcd60e51b8152602060048201526013602482015272115490cc8c0e881153d0481c1c9bdd9a591959606a1b6044820152606401610625565b604080516001600160a01b038481166024830152604480830185905283518084039091018152606490920183526020820180516001600160e01b031663a9059cbb60e01b17905291516000928392908716916120f7919061393f565b6000604051808303816000865af19150503d8060008114612134576040519150601f19603f3d011682016040523d82523d6000602084013e612139565b606091505b50915091508180156121635750805115806121635750808060200190518101906121639190613bd6565b610d3a5760405162461bcd60e51b815260206004820152602760248201527f496e746572616374696f6e2077697468207468652073706f7420746f6b656e206044820152663330b4b632b21760c91b6064820152608401610625565b600260045414156122125760405162461bcd60e51b815260206004820152601f60248201527f5265656e7472616e637947756172643a207265656e7472616e742063616c6c006044820152606401610625565b6002600455565b6001600160a01b03841661227d5760405162461bcd60e51b815260206004820152602560248201527f455243313135353a207472616e7366657220746f20746865207a65726f206164604482015264647265737360d81b6064820152608401610625565b33600061228985612d59565b9050600061229685612d59565b90506000868152602081815260408083206001600160a01b038c1684529091529020548581101561231c5760405162461bcd60e51b815260206004820152602a60248201527f455243313135353a20696e73756666696369656e742062616c616e636520666f60448201526939103a3930b739b332b960b11b6064820152608401610625565b6000878152602081815260408083206001600160a01b038d8116855292528083208985039055908a16825281208054889290612359908490613af7565b909155505060408051888152602081018890526001600160a01b03808b16928c821692918816917fc3d58168c5ae7397731d063d5bbf3d657854427343f4c083240f7aacaa2d0f62910160405180910390a46123b9848a8a8a8a8a612da4565b505050505050505050565b6001600160a01b0384166000908152600860209081526040808320858452909152812080548392906123f79084906139b2565b90915550506001600160a01b0384166000908152600860209081526040808320858452909152812060010180548392906124329084906139b2565b90915550506001600160a01b03831660009081526008602090815260408083208584529091528120805483929061246a908490613af7565b90915550506001600160a01b0383166000908152600860209081526040808320858452909152812060010180548392906124a5908490613af7565b90915550506001600160a01b038416600081815260086020908152604080832086845282529182902080546001909101548351878152928301919091528183015290517ffb3c898a1040275f7df68a6e0b5c83a8cd95ef30093e81cb904903b080424ae99181900360600190a26001600160a01b038316600081815260086020908152604080832086845282529182902080546001909101548351878152928301919091528183015290517ffb3c898a1040275f7df68a6e0b5c83a8cd95ef30093e81cb904903b080424ae99181900360600190a250505050565b612588612f50565b6003805460ff60a01b191690557f5db9ee0a495bf2e6ff9c91a7834c1ba4fdd244a5e8aa4e537bd38aeae4b073aa335b6040516001600160a01b03909116815260200160405180910390a1565b6001600160a01b03851661262b5760405162461bcd60e51b815260206004820152601860248201527f496e76616c696420637573746f6d6572206164647265737300000000000000006044820152606401610625565b600082116126715760405162461bcd60e51b8152602060048201526013602482015272496e76616c6964206f726465722076616c756560681b6044820152606401610625565b6001600160a01b0381166126d15760405162461bcd60e51b815260206004820152602160248201527f496e76616c69642066756e642064697362757273656d656e74206164647265736044820152607360f81b6064820152608401610625565b6000836040516020016126e4919061393f565b60408051601f19818403018152918152815160209283012060008181526009909352912054909150156127635760405162461bcd60e51b815260206004820152602160248201527f4f726465722077697468207468697320494420616c72656164792065786973746044820152607360f81b6064820152608401610625565b6001600160a01b0386166000908152600860209081526040808320888452909152902060018101548411156127da5760405162461bcd60e51b815260206004820152601c60248201527f496e73756666696369656e7420617661696c61626c652066756e6473000000006044820152606401610625565b6040518060a00160405280858152602001868152602001886001600160a01b03168152602001846001600160a01b031681526020016000600281111561282257612822613662565b9052600083815260096020908152604090912082518155828201518051919261285392600185019290910190612fa0565b506040820151600282810180546001600160a01b03199081166001600160a01b03948516179091556060850151600385018054928316919094169081178455608086015193926001600160a81b03199092161790600160a01b9084908111156128be576128be613662565b0217905550905050838160010160008282546128da91906139b2565b90915550506040517f876de63952f3572464593ba66c6a47e2a98d027d084b98fcd69e035671c069379061147d908990889088908890613bf3565b600380546001600160a01b038381166001600160a01b0319831681179093556040519116919082907f8be0079c531659141344cd1fd0a4f28419497f9722a3daafe3b4186f6b6457e090600090a35050565b61296f611fb6565b6003805460ff60a01b1916600160a01b1790557f62e78cea01bee320cd4e420270b5ea74000d11b0c9f74754ebdbfc544b05a2586125b83390565b816001600160a01b0316836001600160a01b03161415612a1e5760405162461bcd60e51b815260206004820152602960248201527f455243313135353a2073657474696e6720617070726f76616c20737461747573604482015268103337b91039b2b63360b91b6064820152608401610625565b6001600160a01b03838116600081815260016020908152604080832094871680845294825291829020805460ff191686151590811790915591519182527f17307eab39ab6107e8899845ad3d59bd9653f200f220920489ca2b5937696c31910160405180910390a3505050565b6001600160a01b038416612aeb5760405162461bcd60e51b815260206004820152602160248201527f455243313135353a206d696e7420746f20746865207a65726f206164647265736044820152607360f81b6064820152608401610625565b336000612af785612d59565b90506000612b0485612d59565b90506000868152602081815260408083206001600160a01b038b16845290915281208054879290612b36908490613af7565b909155505060408051878152602081018790526001600160a01b03808a1692600092918716917fc3d58168c5ae7397731d063d5bbf3d657854427343f4c083240f7aacaa2d0f62910160405180910390a4611fad83600089898989612da4565b6001600160a01b038416612be15760405162461bcd60e51b815260206004820152601260248201527145524332303a204e696c206164647265737360701b6044820152606401610625565b6001600160a01b0384163b612c2e5760405162461bcd60e51b8152602060048201526013602482015272115490cc8c0e881153d0481c1c9bdd9a591959606a1b6044820152606401610625565b604080516001600160a01b0385811660248301528481166044830152606480830185905283518084039091018152608490920183526020820180516001600160e01b03166323b872dd60e01b1790529151600092839290881691612c92919061393f565b6000604051808303816000865af19150503d8060008114612ccf576040519150601f19603f3d011682016040523d82523d6000602084013e612cd4565b606091505b5091509150818015612cfe575080511580612cfe575080806020019051810190612cfe9190613bd6565b6115d05760405162461bcd60e51b815260206004820152602660248201527f45524332303a20496e737566666963656e742062616c616e6365206f722061706044820152651c1c9bdd985b60d21b6064820152608401610625565b60408051600180825281830190925260609160009190602080830190803683370190505090508281600081518110612d9357612d93613a69565b602090810291909101015292915050565b6001600160a01b0384163b156115d05760405163f23a6e6160e01b81526001600160a01b0385169063f23a6e6190612de89089908990889088908890600401613c2e565b602060405180830381600087803b158015612e0257600080fd5b505af1925050508015612e32575060408051601f3d908101601f19168201909252612e2f91810190613c73565b60015b612edf57612e3e613c90565b806308c379a01415612e785750612e53613cac565b80612e5e5750612e7a565b8060405162461bcd60e51b8152600401610625919061312e565b505b60405162461bcd60e51b815260206004820152603460248201527f455243313135353a207472616e7366657220746f206e6f6e2d455243313135356044820152732932b1b2b4bb32b91034b6b83632b6b2b73a32b960611b6064820152608401610625565b6001600160e01b0319811663f23a6e6160e01b14611fad5760405162461bcd60e51b815260206004820152602860248201527f455243313135353a204552433131353552656365697665722072656a656374656044820152676420746f6b656e7360c01b6064820152608401610625565b600354600160a01b900460ff16610e395760405162461bcd60e51b815260206004820152601460248201527314185d5cd8589b194e881b9bdd081c185d5cd95960621b6044820152606401610625565b828054612fac90613b0f565b90600052602060002090601f016020900481019282612fce5760008555613014565b82601f10612fe757805160ff1916838001178555613014565b82800160010185558215613014579182015b82811115613014578251825591602001919060010190612ff9565b50613020929150613024565b5090565b5b808211156130205760008155600101613025565b80356001600160a01b038116811461305057600080fd5b919050565b6000806040838503121561306857600080fd5b61307183613039565b946020939093013593505050565b6001600160e01b031981168114611d3257600080fd5b6000602082840312156130a757600080fd5b81356130b28161307f565b9392505050565b6000602082840312156130cb57600080fd5b5035919050565b60005b838110156130ed5781810151838201526020016130d5565b838111156130fc576000848401525b50505050565b6000815180845261311a8160208601602086016130d2565b601f01601f19169290920160200192915050565b6020815260006130b26020830184613102565b634e487b7160e01b600052604160045260246000fd5b601f8201601f191681016001600160401b038111828210171561317c5761317c613141565b6040525050565b60006001600160401b0382111561319c5761319c613141565b50601f01601f191660200190565b600082601f8301126131bb57600080fd5b81356131c681613183565b6040516131d38282613157565b8281528560208487010111156131e857600080fd5b82602086016020830137600092810160200192909252509392505050565b6000806040838503121561321957600080fd5b8235915060208301356001600160401b0381111561323657600080fd5b613242858286016131aa565b9150509250929050565b60008060006060848603121561326157600080fd5b61326a84613039565b95602085013595506040909401359392505050565b60008060006060848603121561329457600080fd5b83356001600160401b038111156132aa57600080fd5b6132b6868287016131aa565b935050602084013591506132cc60408501613039565b90509250925092565b60006001600160401b038211156132ee576132ee613141565b5060051b60200190565b600082601f83011261330957600080fd5b81356020613316826132d5565b6040516133238282613157565b83815260059390931b850182019282810191508684111561334357600080fd5b8286015b8481101561335e5780358352918301918301613347565b509695505050505050565b600080600080600060a0868803121561338157600080fd5b61338a86613039565b945061339860208701613039565b935060408601356001600160401b03808211156133b457600080fd5b6133c089838a016132f8565b945060608801359150808211156133d657600080fd5b6133e289838a016132f8565b935060808801359150808211156133f857600080fd5b50613405888289016131aa565b9150509295509295909350565b600082601f83011261342357600080fd5b81356020613430826132d5565b60405161343d8282613157565b83815260059390931b850182019282810191508684111561345d57600080fd5b8286015b8481101561335e5761347281613039565b8352918301918301613461565b6000806040838503121561349257600080fd5b82356001600160401b03808211156134a957600080fd5b6134b586838701613412565b935060208501359150808211156134cb57600080fd5b50613242858286016132f8565b6020808252825182820181905260009190848201906040850190845b81811015613510578351835292840192918401916001016134f4565b50909695505050505050565b600080600080600060a0868803121561353457600080fd5b61353d86613039565b94506020860135935060408601356001600160401b0381111561355f57600080fd5b61356b888289016131aa565b9350506060860135915061358160808701613039565b90509295509295909350565b60006020828403121561359f57600080fd5b6130b282613039565b600080600080608085870312156135be57600080fd5b843593506020850135925060408501356001600160401b03808211156135e357600080fd5b6135ef888389016131aa565b9350606087013591508082111561360557600080fd5b50613612878288016131aa565b91505092959194509250565b6000806040838503121561363157600080fd5b82356001600160401b0381111561364757600080fd5b613653858286016131aa565b95602094909401359450505050565b634e487b7160e01b600052602160045260246000fd5b85815260a06020820152600061369160a0830187613102565b6001600160a01b038681166040850152851660608401529050600383106136c857634e487b7160e01b600052602160045260246000fd5b8260808301529695505050505050565b8015158114611d3257600080fd5b600080604083850312156136f957600080fd5b61370283613039565b91506020830135613712816136d8565b809150509250929050565b6000806040838503121561373057600080fd5b50508035926020909101359150565b60008060006060848603121561375457600080fd5b833592506020840135915060408401356001600160401b0381111561377857600080fd5b61378486828701613412565b9150509250925092565b6000806000606084860312156137a357600080fd5b83359250602084013591506132cc60408501613039565b600080604083850312156137cd57600080fd5b6137d683613039565b91506137e460208401613039565b90509250929050565b600080600080600060a0868803121561380557600080fd5b61380e86613039565b945061381c60208701613039565b9350604086013592506060860135915060808601356001600160401b0381111561384557600080fd5b613405888289016131aa565b60006020828403121561386357600080fd5b81516001600160401b0381111561387957600080fd5b8201601f8101841361388a57600080fd5b805161389581613183565b6040516138a28282613157565b8281528660208486010111156138b757600080fd5b6138c88360208301602087016130d2565b9695505050505050565b8281526040602082015260006138eb6040830184613102565b949350505050565b6020808252602c908201527f596f7520617265206e6f7420617574686f72697a656420746f2063616c6c207460408201526b3434b990333ab731ba34b7b760a11b606082015260800190565b600082516139518184602087016130d2565b9190910192915050565b60208082526021908201527f4f726465722077697468207468697320494420646f6573206e6f7420657869736040820152601d60fa1b606082015260800190565b634e487b7160e01b600052601160045260246000fd5b6000828210156139c4576139c461399c565b500390565b6001600160a01b03831681526040602082018190526000906138eb90830184613102565b60208082526019908201527f496e76616c696420726563697069656e74206164647265737300000000000000604082015260600190565b60208082526025908201527f43616c6c6572206973206e6f7420746f6b656e206f776e6572206f72206170706040820152641c9bdd995960da1b606082015260800190565b634e487b7160e01b600052603260045260246000fd5b6000600019821415613a9357613a9361399c565b5060010190565b85815284602082015260a060408201526000613ab960a0830186613102565b8281036060840152613acb8186613102565b9150508260808301529695505050505050565b600060208284031215613af057600080fd5b5051919050565b60008219821115613b0a57613b0a61399c565b500190565b600181811c90821680613b2357607f821691505b60208210811415613b4457634e487b7160e01b600052602260045260246000fd5b50919050565b60008060408385031215613b5d57600080fd5b505080516020909101519092909150565b60208082526042908201527f526563697069656e742061646472657373206973206e6f742077686974656c6960408201527f73746564206f7220616c726561647920686f6c64732074686973206163636f756060820152611b9d60f21b608082015260a00190565b600060208284031215613be857600080fd5b81516130b2816136d8565b600060018060a01b03808716835260806020840152613c156080840187613102565b6040840195909552929092166060909101525092915050565b6001600160a01b03868116825285166020820152604081018490526060810183905260a060808201819052600090613c6890830184613102565b979650505050505050565b600060208284031215613c8557600080fd5b81516130b28161307f565b600060033d1115613ca95760046000803e5060005160e01c5b90565b600060443d1015613cba5790565b6040516003193d81016004833e81513d6001600160401b038160248401118184111715613ce957505050505090565b8285019150815181811115613d015750505050505090565b843d8701016020828501011115613d1b5750505050505090565b613d2a60208286010187613157565b50909594505050505056fea2646970667358221220180da4e19c5f2534daafe1a92f19535394af9e88efcb028c4a6670ac16ee552a64736f6c6343000809003360a06040526001805534801561001457600080fd5b5061001e33610027565b30608052610077565b600080546001600160a01b038381166001600160a01b0319831681178455604051919092169283917f8be0079c531659141344cd1fd0a4f28419497f9722a3daafe3b4186f6b6457e09190a35050565b608051610cf561009260003960006107c30152610cf56000f3fe608060405234801561001057600080fd5b50600436106100a95760003560e01c80638da5cb5b116100715780638da5cb5b1461012a578063a5bfafbe14610145578063c1e0372814610158578063d10424c714610180578063d8597f57146101a1578063f2fde38b146101b457600080fd5b80630e89341c146100ae57806318e97fd1146100d757806348fd09f5146100ec5780634e9b17dc1461010f578063715018a614610122575b600080fd5b6100c16100bc366004610919565b6101c7565b6040516100ce9190610932565b60405180910390f35b6100ea6100e5366004610a3e565b6102a0565b005b6100ff6100fa366004610a85565b6102fc565b60405190151581526020016100ce565b6100ea61011d366004610b2b565b61039e565b6100ea61054a565b6000546040516001600160a01b0390911681526020016100ce565b6100ea610153366004610baa565b61055e565b61016b610166366004610919565b61059c565b604080519283526020830191909152016100ce565b61019361018e366004610919565b610610565b6040519081526020016100ce565b6100ea6101af366004610a3e565b610697565b6100ea6101c2366004610bcc565b6106e5565b600081815260026020526040902060010154606090421061028357600082815260026020526040902060030180546101fe90610bfc565b80601f016020809104026020016040519081016040528092919081815260200182805461022a90610bfc565b80156102775780601f1061024c57610100808354040283529160200191610277565b820191906000526020600020905b81548152906001019060200180831161025a57829003601f168201915b50505050509050919050565b60008281526002602081905260409091200180546101fe90610bfc565b6102a861075e565b60015482106102d25760405162461bcd60e51b81526004016102c990610c37565b60405180910390fd5b600082815260026020818152604090922083516102f793919092019190840190610880565b505050565b6000805b8251811015610395576002600084838151811061031f5761031f610c60565b602002602001015181526020019081526020016000206001015442118061037557506002600084838151811061035757610357610c60565b60200260200101518152602001908152602001600020600001546000145b156103835750600092915050565b8061038d81610c8c565b915050610300565b50600192915050565b6103a661075e565b6103ae6107b8565b808411156103f75760405162461bcd60e51b8152602060048201526016602482015275496e76616c696420746f6b656e206578706972792d3160501b60448201526064016102c9565b42841161043f5760405162461bcd60e51b815260206004820152601660248201527524b73b30b634b2103a37b5b2b71032bc3834b93c969960511b60448201526064016102c9565b8461047f5760405162461bcd60e51b815260206004820152601060248201526f053706f7420616d6f756e7420697320360841b60448201526064016102c9565b6001805460009081526002602081815260408084208a9055845484528084208501899055935483529290912085516104bf93919092019190860190610880565b50600154600090815260026020908152604090912083516104e892600390920191850190610880565b50600154604080519182526020820187905281018590527feb74f27fcf6869d91bf51661e42dd9d20227b00afaab5c59243a0140a69784c49060600160405180910390a1600180600082825461053e9190610ca7565b90915550505050505050565b61055261075e565b61055c6000610830565b565b61056661075e565b60015482106105875760405162461bcd60e51b81526004016102c990610c37565b60009182526002602052604090912060010155565b60008181526002602052604081205481906105f45760405162461bcd60e51b815260206004820152601860248201527750424d3a20496e76616c696420546f6b656e20496428732960401b60448201526064016102c9565b5050600090815260026020526040902080546001909101549091565b6000818152600260205260408120541580159061063d575060008281526002602052604090206001015442105b6106845760405162461bcd60e51b815260206004820152601860248201527750424d3a20496e76616c696420546f6b656e20496428732960401b60448201526064016102c9565b5060009081526002602052604090205490565b61069f61075e565b60015482106106c05760405162461bcd60e51b81526004016102c990610c37565b600082815260026020908152604090912082516102f792600390920191840190610880565b6106ed61075e565b6001600160a01b0381166107525760405162461bcd60e51b815260206004820152602660248201527f4f776e61626c653a206e6577206f776e657220697320746865207a65726f206160448201526564647265737360d01b60648201526084016102c9565b61075b81610830565b50565b6000546001600160a01b0316331461055c5760405162461bcd60e51b815260206004820181905260248201527f4f776e61626c653a2063616c6c6572206973206e6f7420746865206f776e657260448201526064016102c9565b306001600160a01b037f0000000000000000000000000000000000000000000000000000000000000000161461055c5760405162461bcd60e51b815260206004820152601960248201527f44656c65676174652063616c6c7320726573747269637465640000000000000060448201526064016102c9565b600080546001600160a01b038381166001600160a01b0319831681178455604051919092169283917f8be0079c531659141344cd1fd0a4f28419497f9722a3daafe3b4186f6b6457e09190a35050565b82805461088c90610bfc565b90600052602060002090601f0160209004810192826108ae57600085556108f4565b82601f106108c757805160ff19168380011785556108f4565b828001600101855582156108f4579182015b828111156108f45782518255916020019190600101906108d9565b50610900929150610904565b5090565b5b808211156109005760008155600101610905565b60006020828403121561092b57600080fd5b5035919050565b600060208083528351808285015260005b8181101561095f57858101830151858201604001528201610943565b81811115610971576000604083870101525b50601f01601f1916929092016040019392505050565b634e487b7160e01b600052604160045260246000fd5b604051601f8201601f1916810167ffffffffffffffff811182821017156109c6576109c6610987565b604052919050565b600082601f8301126109df57600080fd5b813567ffffffffffffffff8111156109f9576109f9610987565b610a0c601f8201601f191660200161099d565b818152846020838601011115610a2157600080fd5b816020850160208301376000918101602001919091529392505050565b60008060408385031215610a5157600080fd5b82359150602083013567ffffffffffffffff811115610a6f57600080fd5b610a7b858286016109ce565b9150509250929050565b60006020808385031215610a9857600080fd5b823567ffffffffffffffff80821115610ab057600080fd5b818501915085601f830112610ac457600080fd5b813581811115610ad657610ad6610987565b8060051b9150610ae784830161099d565b8181529183018401918481019088841115610b0157600080fd5b938501935b83851015610b1f57843582529385019390850190610b06565b98975050505050505050565b600080600080600060a08688031215610b4357600080fd5b8535945060208601359350604086013567ffffffffffffffff80821115610b6957600080fd5b610b7589838a016109ce565b94506060880135915080821115610b8b57600080fd5b50610b98888289016109ce565b95989497509295608001359392505050565b60008060408385031215610bbd57600080fd5b50508035926020909101359150565b600060208284031215610bde57600080fd5b81356001600160a01b0381168114610bf557600080fd5b9392505050565b600181811c90821680610c1057607f821691505b60208210811415610c3157634e487b7160e01b600052602260045260246000fd5b50919050565b6020808252600f908201526e125b9d985b1a59081d1bdad95b9259608a1b604082015260600190565b634e487b7160e01b600052603260045260246000fd5b634e487b7160e01b600052601160045260246000fd5b6000600019821415610ca057610ca0610c76565b5060010190565b60008219821115610cba57610cba610c76565b50019056fea2646970667358221220c519c8b1ac3dbc601e66c4b41041e7f9b0ff828ba34248854d38dc81384f4f8c64736f6c63430008090033",
  "devdoc": {
    "kind": "dev",
    "methods": {
      "addUserBalance(uint256,uint256,address)": {
        "details": "See {IPBM-addUserBalance}.  WARNING: Any contracts that externally call these mint() and batchMint() functions should implement some sort of reentrancy guard procedure (such as OpenZeppelin's ReentrancyGuard). Requirements: - contract must not be paused - tokens must not be expired - `tokenId` should be a valid id that has already been created - recipient should have the token id - `spotAmount` should be greater than 0"
      },
      "adminBurn(address,uint256,uint256)": {
        "details": "Allows the owner to burn `amount` of tokens of `id` from `account`. `amount` here typically would be 1."
      },
      "balanceOf(address,uint256)": {
        "details": "See {IERC1155-balanceOf}. Requirements: - `account` cannot be the zero address."
      },
      "balanceOfBatch(address[],uint256[])": {
        "details": "See {IERC1155-balanceOfBatch}. Requirements: - `accounts` and `ids` must have the same length."
      },
      "cancelOrder(string,uint256)": {
        "params": {
          "orderId": "Platform-generated identifier for the order.",
          "tokenId": "Identifier of the PBM token type related to the order."
        }
      },
      "createOrder(address,uint256,string,uint256,address)": {
        "details": "See {IPBM-createOrder}. Note: user needs to call setApprovalForAll() to approve the caller to create order on behalf of user Requirements: - caller must be token owner or approved to create order on behalf of user - `customerWalletAddr` must not be the zero address. - `fundDisbursementAddr` must not be the zero address. - `orderValue` must be greater than 0 - `orderId` must be unique - user must have sufficient available balance - contract must not be paused"
      },
      "createOrderGrab(address,uint256,string,uint256,address)": {
        "details": "See {IPBM-createOrderGrab}. Note: createOrderGrab doesn't require user approval to create order on behalf of user       instead if can only be called by whitelisted wallets Requirements: - only whitelisted wallets can call this function - `customerWalletAddr` must not be the zero address. - `fundDisbursementAddr` must not be the zero address. - `orderValue` must be greater than 0 - `orderId` must be unique - user must have sufficient available balance - contract must not be paused"
      },
      "createPBMTokenType(uint256,uint256,string,string)": {
        "details": "See {IPBM-createPBMTokenType}. Requirements: - caller must be owner - contract must not be expired - `tokenExpiry` must be less than contract expiry - `amount` should not be 0"
      },
      "getTokenDetails(uint256)": {
        "details": "See {IPBM-getTokenDetails}."
      },
      "getUserBalance(address,uint256)": {
        "params": {
          "tokenId": "The identifier of the PBM token type.",
          "user": "The address of the user whose balance is to be queried."
        },
        "returns": {
          "userBalance": "The total wrapped erc20 token balance of the user for the specified PBM token.(walletBalance, availableBalance)"
        }
      },
      "initialise(address,uint256)": {
        "params": {
          "_expiry": "Global expiry timestamp for the contract.",
          "_spotToken": "The address of the underlying ERC20 token."
        }
      },
      "isApprovedForAll(address,address)": {
        "details": "See {IERC1155-isApprovedForAll}."
      },
      "mint(uint256,uint256,address)": {
        "details": "See {IPBM-mint}.  WARNING: Any contracts that externally call these mint() and batchMint() functions should implement some sort of reentrancy guard procedure (such as OpenZeppelin's ReentrancyGuard). Requirements: - contract must not be paused - tokens must not be expired - `tokenId` should be a valid id that has already been created - when recipient is not whitelisted and does not have the token id, the amount should be 1"
      },
      "owner()": {
        "details": "Returns the address of the current owner."
      },
      "pause()": {
        "details": "see {Pausable _pause} Requirements : - caller should be owner"
      },
      "paused()": {
        "details": "Returns true if the contract is paused, and false otherwise."
      },
      "redeemOrder(string,uint256,address)": {
        "params": {
          "orderId": "Platform-generated identifier for the order.",
          "tokenId": "Identifier of the PBM token type related to the order.",
          "userWallet": "Address of the customer redeeming the order."
        }
      },
      "renounceOwnership()": {
        "details": "Leaves the contract without owner. It will not be possible to call `onlyOwner` functions. Can only be called by the current owner. NOTE: Renouncing ownership will leave the contract without an owner, thereby disabling any functionality that is only available to the owner."
      },
      "revokePBM()": {
        "details": "See {IPBM-revokePBM}. Requirements: - caller must be the owner of the contract - token must be expired"
      },
      "safeBatchTransferFrom(address,address,uint256[],uint256[],bytes)": {
        "details": "See {IPBM-safeBatchTransferFrom}. IMPT: This function doesn't actually transfer the underlying ERC20 tokens. Instead, it only updates the user balances within this contract. Note: - this function is very unlikely to be used. Requirements: - contract must not be paused. - sender (`from` address) should have a positive available balance for each tokenId. - recipient (`to` address) should not be the zero address. - caller must be whitelisted."
      },
      "safeTransferFrom(address,address,uint256,uint256,bytes)": {
        "details": "See {IPBM-safeTransferFrom}. IMPT: This function doesn't actually transfer the underlying ERC20 tokens. Instead, it only updates the user balances within this contract.       And should only be used for whitelisted wallets to airdrop to user wallets. Note: 1) orchestrator to airdrop to user addresses 2) P2P transfer is disabled for non whitelisted wallets - transferAmount here is the amount of underlying ERC20 tokens instead of the amount of PBM tokens Requirements: - contract must not be paused. - `transferAmount` in the _safeTransferFrom should be exactly 10 and is referring to underlying ERC20 token. - sender (`from` address) should have a positive available balance. - recipient (`to` address) should not be the zero address. - caller must be whitelisted."
      },
      "setApprovalForAll(address,bool)": {
        "details": "See {IERC1155-setApprovalForAll}."
      },
      "supportsInterface(bytes4)": {
        "details": "See {IERC165-supportsInterface}."
      },
      "transferOwnership(address)": {
        "details": "Transfers ownership of the contract to a new account (`newOwner`). Can only be called by the current owner."
      },
      "unpause()": {
        "details": "see {Pausable _unpause} Requirements : - caller should be owner"
      },
      "uri(uint256)": {
        "details": "See {IPBM-uri}."
      }
    },
    "version": 1
  },
  "userdoc": {
    "events": {
      "PBMrevokeWithdraw(address,address,uint256)": {
        "notice": "Emitted when a PBM's creator retrieves the ERC-20 tokens from expired PBMs."
      }
    },
    "kind": "user",
    "methods": {
      "cancelOrder(string,uint256)": {
        "notice": "Cancels a pending order, refunding the ERC-20 token value to the customer."
      },
      "getUserBalance(address,uint256)": {
        "notice": "Fetches the balance details for a user for a specific PBM token."
      },
      "initialise(address,uint256)": {
        "notice": "Initializes the contract with the address of the underlying ERC20 token, contract expiration, and the PBM address list."
      },
      "redeemOrder(string,uint256,address)": {
        "notice": "Redeems a pending order, releasing the ERC-20 token value to the specified merchant address."
      }
    },
    "version": 1
  },
  "storageLayout": {
    "storage": [
      {
        "astId": 314,
        "contract": "contracts/PBM.sol:PBM",
        "label": "_balances",
        "offset": 0,
        "slot": "0",
        "type": "t_mapping(t_uint256,t_mapping(t_address,t_uint256))"
      },
      {
        "astId": 320,
        "contract": "contracts/PBM.sol:PBM",
        "label": "_operatorApprovals",
        "offset": 0,
        "slot": "1",
        "type": "t_mapping(t_address,t_mapping(t_address,t_bool))"
      },
      {
        "astId": 322,
        "contract": "contracts/PBM.sol:PBM",
        "label": "_uri",
        "offset": 0,
        "slot": "2",
        "type": "t_string_storage"
      },
      {
        "astId": 7,
        "contract": "contracts/PBM.sol:PBM",
        "label": "_owner",
        "offset": 0,
        "slot": "3",
        "type": "t_address"
      },
      {
        "astId": 133,
        "contract": "contracts/PBM.sol:PBM",
        "label": "_paused",
        "offset": 20,
        "slot": "3",
        "type": "t_bool"
      },
      {
        "astId": 234,
        "contract": "contracts/PBM.sol:PBM",
        "label": "_status",
        "offset": 0,
        "slot": "4",
        "type": "t_uint256"
      },
      {
        "astId": 4412,
        "contract": "contracts/PBM.sol:PBM",
        "label": "spotToken",
        "offset": 0,
        "slot": "5",
        "type": "t_address"
      },
      {
        "astId": 4418,
        "contract": "contracts/PBM.sol:PBM",
        "label": "pbmTokenManager",
        "offset": 0,
        "slot": "6",
        "type": "t_address"
      },
      {
        "astId": 4421,
        "contract": "contracts/PBM.sol:PBM",
        "label": "initialised",
        "offset": 20,
        "slot": "6",
        "type": "t_bool"
      },
      {
        "astId": 4423,
        "contract": "contracts/PBM.sol:PBM",
        "label": "contractExpiry",
        "offset": 0,
        "slot": "7",
        "type": "t_uint256"
      },
      {
        "astId": 4500,
        "contract": "contracts/PBM.sol:PBM",
        "label": "userBalances",
        "offset": 0,
        "slot": "8",
        "type": "t_mapping(t_address,t_mapping(t_uint256,t_struct(UserBalance)4112_storage))"
      },
      {
        "astId": 4529,
        "contract": "contracts/PBM.sol:PBM",
        "label": "orders",
        "offset": 0,
        "slot": "9",
        "type": "t_mapping(t_bytes32,t_struct(Order)4493_storage)"
      },
      {
        "astId": 4533,
        "contract": "contracts/PBM.sol:PBM",
        "label": "whitelist",
        "offset": 0,
        "slot": "10",
        "type": "t_mapping(t_address,t_bool)"
      }
    ],
    "types": {
      "t_address": {
        "encoding": "inplace",
        "label": "address",
        "numberOfBytes": "20"
      },
      "t_bool": {
        "encoding": "inplace",
        "label": "bool",
        "numberOfBytes": "1"
      },
      "t_bytes32": {
        "encoding": "inplace",
        "label": "bytes32",
        "numberOfBytes": "32"
      },
      "t_enum(OrderStatus)4481": {
        "encoding": "inplace",
        "label": "enum PBM.OrderStatus",
        "numberOfBytes": "1"
      },
      "t_mapping(t_address,t_bool)": {
        "encoding": "mapping",
        "key": "t_address",
        "label": "mapping(address => bool)",
        "numberOfBytes": "32",
        "value": "t_bool"
      },
      "t_mapping(t_address,t_mapping(t_address,t_bool))": {
        "encoding": "mapping",
        "key": "t_address",
        "label": "mapping(address => mapping(address => bool))",
        "numberOfBytes": "32",
        "value": "t_mapping(t_address,t_bool)"
      },
      "t_mapping(t_address,t_mapping(t_uint256,t_struct(UserBalance)4112_storage))": {
        "encoding": "mapping",
        "key": "t_address",
        "label": "mapping(address => mapping(uint256 => struct IPBM.UserBalance))",
        "numberOfBytes": "32",
        "value": "t_mapping(t_uint256,t_struct(UserBalance)4112_storage)"
      },
      "t_mapping(t_address,t_uint256)": {
        "encoding": "mapping",
        "key": "t_address",
        "label": "mapping(address => uint256)",
        "numberOfBytes": "32",
        "value": "t_uint256"
      },
      "t_mapping(t_bytes32,t_struct(Order)4493_storage)": {
        "encoding": "mapping",
        "key": "t_bytes32",
        "label": "mapping(bytes32 => struct PBM.Order)",
        "numberOfBytes": "32",
        "value": "t_struct(Order)4493_storage"
      },
      "t_mapping(t_uint256,t_mapping(t_address,t_uint256))": {
        "encoding": "mapping",
        "key": "t_uint256",
        "label": "mapping(uint256 => mapping(address => uint256))",
        "numberOfBytes": "32",
        "value": "t_mapping(t_address,t_uint256)"
      },
      "t_mapping(t_uint256,t_struct(UserBalance)4112_storage)": {
        "encoding": "mapping",
        "key": "t_uint256",
        "label": "mapping(uint256 => struct IPBM.UserBalance)",
        "numberOfBytes": "32",
        "value": "t_struct(UserBalance)4112_storage"
      },
      "t_string_storage": {
        "encoding": "bytes",
        "label": "string",
        "numberOfBytes": "32"
      },
      "t_struct(Order)4493_storage": {
        "encoding": "inplace",
        "label": "struct PBM.Order",
        "members": [
          {
            "astId": 4483,
            "contract": "contracts/PBM.sol:PBM",
            "label": "orderValue",
            "offset": 0,
            "slot": "0",
            "type": "t_uint256"
          },
          {
            "astId": 4485,
            "contract": "contracts/PBM.sol:PBM",
            "label": "orderId",
            "offset": 0,
            "slot": "1",
            "type": "t_string_storage"
          },
          {
            "astId": 4487,
            "contract": "contracts/PBM.sol:PBM",
            "label": "customerWallet",
            "offset": 0,
            "slot": "2",
            "type": "t_address"
          },
          {
            "astId": 4489,
            "contract": "contracts/PBM.sol:PBM",
            "label": "fundDisbursementAddress",
            "offset": 0,
            "slot": "3",
            "type": "t_address"
          },
          {
            "astId": 4492,
            "contract": "contracts/PBM.sol:PBM",
            "label": "status",
            "offset": 20,
            "slot": "3",
            "type": "t_enum(OrderStatus)4481"
          }
        ],
        "numberOfBytes": "128"
      },
      "t_struct(UserBalance)4112_storage": {
        "encoding": "inplace",
        "label": "struct IPBM.UserBalance",
        "members": [
          {
            "astId": 4109,
            "contract": "contracts/PBM.sol:PBM",
            "label": "walletBalance",
            "offset": 0,
            "slot": "0",
            "type": "t_uint256"
          },
          {
            "astId": 4111,
            "contract": "contracts/PBM.sol:PBM",
            "label": "availableBalance",
            "offset": 0,
            "slot": "1",
            "type": "t_uint256"
          }
        ],
        "numberOfBytes": "64"
      },
      "t_uint256": {
        "encoding": "inplace",
        "label": "uint256",
        "numberOfBytes": "32"
      }
    }
  }
}