{
  "address": "0x3aef55af6C65eB9ff81B759C439B6f8bcA16C794",
  "abi": [
    {
      "inputs": [],
      "stateMutability": "nonpayable",
      "type": "constructor"
    },
    {
      "anonymous": false,
      "inputs": [
        {
          "indexed": true,
          "internalType": "address",
          "name": "account",
          "type": "address"
        },
        {
          "indexed": true,
          "internalType": "address",
          "name": "operator",
          "type": "address"
        },
        {
          "indexed": false,
          "internalType": "bool",
          "name": "approved",
          "type": "bool"
        }
      ],
      "name": "ApprovalForAll",
      "type": "event"
    },
    {
      "anonymous": false,
      "inputs": [
        {
          "indexed": false,
          "internalType": "address",
          "name": "customer",
          "type": "address"
        },
        {
          "indexed": false,
          "internalType": "uint256",
          "name": "spotAmount",
          "type": "uint256"
        }
      ],
      "name": "FundsAdded",
      "type": "event"
    },
    {
      "anonymous": false,
      "inputs": [
        {
          "indexed": false,
          "internalType": "string",
          "name": "orderId",
          "type": "string"
        }
      ],
      "name": "OrderCanceled",
      "type": "event"
    },
    {
      "anonymous": false,
      "inputs": [
        {
          "indexed": false,
          "internalType": "address",
          "name": "customer",
          "type": "address"
        },
        {
          "indexed": false,
          "internalType": "string",
          "name": "orderId",
          "type": "string"
        },
        {
          "indexed": false,
          "internalType": "uint256",
          "name": "orderValue",
          "type": "uint256"
        },
        {
          "indexed": false,
          "internalType": "address",
          "name": "fundDisbursementAddress",
          "type": "address"
        }
      ],
      "name": "OrderCreated",
      "type": "event"
    },
    {
      "anonymous": false,
      "inputs": [
        {
          "indexed": false,
          "internalType": "address",
          "name": "customer",
          "type": "address"
        },
        {
          "indexed": false,
          "internalType": "string",
          "name": "orderId",
          "type": "string"
        }
      ],
      "name": "OrderRedeemed",
      "type": "event"
    },
    {
      "anonymous": false,
      "inputs": [
        {
          "indexed": true,
          "internalType": "address",
          "name": "previousOwner",
          "type": "address"
        },
        {
          "indexed": true,
          "internalType": "address",
          "name": "newOwner",
          "type": "address"
        }
      ],
      "name": "OwnershipTransferred",
      "type": "event"
    },
    {
      "anonymous": false,
      "inputs": [
        {
          "indexed": false,
          "internalType": "address",
          "name": "beneficiary",
          "type": "address"
        },
        {
          "indexed": false,
          "internalType": "address",
          "name": "ERC20Token",
          "type": "address"
        },
        {
          "indexed": false,
          "internalType": "uint256",
          "name": "ERC20TokenValue",
          "type": "uint256"
        }
      ],
      "name": "PBMrevokeWithdraw",
      "type": "event"
    },
    {
      "anonymous": false,
      "inputs": [
        {
          "indexed": false,
          "internalType": "address",
          "name": "account",
          "type": "address"
        }
      ],
      "name": "Paused",
      "type": "event"
    },
    {
      "anonymous": false,
      "inputs": [
        {
          "indexed": true,
          "internalType": "address",
          "name": "operator",
          "type": "address"
        },
        {
          "indexed": true,
          "internalType": "address",
          "name": "from",
          "type": "address"
        },
        {
          "indexed": true,
          "internalType": "address",
          "name": "to",
          "type": "address"
        },
        {
          "indexed": false,
          "internalType": "uint256[]",
          "name": "ids",
          "type": "uint256[]"
        },
        {
          "indexed": false,
          "internalType": "uint256[]",
          "name": "values",
          "type": "uint256[]"
        }
      ],
      "name": "TransferBatch",
      "type": "event"
    },
    {
      "anonymous": false,
      "inputs": [
        {
          "indexed": true,
          "internalType": "address",
          "name": "operator",
          "type": "address"
        },
        {
          "indexed": true,
          "internalType": "address",
          "name": "from",
          "type": "address"
        },
        {
          "indexed": true,
          "internalType": "address",
          "name": "to",
          "type": "address"
        },
        {
          "indexed": false,
          "internalType": "uint256",
          "name": "id",
          "type": "uint256"
        },
        {
          "indexed": false,
          "internalType": "uint256",
          "name": "value",
          "type": "uint256"
        }
      ],
      "name": "TransferSingle",
      "type": "event"
    },
    {
      "anonymous": false,
      "inputs": [
        {
          "indexed": false,
          "internalType": "string",
          "name": "value",
          "type": "string"
        },
        {
          "indexed": true,
          "internalType": "uint256",
          "name": "id",
          "type": "uint256"
        }
      ],
      "name": "URI",
      "type": "event"
    },
    {
      "anonymous": false,
      "inputs": [
        {
          "indexed": false,
          "internalType": "address",
          "name": "account",
          "type": "address"
        }
      ],
      "name": "Unpaused",
      "type": "event"
    },
    {
      "anonymous": false,
      "inputs": [
        {
          "indexed": true,
          "internalType": "address",
          "name": "user",
          "type": "address"
        },
        {
          "indexed": false,
          "internalType": "uint256",
          "name": "tokenId",
          "type": "uint256"
        },
        {
          "indexed": false,
          "internalType": "uint256",
          "name": "newWalletBalance",
          "type": "uint256"
        },
        {
          "indexed": false,
          "internalType": "uint256",
          "name": "newAvailableBalance",
          "type": "uint256"
        }
      ],
      "name": "UserBalanceUpdated",
      "type": "event"
    },
    {
      "inputs": [
        {
          "internalType": "address",
          "name": "account",
          "type": "address"
        }
      ],
      "name": "addToWhitelist",
      "outputs": [],
      "stateMutability": "nonpayable",
      "type": "function"
    },
    {
      "inputs": [
        {
          "internalType": "address",
          "name": "account",
          "type": "address"
        },
        {
          "internalType": "uint256",
          "name": "id",
          "type": "uint256"
        }
      ],
      "name": "balanceOf",
      "outputs": [
        {
          "internalType": "uint256",
          "name": "",
          "type": "uint256"
        }
      ],
      "stateMutability": "view",
      "type": "function"
    },
    {
      "inputs": [
        {
          "internalType": "address[]",
          "name": "accounts",
          "type": "address[]"
        },
        {
          "internalType": "uint256[]",
          "name": "ids",
          "type": "uint256[]"
        }
      ],
      "name": "balanceOfBatch",
      "outputs": [
        {
          "internalType": "uint256[]",
          "name": "",
          "type": "uint256[]"
        }
      ],
      "stateMutability": "view",
      "type": "function"
    },
    {
      "inputs": [
        {
          "internalType": "string",
          "name": "orderId",
          "type": "string"
        },
        {
          "internalType": "uint256",
          "name": "tokenId",
          "type": "uint256"
        }
      ],
      "name": "cancelOrder",
      "outputs": [],
      "stateMutability": "nonpayable",
      "type": "function"
    },
    {
      "inputs": [],
      "name": "contractExpiry",
      "outputs": [
        {
          "internalType": "uint256",
          "name": "",
          "type": "uint256"
        }
      ],
      "stateMutability": "view",
      "type": "function"
    },
    {
      "inputs": [
        {
          "internalType": "address",
          "name": "customerWalletAddr",
          "type": "address"
        },
        {
          "internalType": "uint256",
          "name": "tokenId",
          "type": "uint256"
        },
        {
          "internalType": "string",
          "name": "orderId",
          "type": "string"
        },
        {
          "internalType": "uint256",
          "name": "orderValue",
          "type": "uint256"
        },
        {
          "internalType": "address",
          "name": "fundDisbursementAddr",
          "type": "address"
        }
      ],
      "name": "createOrder",
      "outputs": [],
      "stateMutability": "nonpayable",
      "type": "function"
    },
    {
      "inputs": [
        {
          "internalType": "uint256",
          "name": "spotAmount",
          "type": "uint256"
        },
        {
          "internalType": "uint256",
          "name": "tokenExpiry",
          "type": "uint256"
        },
        {
          "internalType": "string",
          "name": "tokenURI",
          "type": "string"
        },
        {
          "internalType": "string",
          "name": "postExpiryURI",
          "type": "string"
        }
      ],
      "name": "createPBMTokenType",
      "outputs": [],
      "stateMutability": "nonpayable",
      "type": "function"
    },
    {
      "inputs": [
        {
          "internalType": "uint256",
          "name": "tokenId",
          "type": "uint256"
        }
      ],
      "name": "getTokenDetails",
      "outputs": [
        {
          "internalType": "uint256",
          "name": "",
          "type": "uint256"
        },
        {
          "internalType": "uint256",
          "name": "",
          "type": "uint256"
        }
      ],
      "stateMutability": "view",
      "type": "function"
    },
    {
      "inputs": [
        {
          "internalType": "address",
          "name": "user",
          "type": "address"
        },
        {
          "internalType": "uint256",
          "name": "tokenId",
          "type": "uint256"
        }
      ],
      "name": "getUserBalance",
      "outputs": [
        {
          "components": [
            {
              "internalType": "uint256",
              "name": "walletBalance",
              "type": "uint256"
            },
            {
              "internalType": "uint256",
              "name": "availableBalance",
              "type": "uint256"
            }
          ],
          "internalType": "struct IPBM.UserBalance",
          "name": "userBalance",
          "type": "tuple"
        }
      ],
      "stateMutability": "view",
      "type": "function"
    },
    {
      "inputs": [
        {
          "internalType": "address",
          "name": "_spotToken",
          "type": "address"
        },
        {
          "internalType": "uint256",
          "name": "_expiry",
          "type": "uint256"
        }
      ],
      "name": "initialise",
      "outputs": [],
      "stateMutability": "nonpayable",
      "type": "function"
    },
    {
      "inputs": [
        {
          "internalType": "address",
          "name": "account",
          "type": "address"
        },
        {
          "internalType": "address",
          "name": "operator",
          "type": "address"
        }
      ],
      "name": "isApprovedForAll",
      "outputs": [
        {
          "internalType": "bool",
          "name": "",
          "type": "bool"
        }
      ],
      "stateMutability": "view",
      "type": "function"
    },
    {
      "inputs": [
        {
          "internalType": "uint256",
          "name": "tokenId",
          "type": "uint256"
        },
        {
          "internalType": "uint256",
          "name": "amount",
          "type": "uint256"
        },
        {
          "internalType": "address",
          "name": "userAddress",
          "type": "address"
        }
      ],
      "name": "mint",
      "outputs": [],
      "stateMutability": "nonpayable",
      "type": "function"
    },
    {
      "inputs": [
        {
          "internalType": "uint256",
          "name": "tokenId",
          "type": "uint256"
        },
        {
          "internalType": "uint256",
          "name": "amount",
          "type": "uint256"
        },
        {
          "internalType": "address[]",
          "name": "userAddresses",
          "type": "address[]"
        }
      ],
      "name": "mintBatch",
      "outputs": [],
      "stateMutability": "nonpayable",
      "type": "function"
    },
    {
      "inputs": [
        {
          "internalType": "bytes32",
          "name": "",
          "type": "bytes32"
        }
      ],
      "name": "orders",
      "outputs": [
        {
          "internalType": "uint256",
          "name": "orderValue",
          "type": "uint256"
        },
        {
          "internalType": "string",
          "name": "orderId",
          "type": "string"
        },
        {
          "internalType": "address",
          "name": "customerWallet",
          "type": "address"
        },
        {
          "internalType": "address",
          "name": "fundDisbursementAddress",
          "type": "address"
        },
        {
          "internalType": "enum PBM.OrderStatus",
          "name": "status",
          "type": "uint8"
        }
      ],
      "stateMutability": "view",
      "type": "function"
    },
    {
      "inputs": [],
      "name": "owner",
      "outputs": [
        {
          "internalType": "address",
          "name": "",
          "type": "address"
        }
      ],
      "stateMutability": "view",
      "type": "function"
    },
    {
      "inputs": [],
      "name": "pause",
      "outputs": [],
      "stateMutability": "nonpayable",
      "type": "function"
    },
    {
      "inputs": [],
      "name": "paused",
      "outputs": [
        {
          "internalType": "bool",
          "name": "",
          "type": "bool"
        }
      ],
      "stateMutability": "view",
      "type": "function"
    },
    {
      "inputs": [],
      "name": "pbmTokenManager",
      "outputs": [
        {
          "internalType": "address",
          "name": "",
          "type": "address"
        }
      ],
      "stateMutability": "view",
      "type": "function"
    },
    {
      "inputs": [
        {
          "internalType": "string",
          "name": "orderId",
          "type": "string"
        },
        {
          "internalType": "uint256",
          "name": "tokenId",
          "type": "uint256"
        },
        {
          "internalType": "address",
          "name": "userWallet",
          "type": "address"
        }
      ],
      "name": "redeemOrder",
      "outputs": [],
      "stateMutability": "nonpayable",
      "type": "function"
    },
    {
      "inputs": [
        {
          "internalType": "address",
          "name": "account",
          "type": "address"
        }
      ],
      "name": "removeFromWhitelist",
      "outputs": [],
      "stateMutability": "nonpayable",
      "type": "function"
    },
    {
      "inputs": [],
      "name": "renounceOwnership",
      "outputs": [],
      "stateMutability": "nonpayable",
      "type": "function"
    },
    {
      "inputs": [],
      "name": "revokePBM",
      "outputs": [],
      "stateMutability": "nonpayable",
      "type": "function"
    },
    {
      "inputs": [
        {
          "internalType": "address",
          "name": "from",
          "type": "address"
        },
        {
          "internalType": "address",
          "name": "to",
          "type": "address"
        },
        {
          "internalType": "uint256[]",
          "name": "tokenIds",
          "type": "uint256[]"
        },
        {
          "internalType": "uint256[]",
          "name": "amounts",
          "type": "uint256[]"
        },
        {
          "internalType": "bytes",
          "name": "data",
          "type": "bytes"
        }
      ],
      "name": "safeBatchTransferFrom",
      "outputs": [],
      "stateMutability": "nonpayable",
      "type": "function"
    },
    {
      "inputs": [
        {
          "internalType": "address",
          "name": "from",
          "type": "address"
        },
        {
          "internalType": "address",
          "name": "to",
          "type": "address"
        },
        {
          "internalType": "uint256",
          "name": "tokenId",
          "type": "uint256"
        },
        {
          "internalType": "uint256",
          "name": "amount",
          "type": "uint256"
        },
        {
          "internalType": "bytes",
          "name": "data",
          "type": "bytes"
        }
      ],
      "name": "safeTransferFrom",
      "outputs": [],
      "stateMutability": "nonpayable",
      "type": "function"
    },
    {
      "inputs": [
        {
          "internalType": "address",
          "name": "operator",
          "type": "address"
        },
        {
          "internalType": "bool",
          "name": "approved",
          "type": "bool"
        }
      ],
      "name": "setApprovalForAll",
      "outputs": [],
      "stateMutability": "nonpayable",
      "type": "function"
    },
    {
      "inputs": [],
      "name": "spotToken",
      "outputs": [
        {
          "internalType": "address",
          "name": "",
          "type": "address"
        }
      ],
      "stateMutability": "view",
      "type": "function"
    },
    {
      "inputs": [
        {
          "internalType": "bytes4",
          "name": "interfaceId",
          "type": "bytes4"
        }
      ],
      "name": "supportsInterface",
      "outputs": [
        {
          "internalType": "bool",
          "name": "",
          "type": "bool"
        }
      ],
      "stateMutability": "view",
      "type": "function"
    },
    {
      "inputs": [
        {
          "internalType": "address",
          "name": "newOwner",
          "type": "address"
        }
      ],
      "name": "transferOwnership",
      "outputs": [],
      "stateMutability": "nonpayable",
      "type": "function"
    },
    {
      "inputs": [],
      "name": "unpause",
      "outputs": [],
      "stateMutability": "nonpayable",
      "type": "function"
    },
    {
      "inputs": [
        {
          "internalType": "uint256",
          "name": "tokenId",
          "type": "uint256"
        }
      ],
      "name": "uri",
      "outputs": [
        {
          "internalType": "string",
          "name": "",
          "type": "string"
        }
      ],
      "stateMutability": "view",
      "type": "function"
    },
    {
      "inputs": [
        {
          "internalType": "address",
          "name": "",
          "type": "address"
        }
      ],
      "name": "whitelist",
      "outputs": [
        {
          "internalType": "bool",
          "name": "",
          "type": "bool"
        }
      ],
      "stateMutability": "view",
      "type": "function"
    }
  ],
  "transactionHash": "0x6d964d5bafcf46a49e93cb1baee5e3456c54dbd2086d6eab6acb71e4b77e7ac2",
  "args": [],
  "numDeployments": 5,
  "solcInputHash": "f15900529e85250336850e7a8af1cf10",
  "bytecode": "0x6080604052600580546001600160a01b0319169055600680546001600160a81b03191690553480156200003157600080fd5b506040805160208101909152600081526200004c81620000bc565b506200005833620000d5565b6003805460ff60a01b191690556001600455604051620000789062000127565b604051809103906000f08015801562000095573d6000803e3d6000fd5b50600680546001600160a01b0319166001600160a01b039290921691909117905562000218565b8051620000d190600290602084019062000135565b5050565b600380546001600160a01b038381166001600160a01b0319831681179093556040519116919082907f8be0079c531659141344cd1fd0a4f28419497f9722a3daafe3b4186f6b6457e090600090a35050565b610bb8806200396d83390190565b8280546200014390620001db565b90600052602060002090601f016020900481019282620001675760008555620001b2565b82601f106200018257805160ff1916838001178555620001b2565b82800160010185558215620001b2579182015b82811115620001b257825182559160200191906001019062000195565b50620001c0929150620001c4565b5090565b5b80821115620001c05760008155600101620001c5565b600181811c90821680620001f057607f821691505b602082108114156200021257634e487b7160e01b600052602260045260246000fd5b50919050565b61374580620002286000396000f3fe608060405234801561001057600080fd5b50600436106101e45760003560e01c80638da5cb5b1161010f578063c1e03728116100a2578063e985e9c511610071578063e985e9c514610459578063f242432a14610495578063f2fde38b146104a8578063f859aec1146104bb57600080fd5b8063c1e03728146103f8578063c270ef2414610420578063e43252d714610433578063e7d3fe6b1461044657600080fd5b80639617e885116100de5780639617e8851461038b5780639b19251a1461039e5780639c3f1e90146103c1578063a22cb465146103e557600080fd5b80638da5cb5b146103315780638edb9ae21461034257806390df76181461035557806391a9648a1461035d57600080fd5b80633f4ba83a11610187578063715018a611610156578063715018a6146103055780638456cb591461030d57806389aba642146103155780638ab1d6811461031e57600080fd5b80633f4ba83a146102b85780634e1273f4146102c05780635c975abb146102e057806363be47d2146102f257600080fd5b80630e89341c116101c35780630e89341c1461025d578063270ccf2d1461027d5780632eb2c2d6146102925780633b4d206b146102a557600080fd5b8062fdd58e146101e957806301ffc9a71461020f5780630ad8946214610232575b600080fd5b6101fc6101f7366004612b3c565b6104ce565b6040519081526020015b60405180910390f35b61022261021d366004612b7c565b610564565b6040519015158152602001610206565b600554610245906001600160a01b031681565b6040516001600160a01b039091168152602001610206565b61027061026b366004612ba0565b6105b6565b6040516102069190612c15565b61029061028b366004612ced565b610637565b005b6102906102a0366004612dd7565b610902565b6102906102b3366004612b3c565b610ca9565b610290610d91565b6102d36102ce366004612eed565b610da3565b6040516102069190612f50565b600354600160a01b900460ff16610222565b600654610245906001600160a01b031681565b610290610ecc565b610290610ede565b6101fc60075481565b61029061032c366004612f94565b610eee565b6003546001600160a01b0316610245565b610290610350366004612faf565b610f17565b610290610f90565b61037061036b366004612b3c565b61108d565b60408051825181526020928301519281019290925201610206565b610290610399366004613025565b6110e8565b6102226103ac366004612f94565b600a6020526000908152604090205460ff1681565b6103d46103cf366004612ba0565b611393565b60405161020695949392919061307f565b6102906103f33660046130ed565b61145d565b61040b610406366004612ba0565b61146c565b60408051928352602083019190915201610206565b61029061042e366004613124565b6114f5565b610290610441366004612f94565b61177b565b610290610454366004613173565b6117a7565b61022261046736600461319f565b6001600160a01b03918216600090815260016020908152604080832093909416825291909152205460ff1690565b6102906104a33660046131d2565b6119bc565b6102906104b6366004612f94565b611cf2565b6102906104c9366004613236565b611d6b565b60006001600160a01b03831661053e5760405162461bcd60e51b815260206004820152602a60248201527f455243313135353a2061646472657373207a65726f206973206e6f742061207660448201526930b634b21037bbb732b960b11b60648201526084015b60405180910390fd5b506000908152602081815260408083206001600160a01b03949094168352929052205490565b60006001600160e01b03198216636cdb3d1360e11b148061059557506001600160e01b031982166303a24d0760e21b145b806105b057506301ffc9a760e01b6001600160e01b03198316145b92915050565b6006546040516303a24d0760e21b8152600481018390526060916001600160a01b031690630e89341c9060240160006040518083038186803b1580156105fb57600080fd5b505afa15801561060f573d6000803e3d6000fd5b505050506040513d6000823e601f3d908101601f191682016040526105b091908101906132a7565b61063f6120e2565b336000908152600a602052604090205460ff1661066e5760405162461bcd60e51b815260040161053590613328565b826000816040516020016106829190613374565b60408051601f198184030181529181528151602092830120600081815260099093529120549091506106c65760405162461bcd60e51b815260040161053590613390565b6000856040516020016106d99190613374565b60408051601f198184030181529190528051602090910120905060008082815260096020526040902060030154600160a01b900460ff16600281111561072157610721613069565b1461076e5760405162461bcd60e51b815260206004820152601f60248201527f54686973206f72646572206973206e6f206c6f6e6765722070656e64696e67006044820152606401610535565b6000818152600960209081526040808320546001600160a01b03881684526008835281842089855290925290912080548211156107ed5760405162461bcd60e51b815260206004820152601b60248201527f496e73756666696369656e742077616c6c65742062616c616e636500000000006044820152606401610535565b6001810154815410156108685760405162461bcd60e51b815260206004820152603b60248201527f536f6d657468696e672069732077726f6e672c20617661696c61626c6542616c60448201527f616e6365206d75737420626520646564756374656420666972737400000000006064820152608401610535565b8181600001600082825461087c91906133e7565b909155505060008381526009602052604090206003018054600160a01b60ff60a01b198216179091556005546108bf916001600160a01b0391821691168461212f565b7fd0471941026c36b264279f214e4f93d94de41e157f993054018f5bb3cdbe153686896040516108f09291906133fe565b60405180910390a15050505050505050565b61090a6120e2565b6109126122eb565b6001600160a01b0384166109645760405162461bcd60e51b8152602060048201526019602482015278496e76616c696420726563697069656e74206164647265737360381b6044820152606401610535565b81518351146109c15760405162461bcd60e51b8152602060048201526024808201527f546f6b656e49447320616e6420616d6f756e7473206c656e677468206d69736d6044820152630c2e8c6d60e31b6064820152608401610535565b60005b8351811015610c975760008482815181106109e1576109e161342a565b6020026020010151905060008483815181106109ff576109ff61342a565b6020026020010151905080600114610a675760405162461bcd60e51b815260206004820152602560248201527f416d6f756e7420666f72206561636820746f6b656e49642063616e206f6e6c79604482015264206265203160d81b6064820152608401610535565b6001600160a01b0388166000908152600860209081526040808320858452909152902060010154610ae85760405162461bcd60e51b815260206004820152602560248201527f496e76616c696420617661696c61626c652062616c616e636520666f7220746f6044820152641ad95b925960da1b6064820152608401610535565b6001600160a01b03881660009081526008602090815260408083208584529091528120600181015481549092839291610b229084906133e7565b90915550506001600160a01b038916600090815260086020908152604080832086845290915281206001018054839290610b5d9084906133e7565b90915550506001600160a01b038816600090815260086020908152604080832086845290915281208054839290610b95908490613440565b90915550506001600160a01b038816600090815260086020908152604080832086845290915281206001018054839290610bd0908490613440565b90915550506001600160a01b038916600081815260086020908152604080832087845282529182902080546001909101548351888152928301919091528183015290516000805160206136f08339815191529181900360600190a26001600160a01b038816600081815260086020908152604080832087845282529182902080546001909101548351888152928301919091528183015290516000805160206136f08339815191529181900360600190a25050508080610c8f90613458565b9150506109c4565b50610ca26001600455565b5050505050565b610cb1612345565b600654600160a01b900460ff1615610d0b5760405162461bcd60e51b815260206004820152601860248201527f50424d3a20416c726561647920696e697469616c6973656400000000000000006044820152606401610535565b6001600160a01b0382163b610d575760405162461bcd60e51b815260206004820152601260248201527124b73b30b634b21039b837ba103a37b5b2b760711b6044820152606401610535565b600580546001600160a01b039093166001600160a01b0319909316929092179091556007556006805460ff60a01b1916600160a01b179055565b610d99612345565b610da161239f565b565b60608151835114610e085760405162461bcd60e51b815260206004820152602960248201527f455243313135353a206163636f756e747320616e6420696473206c656e677468604482015268040dad2e6dac2e8c6d60bb1b6064820152608401610535565b600083516001600160401b03811115610e2357610e23612c28565b604051908082528060200260200182016040528015610e4c578160200160208202803683370190505b50905060005b8451811015610ec457610e97858281518110610e7057610e7061342a565b6020026020010151858381518110610e8a57610e8a61342a565b60200260200101516104ce565b828281518110610ea957610ea961342a565b6020908102919091010152610ebd81613458565b9050610e52565b509392505050565b610ed4612345565b610da160006123f4565b610ee6612345565b610da1612446565b610ef6612345565b6001600160a01b03166000908152600a60205260409020805460ff19169055565b610f1f612345565b6006546007546040516313a6c5f760e21b81526001600160a01b0390921691634e9b17dc91610f58918891889188918891600401613473565b600060405180830381600087803b158015610f7257600080fd5b505af1158015610f86573d6000803e3d6000fd5b5050505050505050565b610f98612345565b610fa06120e2565b6005546040516370a0823160e01b81523060048201526001600160a01b039091169060009082906370a082319060240160206040518083038186803b158015610fe857600080fd5b505afa158015610ffc573d6000803e3d6000fd5b505050506040513d601f19601f8201168201806040525081019061102091906134b7565b905061103e826110386003546001600160a01b031690565b8361212f565b600554604080513381526001600160a01b039092166020830152818101839052517fef957a4ccd3a764d8119b98e2f88707e1f467beafd127ebf9e78903159f78ec29181900360600190a15050565b60408051808201909152600080825260208201526110a96120e2565b506001600160a01b0382166000908152600860209081526040808320848452825291829020825180840190935280548352600101549082015292915050565b6110f06120e2565b336000908152600a602052604090205460ff1661111f5760405162461bcd60e51b815260040161053590613328565b816000816040516020016111339190613374565b60408051601f198184030181529181528151602092830120600081815260099093529120549091506111775760405162461bcd60e51b815260040161053590613390565b60008460405160200161118a9190613374565b60408051601f198184030181529190528051602090910120905060008082815260096020526040902060030154600160a01b900460ff1660028111156111d2576111d2613069565b1461121f5760405162461bcd60e51b815260206004820152601f60248201527f54686973206f72646572206973206e6f206c6f6e6765722070656e64696e67006044820152606401610535565b600081815260096020908152604080832080546002909101546001600160a01b03168452600883528184208885529092529091206001810154611263908390613440565b815410156112d15760405162461bcd60e51b815260206004820152603560248201527f417661696c2062616c616e63652063616e206e657665722062652067726561746044820152746572207468616e2077616c6c657442616c616e636560581b6064820152608401610535565b80546113175760405162461bcd60e51b815260206004820152601560248201527424b73b30b634b2103ab9b2b9103130b630b731b29760591b6044820152606401610535565b6000838152600960205260408120600301805460ff60a01b1916600160a11b17905560018201805484929061134d908490613440565b90915550506040517ff5adc3e725c515c95698d481a1ad428b0305e928eb61dee6d481a6b9fa83179a90611382908990612c15565b60405180910390a150505050505050565b600960205260009081526040902080546001820180549192916113b5906134d0565b80601f01602080910402602001604051908101604052809291908181526020018280546113e1906134d0565b801561142e5780601f106114035761010080835404028352916020019161142e565b820191906000526020600020905b81548152906001019060200180831161141157829003601f168201915b50505050600283015460039093015491926001600160a01b03908116929081169150600160a01b900460ff1685565b611468338383612489565b5050565b60065460405163183c06e560e31b81526004810183905260009182916001600160a01b039091169063c1e0372890602401604080518083038186803b1580156114b457600080fd5b505afa1580156114c8573d6000803e3d6000fd5b505050506040513d601f19601f820116820180604052508101906114ec919061350b565b91509150915091565b6114fd6120e2565b611505612345565b60065460405163d10424c760e01b8152600481018590526000916001600160a01b03169063d10424c79060240160206040518083038186803b15801561154a57600080fd5b505afa15801561155e573d6000803e3d6000fd5b505050506040513d601f19601f8201168201806040525081019061158291906134b7565b82519091506000611593828461352f565b6005549091506115ae906001600160a01b031633308461256a565b60005b828110156117725760008582815181106115cd576115cd61342a565b602002602001015190506115e181896104ce565b156115fe5760405162461bcd60e51b81526004016105359061354e565b6001600160a01b03811661164b5760405162461bcd60e51b8152602060048201526014602482015273496e76616c69642075736572206164647265737360601b6044820152606401610535565b866001146116a75760405162461bcd60e51b815260206004820152602360248201527f416d6f756e742063616e206f6e6c79206265203120666f72206561636820746f60448201526235b2b760e91b6064820152608401610535565b6001600160a01b03811660009081526008602090815260408083208b845290915281208054909187918391906116de908490613440565b92505081905550858160010160008282546116f99190613440565b9250508190555061171b828a8a60405180602001604052806000815250612735565b604080516001600160a01b0384168152602081018890527f8fe10ae416f22f5e5220b0018a6c1d4ff534d6aa3a471f2a20cb7747fe63e5b9910160405180910390a15050808061176a90613458565b9150506115b1565b50505050505050565b611783612345565b6001600160a01b03166000908152600a60205260409020805460ff19166001179055565b6117af6120e2565b6117b7612345565b6117c181846104ce565b156117de5760405162461bcd60e51b81526004016105359061354e565b6001600160a01b03811661182b5760405162461bcd60e51b8152602060048201526014602482015273496e76616c69642075736572206164647265737360601b6044820152606401610535565b816001146118725760405162461bcd60e51b8152602060048201526014602482015273416d6f756e742063616e206f6e6c79206265203160601b6044820152606401610535565b60065460405163d10424c760e01b8152600481018590526000916001600160a01b03169063d10424c79060240160206040518083038186803b1580156118b757600080fd5b505afa1580156118cb573d6000803e3d6000fd5b505050506040513d601f19601f820116820180604052508101906118ef91906134b7565b6001600160a01b0383166000908152600860209081526040808320888452909152812080549293509183918391611927908490613440565b92505081905550818160010160008282546119429190613440565b909155505060055461195f906001600160a01b031633308561256a565b604080516001600160a01b0385168152602081018490527f8fe10ae416f22f5e5220b0018a6c1d4ff534d6aa3a471f2a20cb7747fe63e5b9910160405180910390a1610ca283868660405180602001604052806000815250612735565b6119c46120e2565b6119cc6122eb565b81600114611a135760405162461bcd60e51b8152602060048201526014602482015273416d6f756e742063616e206f6e6c79206265203160601b6044820152606401610535565b6001600160a01b0385166000908152600860209081526040808320868452909152902060010154611a865760405162461bcd60e51b815260206004820152601960248201527f496e76616c696420617661696c61626c652062616c616e6365000000000000006044820152606401610535565b6001600160a01b038416611ad85760405162461bcd60e51b8152602060048201526019602482015278496e76616c696420726563697069656e74206164647265737360381b6044820152606401610535565b6001600160a01b038516331480611af45750611af48533610467565b611b4e5760405162461bcd60e51b815260206004820152602560248201527f43616c6c6572206973206e6f7420746f6b656e206f776e6572206f72206170706044820152641c9bdd995960da1b6064820152608401610535565b6001600160a01b03851660009081526008602090815260408083208684529091528120600181015481549092839291611b889084906133e7565b90915550506001600160a01b038616600090815260086020908152604080832087845290915281206001018054839290611bc39084906133e7565b90915550506001600160a01b038516600090815260086020908152604080832087845290915281208054839290611bfb908490613440565b90915550506001600160a01b038516600090815260086020908152604080832087845290915281206001018054839290611c36908490613440565b90915550506001600160a01b038616600081815260086020908152604080832088845282529182902080546001909101548351898152928301919091528183015290516000805160206136f08339815191529181900360600190a26001600160a01b038516600081815260086020908152604080832088845282529182902080546001909101548351898152928301919091528183015290516000805160206136f08339815191529181900360600190a250610ca26001600455565b611cfa612345565b6001600160a01b038116611d5f5760405162461bcd60e51b815260206004820152602660248201527f4f776e61626c653a206e6577206f776e657220697320746865207a65726f206160448201526564647265737360d01b6064820152608401610535565b611d68816123f4565b50565b611d736120e2565b336000908152600a602052604090205460ff16611da25760405162461bcd60e51b815260040161053590613328565b6001600160a01b038516611df85760405162461bcd60e51b815260206004820152601860248201527f496e76616c696420637573746f6d6572206164647265737300000000000000006044820152606401610535565b60008211611e3e5760405162461bcd60e51b8152602060048201526013602482015272496e76616c6964206f726465722076616c756560681b6044820152606401610535565b6001600160a01b038116611e9e5760405162461bcd60e51b815260206004820152602160248201527f496e76616c69642066756e642064697362757273656d656e74206164647265736044820152607360f81b6064820152608401610535565b600083604051602001611eb19190613374565b60408051601f1981840301815291815281516020928301206000818152600990935291205490915015611f305760405162461bcd60e51b815260206004820152602160248201527f4f726465722077697468207468697320494420616c72656164792065786973746044820152607360f81b6064820152608401610535565b6001600160a01b038616600090815260086020908152604080832088845290915290206001810154841115611fa75760405162461bcd60e51b815260206004820152601c60248201527f496e73756666696369656e7420617661696c61626c652066756e6473000000006044820152606401610535565b6040518060a00160405280858152602001868152602001886001600160a01b03168152602001846001600160a01b0316815260200160006002811115611fef57611fef613069565b9052600083815260096020908152604090912082518155828201518051919261202092600185019290910190612a87565b506040820151600282810180546001600160a01b03199081166001600160a01b03948516179091556060850151600385018054928316919094169081178455608086015193926001600160a81b03199092161790600160a01b90849081111561208b5761208b613069565b0217905550905050838160010160008282546120a791906133e7565b90915550506040517f876de63952f3572464593ba66c6a47e2a98d027d084b98fcd69e035671c0693790611382908990889088908890613590565b600354600160a01b900460ff1615610da15760405162461bcd60e51b815260206004820152601060248201526f14185d5cd8589b194e881c185d5cd95960821b6044820152606401610535565b6001600160a01b03831661217a5760405162461bcd60e51b815260206004820152601260248201527145524332303a204e696c206164647265737360701b6044820152606401610535565b6001600160a01b0383163b6121c75760405162461bcd60e51b8152602060048201526013602482015272115490cc8c0e881153d0481c1c9bdd9a591959606a1b6044820152606401610535565b604080516001600160a01b038481166024830152604480830185905283518084039091018152606490920183526020820180516001600160e01b031663a9059cbb60e01b17905291516000928392908716916122239190613374565b6000604051808303816000865af19150503d8060008114612260576040519150601f19603f3d011682016040523d82523d6000602084013e612265565b606091505b509150915081801561228f57508051158061228f57508080602001905181019061228f91906135cb565b610ca25760405162461bcd60e51b815260206004820152602760248201527f496e746572616374696f6e2077697468207468652073706f7420746f6b656e206044820152663330b4b632b21760c91b6064820152608401610535565b6002600454141561233e5760405162461bcd60e51b815260206004820152601f60248201527f5265656e7472616e637947756172643a207265656e7472616e742063616c6c006044820152606401610535565b6002600455565b6003546001600160a01b03163314610da15760405162461bcd60e51b815260206004820181905260248201527f4f776e61626c653a2063616c6c6572206973206e6f7420746865206f776e65726044820152606401610535565b6123a7612840565b6003805460ff60a01b191690557f5db9ee0a495bf2e6ff9c91a7834c1ba4fdd244a5e8aa4e537bd38aeae4b073aa335b6040516001600160a01b03909116815260200160405180910390a1565b600380546001600160a01b038381166001600160a01b0319831681179093556040519116919082907f8be0079c531659141344cd1fd0a4f28419497f9722a3daafe3b4186f6b6457e090600090a35050565b61244e6120e2565b6003805460ff60a01b1916600160a01b1790557f62e78cea01bee320cd4e420270b5ea74000d11b0c9f74754ebdbfc544b05a2586123d73390565b816001600160a01b0316836001600160a01b031614156124fd5760405162461bcd60e51b815260206004820152602960248201527f455243313135353a2073657474696e6720617070726f76616c20737461747573604482015268103337b91039b2b63360b91b6064820152608401610535565b6001600160a01b03838116600081815260016020908152604080832094871680845294825291829020805460ff191686151590811790915591519182527f17307eab39ab6107e8899845ad3d59bd9653f200f220920489ca2b5937696c31910160405180910390a3505050565b6001600160a01b0384166125b55760405162461bcd60e51b815260206004820152601260248201527145524332303a204e696c206164647265737360701b6044820152606401610535565b6001600160a01b0384163b6126025760405162461bcd60e51b8152602060048201526013602482015272115490cc8c0e881153d0481c1c9bdd9a591959606a1b6044820152606401610535565b604080516001600160a01b0385811660248301528481166044830152606480830185905283518084039091018152608490920183526020820180516001600160e01b03166323b872dd60e01b17905291516000928392908816916126669190613374565b6000604051808303816000865af19150503d80600081146126a3576040519150601f19603f3d011682016040523d82523d6000602084013e6126a8565b606091505b50915091508180156126d25750805115806126d25750808060200190518101906126d291906135cb565b61272d5760405162461bcd60e51b815260206004820152602660248201527f45524332303a20496e737566666963656e742062616c616e6365206f722061706044820152651c1c9bdd985b60d21b6064820152608401610535565b505050505050565b6001600160a01b0384166127955760405162461bcd60e51b815260206004820152602160248201527f455243313135353a206d696e7420746f20746865207a65726f206164647265736044820152607360f81b6064820152608401610535565b3360006127a185612890565b905060006127ae85612890565b90506000868152602081815260408083206001600160a01b038b168452909152812080548792906127e0908490613440565b909155505060408051878152602081018790526001600160a01b03808a1692600092918716917fc3d58168c5ae7397731d063d5bbf3d657854427343f4c083240f7aacaa2d0f62910160405180910390a4611772836000898989896128db565b600354600160a01b900460ff16610da15760405162461bcd60e51b815260206004820152601460248201527314185d5cd8589b194e881b9bdd081c185d5cd95960621b6044820152606401610535565b604080516001808252818301909252606091600091906020808301908036833701905050905082816000815181106128ca576128ca61342a565b602090810291909101015292915050565b6001600160a01b0384163b1561272d5760405163f23a6e6160e01b81526001600160a01b0385169063f23a6e619061291f90899089908890889088906004016135e8565b602060405180830381600087803b15801561293957600080fd5b505af1925050508015612969575060408051601f3d908101601f191682019092526129669181019061362d565b60015b612a165761297561364a565b806308c379a014156129af575061298a613666565b8061299557506129b1565b8060405162461bcd60e51b81526004016105359190612c15565b505b60405162461bcd60e51b815260206004820152603460248201527f455243313135353a207472616e7366657220746f206e6f6e2d455243313135356044820152732932b1b2b4bb32b91034b6b83632b6b2b73a32b960611b6064820152608401610535565b6001600160e01b0319811663f23a6e6160e01b146117725760405162461bcd60e51b815260206004820152602860248201527f455243313135353a204552433131353552656365697665722072656a656374656044820152676420746f6b656e7360c01b6064820152608401610535565b828054612a93906134d0565b90600052602060002090601f016020900481019282612ab55760008555612afb565b82601f10612ace57805160ff1916838001178555612afb565b82800160010185558215612afb579182015b82811115612afb578251825591602001919060010190612ae0565b50612b07929150612b0b565b5090565b5b80821115612b075760008155600101612b0c565b80356001600160a01b0381168114612b3757600080fd5b919050565b60008060408385031215612b4f57600080fd5b612b5883612b20565b946020939093013593505050565b6001600160e01b031981168114611d6857600080fd5b600060208284031215612b8e57600080fd5b8135612b9981612b66565b9392505050565b600060208284031215612bb257600080fd5b5035919050565b60005b83811015612bd4578181015183820152602001612bbc565b83811115612be3576000848401525b50505050565b60008151808452612c01816020860160208601612bb9565b601f01601f19169290920160200192915050565b602081526000612b996020830184612be9565b634e487b7160e01b600052604160045260246000fd5b601f8201601f191681016001600160401b0381118282101715612c6357612c63612c28565b6040525050565b60006001600160401b03821115612c8357612c83612c28565b50601f01601f191660200190565b600082601f830112612ca257600080fd5b8135612cad81612c6a565b604051612cba8282612c3e565b828152856020848701011115612ccf57600080fd5b82602086016020830137600092810160200192909252509392505050565b600080600060608486031215612d0257600080fd5b83356001600160401b03811115612d1857600080fd5b612d2486828701612c91565b93505060208401359150612d3a60408501612b20565b90509250925092565b60006001600160401b03821115612d5c57612d5c612c28565b5060051b60200190565b600082601f830112612d7757600080fd5b81356020612d8482612d43565b604051612d918282612c3e565b83815260059390931b8501820192828101915086841115612db157600080fd5b8286015b84811015612dcc5780358352918301918301612db5565b509695505050505050565b600080600080600060a08688031215612def57600080fd5b612df886612b20565b9450612e0660208701612b20565b935060408601356001600160401b0380821115612e2257600080fd5b612e2e89838a01612d66565b94506060880135915080821115612e4457600080fd5b612e5089838a01612d66565b93506080880135915080821115612e6657600080fd5b50612e7388828901612c91565b9150509295509295909350565b600082601f830112612e9157600080fd5b81356020612e9e82612d43565b604051612eab8282612c3e565b83815260059390931b8501820192828101915086841115612ecb57600080fd5b8286015b84811015612dcc57612ee081612b20565b8352918301918301612ecf565b60008060408385031215612f0057600080fd5b82356001600160401b0380821115612f1757600080fd5b612f2386838701612e80565b93506020850135915080821115612f3957600080fd5b50612f4685828601612d66565b9150509250929050565b6020808252825182820181905260009190848201906040850190845b81811015612f8857835183529284019291840191600101612f6c565b50909695505050505050565b600060208284031215612fa657600080fd5b612b9982612b20565b60008060008060808587031215612fc557600080fd5b843593506020850135925060408501356001600160401b0380821115612fea57600080fd5b612ff688838901612c91565b9350606087013591508082111561300c57600080fd5b5061301987828801612c91565b91505092959194509250565b6000806040838503121561303857600080fd5b82356001600160401b0381111561304e57600080fd5b61305a85828601612c91565b95602094909401359450505050565b634e487b7160e01b600052602160045260246000fd5b85815260a06020820152600061309860a0830187612be9565b6001600160a01b038681166040850152851660608401529050600383106130cf57634e487b7160e01b600052602160045260246000fd5b8260808301529695505050505050565b8015158114611d6857600080fd5b6000806040838503121561310057600080fd5b61310983612b20565b91506020830135613119816130df565b809150509250929050565b60008060006060848603121561313957600080fd5b833592506020840135915060408401356001600160401b0381111561315d57600080fd5b61316986828701612e80565b9150509250925092565b60008060006060848603121561318857600080fd5b8335925060208401359150612d3a60408501612b20565b600080604083850312156131b257600080fd5b6131bb83612b20565b91506131c960208401612b20565b90509250929050565b600080600080600060a086880312156131ea57600080fd5b6131f386612b20565b945061320160208701612b20565b9350604086013592506060860135915060808601356001600160401b0381111561322a57600080fd5b612e7388828901612c91565b600080600080600060a0868803121561324e57600080fd5b61325786612b20565b94506020860135935060408601356001600160401b0381111561327957600080fd5b61328588828901612c91565b9350506060860135915061329b60808701612b20565b90509295509295909350565b6000602082840312156132b957600080fd5b81516001600160401b038111156132cf57600080fd5b8201601f810184136132e057600080fd5b80516132eb81612c6a565b6040516132f88282612c3e565b82815286602084860101111561330d57600080fd5b61331e836020830160208701612bb9565b9695505050505050565b6020808252602c908201527f596f7520617265206e6f7420617574686f72697a656420746f2063616c6c207460408201526b3434b990333ab731ba34b7b760a11b606082015260800190565b60008251613386818460208701612bb9565b9190910192915050565b60208082526021908201527f4f726465722077697468207468697320494420646f6573206e6f7420657869736040820152601d60fa1b606082015260800190565b634e487b7160e01b600052601160045260246000fd5b6000828210156133f9576133f96133d1565b500390565b6001600160a01b038316815260406020820181905260009061342290830184612be9565b949350505050565b634e487b7160e01b600052603260045260246000fd5b60008219821115613453576134536133d1565b500190565b600060001982141561346c5761346c6133d1565b5060010190565b85815284602082015260a06040820152600061349260a0830186612be9565b82810360608401526134a48186612be9565b9150508260808301529695505050505050565b6000602082840312156134c957600080fd5b5051919050565b600181811c908216806134e457607f821691505b6020821081141561350557634e487b7160e01b600052602260045260246000fd5b50919050565b6000806040838503121561351e57600080fd5b505080516020909101519092909150565b6000816000190483118215151615613549576135496133d1565b500290565b60208082526022908201527f4164647265737320616c726561647920686f6c64732074686973206163636f756040820152611b9d60f21b606082015260800190565b600060018060a01b038087168352608060208401526135b26080840187612be9565b6040840195909552929092166060909101525092915050565b6000602082840312156135dd57600080fd5b8151612b99816130df565b6001600160a01b03868116825285166020820152604081018490526060810183905260a06080820181905260009061362290830184612be9565b979650505050505050565b60006020828403121561363f57600080fd5b8151612b9981612b66565b600060033d11156136635760046000803e5060005160e01c5b90565b600060443d10156136745790565b6040516003193d81016004833e81513d6001600160401b0381602484011181841117156136a357505050505090565b82850191508151818111156136bb5750505050505090565b843d87010160208285010111156136d55750505050505090565b6136e460208286010187612c3e565b50909594505050505056fefb3c898a1040275f7df68a6e0b5c83a8cd95ef30093e81cb904903b080424ae9a264697066735822122012b4399e11c7a3a48f9611023ac67f7dc17d9fc172415c0d3e76c9983302999364736f6c6343000809003360a06040526001805534801561001457600080fd5b5061001e33610027565b30608052610077565b600080546001600160a01b038381166001600160a01b0319831681178455604051919092169283917f8be0079c531659141344cd1fd0a4f28419497f9722a3daafe3b4186f6b6457e09190a35050565b608051610b2661009260003960006106860152610b266000f3fe608060405234801561001057600080fd5b50600436106100885760003560e01c80638da5cb5b1161005b5780638da5cb5b146100f6578063c1e0372814610111578063d10424c714610139578063f2fde38b1461015a57600080fd5b80630e89341c1461008d57806348fd09f5146100b65780634e9b17dc146100d9578063715018a6146100ee575b600080fd5b6100a061009b3660046107dc565b61016d565b6040516100ad91906107f5565b60405180910390f35b6100c96100c4366004610891565b610246565b60405190151581526020016100ad565b6100ec6100e73660046109a7565b6102e8565b005b6100ec610499565b6000546040516001600160a01b0390911681526020016100ad565b61012461011f3660046107dc565b6104ad565b604080519283526020830191909152016100ad565b61014c6101473660046107dc565b610521565b6040519081526020016100ad565b6100ec610168366004610a26565b6105a8565b600081815260026020526040902060010154606090421061022957600082815260026020526040902060030180546101a490610a56565b80601f01602080910402602001604051908101604052809291908181526020018280546101d090610a56565b801561021d5780601f106101f25761010080835404028352916020019161021d565b820191906000526020600020905b81548152906001019060200180831161020057829003601f168201915b50505050509050919050565b60008281526002602081905260409091200180546101a490610a56565b6000805b82518110156102df576002600084838151811061026957610269610a91565b60200260200101518152602001908152602001600020600101544211806102bf5750600260008483815181106102a1576102a1610a91565b60200260200101518152602001908152602001600020600001546000145b156102cd5750600092915050565b806102d781610abd565b91505061024a565b50600192915050565b6102f0610621565b6102f861067b565b808411156103465760405162461bcd60e51b8152602060048201526016602482015275496e76616c696420746f6b656e206578706972792d3160501b60448201526064015b60405180910390fd5b42841161038e5760405162461bcd60e51b815260206004820152601660248201527524b73b30b634b2103a37b5b2b71032bc3834b93c969960511b604482015260640161033d565b846103ce5760405162461bcd60e51b815260206004820152601060248201526f053706f7420616d6f756e7420697320360841b604482015260640161033d565b6001805460009081526002602081815260408084208a90558454845280842085018990559354835292909120855161040e93919092019190860190610743565b506001546000908152600260209081526040909120835161043792600390920191850190610743565b50600154604080519182526020820187905281018590527feb74f27fcf6869d91bf51661e42dd9d20227b00afaab5c59243a0140a69784c49060600160405180910390a1600180600082825461048d9190610ad8565b90915550505050505050565b6104a1610621565b6104ab60006106f3565b565b60008181526002602052604081205481906105055760405162461bcd60e51b815260206004820152601860248201527750424d3a20496e76616c696420546f6b656e20496428732960401b604482015260640161033d565b5050600090815260026020526040902080546001909101549091565b6000818152600260205260408120541580159061054e575060008281526002602052604090206001015442105b6105955760405162461bcd60e51b815260206004820152601860248201527750424d3a20496e76616c696420546f6b656e20496428732960401b604482015260640161033d565b5060009081526002602052604090205490565b6105b0610621565b6001600160a01b0381166106155760405162461bcd60e51b815260206004820152602660248201527f4f776e61626c653a206e6577206f776e657220697320746865207a65726f206160448201526564647265737360d01b606482015260840161033d565b61061e816106f3565b50565b6000546001600160a01b031633146104ab5760405162461bcd60e51b815260206004820181905260248201527f4f776e61626c653a2063616c6c6572206973206e6f7420746865206f776e6572604482015260640161033d565b306001600160a01b037f000000000000000000000000000000000000000000000000000000000000000016146104ab5760405162461bcd60e51b815260206004820152601960248201527f44656c65676174652063616c6c73207265737472696374656400000000000000604482015260640161033d565b600080546001600160a01b038381166001600160a01b0319831681178455604051919092169283917f8be0079c531659141344cd1fd0a4f28419497f9722a3daafe3b4186f6b6457e09190a35050565b82805461074f90610a56565b90600052602060002090601f01602090048101928261077157600085556107b7565b82601f1061078a57805160ff19168380011785556107b7565b828001600101855582156107b7579182015b828111156107b757825182559160200191906001019061079c565b506107c39291506107c7565b5090565b5b808211156107c357600081556001016107c8565b6000602082840312156107ee57600080fd5b5035919050565b600060208083528351808285015260005b8181101561082257858101830151858201604001528201610806565b81811115610834576000604083870101525b50601f01601f1916929092016040019392505050565b634e487b7160e01b600052604160045260246000fd5b604051601f8201601f1916810167ffffffffffffffff811182821017156108895761088961084a565b604052919050565b600060208083850312156108a457600080fd5b823567ffffffffffffffff808211156108bc57600080fd5b818501915085601f8301126108d057600080fd5b8135818111156108e2576108e261084a565b8060051b91506108f3848301610860565b818152918301840191848101908884111561090d57600080fd5b938501935b8385101561092b57843582529385019390850190610912565b98975050505050505050565b600082601f83011261094857600080fd5b813567ffffffffffffffff8111156109625761096261084a565b610975601f8201601f1916602001610860565b81815284602083860101111561098a57600080fd5b816020850160208301376000918101602001919091529392505050565b600080600080600060a086880312156109bf57600080fd5b8535945060208601359350604086013567ffffffffffffffff808211156109e557600080fd5b6109f189838a01610937565b94506060880135915080821115610a0757600080fd5b50610a1488828901610937565b95989497509295608001359392505050565b600060208284031215610a3857600080fd5b81356001600160a01b0381168114610a4f57600080fd5b9392505050565b600181811c90821680610a6a57607f821691505b60208210811415610a8b57634e487b7160e01b600052602260045260246000fd5b50919050565b634e487b7160e01b600052603260045260246000fd5b634e487b7160e01b600052601160045260246000fd5b6000600019821415610ad157610ad1610aa7565b5060010190565b60008219821115610aeb57610aeb610aa7565b50019056fea2646970667358221220b3ab6dd7384fe9502218c1c1215267d23a1d4a388553c563401e4c5b24e8ab4164736f6c63430008090033",
  "devdoc": {
    "kind": "dev",
    "methods": {
      "balanceOf(address,uint256)": {
        "details": "See {IERC1155-balanceOf}. Requirements: - `account` cannot be the zero address."
      },
      "balanceOfBatch(address[],uint256[])": {
        "details": "See {IERC1155-balanceOfBatch}. Requirements: - `accounts` and `ids` must have the same length."
      },
      "cancelOrder(string,uint256)": {
        "params": {
          "orderId": "Platform-generated identifier for the order.",
          "tokenId": "Identifier of the PBM token type related to the order."
        }
      },
      "createOrder(address,uint256,string,uint256,address)": {
        "params": {
          "customerWalletAddr": "Address of the customer placing the order.",
          "fundDisbursementAddr": "Merchant address to receive the ERC-20 tokens upon order redemption.",
          "orderId": "Platform-generated identifier for the order.",
          "orderValue": "Value of the order in underlying ERC-20 tokens.",
          "tokenId": "Identifier of the PBM token type."
        }
      },
      "createPBMTokenType(uint256,uint256,string,string)": {
        "details": "See {IPBM-createPBMTokenType}. Requirements: - caller must be owner - contract must not be expired - `tokenExpiry` must be less than contract expiry - `amount` should not be 0"
      },
      "getTokenDetails(uint256)": {
        "details": "See {IPBM-getTokenDetails}."
      },
      "getUserBalance(address,uint256)": {
        "params": {
          "tokenId": "The identifier of the PBM token type.",
          "user": "The address of the user whose balance is to be queried."
        },
        "returns": {
          "userBalance": "The total wrapped erc20 token balance of the user for the specified PBM token.(walletBalance, availableBalance)"
        }
      },
      "initialise(address,uint256)": {
        "params": {
          "_expiry": "Global expiry timestamp for the contract.",
          "_spotToken": "The address of the underlying ERC20 token."
        }
      },
      "isApprovedForAll(address,address)": {
        "details": "See {IERC1155-isApprovedForAll}."
      },
      "mint(uint256,uint256,address)": {
        "details": "See {IPBM-mint}.      IMPT: Before minting, the caller should approve the contract address to spend ERC-20 tokens on behalf of the caller.       This can be done by calling the `approve` or `increaseMinterAllowance` functions of the ERC-20 contract and specifying `_spender` to be the PBM contract address.  Ref : https://eips.ethereum.org/EIPS/eip-20 WARNING: Any contracts that externally call these mint() and batchMint() functions should implement some sort of reentrancy guard procedure (such as OpenZeppelin's ReentrancyGuard). Requirements: - contract must not be paused - tokens must not be expired - `tokenId` should be a valid id that has already been created - caller should have the necessary amount of the ERC-20 tokens required to mint - caller should have approved the PBM contract to spend the ERC-20 tokens - receiver should not be blacklisted"
      },
      "owner()": {
        "details": "Returns the address of the current owner."
      },
      "pause()": {
        "details": "see {Pausable _pause} Requirements : - caller should be owner"
      },
      "paused()": {
        "details": "Returns true if the contract is paused, and false otherwise."
      },
      "redeemOrder(string,uint256,address)": {
        "params": {
          "orderId": "Platform-generated identifier for the order.",
          "tokenId": "Identifier of the PBM token type related to the order.",
          "userWallet": "Address of the customer redeeming the order."
        }
      },
      "renounceOwnership()": {
        "details": "Leaves the contract without owner. It will not be possible to call `onlyOwner` functions. Can only be called by the current owner. NOTE: Renouncing ownership will leave the contract without an owner, thereby disabling any functionality that is only available to the owner."
      },
      "revokePBM()": {
        "details": "See {IPBM-revokePBM}. Requirements: - caller must be the owner of the contract - token must be expired"
      },
      "safeBatchTransferFrom(address,address,uint256[],uint256[],bytes)": {
        "details": "See {IPBM-safeBatchTransferFrom}. IMPT: This function doesn't actually transfer the underlying ERC20 tokens. Instead, it only updates the user balances within this contract. Requirements: - contract must not be paused. - `amounts` for each tokenId should be exactly 1. - sender (`from` address) should have a positive available balance for each tokenId. - recipient (`to` address) should not be the zero address. - caller must be either the token owner or approved to transfer the tokens."
      },
      "safeTransferFrom(address,address,uint256,uint256,bytes)": {
        "details": "See {IPBM-safeTransferFrom}. IMPT: This function doesn't actually transfer the underlying ERC20 tokens. Instead, it only updates the user balances within this contract. Requirements: - contract must not be paused. - `amount` should be exactly 1. - sender (`from` address) should have a positive available balance. - recipient (`to` address) should not be the zero address. - caller must be either the token owner or approved to transfer the token."
      },
      "setApprovalForAll(address,bool)": {
        "details": "See {IERC1155-setApprovalForAll}."
      },
      "supportsInterface(bytes4)": {
        "details": "See {IERC165-supportsInterface}."
      },
      "transferOwnership(address)": {
        "details": "Transfers ownership of the contract to a new account (`newOwner`). Can only be called by the current owner."
      },
      "unpause()": {
        "details": "see {Pausable _unpause} Requirements : - caller should be owner"
      },
      "uri(uint256)": {
        "details": "See {IPBM-uri}."
      }
    },
    "version": 1
  },
  "userdoc": {
    "events": {
      "PBMrevokeWithdraw(address,address,uint256)": {
        "notice": "Emitted when a PBM's creator retrieves the ERC-20 tokens from expired PBMs."
      }
    },
    "kind": "user",
    "methods": {
      "cancelOrder(string,uint256)": {
        "notice": "Cancels a pending order, refunding the ERC-20 token value to the customer."
      },
      "createOrder(address,uint256,string,uint256,address)": {
        "notice": "Initiates a new order, locking the specified ERC-20 token value within this contract."
      },
      "getUserBalance(address,uint256)": {
        "notice": "Fetches the balance details for a user for a specific PBM token."
      },
      "initialise(address,uint256)": {
        "notice": "Initializes the contract with the address of the underlying ERC20 token, contract expiration, and the PBM address list."
      },
      "redeemOrder(string,uint256,address)": {
        "notice": "Redeems a pending order, releasing the ERC-20 token value to the specified merchant address."
      }
    },
    "version": 1
  },
  "storageLayout": {
    "storage": [
      {
        "astId": 314,
        "contract": "contracts/PBM.sol:PBM",
        "label": "_balances",
        "offset": 0,
        "slot": "0",
        "type": "t_mapping(t_uint256,t_mapping(t_address,t_uint256))"
      },
      {
        "astId": 320,
        "contract": "contracts/PBM.sol:PBM",
        "label": "_operatorApprovals",
        "offset": 0,
        "slot": "1",
        "type": "t_mapping(t_address,t_mapping(t_address,t_bool))"
      },
      {
        "astId": 322,
        "contract": "contracts/PBM.sol:PBM",
        "label": "_uri",
        "offset": 0,
        "slot": "2",
        "type": "t_string_storage"
      },
      {
        "astId": 7,
        "contract": "contracts/PBM.sol:PBM",
        "label": "_owner",
        "offset": 0,
        "slot": "3",
        "type": "t_address"
      },
      {
        "astId": 133,
        "contract": "contracts/PBM.sol:PBM",
        "label": "_paused",
        "offset": 20,
        "slot": "3",
        "type": "t_bool"
      },
      {
        "astId": 234,
        "contract": "contracts/PBM.sol:PBM",
        "label": "_status",
        "offset": 0,
        "slot": "4",
        "type": "t_uint256"
      },
      {
        "astId": 4388,
        "contract": "contracts/PBM.sol:PBM",
        "label": "spotToken",
        "offset": 0,
        "slot": "5",
        "type": "t_address"
      },
      {
        "astId": 4394,
        "contract": "contracts/PBM.sol:PBM",
        "label": "pbmTokenManager",
        "offset": 0,
        "slot": "6",
        "type": "t_address"
      },
      {
        "astId": 4397,
        "contract": "contracts/PBM.sol:PBM",
        "label": "initialised",
        "offset": 20,
        "slot": "6",
        "type": "t_bool"
      },
      {
        "astId": 4399,
        "contract": "contracts/PBM.sol:PBM",
        "label": "contractExpiry",
        "offset": 0,
        "slot": "7",
        "type": "t_uint256"
      },
      {
        "astId": 4476,
        "contract": "contracts/PBM.sol:PBM",
        "label": "userBalances",
        "offset": 0,
        "slot": "8",
        "type": "t_mapping(t_address,t_mapping(t_uint256,t_struct(UserBalance)4112_storage))"
      },
      {
        "astId": 4505,
        "contract": "contracts/PBM.sol:PBM",
        "label": "orders",
        "offset": 0,
        "slot": "9",
        "type": "t_mapping(t_bytes32,t_struct(Order)4469_storage)"
      },
      {
        "astId": 4509,
        "contract": "contracts/PBM.sol:PBM",
        "label": "whitelist",
        "offset": 0,
        "slot": "10",
        "type": "t_mapping(t_address,t_bool)"
      }
    ],
    "types": {
      "t_address": {
        "encoding": "inplace",
        "label": "address",
        "numberOfBytes": "20"
      },
      "t_bool": {
        "encoding": "inplace",
        "label": "bool",
        "numberOfBytes": "1"
      },
      "t_bytes32": {
        "encoding": "inplace",
        "label": "bytes32",
        "numberOfBytes": "32"
      },
      "t_enum(OrderStatus)4457": {
        "encoding": "inplace",
        "label": "enum PBM.OrderStatus",
        "numberOfBytes": "1"
      },
      "t_mapping(t_address,t_bool)": {
        "encoding": "mapping",
        "key": "t_address",
        "label": "mapping(address => bool)",
        "numberOfBytes": "32",
        "value": "t_bool"
      },
      "t_mapping(t_address,t_mapping(t_address,t_bool))": {
        "encoding": "mapping",
        "key": "t_address",
        "label": "mapping(address => mapping(address => bool))",
        "numberOfBytes": "32",
        "value": "t_mapping(t_address,t_bool)"
      },
      "t_mapping(t_address,t_mapping(t_uint256,t_struct(UserBalance)4112_storage))": {
        "encoding": "mapping",
        "key": "t_address",
        "label": "mapping(address => mapping(uint256 => struct IPBM.UserBalance))",
        "numberOfBytes": "32",
        "value": "t_mapping(t_uint256,t_struct(UserBalance)4112_storage)"
      },
      "t_mapping(t_address,t_uint256)": {
        "encoding": "mapping",
        "key": "t_address",
        "label": "mapping(address => uint256)",
        "numberOfBytes": "32",
        "value": "t_uint256"
      },
      "t_mapping(t_bytes32,t_struct(Order)4469_storage)": {
        "encoding": "mapping",
        "key": "t_bytes32",
        "label": "mapping(bytes32 => struct PBM.Order)",
        "numberOfBytes": "32",
        "value": "t_struct(Order)4469_storage"
      },
      "t_mapping(t_uint256,t_mapping(t_address,t_uint256))": {
        "encoding": "mapping",
        "key": "t_uint256",
        "label": "mapping(uint256 => mapping(address => uint256))",
        "numberOfBytes": "32",
        "value": "t_mapping(t_address,t_uint256)"
      },
      "t_mapping(t_uint256,t_struct(UserBalance)4112_storage)": {
        "encoding": "mapping",
        "key": "t_uint256",
        "label": "mapping(uint256 => struct IPBM.UserBalance)",
        "numberOfBytes": "32",
        "value": "t_struct(UserBalance)4112_storage"
      },
      "t_string_storage": {
        "encoding": "bytes",
        "label": "string",
        "numberOfBytes": "32"
      },
      "t_struct(Order)4469_storage": {
        "encoding": "inplace",
        "label": "struct PBM.Order",
        "members": [
          {
            "astId": 4459,
            "contract": "contracts/PBM.sol:PBM",
            "label": "orderValue",
            "offset": 0,
            "slot": "0",
            "type": "t_uint256"
          },
          {
            "astId": 4461,
            "contract": "contracts/PBM.sol:PBM",
            "label": "orderId",
            "offset": 0,
            "slot": "1",
            "type": "t_string_storage"
          },
          {
            "astId": 4463,
            "contract": "contracts/PBM.sol:PBM",
            "label": "customerWallet",
            "offset": 0,
            "slot": "2",
            "type": "t_address"
          },
          {
            "astId": 4465,
            "contract": "contracts/PBM.sol:PBM",
            "label": "fundDisbursementAddress",
            "offset": 0,
            "slot": "3",
            "type": "t_address"
          },
          {
            "astId": 4468,
            "contract": "contracts/PBM.sol:PBM",
            "label": "status",
            "offset": 20,
            "slot": "3",
            "type": "t_enum(OrderStatus)4457"
          }
        ],
        "numberOfBytes": "128"
      },
      "t_struct(UserBalance)4112_storage": {
        "encoding": "inplace",
        "label": "struct IPBM.UserBalance",
        "members": [
          {
            "astId": 4109,
            "contract": "contracts/PBM.sol:PBM",
            "label": "walletBalance",
            "offset": 0,
            "slot": "0",
            "type": "t_uint256"
          },
          {
            "astId": 4111,
            "contract": "contracts/PBM.sol:PBM",
            "label": "availableBalance",
            "offset": 0,
            "slot": "1",
            "type": "t_uint256"
          }
        ],
        "numberOfBytes": "64"
      },
      "t_uint256": {
        "encoding": "inplace",
        "label": "uint256",
        "numberOfBytes": "32"
      }
    }
  }
}