{
  "address": "0x601Ef86A710f0f2f85C5b4652A22954Ae550A6FA",
  "abi": [
    {
      "inputs": [],
      "stateMutability": "nonpayable",
      "type": "constructor"
    },
    {
      "anonymous": false,
      "inputs": [
        {
          "indexed": true,
          "internalType": "address",
          "name": "account",
          "type": "address"
        },
        {
          "indexed": true,
          "internalType": "address",
          "name": "operator",
          "type": "address"
        },
        {
          "indexed": false,
          "internalType": "bool",
          "name": "approved",
          "type": "bool"
        }
      ],
      "name": "ApprovalForAll",
      "type": "event"
    },
    {
      "anonymous": false,
      "inputs": [
        {
          "indexed": false,
          "internalType": "address",
          "name": "from",
          "type": "address"
        },
        {
          "indexed": false,
          "internalType": "address",
          "name": "to",
          "type": "address"
        },
        {
          "indexed": false,
          "internalType": "uint256[]",
          "name": "tokenIds",
          "type": "uint256[]"
        },
        {
          "indexed": false,
          "internalType": "uint256[]",
          "name": "amounts",
          "type": "uint256[]"
        },
        {
          "indexed": false,
          "internalType": "address",
          "name": "ERC20Token",
          "type": "address"
        },
        {
          "indexed": false,
          "internalType": "uint256",
          "name": "ERC20TokenValue",
          "type": "uint256"
        }
      ],
      "name": "MerchantPayment",
      "type": "event"
    },
    {
      "anonymous": false,
      "inputs": [
        {
          "indexed": true,
          "internalType": "address",
          "name": "previousOwner",
          "type": "address"
        },
        {
          "indexed": true,
          "internalType": "address",
          "name": "newOwner",
          "type": "address"
        }
      ],
      "name": "OwnershipTransferred",
      "type": "event"
    },
    {
      "anonymous": false,
      "inputs": [
        {
          "indexed": false,
          "internalType": "address",
          "name": "beneficiary",
          "type": "address"
        },
        {
          "indexed": false,
          "internalType": "uint256",
          "name": "PBMTokenId",
          "type": "uint256"
        },
        {
          "indexed": false,
          "internalType": "address",
          "name": "ERC20Token",
          "type": "address"
        },
        {
          "indexed": false,
          "internalType": "uint256",
          "name": "ERC20TokenValue",
          "type": "uint256"
        }
      ],
      "name": "PBMrevokeWithdraw",
      "type": "event"
    },
    {
      "anonymous": false,
      "inputs": [
        {
          "indexed": false,
          "internalType": "address",
          "name": "account",
          "type": "address"
        }
      ],
      "name": "Paused",
      "type": "event"
    },
    {
      "anonymous": false,
      "inputs": [
        {
          "indexed": true,
          "internalType": "address",
          "name": "operator",
          "type": "address"
        },
        {
          "indexed": true,
          "internalType": "address",
          "name": "from",
          "type": "address"
        },
        {
          "indexed": true,
          "internalType": "address",
          "name": "to",
          "type": "address"
        },
        {
          "indexed": false,
          "internalType": "uint256[]",
          "name": "ids",
          "type": "uint256[]"
        },
        {
          "indexed": false,
          "internalType": "uint256[]",
          "name": "values",
          "type": "uint256[]"
        }
      ],
      "name": "TransferBatch",
      "type": "event"
    },
    {
      "anonymous": false,
      "inputs": [
        {
          "indexed": true,
          "internalType": "address",
          "name": "operator",
          "type": "address"
        },
        {
          "indexed": true,
          "internalType": "address",
          "name": "from",
          "type": "address"
        },
        {
          "indexed": true,
          "internalType": "address",
          "name": "to",
          "type": "address"
        },
        {
          "indexed": false,
          "internalType": "uint256",
          "name": "id",
          "type": "uint256"
        },
        {
          "indexed": false,
          "internalType": "uint256",
          "name": "value",
          "type": "uint256"
        }
      ],
      "name": "TransferSingle",
      "type": "event"
    },
    {
      "anonymous": false,
      "inputs": [
        {
          "indexed": false,
          "internalType": "string",
          "name": "value",
          "type": "string"
        },
        {
          "indexed": true,
          "internalType": "uint256",
          "name": "id",
          "type": "uint256"
        }
      ],
      "name": "URI",
      "type": "event"
    },
    {
      "anonymous": false,
      "inputs": [
        {
          "indexed": false,
          "internalType": "address",
          "name": "account",
          "type": "address"
        }
      ],
      "name": "Unpaused",
      "type": "event"
    },
    {
      "inputs": [
        {
          "internalType": "address",
          "name": "account",
          "type": "address"
        },
        {
          "internalType": "uint256",
          "name": "id",
          "type": "uint256"
        }
      ],
      "name": "balanceOf",
      "outputs": [
        {
          "internalType": "uint256",
          "name": "",
          "type": "uint256"
        }
      ],
      "stateMutability": "view",
      "type": "function"
    },
    {
      "inputs": [
        {
          "internalType": "address[]",
          "name": "accounts",
          "type": "address[]"
        },
        {
          "internalType": "uint256[]",
          "name": "ids",
          "type": "uint256[]"
        }
      ],
      "name": "balanceOfBatch",
      "outputs": [
        {
          "internalType": "uint256[]",
          "name": "",
          "type": "uint256[]"
        }
      ],
      "stateMutability": "view",
      "type": "function"
    },
    {
      "inputs": [
        {
          "internalType": "uint256[]",
          "name": "tokenIds",
          "type": "uint256[]"
        },
        {
          "internalType": "uint256[]",
          "name": "amounts",
          "type": "uint256[]"
        },
        {
          "internalType": "address",
          "name": "receiver",
          "type": "address"
        }
      ],
      "name": "batchMint",
      "outputs": [],
      "stateMutability": "nonpayable",
      "type": "function"
    },
    {
      "inputs": [],
      "name": "contractExpiry",
      "outputs": [
        {
          "internalType": "uint256",
          "name": "",
          "type": "uint256"
        }
      ],
      "stateMutability": "view",
      "type": "function"
    },
    {
      "inputs": [
        {
          "internalType": "string",
          "name": "companyName",
          "type": "string"
        },
        {
          "internalType": "uint256",
          "name": "spotAmount",
          "type": "uint256"
        },
        {
          "internalType": "uint256",
          "name": "tokenExpiry",
          "type": "uint256"
        },
        {
          "internalType": "address",
          "name": "creator",
          "type": "address"
        },
        {
          "internalType": "string",
          "name": "tokenURI",
          "type": "string"
        },
        {
          "internalType": "string",
          "name": "postExpiryURI",
          "type": "string"
        }
      ],
      "name": "createPBMTokenType",
      "outputs": [],
      "stateMutability": "nonpayable",
      "type": "function"
    },
    {
      "inputs": [
        {
          "internalType": "uint256",
          "name": "tokenId",
          "type": "uint256"
        }
      ],
      "name": "getTokenDetails",
      "outputs": [
        {
          "internalType": "string",
          "name": "",
          "type": "string"
        },
        {
          "internalType": "uint256",
          "name": "",
          "type": "uint256"
        },
        {
          "internalType": "uint256",
          "name": "",
          "type": "uint256"
        },
        {
          "internalType": "address",
          "name": "",
          "type": "address"
        }
      ],
      "stateMutability": "view",
      "type": "function"
    },
    {
      "inputs": [
        {
          "internalType": "address",
          "name": "_spotToken",
          "type": "address"
        },
        {
          "internalType": "uint256",
          "name": "_expiry",
          "type": "uint256"
        },
        {
          "internalType": "address",
          "name": "_pbmAddressList",
          "type": "address"
        }
      ],
      "name": "initialise",
      "outputs": [],
      "stateMutability": "nonpayable",
      "type": "function"
    },
    {
      "inputs": [
        {
          "internalType": "address",
          "name": "account",
          "type": "address"
        },
        {
          "internalType": "address",
          "name": "operator",
          "type": "address"
        }
      ],
      "name": "isApprovedForAll",
      "outputs": [
        {
          "internalType": "bool",
          "name": "",
          "type": "bool"
        }
      ],
      "stateMutability": "view",
      "type": "function"
    },
    {
      "inputs": [
        {
          "internalType": "address",
          "name": "originalCaller",
          "type": "address"
        },
        {
          "internalType": "uint256",
          "name": "tokenId",
          "type": "uint256"
        },
        {
          "internalType": "uint256",
          "name": "spotAmount",
          "type": "uint256"
        }
      ],
      "name": "load",
      "outputs": [],
      "stateMutability": "nonpayable",
      "type": "function"
    },
    {
      "inputs": [
        {
          "internalType": "uint256",
          "name": "tokenId",
          "type": "uint256"
        },
        {
          "internalType": "uint256",
          "name": "amount",
          "type": "uint256"
        },
        {
          "internalType": "address",
          "name": "receiver",
          "type": "address"
        }
      ],
      "name": "mint",
      "outputs": [],
      "stateMutability": "nonpayable",
      "type": "function"
    },
    {
      "inputs": [],
      "name": "owner",
      "outputs": [
        {
          "internalType": "address",
          "name": "",
          "type": "address"
        }
      ],
      "stateMutability": "view",
      "type": "function"
    },
    {
      "inputs": [],
      "name": "pause",
      "outputs": [],
      "stateMutability": "nonpayable",
      "type": "function"
    },
    {
      "inputs": [],
      "name": "paused",
      "outputs": [
        {
          "internalType": "bool",
          "name": "",
          "type": "bool"
        }
      ],
      "stateMutability": "view",
      "type": "function"
    },
    {
      "inputs": [],
      "name": "pbmAddressList",
      "outputs": [
        {
          "internalType": "address",
          "name": "",
          "type": "address"
        }
      ],
      "stateMutability": "view",
      "type": "function"
    },
    {
      "inputs": [],
      "name": "pbmTokenManager",
      "outputs": [
        {
          "internalType": "address",
          "name": "",
          "type": "address"
        }
      ],
      "stateMutability": "view",
      "type": "function"
    },
    {
      "inputs": [],
      "name": "renounceOwnership",
      "outputs": [],
      "stateMutability": "nonpayable",
      "type": "function"
    },
    {
      "inputs": [
        {
          "internalType": "uint256",
          "name": "tokenId",
          "type": "uint256"
        }
      ],
      "name": "revokePBM",
      "outputs": [],
      "stateMutability": "nonpayable",
      "type": "function"
    },
    {
      "inputs": [
        {
          "internalType": "address",
          "name": "from",
          "type": "address"
        },
        {
          "internalType": "address",
          "name": "to",
          "type": "address"
        },
        {
          "internalType": "uint256[]",
          "name": "ids",
          "type": "uint256[]"
        },
        {
          "internalType": "uint256[]",
          "name": "amounts",
          "type": "uint256[]"
        },
        {
          "internalType": "bytes",
          "name": "data",
          "type": "bytes"
        }
      ],
      "name": "safeBatchTransferFrom",
      "outputs": [],
      "stateMutability": "nonpayable",
      "type": "function"
    },
    {
      "inputs": [
        {
          "internalType": "address",
          "name": "from",
          "type": "address"
        },
        {
          "internalType": "address",
          "name": "to",
          "type": "address"
        },
        {
          "internalType": "uint256",
          "name": "id",
          "type": "uint256"
        },
        {
          "internalType": "uint256",
          "name": "amount",
          "type": "uint256"
        },
        {
          "internalType": "bytes",
          "name": "data",
          "type": "bytes"
        }
      ],
      "name": "safeTransferFrom",
      "outputs": [],
      "stateMutability": "nonpayable",
      "type": "function"
    },
    {
      "inputs": [
        {
          "internalType": "address",
          "name": "operator",
          "type": "address"
        },
        {
          "internalType": "bool",
          "name": "approved",
          "type": "bool"
        }
      ],
      "name": "setApprovalForAll",
      "outputs": [],
      "stateMutability": "nonpayable",
      "type": "function"
    },
    {
      "inputs": [],
      "name": "spotToken",
      "outputs": [
        {
          "internalType": "address",
          "name": "",
          "type": "address"
        }
      ],
      "stateMutability": "view",
      "type": "function"
    },
    {
      "inputs": [
        {
          "internalType": "bytes4",
          "name": "interfaceId",
          "type": "bytes4"
        }
      ],
      "name": "supportsInterface",
      "outputs": [
        {
          "internalType": "bool",
          "name": "",
          "type": "bool"
        }
      ],
      "stateMutability": "view",
      "type": "function"
    },
    {
      "inputs": [
        {
          "internalType": "address",
          "name": "newOwner",
          "type": "address"
        }
      ],
      "name": "transferOwnership",
      "outputs": [],
      "stateMutability": "nonpayable",
      "type": "function"
    },
    {
      "inputs": [
        {
          "internalType": "address",
          "name": "originalCaller",
          "type": "address"
        },
        {
          "internalType": "uint256",
          "name": "spotAmount",
          "type": "uint256"
        }
      ],
      "name": "unLoad",
      "outputs": [],
      "stateMutability": "nonpayable",
      "type": "function"
    },
    {
      "inputs": [],
      "name": "unpause",
      "outputs": [],
      "stateMutability": "nonpayable",
      "type": "function"
    },
    {
      "inputs": [
        {
          "internalType": "uint256",
          "name": "tokenId",
          "type": "uint256"
        }
      ],
      "name": "uri",
      "outputs": [
        {
          "internalType": "string",
          "name": "",
          "type": "string"
        }
      ],
      "stateMutability": "view",
      "type": "function"
    },
    {
      "inputs": [
        {
          "internalType": "address",
          "name": "",
          "type": "address"
        }
      ],
      "name": "userWalletBalance",
      "outputs": [
        {
          "internalType": "uint256",
          "name": "",
          "type": "uint256"
        }
      ],
      "stateMutability": "view",
      "type": "function"
    }
  ],
  "transactionHash": "0x007304a6bc467ce849f05979606849c2cc139683a97f89183d076988290dba17",
  "args": [],
  "numDeployments": 1,
  "solcInputHash": "0af8cf3b65067f18433b1b8c3f453882",
  "bytecode": "0x6080604052600480546001600160a01b0319908116909155600580549091169055600680546001600160a81b03191690553480156200003d57600080fd5b506040805160208101909152600081526200005881620000c3565b506200006433620000dc565b6003805460ff60a01b191690556040516200007f906200012e565b604051809103906000f0801580156200009c573d6000803e3d6000fd5b50600580546001600160a01b0319166001600160a01b03929092169190911790556200021f565b8051620000d89060029060208401906200013c565b5050565b600380546001600160a01b038381166001600160a01b0319831681179093556040519116919082907f8be0079c531659141344cd1fd0a4f28419497f9722a3daafe3b4186f6b6457e090600090a35050565b6114b680620031ac83390190565b8280546200014a90620001e2565b90600052602060002090601f0160209004810192826200016e5760008555620001b9565b82601f106200018957805160ff1916838001178555620001b9565b82800160010185558215620001b9579182015b82811115620001b95782518255916020019190600101906200019c565b50620001c7929150620001cb565b5090565b5b80821115620001c75760008155600101620001cc565b600181811c90821680620001f757607f821691505b602082108114156200021957634e487b7160e01b600052602260045260246000fd5b50919050565b612f7d806200022f6000396000f3fe608060405234801561001057600080fd5b50600436106101a85760003560e01c806363be47d2116100f9578063b347e9bf11610097578063e985e9c511610071578063e985e9c5146103a8578063f242432a146103e4578063f2fde38b146103f7578063fb34b2011461040a57600080fd5b8063b347e9bf14610352578063c1e0372814610372578063e7d3fe6b1461039557600080fd5b80638456cb59116100d35780638456cb591461031d57806389aba642146103255780638da5cb5b1461032e578063a22cb4651461033f57600080fd5b806363be47d2146102ef578063715018a61461030257806373e17e761461030a57600080fd5b80632eb2c2d6116101665780634e1273f4116101405780634e1273f41461029757806351e86cf6146102b75780635c975abb146102ca57806361fc8121146102dc57600080fd5b80632eb2c2d6146102695780633f4ba83a1461027c578063451ef2b81461028457600080fd5b8062fdd58e146101ad57806301ffc9a7146101d357806307e82e0f146101f65780630a92802c1461020b5780630ad894621461021e5780630e89341c14610249575b600080fd5b6101c06101bb36600461220f565b61041d565b6040519081526020015b60405180910390f35b6101e66101e1366004612251565b6104b3565b60405190151581526020016101ca565b610209610204366004612275565b610505565b005b6102096102193660046122b7565b610640565b600454610231906001600160a01b031681565b6040516001600160a01b0390911681526020016101ca565b61025c6102573660046122ec565b610705565b6040516101ca9190612361565b6102096102773660046124d0565b610786565b610209610a31565b61020961029236600461220f565b610a43565b6102aa6102a536600461257e565b610b04565b6040516101ca9190612686565b600654610231906001600160a01b031681565b600354600160a01b900460ff166101e6565b6102096102ea366004612699565b610c2e565b600554610231906001600160a01b031681565b610209610cad565b6102096103183660046122ec565b610cbf565b610209610e17565b6101c060075481565b6003546001600160a01b0316610231565b61020961034d366004612756565b610e27565b6101c061036036600461278f565b60086020526000908152604090205481565b6103856103803660046122ec565b610e36565b6040516101ca94939291906127ac565b6102096103a33660046127e4565b610ecf565b6101e66103b6366004612812565b6001600160a01b03918216600090815260016020908152604080832093909416825291909152205460ff1690565b6102096103f2366004612840565b611005565b61020961040536600461278f565b611265565b6102096104183660046128a9565b6112de565b60006001600160a01b03831661048d5760405162461bcd60e51b815260206004820152602a60248201527f455243313135353a2061646472657373207a65726f206973206e6f742061207660448201526930b634b21037bbb732b960b11b60648201526084015b60405180910390fd5b506000908152602081815260408083206001600160a01b03949094168352929052205490565b60006001600160e01b03198216636cdb3d1360e11b14806104e457506001600160e01b031982166303a24d0760e21b145b806104ff57506301ffc9a760e01b6001600160e01b03198316145b92915050565b61050d611452565b600654600160a01b900460ff16156105675760405162461bcd60e51b815260206004820152601860248201527f50424d3a20416c726561647920696e697469616c6973656400000000000000006044820152606401610484565b6001600160a01b0383163b6105b35760405162461bcd60e51b815260206004820152601260248201527124b73b30b634b21039b837ba103a37b5b2b760711b6044820152606401610484565b6001600160a01b0381163b6105ff5760405162461bcd60e51b815260206004820152601260248201527124b73b30b634b21039b837ba103a37b5b2b760711b6044820152606401610484565b600480546001600160a01b039485166001600160a01b0319909116179055600791909155600680546001600160a81b0319169190921617600160a01b179055565b6106486114ac565b6001610654848461041d565b10156106bb5760405162461bcd60e51b815260206004820152603060248201527f50424d3a20446f6e2774206861766520656e6f7567682050424d20656e76656c60448201526f1bdc19481d1bc81b1bd859081cdc1bdd60821b6064820152608401610484565b6004546106d3906001600160a01b03163330846114f9565b6001600160a01b038316600090815260086020526040812080548392906106fb90849061292c565b9091555050505050565b6005546040516303a24d0760e21b8152600481018390526060916001600160a01b031690630e89341c9060240160006040518083038186803b15801561074a57600080fd5b505afa15801561075e573d6000803e3d6000fd5b505050506040513d6000823e601f3d908101601f191682016040526104ff919081019061299c565b61078e6114ac565b6001600160a01b0385163314806107aa57506107aa85336103b6565b6107c65760405162461bcd60e51b8152600401610484906129d9565b60065460405163fe575a8760e01b81526001600160a01b0386811660048301529091169063fe575a8790602401602060405180830381600087803b15801561080d57600080fd5b505af1158015610821573d6000803e3d6000fd5b505050506040513d601f19601f820116820180604052508101906108459190612a28565b156108625760405162461bcd60e51b815260040161048490612a45565b81518351146108b35760405162461bcd60e51b815260206004820181905260248201527f556e657175616c2069647320616e6420616d6f756e747320737570706c6965646044820152606401610484565b600654604051631a2f716760e01b81526001600160a01b03868116600483015290911690631a2f716790602401602060405180830381600087803b1580156108fa57600080fd5b505af115801561090e573d6000803e3d6000fd5b505050506040513d601f19601f820116820180604052508101906109329190612a28565b15610a1d5760008180602001905181019061094d9190612a7c565b6001600160a01b0387166000908152600860205260409020549091508111156109885760405162461bcd60e51b815260040161048490612a95565b6001600160a01b038616600090815260086020526040812080548392906109b0908490612ad7565b90915550506004546109cc906001600160a01b031686836116c4565b6004546040517f68c9cd42836993caa70415e61f3c3baceb0bb31dcb22af6e5e0db98fa8870fac91610a139189918991899189916001600160a01b03909116908890612aee565b60405180910390a1505b610a2a8585858585611880565b5050505050565b610a39611452565b610a41611a14565b565b610a4b6114ac565b6001600160a01b038216600090815260086020526040902054610abb5760405162461bcd60e51b815260206004820152602260248201527f50424d3a20446f6e2774206861766520616e792073706f7420746f20756e6c6f604482015261185960f21b6064820152608401610484565b600454610ad3906001600160a01b03163033846114f9565b6001600160a01b03821660009081526008602052604081208054839290610afb908490612ad7565b90915550505050565b60608151835114610b695760405162461bcd60e51b815260206004820152602960248201527f455243313135353a206163636f756e747320616e6420696473206c656e677468604482015268040dad2e6dac2e8c6d60bb1b6064820152608401610484565b6000835167ffffffffffffffff811115610b8557610b85612374565b604051908082528060200260200182016040528015610bae578160200160208202803683370190505b50905060005b8451811015610c2657610bf9858281518110610bd257610bd2612b41565b6020026020010151858381518110610bec57610bec612b41565b602002602001015161041d565b828281518110610c0b57610c0b612b41565b6020908102919091010152610c1f81612b57565b9050610bb4565b509392505050565b610c36611452565b600554600754604051633f06d4ed60e11b81526001600160a01b0390921691637e0da9da91610c73918a918a918a918a918a918a91600401612b72565b600060405180830381600087803b158015610c8d57600080fd5b505af1158015610ca1573d6000803e3d6000fd5b50505050505050505050565b610cb5611452565b610a416000611a69565b610cc76114ac565b600554604051631a410e9b60e31b8152600481018390526000916001600160a01b03169063d20874d89060240160206040518083038186803b158015610d0c57600080fd5b505afa158015610d20573d6000803e3d6000fd5b505050506040513d601f19601f82011682018060405250810190610d449190612a7c565b600554604051630da8d02760e21b8152600481018590523360248201529192506001600160a01b0316906336a3409c90604401600060405180830381600087803b158015610d9157600080fd5b505af1158015610da5573d6000803e3d6000fd5b5050600454610dc192506001600160a01b0316905033836116c4565b60045460408051338152602081018590526001600160a01b039092168282015260608201839052517fa1c359e2aefcb2a02fa122099023552498d16ee2c91b81d3cfd8cd086f037d449181900360800190a15050565b610e1f611452565b610a41611abb565b610e32338383611afe565b5050565b60055460405163183c06e560e31b815260048101839052606091600091829182916001600160a01b039091169063c1e037289060240160006040518083038186803b158015610e8457600080fd5b505afa158015610e98573d6000803e3d6000fd5b505050506040513d6000823e601f3d908101601f19168201604052610ec09190810190612bdd565b93509350935093509193509193565b610ed76114ac565b60065460405163fe575a8760e01b81526001600160a01b0383811660048301529091169063fe575a8790602401602060405180830381600087803b158015610f1e57600080fd5b505af1158015610f32573d6000803e3d6000fd5b505050506040513d601f19601f82011682018060405250810190610f569190612a28565b15610f735760405162461bcd60e51b815260040161048490612a45565b6005546001600160a01b031663f600d9f4610f8d85611bdf565b610f9685611bdf565b6040518363ffffffff1660e01b8152600401610fb3929190612c40565b600060405180830381600087803b158015610fcd57600080fd5b505af1158015610fe1573d6000803e3d6000fd5b5050505061100081848460405180602001604052806000815250611c2a565b505050565b61100d6114ac565b6001600160a01b038516331480611029575061102985336103b6565b6110455760405162461bcd60e51b8152600401610484906129d9565b60065460405163fe575a8760e01b81526001600160a01b0386811660048301529091169063fe575a8790602401602060405180830381600087803b15801561108c57600080fd5b505af11580156110a0573d6000803e3d6000fd5b505050506040513d601f19601f820116820180604052508101906110c49190612a28565b156110e15760405162461bcd60e51b815260040161048490612a45565b600654604051631a2f716760e01b81526001600160a01b03868116600483015290911690631a2f716790602401602060405180830381600087803b15801561112857600080fd5b505af115801561113c573d6000803e3d6000fd5b505050506040513d601f19601f820116820180604052508101906111609190612a28565b156112585760008180602001905181019061117b9190612a7c565b6001600160a01b0387166000908152600860205260409020549091508111156111b65760405162461bcd60e51b815260040161048490612a95565b6001600160a01b038616600090815260086020526040812080548392906111de908490612ad7565b90915550506004546111fa906001600160a01b031686836116c4565b7f68c9cd42836993caa70415e61f3c3baceb0bb31dcb22af6e5e0db98fa8870fac868661122687611bdf565b61122f87611bdf565b60045460405161124e95949392916001600160a01b0316908890612aee565b60405180910390a1505b610a2a8585858585611d04565b61126d611452565b6001600160a01b0381166112d25760405162461bcd60e51b815260206004820152602660248201527f4f776e61626c653a206e6577206f776e657220697320746865207a65726f206160448201526564647265737360d01b6064820152608401610484565b6112db81611a69565b50565b6112e66114ac565b60065460405163fe575a8760e01b81526001600160a01b0383811660048301529091169063fe575a8790602401602060405180830381600087803b15801561132d57600080fd5b505af1158015611341573d6000803e3d6000fd5b505050506040513d601f19601f820116820180604052508101906113659190612a28565b156113825760405162461bcd60e51b815260040161048490612a45565b81518351146113d35760405162461bcd60e51b815260206004820181905260248201527f556e657175616c2069647320616e6420616d6f756e747320737570706c6965646044820152606401610484565b600554604051633d80367d60e21b81526001600160a01b039091169063f600d9f4906114059086908690600401612c40565b600060405180830381600087803b15801561141f57600080fd5b505af1158015611433573d6000803e3d6000fd5b5050505061100081848460405180602001604052806000815250611e2e565b6003546001600160a01b03163314610a415760405162461bcd60e51b815260206004820181905260248201527f4f776e61626c653a2063616c6c6572206973206e6f7420746865206f776e65726044820152606401610484565b600354600160a01b900460ff1615610a415760405162461bcd60e51b815260206004820152601060248201526f14185d5cd8589b194e881c185d5cd95960821b6044820152606401610484565b6001600160a01b0384166115445760405162461bcd60e51b815260206004820152601260248201527145524332303a204e696c206164647265737360701b6044820152606401610484565b6001600160a01b0384163b6115915760405162461bcd60e51b8152602060048201526013602482015272115490cc8c0e881153d0481c1c9bdd9a591959606a1b6044820152606401610484565b604080516001600160a01b0385811660248301528481166044830152606480830185905283518084039091018152608490920183526020820180516001600160e01b03166323b872dd60e01b17905291516000928392908816916115f59190612c65565b6000604051808303816000865af19150503d8060008114611632576040519150601f19603f3d011682016040523d82523d6000602084013e611637565b606091505b50915091508180156116615750805115806116615750808060200190518101906116619190612a28565b6116bc5760405162461bcd60e51b815260206004820152602660248201527f45524332303a20496e737566666963656e742062616c616e6365206f722061706044820152651c1c9bdd985b60d21b6064820152608401610484565b505050505050565b6001600160a01b03831661170f5760405162461bcd60e51b815260206004820152601260248201527145524332303a204e696c206164647265737360701b6044820152606401610484565b6001600160a01b0383163b61175c5760405162461bcd60e51b8152602060048201526013602482015272115490cc8c0e881153d0481c1c9bdd9a591959606a1b6044820152606401610484565b604080516001600160a01b038481166024830152604480830185905283518084039091018152606490920183526020820180516001600160e01b031663a9059cbb60e01b17905291516000928392908716916117b89190612c65565b6000604051808303816000865af19150503d80600081146117f5576040519150601f19603f3d011682016040523d82523d6000602084013e6117fa565b606091505b50915091508180156118245750805115806118245750808060200190518101906118249190612a28565b610a2a5760405162461bcd60e51b815260206004820152602760248201527f496e746572616374696f6e2077697468207468652073706f7420746f6b656e206044820152663330b4b632b21760c91b6064820152608401610484565b81518351146118a15760405162461bcd60e51b815260040161048490612c81565b6001600160a01b0384166118c75760405162461bcd60e51b815260040161048490612cc9565b3360005b84518110156119ae5760008582815181106118e8576118e8612b41565b60200260200101519050600085838151811061190657611906612b41565b602090810291909101810151600084815280835260408082206001600160a01b038e1683529093529190912054909150818110156119565760405162461bcd60e51b815260040161048490612d0e565b6000838152602081815260408083206001600160a01b038e8116855292528083208585039055908b1682528120805484929061199390849061292c565b92505081905550505050806119a790612b57565b90506118cb565b50846001600160a01b0316866001600160a01b0316826001600160a01b03167f4a39dc06d4c0dbc64b70af90fd698a233a518aa5d07e595d983b8c0526c8f7fb87876040516119fe929190612c40565b60405180910390a46116bc818787878787611f75565b611a1c6120e0565b6003805460ff60a01b191690557f5db9ee0a495bf2e6ff9c91a7834c1ba4fdd244a5e8aa4e537bd38aeae4b073aa335b6040516001600160a01b03909116815260200160405180910390a1565b600380546001600160a01b038381166001600160a01b0319831681179093556040519116919082907f8be0079c531659141344cd1fd0a4f28419497f9722a3daafe3b4186f6b6457e090600090a35050565b611ac36114ac565b6003805460ff60a01b1916600160a01b1790557f62e78cea01bee320cd4e420270b5ea74000d11b0c9f74754ebdbfc544b05a258611a4c3390565b816001600160a01b0316836001600160a01b03161415611b725760405162461bcd60e51b815260206004820152602960248201527f455243313135353a2073657474696e6720617070726f76616c20737461747573604482015268103337b91039b2b63360b91b6064820152608401610484565b6001600160a01b03838116600081815260016020908152604080832094871680845294825291829020805460ff191686151590811790915591519182527f17307eab39ab6107e8899845ad3d59bd9653f200f220920489ca2b5937696c31910160405180910390a3505050565b60408051600180825281830190925260609160009190602080830190803683370190505090508281600081518110611c1957611c19612b41565b602090810291909101015292915050565b6001600160a01b038416611c505760405162461bcd60e51b815260040161048490612d58565b336000611c5c85611bdf565b90506000611c6985611bdf565b90506000868152602081815260408083206001600160a01b038b16845290915281208054879290611c9b90849061292c565b909155505060408051878152602081018790526001600160a01b03808a1692600092918716917fc3d58168c5ae7397731d063d5bbf3d657854427343f4c083240f7aacaa2d0f62910160405180910390a4611cfb83600089898989612130565b50505050505050565b6001600160a01b038416611d2a5760405162461bcd60e51b815260040161048490612cc9565b336000611d3685611bdf565b90506000611d4385611bdf565b90506000868152602081815260408083206001600160a01b038c16845290915290205485811015611d865760405162461bcd60e51b815260040161048490612d0e565b6000878152602081815260408083206001600160a01b038d8116855292528083208985039055908a16825281208054889290611dc390849061292c565b909155505060408051888152602081018890526001600160a01b03808b16928c821692918816917fc3d58168c5ae7397731d063d5bbf3d657854427343f4c083240f7aacaa2d0f62910160405180910390a4611e23848a8a8a8a8a612130565b505050505050505050565b6001600160a01b038416611e545760405162461bcd60e51b815260040161048490612d58565b8151835114611e755760405162461bcd60e51b815260040161048490612c81565b3360005b8451811015611f1157838181518110611e9457611e94612b41565b6020026020010151600080878481518110611eb157611eb1612b41565b602002602001015181526020019081526020016000206000886001600160a01b03166001600160a01b031681526020019081526020016000206000828254611ef9919061292c565b90915550819050611f0981612b57565b915050611e79565b50846001600160a01b031660006001600160a01b0316826001600160a01b03167f4a39dc06d4c0dbc64b70af90fd698a233a518aa5d07e595d983b8c0526c8f7fb8787604051611f62929190612c40565b60405180910390a4610a2a816000878787875b6001600160a01b0384163b156116bc5760405163bc197c8160e01b81526001600160a01b0385169063bc197c8190611fb99089908990889088908890600401612d99565b602060405180830381600087803b158015611fd357600080fd5b505af1925050508015612003575060408051601f3d908101601f1916820190925261200091810190612df7565b60015b6120b05761200f612e14565b806308c379a014156120495750612024612e30565b8061202f575061204b565b8060405162461bcd60e51b81526004016104849190612361565b505b60405162461bcd60e51b815260206004820152603460248201527f455243313135353a207472616e7366657220746f206e6f6e2d455243313135356044820152732932b1b2b4bb32b91034b6b83632b6b2b73a32b960611b6064820152608401610484565b6001600160e01b0319811663bc197c8160e01b14611cfb5760405162461bcd60e51b815260040161048490612eba565b600354600160a01b900460ff16610a415760405162461bcd60e51b815260206004820152601460248201527314185d5cd8589b194e881b9bdd081c185d5cd95960621b6044820152606401610484565b6001600160a01b0384163b156116bc5760405163f23a6e6160e01b81526001600160a01b0385169063f23a6e61906121749089908990889088908890600401612f02565b602060405180830381600087803b15801561218e57600080fd5b505af19250505080156121be575060408051601f3d908101601f191682019092526121bb91810190612df7565b60015b6121ca5761200f612e14565b6001600160e01b0319811663f23a6e6160e01b14611cfb5760405162461bcd60e51b815260040161048490612eba565b6001600160a01b03811681146112db57600080fd5b6000806040838503121561222257600080fd5b823561222d816121fa565b946020939093013593505050565b6001600160e01b0319811681146112db57600080fd5b60006020828403121561226357600080fd5b813561226e8161223b565b9392505050565b60008060006060848603121561228a57600080fd5b8335612295816121fa565b92506020840135915060408401356122ac816121fa565b809150509250925092565b6000806000606084860312156122cc57600080fd5b83356122d7816121fa565b95602085013595506040909401359392505050565b6000602082840312156122fe57600080fd5b5035919050565b60005b83811015612320578181015183820152602001612308565b8381111561232f576000848401525b50505050565b6000815180845261234d816020860160208601612305565b601f01601f19169290920160200192915050565b60208152600061226e6020830184612335565b634e487b7160e01b600052604160045260246000fd5b601f8201601f1916810167ffffffffffffffff811182821017156123b0576123b0612374565b6040525050565b600067ffffffffffffffff8211156123d1576123d1612374565b5060051b60200190565b600082601f8301126123ec57600080fd5b813560206123f9826123b7565b604051612406828261238a565b83815260059390931b850182019282810191508684111561242657600080fd5b8286015b84811015612441578035835291830191830161242a565b509695505050505050565b600067ffffffffffffffff82111561246657612466612374565b50601f01601f191660200190565b600082601f83011261248557600080fd5b81356124908161244c565b60405161249d828261238a565b8281528560208487010111156124b257600080fd5b82602086016020830137600092810160200192909252509392505050565b600080600080600060a086880312156124e857600080fd5b85356124f3816121fa565b94506020860135612503816121fa565b9350604086013567ffffffffffffffff8082111561252057600080fd5b61252c89838a016123db565b9450606088013591508082111561254257600080fd5b61254e89838a016123db565b9350608088013591508082111561256457600080fd5b5061257188828901612474565b9150509295509295909350565b6000806040838503121561259157600080fd5b823567ffffffffffffffff808211156125a957600080fd5b818501915085601f8301126125bd57600080fd5b813560206125ca826123b7565b6040516125d7828261238a565b83815260059390931b85018201928281019150898411156125f757600080fd5b948201945b8386101561261e57853561260f816121fa565b825294820194908201906125fc565b9650508601359250508082111561263457600080fd5b50612641858286016123db565b9150509250929050565b600081518084526020808501945080840160005b8381101561267b5781518752958201959082019060010161265f565b509495945050505050565b60208152600061226e602083018461264b565b60008060008060008060c087890312156126b257600080fd5b863567ffffffffffffffff808211156126ca57600080fd5b6126d68a838b01612474565b97506020890135965060408901359550606089013591506126f6826121fa565b9093506080880135908082111561270c57600080fd5b6127188a838b01612474565b935060a089013591508082111561272e57600080fd5b5061273b89828a01612474565b9150509295509295509295565b80151581146112db57600080fd5b6000806040838503121561276957600080fd5b8235612774816121fa565b9150602083013561278481612748565b809150509250929050565b6000602082840312156127a157600080fd5b813561226e816121fa565b6080815260006127bf6080830187612335565b60208301959095525060408101929092526001600160a01b0316606090910152919050565b6000806000606084860312156127f957600080fd5b833592506020840135915060408401356122ac816121fa565b6000806040838503121561282557600080fd5b8235612830816121fa565b91506020830135612784816121fa565b600080600080600060a0868803121561285857600080fd5b8535612863816121fa565b94506020860135612873816121fa565b93506040860135925060608601359150608086013567ffffffffffffffff81111561289d57600080fd5b61257188828901612474565b6000806000606084860312156128be57600080fd5b833567ffffffffffffffff808211156128d657600080fd5b6128e2878388016123db565b945060208601359150808211156128f857600080fd5b50612905868287016123db565b92505060408401356122ac816121fa565b634e487b7160e01b600052601160045260246000fd5b6000821982111561293f5761293f612916565b500190565b600082601f83011261295557600080fd5b81516129608161244c565b60405161296d828261238a565b82815285602084870101111561298257600080fd5b612993836020830160208801612305565b95945050505050565b6000602082840312156129ae57600080fd5b815167ffffffffffffffff8111156129c557600080fd5b6129d184828501612944565b949350505050565b6020808252602f908201527f455243313135353a2063616c6c6572206973206e6f7420746f6b656e206f776e60408201526e195c881b9bdc88185c1c1c9bdd9959608a1b606082015260800190565b600060208284031215612a3a57600080fd5b815161226e81612748565b6020808252601d908201527f50424d3a2027746f27206164647265737320626c61636b6c6973746564000000604082015260600190565b600060208284031215612a8e57600080fd5b5051919050565b60208082526022908201527f50424d3a20446f6e2774206861766520656e6f7567682073706f7420746f2070604082015261617960f01b606082015260800190565b600082821015612ae957612ae9612916565b500390565b600060018060a01b038089168352808816602084015260c06040840152612b1860c084018861264b565b8381036060850152612b2a818861264b565b959091166080840152505060a00152949350505050565b634e487b7160e01b600052603260045260246000fd5b6000600019821415612b6b57612b6b612916565b5060010190565b60e081526000612b8560e083018a612335565b60208301899052604083018890526001600160a01b03871660608401528281036080840152612bb48187612335565b905082810360a0840152612bc88186612335565b9150508260c083015298975050505050505050565b60008060008060808587031215612bf357600080fd5b845167ffffffffffffffff811115612c0a57600080fd5b612c1687828801612944565b94505060208501519250604085015191506060850151612c35816121fa565b939692955090935050565b604081526000612c53604083018561264b565b8281036020840152612993818561264b565b60008251612c77818460208701612305565b9190910192915050565b60208082526028908201527f455243313135353a2069647320616e6420616d6f756e7473206c656e677468206040820152670dad2e6dac2e8c6d60c31b606082015260800190565b60208082526025908201527f455243313135353a207472616e7366657220746f20746865207a65726f206164604082015264647265737360d81b606082015260800190565b6020808252602a908201527f455243313135353a20696e73756666696369656e742062616c616e636520666f60408201526939103a3930b739b332b960b11b606082015260800190565b60208082526021908201527f455243313135353a206d696e7420746f20746865207a65726f206164647265736040820152607360f81b606082015260800190565b6001600160a01b0386811682528516602082015260a060408201819052600090612dc59083018661264b565b8281036060840152612dd7818661264b565b90508281036080840152612deb8185612335565b98975050505050505050565b600060208284031215612e0957600080fd5b815161226e8161223b565b600060033d1115612e2d5760046000803e5060005160e01c5b90565b600060443d1015612e3e5790565b6040516003193d81016004833e81513d67ffffffffffffffff8160248401118184111715612e6e57505050505090565b8285019150815181811115612e865750505050505090565b843d8701016020828501011115612ea05750505050505090565b612eaf6020828601018761238a565b509095945050505050565b60208082526028908201527f455243313135353a204552433131353552656365697665722072656a656374656040820152676420746f6b656e7360c01b606082015260800190565b6001600160a01b03868116825285166020820152604081018490526060810183905260a060808201819052600090612f3c90830184612335565b97965050505050505056fea2646970667358221220934401641948ffc74cb9fc1c5cb499a6765f84313748894da5d21aa0d95e46f364736f6c6343000809003360a0604052600060015534801561001557600080fd5b5061001f33610028565b30608052610078565b600080546001600160a01b038381166001600160a01b0319831681178455604051919092169283917f8be0079c531659141344cd1fd0a4f28419497f9722a3daafe3b4186f6b6457e09190a35050565b6080516114236100936000396000610c4501526114236000f3fe608060405234801561001057600080fd5b50600436106100ea5760003560e01c8063934689a91161008c578063d20874d811610066578063d20874d8146101fa578063e21c8b591461020d578063f2fde38b14610220578063f600d9f41461023357600080fd5b8063934689a9146101b1578063c1e03728146101c4578063d10424c7146101e757600080fd5b806348fd09f5116100c857806348fd09f51461014e578063715018a6146101715780637e0da9da146101795780638da5cb5b1461018c57600080fd5b80630e89341c146100ef578063234661c41461011857806336a3409c14610139575b600080fd5b6101026100fd366004610ec0565b610246565b60405161010f9190610f35565b60405180910390f35b61012b610126366004610ec0565b61031f565b60405190815260200161010f565b61014c610147366004610f6b565b61038b565b005b61016161015c36600461105e565b610426565b604051901515815260200161010f565b61014c61048b565b61014c61018736600461110b565b61049f565b6000546001600160a01b03165b6040516001600160a01b03909116815260200161010f565b6101996101bf366004610ec0565b6106d0565b6101d76101d2366004610ec0565b61073c565b60405161010f94939291906111c1565b61012b6101f5366004610ec0565b61083c565b61012b610208366004610ec0565b61089f565b61014c61021b3660046111f9565b6108f6565b61014c61022e36600461125d565b610a09565b61014c6102413660046111f9565b610a82565b600081815260026020819052604090912001546060904210610303576000828152600260205260409020600601805461027e90611278565b80601f01602080910402602001604051908101604052809291908181526020018280546102aa90611278565b80156102f75780601f106102cc576101008083540402835291602001916102f7565b820191906000526020600020905b8154815290600101906020018083116102da57829003601f168201915b50505050509050919050565b6000828152600260205260409020600501805461027e90611278565b6000818152600260205260408120600101541580159061035057506000828152600260208190526040909120015442105b6103755760405162461bcd60e51b815260040161036c906112b3565b60405180910390fd5b5060009081526002602052604090206004015490565b610393610b90565b6000828152600260205260409020600301546001600160a01b0382811691161480156103d15750600082815260026020819052604090912001544210155b6104115760405162461bcd60e51b815260206004820152601160248201527050424d206e6f74207265766f6b61626c6560781b604482015260640161036c565b50600090815260026020526040812060040155565b6000805b825181101561048257600081815260026020819052604090912001544211806104625750600081815260026020526040902060010154155b156104705750600092915050565b8061047a81611300565b91505061042a565b50600192915050565b610493610b90565b61049d6000610bea565b565b6104a7610b90565b6104af610c3a565b808511156104f85760405162461bcd60e51b8152602060048201526016602482015275496e76616c696420746f6b656e206578706972792d3160501b604482015260640161036c565b4285116105405760405162461bcd60e51b815260206004820152601660248201527524b73b30b634b2103a37b5b2b71032bc3834b93c969960511b604482015260640161036c565b856105805760405162461bcd60e51b815260206004820152601060248201526f053706f7420616d6f756e7420697320360841b604482015260640161036c565b60008761058c88610cb2565b60405160200161059d92919061131b565b60408051601f1981840301815291815260015460009081526002602090815291902082519293506105d2929091840190610e27565b5060018054600090815260026020818152604080842085018c9055845484528084209092018a90558354835281832060030180546001600160a01b0319166001600160a01b038b1617905583548352818320600401839055925482529020855161064492600590920191870190610e27565b506001546000908152600260209081526040909120845161066d92600690920191860190610e27565b507fbbb805bf89819da42bb55052edd2bf6db1c2256ec4c19cf1607de95efc92762f600154828989896040516106a795949392919061134a565b60405180910390a160018060008282546106c19190611389565b90915550505050505050505050565b6000818152600260205260408120600101541580159061070157506000828152600260208190526040909120015442105b61071d5760405162461bcd60e51b815260040161036c906112b3565b506000908152600260205260409020600301546001600160a01b031690565b60008181526002602052604081206001015460609190819081906107725760405162461bcd60e51b815260040161036c906112b3565b6000858152600260208190526040909120600181015491810154600382015482549293926001600160a01b039091169084906107ad90611278565b80601f01602080910402602001604051908101604052809291908181526020018280546107d990611278565b80156108265780601f106107fb57610100808354040283529160200191610826565b820191906000526020600020905b81548152906001019060200180831161080957829003601f168201915b5050505050935093509350935093509193509193565b6000818152600260205260408120600101541580159061086d57506000828152600260208190526040909120015442105b6108895760405162461bcd60e51b815260040161036c906112b3565b5060009081526002602052604090206001015490565b6000818152600260205260408120600101546108cd5760405162461bcd60e51b815260040161036c906112b3565b600082815260026020526040902060048101546001909101546108f091906113a1565b92915050565b6108fe610b90565b60005b8251811015610a045760026000848381518110610920576109206113c0565b602002602001015181526020019081526020016000206001015460001415801561097857506002600084838151811061095b5761095b6113c0565b602002602001015181526020019081526020016000206002015442105b6109945760405162461bcd60e51b815260040161036c906112b3565b8181815181106109a6576109a66113c0565b6020026020010151600260008584815181106109c4576109c46113c0565b6020026020010151815260200190815260200160002060040160008282546109ec91906113d6565b909155508190506109fc81611300565b915050610901565b505050565b610a11610b90565b6001600160a01b038116610a765760405162461bcd60e51b815260206004820152602660248201527f4f776e61626c653a206e6577206f776e657220697320746865207a65726f206160448201526564647265737360d01b606482015260840161036c565b610a7f81610bea565b50565b610a8a610b90565b60005b8251811015610a045760026000848381518110610aac57610aac6113c0565b6020026020010151815260200190815260200160002060010154600014158015610b04575060026000848381518110610ae757610ae76113c0565b602002602001015181526020019081526020016000206002015442105b610b205760405162461bcd60e51b815260040161036c906112b3565b818181518110610b3257610b326113c0565b602002602001015160026000858481518110610b5057610b506113c0565b602002602001015181526020019081526020016000206004016000828254610b789190611389565b90915550819050610b8881611300565b915050610a8d565b6000546001600160a01b0316331461049d5760405162461bcd60e51b815260206004820181905260248201527f4f776e61626c653a2063616c6c6572206973206e6f7420746865206f776e6572604482015260640161036c565b600080546001600160a01b038381166001600160a01b0319831681178455604051919092169283917f8be0079c531659141344cd1fd0a4f28419497f9722a3daafe3b4186f6b6457e09190a35050565b306001600160a01b037f0000000000000000000000000000000000000000000000000000000000000000161461049d5760405162461bcd60e51b815260206004820152601960248201527f44656c65676174652063616c6c73207265737472696374656400000000000000604482015260640161036c565b60606000610cbf83610d4f565b600101905060008167ffffffffffffffff811115610cdf57610cdf610f97565b6040519080825280601f01601f191660200182016040528015610d09576020820181803683370190505b5090508181016020015b600019016f181899199a1a9b1b9c1cb0b131b232b360811b600a86061a8153600a8504945084610d4257610d47565b610d13565b509392505050565b60008072184f03e93ff9f4daa797ed6e38ed64bf6a1f0160401b8310610d8e5772184f03e93ff9f4daa797ed6e38ed64bf6a1f0160401b830492506040015b6d04ee2d6d415b85acef81000000008310610dba576d04ee2d6d415b85acef8100000000830492506020015b662386f26fc100008310610dd857662386f26fc10000830492506010015b6305f5e1008310610df0576305f5e100830492506008015b6127108310610e0457612710830492506004015b60648310610e16576064830492506002015b600a83106108f05760010192915050565b828054610e3390611278565b90600052602060002090601f016020900481019282610e555760008555610e9b565b82601f10610e6e57805160ff1916838001178555610e9b565b82800160010185558215610e9b579182015b82811115610e9b578251825591602001919060010190610e80565b50610ea7929150610eab565b5090565b5b80821115610ea75760008155600101610eac565b600060208284031215610ed257600080fd5b5035919050565b60005b83811015610ef4578181015183820152602001610edc565b83811115610f03576000848401525b50505050565b60008151808452610f21816020860160208601610ed9565b601f01601f19169290920160200192915050565b602081526000610f486020830184610f09565b9392505050565b80356001600160a01b0381168114610f6657600080fd5b919050565b60008060408385031215610f7e57600080fd5b82359150610f8e60208401610f4f565b90509250929050565b634e487b7160e01b600052604160045260246000fd5b604051601f8201601f1916810167ffffffffffffffff81118282101715610fd657610fd6610f97565b604052919050565b600082601f830112610fef57600080fd5b8135602067ffffffffffffffff82111561100b5761100b610f97565b8160051b61101a828201610fad565b928352848101820192828101908785111561103457600080fd5b83870192505b848310156110535782358252918301919083019061103a565b979650505050505050565b60006020828403121561107057600080fd5b813567ffffffffffffffff81111561108757600080fd5b61109384828501610fde565b949350505050565b600082601f8301126110ac57600080fd5b813567ffffffffffffffff8111156110c6576110c6610f97565b6110d9601f8201601f1916602001610fad565b8181528460208386010111156110ee57600080fd5b816020850160208301376000918101602001919091529392505050565b600080600080600080600060e0888a03121561112657600080fd5b873567ffffffffffffffff8082111561113e57600080fd5b61114a8b838c0161109b565b985060208a0135975060408a0135965061116660608b01610f4f565b955060808a013591508082111561117c57600080fd5b6111888b838c0161109b565b945060a08a013591508082111561119e57600080fd5b506111ab8a828b0161109b565b92505060c0880135905092959891949750929550565b6080815260006111d46080830187610f09565b60208301959095525060408101929092526001600160a01b0316606090910152919050565b6000806040838503121561120c57600080fd5b823567ffffffffffffffff8082111561122457600080fd5b61123086838701610fde565b9350602085013591508082111561124657600080fd5b5061125385828601610fde565b9150509250929050565b60006020828403121561126f57600080fd5b610f4882610f4f565b600181811c9082168061128c57607f821691505b602082108114156112ad57634e487b7160e01b600052602260045260246000fd5b50919050565b60208082526018908201527f50424d3a20496e76616c696420546f6b656e2049642873290000000000000000604082015260600190565b634e487b7160e01b600052601160045260246000fd5b6000600019821415611314576113146112ea565b5060010190565b6000835161132d818460208801610ed9565b835190830190611341818360208801610ed9565b01949350505050565b85815260a06020820152600061136360a0830187610f09565b60408301959095525060608101929092526001600160a01b031660809091015292915050565b6000821982111561139c5761139c6112ea565b500190565b60008160001904831182151516156113bb576113bb6112ea565b500290565b634e487b7160e01b600052603260045260246000fd5b6000828210156113e8576113e86112ea565b50039056fea2646970667358221220abef0a45ff7b3ee730bd7492464583d5523c33c062d770442248f881acbb16aa64736f6c63430008090033",
  "devdoc": {
    "kind": "dev",
    "methods": {
      "balanceOf(address,uint256)": {
        "details": "See {IERC1155-balanceOf}. Requirements: - `account` cannot be the zero address."
      },
      "balanceOfBatch(address[],uint256[])": {
        "details": "See {IERC1155-balanceOfBatch}. Requirements: - `accounts` and `ids` must have the same length."
      },
      "batchMint(uint256[],uint256[],address)": {
        "details": "See {IPBM-batchMint}. WARNING: Any contracts that externally call these mint() and batchMint() functions should implement some sort of reentrancy guard procedure (such as OpenZeppelin's ReentrancyGuard). Requirements: - contract must not be paused - tokens must not be expired - `tokenIds` should all be valid ids that have already been created - `tokenIds` and `amounts` list need to have the same number of values - caller should have the necessary amount of the ERC-20 tokens required to mint - caller should have approved the PBM contract to spend the ERC-20 tokens - receiver should not be blacklisted"
      },
      "createPBMTokenType(string,uint256,uint256,address,string,string)": {
        "details": "See {IPBM-createPBMTokenType}. Requirements: - caller must be owner - contract must not be expired - `tokenExpiry` must be less than contract expiry - `amount` should not be 0"
      },
      "getTokenDetails(uint256)": {
        "details": "See {IPBM-getTokenDetails}."
      },
      "initialise(address,uint256,address)": {
        "params": {
          "_expiry": "contract wide expiry ( in epoch )",
          "_pbmAddressList": "address of the PBMAddressList smartcontract",
          "_spotToken": "address of the underlying ERC20 token"
        }
      },
      "isApprovedForAll(address,address)": {
        "details": "See {IERC1155-isApprovedForAll}."
      },
      "load(address,uint256,uint256)": {
        "details": "See {IPBM-load}. IMPT: Before loading, the caller should approve the contract address to spend ERC-20 tokens on behalf of the caller.       This can be done by calling the `approve` or `increaseMinterAllowance` functions of the ERC-20 contract and specifying `_spender` to be the PBM contract address. Ref : https://eips.ethereum.org/EIPS/eip-20 Requirements: - contract must not be paused - tokens must not be expired - `tokenId` should all be valid ids that have already been created - caller should have the necessary amount of PBM envelope tokens required to load spot - caller should have the necessary amount of the ERC-20 tokens required to load - caller should have approved the PBM contract to spend the ERC-20 tokens"
      },
      "mint(uint256,uint256,address)": {
        "details": "See {IPBM-mint}.      IMPT: Before minting, the caller should approve the contract address to spend ERC-20 tokens on behalf of the caller.       This can be done by calling the `approve` or `increaseMinterAllowance` functions of the ERC-20 contract and specifying `_spender` to be the PBM contract address.  Ref : https://eips.ethereum.org/EIPS/eip-20 WARNING: Any contracts that externally call these mint() and batchMint() functions should implement some sort of reentrancy guard procedure (such as OpenZeppelin's ReentrancyGuard). Requirements: - contract must not be paused - tokens must not be expired - `tokenId` should be a valid id that has already been created - caller should have the necessary amount of the ERC-20 tokens required to mint - caller should have approved the PBM contract to spend the ERC-20 tokens - receiver should not be blacklisted"
      },
      "owner()": {
        "details": "Returns the address of the current owner."
      },
      "pause()": {
        "details": "see {Pausable _pause} Requirements : - caller should be owner"
      },
      "paused()": {
        "details": "Returns true if the contract is paused, and false otherwise."
      },
      "renounceOwnership()": {
        "details": "Leaves the contract without owner. It will not be possible to call `onlyOwner` functions anymore. Can only be called by the current owner. NOTE: Renouncing ownership will leave the contract without an owner, thereby removing any functionality that is only available to the owner."
      },
      "revokePBM(uint256)": {
        "details": "See {IPBM-revokePBM}. Requirements: - `tokenId` should be a valid ids that has already been created - caller must be the creator of the tokenType - token must be expired"
      },
      "safeBatchTransferFrom(address,address,uint256[],uint256[],bytes)": {
        "details": "See {IPBM-safeBatchTransferFrom}. Requirements: - contract must not be paused - tokens must not be expired - `tokenIds` should all be  valid ids that has already been created - `tokenIds` and `amounts` list need to have the same number of values - caller should have the PBMs that are being transferred (or) - caller should have the approval to spend the PBMs on behalf of the owner (`from` addresss)"
      },
      "safeTransferFrom(address,address,uint256,uint256,bytes)": {
        "details": "See {IPBM-safeTransferFrom}. Requirements: - contract must not be paused - tokens must not be expired - `tokenId` should be a valid ids that has already been created - caller should have the PBMs that are being transferred (or) - caller should have the approval to spend the PBMs on behalf of the owner (`from` addresss)"
      },
      "setApprovalForAll(address,bool)": {
        "details": "See {IERC1155-setApprovalForAll}."
      },
      "supportsInterface(bytes4)": {
        "details": "See {IERC165-supportsInterface}."
      },
      "transferOwnership(address)": {
        "details": "Transfers ownership of the contract to a new account (`newOwner`). Can only be called by the current owner."
      },
      "unLoad(address,uint256)": {
        "details": "See {IPBM-unLoad}. Requirements: - contract must not be paused - caller should have loaded to the PBM envelope before"
      },
      "unpause()": {
        "details": "see {Pausable _unpause} Requirements : - caller should be owner"
      },
      "uri(uint256)": {
        "details": "See {IPBM-uri}."
      }
    },
    "version": 1
  },
  "userdoc": {
    "events": {
      "MerchantPayment(address,address,uint256[],uint256[],address,uint256)": {
        "notice": "Emitted when underlying ERC-20 tokens are transferred to a whitelisted merchant ( payment )"
      },
      "PBMrevokeWithdraw(address,uint256,address,uint256)": {
        "notice": "Emitted when a PBM type creator withdraws the underlying ERC-20 tokens from all the remaining expired PBMs"
      }
    },
    "kind": "user",
    "methods": {
      "initialise(address,uint256,address)": {
        "notice": "sets the address of the underlying ERC20 token, Contract Expiry, and the address of pbm address list"
      }
    },
    "version": 1
  },
  "storageLayout": {
    "storage": [
      {
        "astId": 499,
        "contract": "contracts/PBM.sol:PBM",
        "label": "_balances",
        "offset": 0,
        "slot": "0",
        "type": "t_mapping(t_uint256,t_mapping(t_address,t_uint256))"
      },
      {
        "astId": 505,
        "contract": "contracts/PBM.sol:PBM",
        "label": "_operatorApprovals",
        "offset": 0,
        "slot": "1",
        "type": "t_mapping(t_address,t_mapping(t_address,t_bool))"
      },
      {
        "astId": 507,
        "contract": "contracts/PBM.sol:PBM",
        "label": "_uri",
        "offset": 0,
        "slot": "2",
        "type": "t_string_storage"
      },
      {
        "astId": 7,
        "contract": "contracts/PBM.sol:PBM",
        "label": "_owner",
        "offset": 0,
        "slot": "3",
        "type": "t_address"
      },
      {
        "astId": 383,
        "contract": "contracts/PBM.sol:PBM",
        "label": "_paused",
        "offset": 20,
        "slot": "3",
        "type": "t_bool"
      },
      {
        "astId": 5384,
        "contract": "contracts/PBM.sol:PBM",
        "label": "spotToken",
        "offset": 0,
        "slot": "4",
        "type": "t_address"
      },
      {
        "astId": 5390,
        "contract": "contracts/PBM.sol:PBM",
        "label": "pbmTokenManager",
        "offset": 0,
        "slot": "5",
        "type": "t_address"
      },
      {
        "astId": 5396,
        "contract": "contracts/PBM.sol:PBM",
        "label": "pbmAddressList",
        "offset": 0,
        "slot": "6",
        "type": "t_address"
      },
      {
        "astId": 5399,
        "contract": "contracts/PBM.sol:PBM",
        "label": "initialised",
        "offset": 20,
        "slot": "6",
        "type": "t_bool"
      },
      {
        "astId": 5401,
        "contract": "contracts/PBM.sol:PBM",
        "label": "contractExpiry",
        "offset": 0,
        "slot": "7",
        "type": "t_uint256"
      },
      {
        "astId": 5422,
        "contract": "contracts/PBM.sol:PBM",
        "label": "userWalletBalance",
        "offset": 0,
        "slot": "8",
        "type": "t_mapping(t_address,t_uint256)"
      }
    ],
    "types": {
      "t_address": {
        "encoding": "inplace",
        "label": "address",
        "numberOfBytes": "20"
      },
      "t_bool": {
        "encoding": "inplace",
        "label": "bool",
        "numberOfBytes": "1"
      },
      "t_mapping(t_address,t_bool)": {
        "encoding": "mapping",
        "key": "t_address",
        "label": "mapping(address => bool)",
        "numberOfBytes": "32",
        "value": "t_bool"
      },
      "t_mapping(t_address,t_mapping(t_address,t_bool))": {
        "encoding": "mapping",
        "key": "t_address",
        "label": "mapping(address => mapping(address => bool))",
        "numberOfBytes": "32",
        "value": "t_mapping(t_address,t_bool)"
      },
      "t_mapping(t_address,t_uint256)": {
        "encoding": "mapping",
        "key": "t_address",
        "label": "mapping(address => uint256)",
        "numberOfBytes": "32",
        "value": "t_uint256"
      },
      "t_mapping(t_uint256,t_mapping(t_address,t_uint256))": {
        "encoding": "mapping",
        "key": "t_uint256",
        "label": "mapping(uint256 => mapping(address => uint256))",
        "numberOfBytes": "32",
        "value": "t_mapping(t_address,t_uint256)"
      },
      "t_string_storage": {
        "encoding": "bytes",
        "label": "string",
        "numberOfBytes": "32"
      },
      "t_uint256": {
        "encoding": "inplace",
        "label": "uint256",
        "numberOfBytes": "32"
      }
    }
  }
}