{
  "address": "0x6d41906cce58491dAF2cA8141A1C4B180fa6E7B9",
  "abi": [
    {
      "inputs": [],
      "stateMutability": "nonpayable",
      "type": "constructor"
    },
    {
      "anonymous": false,
      "inputs": [
        {
          "indexed": true,
          "internalType": "address",
          "name": "account",
          "type": "address"
        },
        {
          "indexed": true,
          "internalType": "address",
          "name": "operator",
          "type": "address"
        },
        {
          "indexed": false,
          "internalType": "bool",
          "name": "approved",
          "type": "bool"
        }
      ],
      "name": "ApprovalForAll",
      "type": "event"
    },
    {
      "anonymous": false,
      "inputs": [
        {
          "indexed": false,
          "internalType": "address",
          "name": "from",
          "type": "address"
        },
        {
          "indexed": false,
          "internalType": "address",
          "name": "to",
          "type": "address"
        },
        {
          "indexed": false,
          "internalType": "uint256[]",
          "name": "tokenIds",
          "type": "uint256[]"
        },
        {
          "indexed": false,
          "internalType": "uint256[]",
          "name": "amounts",
          "type": "uint256[]"
        },
        {
          "indexed": false,
          "internalType": "address",
          "name": "ERC20Token",
          "type": "address"
        },
        {
          "indexed": false,
          "internalType": "uint256",
          "name": "ERC20TokenValue",
          "type": "uint256"
        }
      ],
      "name": "MerchantPayment",
      "type": "event"
    },
    {
      "anonymous": false,
      "inputs": [
        {
          "indexed": true,
          "internalType": "address",
          "name": "previousOwner",
          "type": "address"
        },
        {
          "indexed": true,
          "internalType": "address",
          "name": "newOwner",
          "type": "address"
        }
      ],
      "name": "OwnershipTransferred",
      "type": "event"
    },
    {
      "anonymous": false,
      "inputs": [
        {
          "indexed": false,
          "internalType": "address",
          "name": "beneficiary",
          "type": "address"
        },
        {
          "indexed": false,
          "internalType": "uint256",
          "name": "PBMTokenId",
          "type": "uint256"
        },
        {
          "indexed": false,
          "internalType": "address",
          "name": "ERC20Token",
          "type": "address"
        },
        {
          "indexed": false,
          "internalType": "uint256",
          "name": "ERC20TokenValue",
          "type": "uint256"
        }
      ],
      "name": "PBMrevokeWithdraw",
      "type": "event"
    },
    {
      "anonymous": false,
      "inputs": [
        {
          "indexed": false,
          "internalType": "address",
          "name": "account",
          "type": "address"
        }
      ],
      "name": "Paused",
      "type": "event"
    },
    {
      "anonymous": false,
      "inputs": [
        {
          "indexed": true,
          "internalType": "address",
          "name": "operator",
          "type": "address"
        },
        {
          "indexed": true,
          "internalType": "address",
          "name": "from",
          "type": "address"
        },
        {
          "indexed": true,
          "internalType": "address",
          "name": "to",
          "type": "address"
        },
        {
          "indexed": false,
          "internalType": "uint256[]",
          "name": "ids",
          "type": "uint256[]"
        },
        {
          "indexed": false,
          "internalType": "uint256[]",
          "name": "values",
          "type": "uint256[]"
        }
      ],
      "name": "TransferBatch",
      "type": "event"
    },
    {
      "anonymous": false,
      "inputs": [
        {
          "indexed": true,
          "internalType": "address",
          "name": "operator",
          "type": "address"
        },
        {
          "indexed": true,
          "internalType": "address",
          "name": "from",
          "type": "address"
        },
        {
          "indexed": true,
          "internalType": "address",
          "name": "to",
          "type": "address"
        },
        {
          "indexed": false,
          "internalType": "uint256",
          "name": "id",
          "type": "uint256"
        },
        {
          "indexed": false,
          "internalType": "uint256",
          "name": "value",
          "type": "uint256"
        }
      ],
      "name": "TransferSingle",
      "type": "event"
    },
    {
      "anonymous": false,
      "inputs": [
        {
          "indexed": false,
          "internalType": "string",
          "name": "value",
          "type": "string"
        },
        {
          "indexed": true,
          "internalType": "uint256",
          "name": "id",
          "type": "uint256"
        }
      ],
      "name": "URI",
      "type": "event"
    },
    {
      "anonymous": false,
      "inputs": [
        {
          "indexed": false,
          "internalType": "address",
          "name": "account",
          "type": "address"
        }
      ],
      "name": "Unpaused",
      "type": "event"
    },
    {
      "inputs": [
        {
          "internalType": "address",
          "name": "account",
          "type": "address"
        },
        {
          "internalType": "uint256",
          "name": "tokenId",
          "type": "uint256"
        }
      ],
      "name": "balanceOf",
      "outputs": [
        {
          "internalType": "uint256",
          "name": "",
          "type": "uint256"
        }
      ],
      "stateMutability": "view",
      "type": "function"
    },
    {
      "inputs": [
        {
          "internalType": "address[]",
          "name": "accounts",
          "type": "address[]"
        },
        {
          "internalType": "uint256[]",
          "name": "ids",
          "type": "uint256[]"
        }
      ],
      "name": "balanceOfBatch",
      "outputs": [
        {
          "internalType": "uint256[]",
          "name": "",
          "type": "uint256[]"
        }
      ],
      "stateMutability": "view",
      "type": "function"
    },
    {
      "inputs": [
        {
          "internalType": "uint256[]",
          "name": "tokenIds",
          "type": "uint256[]"
        },
        {
          "internalType": "uint256[]",
          "name": "amounts",
          "type": "uint256[]"
        },
        {
          "internalType": "address",
          "name": "receiver",
          "type": "address"
        }
      ],
      "name": "batchMint",
      "outputs": [],
      "stateMutability": "nonpayable",
      "type": "function"
    },
    {
      "inputs": [],
      "name": "contractExpiry",
      "outputs": [
        {
          "internalType": "uint256",
          "name": "",
          "type": "uint256"
        }
      ],
      "stateMutability": "view",
      "type": "function"
    },
    {
      "inputs": [
        {
          "internalType": "string",
          "name": "companyName",
          "type": "string"
        },
        {
          "internalType": "uint256",
          "name": "spotAmount",
          "type": "uint256"
        },
        {
          "internalType": "string",
          "name": "spotType",
          "type": "string"
        },
        {
          "internalType": "uint256",
          "name": "tokenExpiry",
          "type": "uint256"
        },
        {
          "internalType": "address",
          "name": "creator",
          "type": "address"
        },
        {
          "internalType": "string",
          "name": "tokenURI",
          "type": "string"
        },
        {
          "internalType": "string",
          "name": "postExpiryURI",
          "type": "string"
        }
      ],
      "name": "createPBMTokenType",
      "outputs": [],
      "stateMutability": "nonpayable",
      "type": "function"
    },
    {
      "inputs": [],
      "name": "dsgdToken",
      "outputs": [
        {
          "internalType": "address",
          "name": "",
          "type": "address"
        }
      ],
      "stateMutability": "view",
      "type": "function"
    },
    {
      "inputs": [
        {
          "internalType": "uint256",
          "name": "tokenId",
          "type": "uint256"
        }
      ],
      "name": "getSpotAddress",
      "outputs": [
        {
          "internalType": "address",
          "name": "",
          "type": "address"
        }
      ],
      "stateMutability": "view",
      "type": "function"
    },
    {
      "inputs": [
        {
          "internalType": "uint256",
          "name": "tokenId",
          "type": "uint256"
        }
      ],
      "name": "getTokenDetails",
      "outputs": [
        {
          "internalType": "string",
          "name": "",
          "type": "string"
        },
        {
          "internalType": "uint256",
          "name": "",
          "type": "uint256"
        },
        {
          "internalType": "uint256",
          "name": "",
          "type": "uint256"
        },
        {
          "internalType": "address",
          "name": "",
          "type": "address"
        }
      ],
      "stateMutability": "view",
      "type": "function"
    },
    {
      "inputs": [],
      "name": "heroNFT",
      "outputs": [
        {
          "internalType": "address",
          "name": "",
          "type": "address"
        }
      ],
      "stateMutability": "view",
      "type": "function"
    },
    {
      "inputs": [
        {
          "internalType": "address",
          "name": "_xsgdToken",
          "type": "address"
        },
        {
          "internalType": "address",
          "name": "_dsgdToken",
          "type": "address"
        },
        {
          "internalType": "address",
          "name": "_swapContract",
          "type": "address"
        },
        {
          "internalType": "uint256",
          "name": "_expiry",
          "type": "uint256"
        },
        {
          "internalType": "address",
          "name": "_pbmAddressList",
          "type": "address"
        },
        {
          "internalType": "address",
          "name": "_heroNFT",
          "type": "address"
        }
      ],
      "name": "initialise",
      "outputs": [],
      "stateMutability": "nonpayable",
      "type": "function"
    },
    {
      "inputs": [
        {
          "internalType": "address",
          "name": "account",
          "type": "address"
        },
        {
          "internalType": "address",
          "name": "operator",
          "type": "address"
        }
      ],
      "name": "isApprovedForAll",
      "outputs": [
        {
          "internalType": "bool",
          "name": "",
          "type": "bool"
        }
      ],
      "stateMutability": "view",
      "type": "function"
    },
    {
      "inputs": [
        {
          "internalType": "uint256",
          "name": "tokenId",
          "type": "uint256"
        },
        {
          "internalType": "uint256",
          "name": "amount",
          "type": "uint256"
        },
        {
          "internalType": "address",
          "name": "receiver",
          "type": "address"
        }
      ],
      "name": "mint",
      "outputs": [],
      "stateMutability": "nonpayable",
      "type": "function"
    },
    {
      "inputs": [],
      "name": "owner",
      "outputs": [
        {
          "internalType": "address",
          "name": "",
          "type": "address"
        }
      ],
      "stateMutability": "view",
      "type": "function"
    },
    {
      "inputs": [],
      "name": "pause",
      "outputs": [],
      "stateMutability": "nonpayable",
      "type": "function"
    },
    {
      "inputs": [],
      "name": "paused",
      "outputs": [
        {
          "internalType": "bool",
          "name": "",
          "type": "bool"
        }
      ],
      "stateMutability": "view",
      "type": "function"
    },
    {
      "inputs": [],
      "name": "pbmAddressList",
      "outputs": [
        {
          "internalType": "address",
          "name": "",
          "type": "address"
        }
      ],
      "stateMutability": "view",
      "type": "function"
    },
    {
      "inputs": [],
      "name": "pbmTokenManager",
      "outputs": [
        {
          "internalType": "address",
          "name": "",
          "type": "address"
        }
      ],
      "stateMutability": "view",
      "type": "function"
    },
    {
      "inputs": [],
      "name": "renounceOwnership",
      "outputs": [],
      "stateMutability": "nonpayable",
      "type": "function"
    },
    {
      "inputs": [
        {
          "internalType": "uint256",
          "name": "tokenId",
          "type": "uint256"
        }
      ],
      "name": "revokePBM",
      "outputs": [],
      "stateMutability": "nonpayable",
      "type": "function"
    },
    {
      "inputs": [
        {
          "internalType": "address",
          "name": "from",
          "type": "address"
        },
        {
          "internalType": "address",
          "name": "to",
          "type": "address"
        },
        {
          "internalType": "uint256[]",
          "name": "ids",
          "type": "uint256[]"
        },
        {
          "internalType": "uint256[]",
          "name": "amounts",
          "type": "uint256[]"
        },
        {
          "internalType": "bytes",
          "name": "data",
          "type": "bytes"
        }
      ],
      "name": "safeBatchTransferFrom",
      "outputs": [],
      "stateMutability": "nonpayable",
      "type": "function"
    },
    {
      "inputs": [
        {
          "internalType": "address",
          "name": "from",
          "type": "address"
        },
        {
          "internalType": "address",
          "name": "to",
          "type": "address"
        },
        {
          "internalType": "uint256",
          "name": "id",
          "type": "uint256"
        },
        {
          "internalType": "uint256",
          "name": "amount",
          "type": "uint256"
        },
        {
          "internalType": "bytes",
          "name": "data",
          "type": "bytes"
        }
      ],
      "name": "safeTransferFrom",
      "outputs": [],
      "stateMutability": "nonpayable",
      "type": "function"
    },
    {
      "inputs": [
        {
          "internalType": "address",
          "name": "operator",
          "type": "address"
        },
        {
          "internalType": "bool",
          "name": "approved",
          "type": "bool"
        }
      ],
      "name": "setApprovalForAll",
      "outputs": [],
      "stateMutability": "nonpayable",
      "type": "function"
    },
    {
      "inputs": [],
      "name": "spotToken",
      "outputs": [
        {
          "internalType": "address",
          "name": "",
          "type": "address"
        }
      ],
      "stateMutability": "view",
      "type": "function"
    },
    {
      "inputs": [
        {
          "internalType": "bytes4",
          "name": "interfaceId",
          "type": "bytes4"
        }
      ],
      "name": "supportsInterface",
      "outputs": [
        {
          "internalType": "bool",
          "name": "",
          "type": "bool"
        }
      ],
      "stateMutability": "view",
      "type": "function"
    },
    {
      "inputs": [],
      "name": "swapContract",
      "outputs": [
        {
          "internalType": "address",
          "name": "",
          "type": "address"
        }
      ],
      "stateMutability": "view",
      "type": "function"
    },
    {
      "inputs": [
        {
          "internalType": "address",
          "name": "newOwner",
          "type": "address"
        }
      ],
      "name": "transferOwnership",
      "outputs": [],
      "stateMutability": "nonpayable",
      "type": "function"
    },
    {
      "inputs": [],
      "name": "unpause",
      "outputs": [],
      "stateMutability": "nonpayable",
      "type": "function"
    },
    {
      "inputs": [
        {
          "internalType": "uint256",
          "name": "tokenId",
          "type": "uint256"
        }
      ],
      "name": "uri",
      "outputs": [
        {
          "internalType": "string",
          "name": "",
          "type": "string"
        }
      ],
      "stateMutability": "view",
      "type": "function"
    },
    {
      "inputs": [],
      "name": "xsgdToken",
      "outputs": [
        {
          "internalType": "address",
          "name": "",
          "type": "address"
        }
      ],
      "stateMutability": "view",
      "type": "function"
    }
  ],
  "transactionHash": "0xa990ad5aa57bc4ad041ad2391dec8d1244774405b07a0c44528a17fd3d2243c3",
  "args": [],
  "numDeployments": 1,
  "solcInputHash": "9ac8960d49c515717ded88d2fa1ba506",
  "bytecode": "0x6080604052600480546001600160a01b03199081169091556005805482169055600680548216905560078054821690556008805482169055600980549091169055600a80546001600160a81b03191690553480156200005d57600080fd5b506040805160208101909152600081526200007881620000e3565b506200008433620000fc565b6003805460ff60a01b191690556040516200009f906200014e565b604051809103906000f080158015620000bc573d6000803e3d6000fd5b50600780546001600160a01b0319166001600160a01b03929092169190911790556200023f565b8051620000f89060029060208401906200015c565b5050565b600380546001600160a01b038381166001600160a01b0319831681179093556040519116919082907f8be0079c531659141344cd1fd0a4f28419497f9722a3daafe3b4186f6b6457e090600090a35050565b61167a8062003d5183390190565b8280546200016a9062000202565b90600052602060002090601f0160209004810192826200018e5760008555620001d9565b82601f10620001a957805160ff1916838001178555620001d9565b82800160010185558215620001d9579182015b82811115620001d9578251825591602001919060010190620001bc565b50620001e7929150620001eb565b5090565b5b80821115620001e75760008155600101620001ec565b600181811c908216806200021757607f821691505b602082108114156200023957634e487b7160e01b600052602260045260246000fd5b50919050565b613b02806200024f6000396000f3fe608060405234801561001057600080fd5b50600436106101ce5760003560e01c806363be47d211610104578063a22cb465116100a2578063f19d037011610071578063f19d037014610410578063f242432a14610423578063f2fde38b14610436578063fb34b2011461044957600080fd5b8063a22cb4651461038b578063c1e037281461039e578063e7d3fe6b146103c1578063e985e9c5146103d457600080fd5b80638456cb59116100de5780638456cb591461035657806389aba6421461035e5780638da5cb5b146103675780638ea830311461037857600080fd5b806363be47d214610328578063715018a61461033b57806373e17e761461034357600080fd5b806331a8bfc31161017157806351e86cf61161014b57806351e86cf6146102dd57806351f317c0146102f05780635c975abb14610303578063606df5401461031557600080fd5b806331a8bfc3146102a25780633f4ba83a146102b55780634e1273f4146102bd57600080fd5b80630ad89462116101ad5780630ad89462146102475780630d5a48581461025a5780630e89341c1461026d5780632eb2c2d61461028d57600080fd5b8062fdd58e146101d357806301ffc9a7146101f957806302b83c8a1461021c575b600080fd5b6101e66101e1366004612d5b565b61045c565b6040519081526020015b60405180910390f35b61020c610207366004612d9d565b610573565b60405190151581526020016101f0565b61022f61022a366004612dba565b6105c3565b6040516001600160a01b0390911681526020016101f0565b60045461022f906001600160a01b031681565b60055461022f906001600160a01b031681565b61028061027b366004612dba565b6106c5565b6040516101f09190612e2b565b6102a061029b366004612f9a565b610746565b005b60095461022f906001600160a01b031681565b6102a0610a2d565b6102d06102cb366004613048565b610a3f565b6040516101f09190613150565b60085461022f906001600160a01b031681565b60065461022f906001600160a01b031681565b600354600160a01b900460ff1661020c565b6102a0610323366004613163565b610b69565b60075461022f906001600160a01b031681565b6102a0610bec565b6102a0610351366004612dba565b610bfe565b6102a0610d71565b6101e6600b5481565b6003546001600160a01b031661022f565b600a5461022f906001600160a01b031681565b6102a0610399366004613242565b610d81565b6103b16103ac366004612dba565b610d90565b6040516101f0949392919061327b565b6102a06103cf3660046132b3565b610e29565b61020c6103e23660046132ec565b6001600160a01b03918216600090815260016020908152604080832093909416825291909152205460ff1690565b6102a061041e36600461331a565b61101d565b6102a0610431366004613393565b61127b565b6102a06104443660046133fc565b61149c565b6102a0610457366004613419565b611515565b60006001600160a01b0383166104cd5760405162461bcd60e51b815260206004820152602b60248201527f455243313135353a2062616c616e636520717565727920666f7220746865207a60448201526a65726f206164647265737360a81b60648201526084015b60405180910390fd5b6007546001600160a01b03166348fd09f56104e7846117be565b6040518263ffffffff1660e01b81526004016105039190613150565b60206040518083038186803b15801561051b57600080fd5b505afa15801561052f573d6000803e3d6000fd5b505050506040513d601f19601f820116820180604052508101906105539190613486565b15610569576105628383611809565b905061056d565b5060005b92915050565b60006001600160e01b03198216636cdb3d1360e11b14806105a457506001600160e01b031982166303a24d0760e21b145b8061056d57506301ffc9a760e01b6001600160e01b031983161461056d565b60075460405163f6314d5760e01b81526004810183905260009182916001600160a01b039091169063f6314d579060240160006040518083038186803b15801561060c57600080fd5b505afa158015610620573d6000803e3d6000fd5b505050506040513d6000823e601f3d908101601f1916820160405261064891908101906134fb565b604051631614d1d160e21b602082015290915060240160405160208183030381529060405280519060200120816040516020016106859190613538565b60405160208183030381529060405280519060200120146106b1576006546001600160a01b03166106be565b6005546001600160a01b03165b9392505050565b6007546040516303a24d0760e21b8152600481018390526060916001600160a01b031690630e89341c9060240160006040518083038186803b15801561070a57600080fd5b505afa15801561071e573d6000803e3d6000fd5b505050506040513d6000823e601f3d908101601f1916820160405261056d91908101906134fb565b61074e61189a565b61075885856118e7565b81518351146107a95760405162461bcd60e51b815260206004820181905260248201527f556e657175616c2069647320616e6420616d6f756e747320737570706c69656460448201526064016104c4565b600854604051631a2f716760e01b81526001600160a01b03868116600483015290911690631a2f716790602401602060405180830381600087803b1580156107f057600080fd5b505af1158015610804573d6000803e3d6000fd5b505050506040513d601f19601f820116820180604052508101906108289190613486565b15610a19576000805b845181101561093357600085828151811061084e5761084e613554565b60200260200101519050600085838151811061086c5761086c613554565b602090810291909101015160075460405163d10424c760e01b8152600481018590529192506000916001600160a01b039091169063d10424c79060240160206040518083038186803b1580156108c157600080fd5b505afa1580156108d5573d6000803e3d6000fd5b505050506040513d601f19601f820116820180604052508101906108f9919061356a565b6109039083613599565b905061090f8382611a03565b905061091b81866135b8565b9450505050808061092b906135d0565b915050610831565b5061093f868585611bf4565b60075460405163e21c8b5960e01b81526001600160a01b039091169063e21c8b599061097190879087906004016135eb565b600060405180830381600087803b15801561098b57600080fd5b505af115801561099f573d6000803e3d6000fd5b50506005546109bb92506001600160a01b031690508683611d7d565b6005546040517f68c9cd42836993caa70415e61f3c3baceb0bb31dcb22af6e5e0db98fa8870fac91610a029189918991899189916001600160a01b03909116908890613610565b60405180910390a1610a1385611f39565b50610a26565b610a2685858585856120e6565b5050505050565b610a3561227a565b610a3d6122d4565b565b60608151835114610aa45760405162461bcd60e51b815260206004820152602960248201527f455243313135353a206163636f756e747320616e6420696473206c656e677468604482015268040dad2e6dac2e8c6d60bb1b60648201526084016104c4565b6000835167ffffffffffffffff811115610ac057610ac0612e3e565b604051908082528060200260200182016040528015610ae9578160200160208202803683370190505b50905060005b8451811015610b6157610b34858281518110610b0d57610b0d613554565b6020026020010151858381518110610b2757610b27613554565b602002602001015161045c565b828281518110610b4657610b46613554565b6020908102919091010152610b5a816135d0565b9050610aef565b509392505050565b610b7161227a565b600754600b5460405163c054764360e01b81526001600160a01b039092169163c054764391610bb1918b918b918b918b918b918b918b9190600401613663565b600060405180830381600087803b158015610bcb57600080fd5b505af1158015610bdf573d6000803e3d6000fd5b5050505050505050505050565b610bf461227a565b610a3d6000612329565b610c0661189a565b600754604051631a410e9b60e31b8152600481018390526000916001600160a01b03169063d20874d89060240160206040518083038186803b158015610c4b57600080fd5b505afa158015610c5f573d6000803e3d6000fd5b505050506040513d601f19601f82011682018060405250810190610c83919061356a565b600754604051630da8d02760e21b8152600481018590523360248201529192506001600160a01b0316906336a3409c90604401600060405180830381600087803b158015610cd057600080fd5b505af1158015610ce4573d6000803e3d6000fd5b50505050610cf1826105c3565b600480546001600160a01b0319166001600160a01b03929092169182179055610d1b903383611d7d565b60045460408051338152602081018590526001600160a01b039092168282015260608201839052517fa1c359e2aefcb2a02fa122099023552498d16ee2c91b81d3cfd8cd086f037d449181900360800190a15050565b610d7961227a565b610a3d61237b565b610d8c3383836123be565b5050565b60075460405163183c06e560e31b815260048101839052606091600091829182916001600160a01b039091169063c1e037289060240160006040518083038186803b158015610dde57600080fd5b505afa158015610df2573d6000803e3d6000fd5b505050506040513d6000823e601f3d908101601f19168201604052610e1a91908101906136e5565b93509350935093509193509193565b610e3161189a565b60085460405163fe575a8760e01b81526001600160a01b0383811660048301529091169063fe575a8790602401602060405180830381600087803b158015610e7857600080fd5b505af1158015610e8c573d6000803e3d6000fd5b505050506040513d601f19601f82011682018060405250810190610eb09190613486565b15610ecd5760405162461bcd60e51b81526004016104c490613748565b60075460405163d10424c760e01b8152600481018590526000916001600160a01b03169063d10424c79060240160206040518083038186803b158015610f1257600080fd5b505afa158015610f26573d6000803e3d6000fd5b505050506040513d601f19601f82011682018060405250810190610f4a919061356a565b610f549084613599565b9050610f5f846105c3565b600480546001600160a01b0319166001600160a01b03929092169182179055610f8a9033308461249f565b6007546001600160a01b031663f600d9f4610fa4866117be565b610fad866117be565b6040518363ffffffff1660e01b8152600401610fca9291906135eb565b600060405180830381600087803b158015610fe457600080fd5b505af1158015610ff8573d6000803e3d6000fd5b5050505061101782858560405180602001604052806000815250612662565b50505050565b61102561227a565b600a54600160a01b900460ff161561107f5760405162461bcd60e51b815260206004820152601860248201527f50424d3a20416c726561647920696e697469616c69736564000000000000000060448201526064016104c4565b6001600160a01b0386163b6110cb5760405162461bcd60e51b815260206004820152601260248201527124b73b30b634b2102c29a3a2103a37b5b2b760711b60448201526064016104c4565b6001600160a01b0385163b6111175760405162461bcd60e51b815260206004820152601260248201527124b73b30b634b2102229a3a2103a37b5b2b760711b60448201526064016104c4565b6001600160a01b0384163b6111665760405162461bcd60e51b8152602060048201526015602482015274125b9d985b1a59081cddd85c0818dbdb9d1c9858dd605a1b60448201526064016104c4565b6001600160a01b0382163b6111bd5760405162461bcd60e51b815260206004820152601860248201527f496e76616c69642070626d2061646472657373206c697374000000000000000060448201526064016104c4565b6001600160a01b0381163b6112075760405162461bcd60e51b815260206004820152601060248201526f125b9d985b1a59081a195c9bc81b999d60821b60448201526064016104c4565b600580546001600160a01b039788166001600160a01b0319918216179091556006805496881696821696909617909555600a8054600b9490945560088054938816938716939093179092556009805491871691909516179093556001600160a81b031916921691909117600160a01b179055565b61128361189a565b61128d85856118e7565b600854604051631a2f716760e01b81526001600160a01b03868116600483015290911690631a2f716790602401602060405180830381600087803b1580156112d457600080fd5b505af11580156112e8573d6000803e3d6000fd5b505050506040513d601f19601f8201168201806040525081019061130c9190613486565b1561148f5760075460405163d10424c760e01b8152600481018590526000916001600160a01b03169063d10424c79060240160206040518083038186803b15801561135657600080fd5b505afa15801561136a573d6000803e3d6000fd5b505050506040513d601f19601f8201168201806040525081019061138e919061356a565b6113989084613599565b90506113a586858561273c565b6007546001600160a01b031663e21c8b596113bf866117be565b6113c8866117be565b6040518363ffffffff1660e01b81526004016113e59291906135eb565b600060405180830381600087803b1580156113ff57600080fd5b505af1158015611413573d6000803e3d6000fd5b505050506114218482611a03565b60055490915061143b906001600160a01b03168683611d7d565b7f68c9cd42836993caa70415e61f3c3baceb0bb31dcb22af6e5e0db98fa8870fac8686611467876117be565b611470876117be565b600554604051610a0295949392916001600160a01b0316908890613610565b610a268585858585612840565b6114a461227a565b6001600160a01b0381166115095760405162461bcd60e51b815260206004820152602660248201527f4f776e61626c653a206e6577206f776e657220697320746865207a65726f206160448201526564647265737360d01b60648201526084016104c4565b61151281612329565b50565b61151d61189a565b60085460405163fe575a8760e01b81526001600160a01b0383811660048301529091169063fe575a8790602401602060405180830381600087803b15801561156457600080fd5b505af1158015611578573d6000803e3d6000fd5b505050506040513d601f19601f8201168201806040525081019061159c9190613486565b156115b95760405162461bcd60e51b81526004016104c490613748565b815183511461160a5760405162461bcd60e51b815260206004820181905260248201527f556e657175616c2069647320616e6420616d6f756e747320737570706c69656460448201526064016104c4565b60005b835181101561179d57600084828151811061162a5761162a613554565b60200260200101519050600084838151811061164857611648613554565b602090810291909101015160075460405163d10424c760e01b8152600481018590529192506000916001600160a01b039091169063d10424c79060240160206040518083038186803b15801561169d57600080fd5b505afa1580156116b1573d6000803e3d6000fd5b505050506040513d601f19601f820116820180604052508101906116d5919061356a565b6116df9083613599565b90506116ea836105c3565b600480546001600160a01b0319166001600160a01b039290921691821790556117159033308461249f565b6007546001600160a01b031663f600d9f461172f856117be565b611738856117be565b6040518363ffffffff1660e01b81526004016117559291906135eb565b600060405180830381600087803b15801561176f57600080fd5b505af1158015611783573d6000803e3d6000fd5b505050505050508080611795906135d0565b91505061160d565b506117b98184846040518060200160405280600081525061296a565b505050565b604080516001808252818301909252606091600091906020808301908036833701905050905082816000815181106117f8576117f8613554565b602090810291909101015292915050565b60006001600160a01b0383166118745760405162461bcd60e51b815260206004820152602a60248201527f455243313135353a2061646472657373207a65726f206973206e6f742061207660448201526930b634b21037bbb732b960b11b60648201526084016104c4565b506000908152602081815260408083206001600160a01b03949094168352929052205490565b600354600160a01b900460ff1615610a3d5760405162461bcd60e51b815260206004820152601060248201526f14185d5cd8589b194e881c185d5cd95960821b60448201526064016104c4565b6001600160a01b038216331480611903575061190382336103e2565b6119675760405162461bcd60e51b815260206004820152602f60248201527f455243313135353a2063616c6c6572206973206e6f7420746f6b656e206f776e60448201526e195c881b9bdc88185c1c1c9bdd9959608a1b60648201526084016104c4565b60085460405163fe575a8760e01b81526001600160a01b0383811660048301529091169063fe575a8790602401602060405180830381600087803b1580156119ae57600080fd5b505af11580156119c2573d6000803e3d6000fd5b505050506040513d601f19601f820116820180604052508101906119e69190613486565b15610d8c5760405162461bcd60e51b81526004016104c490613748565b604051631114d1d160e21b602082015260009060240160408051808303601f1901815290829052805160209091012060075463f6314d5760e01b83526004830186905290916001600160a01b039091169063f6314d579060240160006040518083038186803b158015611a7557600080fd5b505afa158015611a89573d6000803e3d6000fd5b505050506040513d6000823e601f3d908101601f19168201604052611ab191908101906134fb565b604051602001611ac19190613538565b604051602081830303815290604052805190602001201415611bee57600654600a54604051633950935160e01b81526001600160a01b03918216600482015260248101859052911690633950935190604401602060405180830381600087803b158015611b2d57600080fd5b505af1158015611b41573d6000803e3d6000fd5b505050506040513d601f19601f82011682018060405250810190611b659190613486565b50600a54604051630a8d475760e41b8152600481018490526000916001600160a01b03169063a8d4757090602401602060405180830381600087803b158015611bad57600080fd5b505af1158015611bc1573d6000803e3d6000fd5b505050506040513d601f19601f82011682018060405250810190611be5919061356a565b915061056d9050565b50919050565b6001600160a01b038316611c1a5760405162461bcd60e51b81526004016104c49061377f565b8051825114611c3b5760405162461bcd60e51b81526004016104c4906137c2565b6040805160208101909152600090523360005b8351811015611d10576000848281518110611c6b57611c6b613554565b602002602001015190506000848381518110611c8957611c89613554565b602090810291909101810151600084815280835260408082206001600160a01b038c168352909352919091205490915081811015611cd95760405162461bcd60e51b81526004016104c49061380a565b6000928352602083815260408085206001600160a01b038b1686529091529092209103905580611d08816135d0565b915050611c4e565b5060006001600160a01b0316846001600160a01b0316826001600160a01b03167f4a39dc06d4c0dbc64b70af90fd698a233a518aa5d07e595d983b8c0526c8f7fb8686604051611d619291906135eb565b60405180910390a4604080516020810190915260009052611017565b6001600160a01b038316611dc85760405162461bcd60e51b815260206004820152601260248201527145524332303a204e696c206164647265737360701b60448201526064016104c4565b6001600160a01b0383163b611e155760405162461bcd60e51b8152602060048201526013602482015272115490cc8c0e881153d0481c1c9bdd9a591959606a1b60448201526064016104c4565b604080516001600160a01b038481166024830152604480830185905283518084039091018152606490920183526020820180516001600160e01b031663a9059cbb60e01b1790529151600092839290871691611e719190613538565b6000604051808303816000865af19150503d8060008114611eae576040519150601f19603f3d011682016040523d82523d6000602084013e611eb3565b606091505b5091509150818015611edd575080511580611edd575080806020019051810190611edd9190613486565b610a265760405162461bcd60e51b815260206004820152602760248201527f496e746572616374696f6e2077697468207468652073706f7420746f6b656e206044820152663330b4b632b21760c91b60648201526084016104c4565b6008546040516331c3322160e01b81526001600160a01b03838116600483015260009216906331c3322190602401602060405180830381600087803b158015611f8157600080fd5b505af1158015611f95573d6000803e3d6000fd5b505050506040513d601f19601f82011682018060405250810190611fb9919061356a565b9050801580159061205657506009546001600160a01b031662fdd58e336040516001600160e01b031960e084901b1681526001600160a01b0390911660048201526024810184905260440160206040518083038186803b15801561201c57600080fd5b505afa158015612030573d6000803e3d6000fd5b505050506040513d601f19601f82011682018060405250810190612054919061356a565b155b15610d8c576009546001600160a01b031663731133e9336040516001600160e01b031960e084901b1681526001600160a01b0390911660048201526024810184905260016044820152608060648201526000608482015260a401600060405180830381600087803b1580156120ca57600080fd5b505af11580156120de573d6000803e3d6000fd5b505050505050565b81518351146121075760405162461bcd60e51b81526004016104c4906137c2565b6001600160a01b03841661212d5760405162461bcd60e51b81526004016104c49061384e565b3360005b845181101561221457600085828151811061214e5761214e613554565b60200260200101519050600085838151811061216c5761216c613554565b602090810291909101810151600084815280835260408082206001600160a01b038e1683529093529190912054909150818110156121bc5760405162461bcd60e51b81526004016104c490613893565b6000838152602081815260408083206001600160a01b038e8116855292528083208585039055908b168252812080548492906121f99084906135b8565b925050819055505050508061220d906135d0565b9050612131565b50846001600160a01b0316866001600160a01b0316826001600160a01b03167f4a39dc06d4c0dbc64b70af90fd698a233a518aa5d07e595d983b8c0526c8f7fb87876040516122649291906135eb565b60405180910390a46120de818787878787612ab1565b6003546001600160a01b03163314610a3d5760405162461bcd60e51b815260206004820181905260248201527f4f776e61626c653a2063616c6c6572206973206e6f7420746865206f776e657260448201526064016104c4565b6122dc612c1c565b6003805460ff60a01b191690557f5db9ee0a495bf2e6ff9c91a7834c1ba4fdd244a5e8aa4e537bd38aeae4b073aa335b6040516001600160a01b03909116815260200160405180910390a1565b600380546001600160a01b038381166001600160a01b0319831681179093556040519116919082907f8be0079c531659141344cd1fd0a4f28419497f9722a3daafe3b4186f6b6457e090600090a35050565b61238361189a565b6003805460ff60a01b1916600160a01b1790557f62e78cea01bee320cd4e420270b5ea74000d11b0c9f74754ebdbfc544b05a25861230c3390565b816001600160a01b0316836001600160a01b031614156124325760405162461bcd60e51b815260206004820152602960248201527f455243313135353a2073657474696e6720617070726f76616c20737461747573604482015268103337b91039b2b63360b91b60648201526084016104c4565b6001600160a01b03838116600081815260016020908152604080832094871680845294825291829020805460ff191686151590811790915591519182527f17307eab39ab6107e8899845ad3d59bd9653f200f220920489ca2b5937696c31910160405180910390a3505050565b6001600160a01b0384166124ea5760405162461bcd60e51b815260206004820152601260248201527145524332303a204e696c206164647265737360701b60448201526064016104c4565b6001600160a01b0384163b6125375760405162461bcd60e51b8152602060048201526013602482015272115490cc8c0e881153d0481c1c9bdd9a591959606a1b60448201526064016104c4565b604080516001600160a01b0385811660248301528481166044830152606480830185905283518084039091018152608490920183526020820180516001600160e01b03166323b872dd60e01b179052915160009283929088169161259b9190613538565b6000604051808303816000865af19150503d80600081146125d8576040519150601f19603f3d011682016040523d82523d6000602084013e6125dd565b606091505b50915091508180156126075750805115806126075750808060200190518101906126079190613486565b6120de5760405162461bcd60e51b815260206004820152602660248201527f45524332303a20496e737566666963656e742062616c616e6365206f722061706044820152651c1c9bdd985b60d21b60648201526084016104c4565b6001600160a01b0384166126885760405162461bcd60e51b81526004016104c4906138dd565b336000612694856117be565b905060006126a1856117be565b90506000868152602081815260408083206001600160a01b038b168452909152812080548792906126d39084906135b8565b909155505060408051878152602081018790526001600160a01b03808a1692600092918716917fc3d58168c5ae7397731d063d5bbf3d657854427343f4c083240f7aacaa2d0f62910160405180910390a461273383600089898989612c6c565b50505050505050565b6001600160a01b0383166127625760405162461bcd60e51b81526004016104c49061377f565b33600061276e846117be565b9050600061277b846117be565b60408051602080820183526000918290528882528181528282206001600160a01b038b16835290522054909150848110156127c85760405162461bcd60e51b81526004016104c49061380a565b6000868152602081815260408083206001600160a01b038b81168086529184528285208a8703905582518b81529384018a90529092908816917fc3d58168c5ae7397731d063d5bbf3d657854427343f4c083240f7aacaa2d0f62910160405180910390a4604080516020810190915260009052612733565b6001600160a01b0384166128665760405162461bcd60e51b81526004016104c49061384e565b336000612872856117be565b9050600061287f856117be565b90506000868152602081815260408083206001600160a01b038c168452909152902054858110156128c25760405162461bcd60e51b81526004016104c490613893565b6000878152602081815260408083206001600160a01b038d8116855292528083208985039055908a168252812080548892906128ff9084906135b8565b909155505060408051888152602081018890526001600160a01b03808b16928c821692918816917fc3d58168c5ae7397731d063d5bbf3d657854427343f4c083240f7aacaa2d0f62910160405180910390a461295f848a8a8a8a8a612c6c565b505050505050505050565b6001600160a01b0384166129905760405162461bcd60e51b81526004016104c4906138dd565b81518351146129b15760405162461bcd60e51b81526004016104c4906137c2565b3360005b8451811015612a4d578381815181106129d0576129d0613554565b60200260200101516000808784815181106129ed576129ed613554565b602002602001015181526020019081526020016000206000886001600160a01b03166001600160a01b031681526020019081526020016000206000828254612a3591906135b8565b90915550819050612a45816135d0565b9150506129b5565b50846001600160a01b031660006001600160a01b0316826001600160a01b03167f4a39dc06d4c0dbc64b70af90fd698a233a518aa5d07e595d983b8c0526c8f7fb8787604051612a9e9291906135eb565b60405180910390a4610a26816000878787875b6001600160a01b0384163b156120de5760405163bc197c8160e01b81526001600160a01b0385169063bc197c8190612af5908990899088908890889060040161391e565b602060405180830381600087803b158015612b0f57600080fd5b505af1925050508015612b3f575060408051601f3d908101601f19168201909252612b3c9181019061397c565b60015b612bec57612b4b613999565b806308c379a01415612b855750612b606139b5565b80612b6b5750612b87565b8060405162461bcd60e51b81526004016104c49190612e2b565b505b60405162461bcd60e51b815260206004820152603460248201527f455243313135353a207472616e7366657220746f206e6f6e2d455243313135356044820152732932b1b2b4bb32b91034b6b83632b6b2b73a32b960611b60648201526084016104c4565b6001600160e01b0319811663bc197c8160e01b146127335760405162461bcd60e51b81526004016104c490613a3f565b600354600160a01b900460ff16610a3d5760405162461bcd60e51b815260206004820152601460248201527314185d5cd8589b194e881b9bdd081c185d5cd95960621b60448201526064016104c4565b6001600160a01b0384163b156120de5760405163f23a6e6160e01b81526001600160a01b0385169063f23a6e6190612cb09089908990889088908890600401613a87565b602060405180830381600087803b158015612cca57600080fd5b505af1925050508015612cfa575060408051601f3d908101601f19168201909252612cf79181019061397c565b60015b612d0657612b4b613999565b6001600160e01b0319811663f23a6e6160e01b146127335760405162461bcd60e51b81526004016104c490613a3f565b6001600160a01b038116811461151257600080fd5b8035612d5681612d36565b919050565b60008060408385031215612d6e57600080fd5b8235612d7981612d36565b946020939093013593505050565b6001600160e01b03198116811461151257600080fd5b600060208284031215612daf57600080fd5b81356106be81612d87565b600060208284031215612dcc57600080fd5b5035919050565b60005b83811015612dee578181015183820152602001612dd6565b838111156110175750506000910152565b60008151808452612e17816020860160208601612dd3565b601f01601f19169290920160200192915050565b6020815260006106be6020830184612dff565b634e487b7160e01b600052604160045260246000fd5b601f8201601f1916810167ffffffffffffffff81118282101715612e7a57612e7a612e3e565b6040525050565b600067ffffffffffffffff821115612e9b57612e9b612e3e565b5060051b60200190565b600082601f830112612eb657600080fd5b81356020612ec382612e81565b604051612ed08282612e54565b83815260059390931b8501820192828101915086841115612ef057600080fd5b8286015b84811015612f0b5780358352918301918301612ef4565b509695505050505050565b600067ffffffffffffffff821115612f3057612f30612e3e565b50601f01601f191660200190565b600082601f830112612f4f57600080fd5b8135612f5a81612f16565b604051612f678282612e54565b828152856020848701011115612f7c57600080fd5b82602086016020830137600092810160200192909252509392505050565b600080600080600060a08688031215612fb257600080fd5b8535612fbd81612d36565b94506020860135612fcd81612d36565b9350604086013567ffffffffffffffff80821115612fea57600080fd5b612ff689838a01612ea5565b9450606088013591508082111561300c57600080fd5b61301889838a01612ea5565b9350608088013591508082111561302e57600080fd5b5061303b88828901612f3e565b9150509295509295909350565b6000806040838503121561305b57600080fd5b823567ffffffffffffffff8082111561307357600080fd5b818501915085601f83011261308757600080fd5b8135602061309482612e81565b6040516130a18282612e54565b83815260059390931b85018201928281019150898411156130c157600080fd5b948201945b838610156130e85785356130d981612d36565b825294820194908201906130c6565b965050860135925050808211156130fe57600080fd5b5061310b85828601612ea5565b9150509250929050565b600081518084526020808501945080840160005b8381101561314557815187529582019590820190600101613129565b509495945050505050565b6020815260006106be6020830184613115565b600080600080600080600060e0888a03121561317e57600080fd5b873567ffffffffffffffff8082111561319657600080fd5b6131a28b838c01612f3e565b985060208a0135975060408a01359150808211156131bf57600080fd5b6131cb8b838c01612f3e565b965060608a013595506131e060808b01612d4b565b945060a08a01359150808211156131f657600080fd5b6132028b838c01612f3e565b935060c08a013591508082111561321857600080fd5b506132258a828b01612f3e565b91505092959891949750929550565b801515811461151257600080fd5b6000806040838503121561325557600080fd5b823561326081612d36565b9150602083013561327081613234565b809150509250929050565b60808152600061328e6080830187612dff565b60208301959095525060408101929092526001600160a01b0316606090910152919050565b6000806000606084860312156132c857600080fd5b833592506020840135915060408401356132e181612d36565b809150509250925092565b600080604083850312156132ff57600080fd5b823561330a81612d36565b9150602083013561327081612d36565b60008060008060008060c0878903121561333357600080fd5b863561333e81612d36565b9550602087013561334e81612d36565b9450604087013561335e81612d36565b935060608701359250608087013561337581612d36565b915060a087013561338581612d36565b809150509295509295509295565b600080600080600060a086880312156133ab57600080fd5b85356133b681612d36565b945060208601356133c681612d36565b93506040860135925060608601359150608086013567ffffffffffffffff8111156133f057600080fd5b61303b88828901612f3e565b60006020828403121561340e57600080fd5b81356106be81612d36565b60008060006060848603121561342e57600080fd5b833567ffffffffffffffff8082111561344657600080fd5b61345287838801612ea5565b9450602086013591508082111561346857600080fd5b5061347586828701612ea5565b92505060408401356132e181612d36565b60006020828403121561349857600080fd5b81516106be81613234565b600082601f8301126134b457600080fd5b81516134bf81612f16565b6040516134cc8282612e54565b8281528560208487010111156134e157600080fd5b6134f2836020830160208801612dd3565b95945050505050565b60006020828403121561350d57600080fd5b815167ffffffffffffffff81111561352457600080fd5b613530848285016134a3565b949350505050565b6000825161354a818460208701612dd3565b9190910192915050565b634e487b7160e01b600052603260045260246000fd5b60006020828403121561357c57600080fd5b5051919050565b634e487b7160e01b600052601160045260246000fd5b60008160001904831182151516156135b3576135b3613583565b500290565b600082198211156135cb576135cb613583565b500190565b60006000198214156135e4576135e4613583565b5060010190565b6040815260006135fe6040830185613115565b82810360208401526134f28185613115565b600060018060a01b038089168352808816602084015260c0604084015261363a60c0840188613115565b838103606085015261364c8188613115565b959091166080840152505060a00152949350505050565b60006101008083526136778184018c612dff565b90508960208401528281036040840152613691818a612dff565b606084018990526001600160a01b038816608085015283810360a085015290506136bb8187612dff565b905082810360c08401526136cf8186612dff565b9150508260e08301529998505050505050505050565b600080600080608085870312156136fb57600080fd5b845167ffffffffffffffff81111561371257600080fd5b61371e878288016134a3565b9450506020850151925060408501519150606085015161373d81612d36565b939692955090935050565b6020808252601d908201527f50424d3a2027746f27206164647265737320626c61636b6c6973746564000000604082015260600190565b60208082526023908201527f455243313135353a206275726e2066726f6d20746865207a65726f206164647260408201526265737360e81b606082015260800190565b60208082526028908201527f455243313135353a2069647320616e6420616d6f756e7473206c656e677468206040820152670dad2e6dac2e8c6d60c31b606082015260800190565b60208082526024908201527f455243313135353a206275726e20616d6f756e7420657863656564732062616c604082015263616e636560e01b606082015260800190565b60208082526025908201527f455243313135353a207472616e7366657220746f20746865207a65726f206164604082015264647265737360d81b606082015260800190565b6020808252602a908201527f455243313135353a20696e73756666696369656e742062616c616e636520666f60408201526939103a3930b739b332b960b11b606082015260800190565b60208082526021908201527f455243313135353a206d696e7420746f20746865207a65726f206164647265736040820152607360f81b606082015260800190565b6001600160a01b0386811682528516602082015260a06040820181905260009061394a90830186613115565b828103606084015261395c8186613115565b905082810360808401526139708185612dff565b98975050505050505050565b60006020828403121561398e57600080fd5b81516106be81612d87565b600060033d11156139b25760046000803e5060005160e01c5b90565b600060443d10156139c35790565b6040516003193d81016004833e81513d67ffffffffffffffff81602484011181841117156139f357505050505090565b8285019150815181811115613a0b5750505050505090565b843d8701016020828501011115613a255750505050505090565b613a3460208286010187612e54565b509095945050505050565b60208082526028908201527f455243313135353a204552433131353552656365697665722072656a656374656040820152676420746f6b656e7360c01b606082015260800190565b6001600160a01b03868116825285166020820152604081018490526060810183905260a060808201819052600090613ac190830184612dff565b97965050505050505056fea26469706673582212200aa0e4fe5e5b227b4950ce27ac2f3e11227bfc0d601e1c94be6027b5402d7a5c64736f6c6343000809003360a0604052600060015534801561001557600080fd5b5061001f33610028565b30608052610078565b600080546001600160a01b038381166001600160a01b0319831681178455604051919092169283917f8be0079c531659141344cd1fd0a4f28419497f9722a3daafe3b4186f6b6457e09190a35050565b6080516115e76100936000396000610dce01526115e76000f3fe608060405234801561001057600080fd5b50600436106100f55760003560e01c8063c054764311610097578063e21c8b5911610066578063e21c8b5914610218578063f2fde38b1461022b578063f600d9f41461023e578063f6314d571461025157600080fd5b8063c0547643146101bc578063c1e03728146101cf578063d10424c7146101f2578063d20874d81461020557600080fd5b806348fd09f5116100d357806348fd09f514610159578063715018a61461017c5780638da5cb5b14610184578063934689a9146101a957600080fd5b80630e89341c146100fa578063234661c41461012357806336a3409c14610144575b600080fd5b61010d610108366004611049565b610264565b60405161011a91906110be565b60405180910390f35b610136610131366004611049565b61033c565b60405190815260200161011a565b6101576101523660046110f4565b6103a7565b005b61016c6101673660046111e7565b610441565b604051901515815260200161011a565b6101576104a5565b6000546001600160a01b03165b6040516001600160a01b03909116815260200161011a565b6101916101b7366004611049565b6104b9565b6101576101ca366004611294565b610524565b6101e26101dd366004611049565b61085f565b60405161011a949392919061136f565b610136610200366004611049565b61095a565b610136610213366004611049565b6109bc565b6101576102263660046113a7565b610a13565b61015761023936600461140b565b610b26565b61015761024c3660046113a7565b610b9f565b61010d61025f366004611049565b610cad565b6000818152600260205260409020600301546060904210610320576000828152600260205260409020600701805461029b90611426565b80601f01602080910402602001604051908101604052809291908181526020018280546102c790611426565b80156103145780601f106102e957610100808354040283529160200191610314565b820191906000526020600020905b8154815290600101906020018083116102f757829003601f168201915b50505050509050919050565b6000828152600260205260409020600601805461029b90611426565b6000818152600260205260408120600101541580159061036c575060008281526002602052604090206003015442105b6103915760405162461bcd60e51b815260040161038890611461565b60405180910390fd5b5060009081526002602052604090206005015490565b6103af610d19565b6000828152600260205260409020600401546001600160a01b0382811691161480156103ec57506000828152600260205260409020600301544210155b61042c5760405162461bcd60e51b815260206004820152601160248201527050424d206e6f74207265766f6b61626c6560781b6044820152606401610388565b50600090815260026020526040812060050155565b6000805b825181101561049c5760008181526002602052604090206003015442118061047c5750600081815260026020526040902060010154155b1561048a5750600092915050565b80610494816114ae565b915050610445565b50600192915050565b6104ad610d19565b6104b76000610d73565b565b600081815260026020526040812060010154158015906104e9575060008281526002602052604090206003015442105b6105055760405162461bcd60e51b815260040161038890611461565b506000908152600260205260409020600401546001600160a01b031690565b61052c610d19565b610534610dc3565b8085111561057d5760405162461bcd60e51b8152602060048201526016602482015275496e76616c696420746f6b656e206578706972792d3160501b6044820152606401610388565b4285116105c55760405162461bcd60e51b815260206004820152601660248201527524b73b30b634b2103a37b5b2b71032bc3834b93c969960511b6044820152606401610388565b866106055760405162461bcd60e51b815260206004820152601060248201526f053706f7420616d6f756e7420697320360841b6044820152606401610388565b6040805180820190915260048152631114d1d160e21b6020918201528651908701207f9a65929866ae42f3ddfb8ff31c33a823ce2cb757a3f8dd13029c13172a1aa948148061069457506040805180820190915260048152631614d1d160e21b6020918201528651908701207feb356c5daf1440f443e24bbff91f802d2dffce265d2df807e65146012098ade8145b6106e05760405162461bcd60e51b815260206004820152601d60248201527f53706f7454797065206d7573742062652044534744206f7220585347440000006044820152606401610388565b6000886106ec89610e3b565b6040516020016106fd9291906114c9565b60408051601f198184030181529181526001546000908152600260209081529190208251929350610732929091840190610fb0565b5060018054600090815260026020818152604080842085018d905593548352929091208951610769939190920191908a0190610fb0565b506001805460009081526002602090815260408083206003018a90558354835280832060040180546001600160a01b0319166001600160a01b038b16179055835483528083206005018390559254825291902085516107d092600690920191870190610fb0565b50600154600090815260026020908152604090912084516107f992600790920191860190610fb0565b507f8731f63f2195dc94a743578b0aab9468b3dc40f26fc96c5be6249093616ba8f2600154828a8a8a8a604051610835969594939291906114f8565b60405180910390a1600180600082825461084f919061154d565b9091555050505050505050505050565b60008181526002602052604081206001015460609190819081906108955760405162461bcd60e51b815260040161038890611461565b600085815260026020526040902060018101546003820154600483015483546001600160a01b039091169084906108cb90611426565b80601f01602080910402602001604051908101604052809291908181526020018280546108f790611426565b80156109445780601f1061091957610100808354040283529160200191610944565b820191906000526020600020905b81548152906001019060200180831161092757829003601f168201915b5050505050935093509350935093509193509193565b6000818152600260205260408120600101541580159061098a575060008281526002602052604090206003015442105b6109a65760405162461bcd60e51b815260040161038890611461565b5060009081526002602052604090206001015490565b6000818152600260205260408120600101546109ea5760405162461bcd60e51b815260040161038890611461565b60008281526002602052604090206005810154600190910154610a0d9190611565565b92915050565b610a1b610d19565b60005b8251811015610b215760026000848381518110610a3d57610a3d611584565b6020026020010151815260200190815260200160002060010154600014158015610a95575060026000848381518110610a7857610a78611584565b602002602001015181526020019081526020016000206003015442105b610ab15760405162461bcd60e51b815260040161038890611461565b818181518110610ac357610ac3611584565b602002602001015160026000858481518110610ae157610ae1611584565b602002602001015181526020019081526020016000206005016000828254610b09919061159a565b90915550819050610b19816114ae565b915050610a1e565b505050565b610b2e610d19565b6001600160a01b038116610b935760405162461bcd60e51b815260206004820152602660248201527f4f776e61626c653a206e6577206f776e657220697320746865207a65726f206160448201526564647265737360d01b6064820152608401610388565b610b9c81610d73565b50565b610ba7610d19565b60005b8251811015610b215760026000848381518110610bc957610bc9611584565b6020026020010151815260200190815260200160002060010154600014158015610c21575060026000848381518110610c0457610c04611584565b602002602001015181526020019081526020016000206003015442105b610c3d5760405162461bcd60e51b815260040161038890611461565b818181518110610c4f57610c4f611584565b602002602001015160026000858481518110610c6d57610c6d611584565b602002602001015181526020019081526020016000206005016000828254610c95919061154d565b90915550819050610ca5816114ae565b915050610baa565b60008181526002602052604090206001015460609015801590610ce0575060008281526002602052604090206003015442105b610cfc5760405162461bcd60e51b815260040161038890611461565b600082815260026020819052604090912001805461029b90611426565b6000546001600160a01b031633146104b75760405162461bcd60e51b815260206004820181905260248201527f4f776e61626c653a2063616c6c6572206973206e6f7420746865206f776e65726044820152606401610388565b600080546001600160a01b038381166001600160a01b0319831681178455604051919092169283917f8be0079c531659141344cd1fd0a4f28419497f9722a3daafe3b4186f6b6457e09190a35050565b306001600160a01b037f000000000000000000000000000000000000000000000000000000000000000016146104b75760405162461bcd60e51b815260206004820152601960248201527f44656c65676174652063616c6c732072657374726963746564000000000000006044820152606401610388565b60606000610e4883610ed8565b600101905060008167ffffffffffffffff811115610e6857610e68611120565b6040519080825280601f01601f191660200182016040528015610e92576020820181803683370190505b5090508181016020015b600019016f181899199a1a9b1b9c1cb0b131b232b360811b600a86061a8153600a8504945084610ecb57610ed0565b610e9c565b509392505050565b60008072184f03e93ff9f4daa797ed6e38ed64bf6a1f0160401b8310610f175772184f03e93ff9f4daa797ed6e38ed64bf6a1f0160401b830492506040015b6d04ee2d6d415b85acef81000000008310610f43576d04ee2d6d415b85acef8100000000830492506020015b662386f26fc100008310610f6157662386f26fc10000830492506010015b6305f5e1008310610f79576305f5e100830492506008015b6127108310610f8d57612710830492506004015b60648310610f9f576064830492506002015b600a8310610a0d5760010192915050565b828054610fbc90611426565b90600052602060002090601f016020900481019282610fde5760008555611024565b82601f10610ff757805160ff1916838001178555611024565b82800160010185558215611024579182015b82811115611024578251825591602001919060010190611009565b50611030929150611034565b5090565b5b808211156110305760008155600101611035565b60006020828403121561105b57600080fd5b5035919050565b60005b8381101561107d578181015183820152602001611065565b8381111561108c576000848401525b50505050565b600081518084526110aa816020860160208601611062565b601f01601f19169290920160200192915050565b6020815260006110d16020830184611092565b9392505050565b80356001600160a01b03811681146110ef57600080fd5b919050565b6000806040838503121561110757600080fd5b82359150611117602084016110d8565b90509250929050565b634e487b7160e01b600052604160045260246000fd5b604051601f8201601f1916810167ffffffffffffffff8111828210171561115f5761115f611120565b604052919050565b600082601f83011261117857600080fd5b8135602067ffffffffffffffff82111561119457611194611120565b8160051b6111a3828201611136565b92835284810182019282810190878511156111bd57600080fd5b83870192505b848310156111dc578235825291830191908301906111c3565b979650505050505050565b6000602082840312156111f957600080fd5b813567ffffffffffffffff81111561121057600080fd5b61121c84828501611167565b949350505050565b600082601f83011261123557600080fd5b813567ffffffffffffffff81111561124f5761124f611120565b611262601f8201601f1916602001611136565b81815284602083860101111561127757600080fd5b816020850160208301376000918101602001919091529392505050565b600080600080600080600080610100898b0312156112b157600080fd5b883567ffffffffffffffff808211156112c957600080fd5b6112d58c838d01611224565b995060208b0135985060408b01359150808211156112f257600080fd5b6112fe8c838d01611224565b975060608b0135965061131360808c016110d8565b955060a08b013591508082111561132957600080fd5b6113358c838d01611224565b945060c08b013591508082111561134b57600080fd5b506113588b828c01611224565b92505060e089013590509295985092959890939650565b6080815260006113826080830187611092565b60208301959095525060408101929092526001600160a01b0316606090910152919050565b600080604083850312156113ba57600080fd5b823567ffffffffffffffff808211156113d257600080fd5b6113de86838701611167565b935060208501359150808211156113f457600080fd5b5061140185828601611167565b9150509250929050565b60006020828403121561141d57600080fd5b6110d1826110d8565b600181811c9082168061143a57607f821691505b6020821081141561145b57634e487b7160e01b600052602260045260246000fd5b50919050565b60208082526018908201527f50424d3a20496e76616c696420546f6b656e2049642873290000000000000000604082015260600190565b634e487b7160e01b600052601160045260246000fd5b60006000198214156114c2576114c2611498565b5060010190565b600083516114db818460208801611062565b8351908301906114ef818360208801611062565b01949350505050565b86815260c06020820152600061151160c0830188611092565b86604084015282810360608401526115298187611092565b608084019590955250506001600160a01b039190911660a090910152949350505050565b6000821982111561156057611560611498565b500190565b600081600019048311821515161561157f5761157f611498565b500290565b634e487b7160e01b600052603260045260246000fd5b6000828210156115ac576115ac611498565b50039056fea26469706673582212201ab4390f2b26d4dcc0c3a24c36ef03de2eb6b6ac3c28b782b9463c3a59b6ee5f64736f6c63430008090033",
  "devdoc": {
    "kind": "dev",
    "methods": {
      "balanceOf(address,uint256)": {
        "details": "See {IPBM-balanceOf}."
      },
      "balanceOfBatch(address[],uint256[])": {
        "details": "See {IERC1155-balanceOfBatch}. Requirements: - `accounts` and `ids` must have the same length."
      },
      "batchMint(uint256[],uint256[],address)": {
        "details": "See {IPBM-batchMint}.      IMPT: Before minting, the caller should approve the contract address to spend ERC-20 tokens on behalf of the caller.       This can be done by calling the `approve` or `increaseMinterAllowance` functions of the ERC-20 contract and specifying `_spender` to be the PBM contract address.  Ref : https://eips.ethereum.org/EIPS/eip-20 WARNING: Any contracts that externally call these mint() and batchMint() functions should implement some sort of reentrancy guard procedure (such as OpenZeppelin's ReentrancyGuard). Requirements: - contract must not be paused - tokens must not be expired - `tokenIds` should all be valid ids that have already been created - `tokenIds` and `amounts` list need to have the same number of values - caller should have the necessary amount of the ERC-20 tokens required to mint - caller should have approved the PBM contract to spend the ERC-20 tokens - receiver should not be blacklisted"
      },
      "createPBMTokenType(string,uint256,string,uint256,address,string,string)": {
        "details": "See {IPBM-createPBMTokenType}. Requirements: - caller must be owner - contract must not be expired - `tokenExpiry` must be less than contract expiry - `amount` should not be 0 - `spotType` should be either \"XSGD\" or \"DSGD\""
      },
      "getSpotAddress(uint256)": {
        "details": "See {IPBM-getSpotAddress}."
      },
      "getTokenDetails(uint256)": {
        "details": "See {IPBM-getTokenDetails}."
      },
      "initialise(address,address,address,uint256,address,address)": {
        "params": {
          "_dsgdToken": "address of the DSGD",
          "_expiry": "contract wide expiry ( in epoch )",
          "_heroNFT": "address of the HeroNFT smartcontract",
          "_pbmAddressList": "address of the PBMAddressList smartcontract",
          "_swapContract": "address of the Swap contract",
          "_xsgdToken": "address of the XSGD"
        }
      },
      "isApprovedForAll(address,address)": {
        "details": "See {IERC1155-isApprovedForAll}."
      },
      "mint(uint256,uint256,address)": {
        "details": "See {IPBM-mint}.      IMPT: Before minting, the caller should approve the contract address to spend ERC-20 tokens on behalf of the caller.       This can be done by calling the `approve` or `increaseMinterAllowance` functions of the ERC-20 contract and specifying `_spender` to be the PBM contract address.  Ref : https://eips.ethereum.org/EIPS/eip-20 WARNING: Any contracts that externally call these mint() and batchMint() functions should implement some sort of reentrancy guard procedure (such as OpenZeppelin's ReentrancyGuard). Requirements: - contract must not be paused - tokens must not be expired - `tokenId` should be a valid id that has already been created - caller should have the necessary amount of the ERC-20 tokens required to mint - caller should have approved the PBM contract to spend the ERC-20 tokens - receiver should not be blacklisted"
      },
      "owner()": {
        "details": "Returns the address of the current owner."
      },
      "pause()": {
        "details": "see {Pausable _pause} Requirements : - caller should be owner"
      },
      "paused()": {
        "details": "Returns true if the contract is paused, and false otherwise."
      },
      "renounceOwnership()": {
        "details": "Leaves the contract without owner. It will not be possible to call `onlyOwner` functions. Can only be called by the current owner. NOTE: Renouncing ownership will leave the contract without an owner, thereby disabling any functionality that is only available to the owner."
      },
      "revokePBM(uint256)": {
        "details": "See {IPBM-revokePBM}. Requirements: - `tokenId` should be a valid ids that has already been created - caller must be the creator of the tokenType - token must be expired"
      },
      "safeBatchTransferFrom(address,address,uint256[],uint256[],bytes)": {
        "details": "See {IPBM-safeBatchTransferFrom}. Requirements: - contract must not be paused - tokens must not be expired - `tokenIds` should all be  valid ids that has already been created - `tokenIds` and `amounts` list need to have the same number of values - caller should have the PBMs that are being transferred (or)          caller should have the approval to spend the PBMs on behalf of the owner (`from` addresss)"
      },
      "safeTransferFrom(address,address,uint256,uint256,bytes)": {
        "details": "See {IPBM-safeTransferFrom}. Requirements: - contract must not be paused - tokens must not be expired - `tokenId` should be a valid ids that has already been created - caller should have the PBMs that are being transferred (or)          caller should have the approval to spend the PBMs on behalf of the owner (`from` addresss)"
      },
      "setApprovalForAll(address,bool)": {
        "details": "See {IERC1155-setApprovalForAll}."
      },
      "supportsInterface(bytes4)": {
        "details": "See {IERC165-supportsInterface}."
      },
      "transferOwnership(address)": {
        "details": "Transfers ownership of the contract to a new account (`newOwner`). Can only be called by the current owner."
      },
      "unpause()": {
        "details": "see {Pausable _unpause} Requirements : - caller should be owner"
      },
      "uri(uint256)": {
        "details": "See {IPBM-uri}."
      }
    },
    "version": 1
  },
  "userdoc": {
    "events": {
      "MerchantPayment(address,address,uint256[],uint256[],address,uint256)": {
        "notice": "Emitted when underlying ERC-20 tokens are transferred to a whitelisted merchant ( payment )"
      },
      "PBMrevokeWithdraw(address,uint256,address,uint256)": {
        "notice": "Emitted when a PBM type creator withdraws the underlying ERC-20 tokens from all the remaining expired PBMs"
      }
    },
    "kind": "user",
    "methods": {
      "initialise(address,address,address,uint256,address,address)": {
        "notice": "sets the address of the underlying ERC20 token, Contract Expiry, and the address of pbm address list"
      }
    },
    "version": 1
  },
  "storageLayout": {
    "storage": [
      {
        "astId": 314,
        "contract": "contracts/PBM.sol:PBM",
        "label": "_balances",
        "offset": 0,
        "slot": "0",
        "type": "t_mapping(t_uint256,t_mapping(t_address,t_uint256))"
      },
      {
        "astId": 320,
        "contract": "contracts/PBM.sol:PBM",
        "label": "_operatorApprovals",
        "offset": 0,
        "slot": "1",
        "type": "t_mapping(t_address,t_mapping(t_address,t_bool))"
      },
      {
        "astId": 322,
        "contract": "contracts/PBM.sol:PBM",
        "label": "_uri",
        "offset": 0,
        "slot": "2",
        "type": "t_string_storage"
      },
      {
        "astId": 7,
        "contract": "contracts/PBM.sol:PBM",
        "label": "_owner",
        "offset": 0,
        "slot": "3",
        "type": "t_address"
      },
      {
        "astId": 133,
        "contract": "contracts/PBM.sol:PBM",
        "label": "_paused",
        "offset": 20,
        "slot": "3",
        "type": "t_bool"
      },
      {
        "astId": 5086,
        "contract": "contracts/PBM.sol:PBM",
        "label": "spotToken",
        "offset": 0,
        "slot": "4",
        "type": "t_address"
      },
      {
        "astId": 5092,
        "contract": "contracts/PBM.sol:PBM",
        "label": "xsgdToken",
        "offset": 0,
        "slot": "5",
        "type": "t_address"
      },
      {
        "astId": 5098,
        "contract": "contracts/PBM.sol:PBM",
        "label": "dsgdToken",
        "offset": 0,
        "slot": "6",
        "type": "t_address"
      },
      {
        "astId": 5104,
        "contract": "contracts/PBM.sol:PBM",
        "label": "pbmTokenManager",
        "offset": 0,
        "slot": "7",
        "type": "t_address"
      },
      {
        "astId": 5110,
        "contract": "contracts/PBM.sol:PBM",
        "label": "pbmAddressList",
        "offset": 0,
        "slot": "8",
        "type": "t_address"
      },
      {
        "astId": 5116,
        "contract": "contracts/PBM.sol:PBM",
        "label": "heroNFT",
        "offset": 0,
        "slot": "9",
        "type": "t_address"
      },
      {
        "astId": 5122,
        "contract": "contracts/PBM.sol:PBM",
        "label": "swapContract",
        "offset": 0,
        "slot": "10",
        "type": "t_address"
      },
      {
        "astId": 5125,
        "contract": "contracts/PBM.sol:PBM",
        "label": "initialised",
        "offset": 20,
        "slot": "10",
        "type": "t_bool"
      },
      {
        "astId": 5127,
        "contract": "contracts/PBM.sol:PBM",
        "label": "contractExpiry",
        "offset": 0,
        "slot": "11",
        "type": "t_uint256"
      }
    ],
    "types": {
      "t_address": {
        "encoding": "inplace",
        "label": "address",
        "numberOfBytes": "20"
      },
      "t_bool": {
        "encoding": "inplace",
        "label": "bool",
        "numberOfBytes": "1"
      },
      "t_mapping(t_address,t_bool)": {
        "encoding": "mapping",
        "key": "t_address",
        "label": "mapping(address => bool)",
        "numberOfBytes": "32",
        "value": "t_bool"
      },
      "t_mapping(t_address,t_mapping(t_address,t_bool))": {
        "encoding": "mapping",
        "key": "t_address",
        "label": "mapping(address => mapping(address => bool))",
        "numberOfBytes": "32",
        "value": "t_mapping(t_address,t_bool)"
      },
      "t_mapping(t_address,t_uint256)": {
        "encoding": "mapping",
        "key": "t_address",
        "label": "mapping(address => uint256)",
        "numberOfBytes": "32",
        "value": "t_uint256"
      },
      "t_mapping(t_uint256,t_mapping(t_address,t_uint256))": {
        "encoding": "mapping",
        "key": "t_uint256",
        "label": "mapping(uint256 => mapping(address => uint256))",
        "numberOfBytes": "32",
        "value": "t_mapping(t_address,t_uint256)"
      },
      "t_string_storage": {
        "encoding": "bytes",
        "label": "string",
        "numberOfBytes": "32"
      },
      "t_uint256": {
        "encoding": "inplace",
        "label": "uint256",
        "numberOfBytes": "32"
      }
    }
  }
}