{
  "address": "0x43dE119B8394CB4B5E0B65fb96F218B3ab6baDb9",
  "abi": [
    {
      "inputs": [],
      "stateMutability": "nonpayable",
      "type": "constructor"
    },
    {
      "anonymous": false,
      "inputs": [
        {
          "indexed": true,
          "internalType": "address",
          "name": "account",
          "type": "address"
        },
        {
          "indexed": true,
          "internalType": "address",
          "name": "operator",
          "type": "address"
        },
        {
          "indexed": false,
          "internalType": "bool",
          "name": "approved",
          "type": "bool"
        }
      ],
      "name": "ApprovalForAll",
      "type": "event"
    },
    {
      "anonymous": false,
      "inputs": [
        {
          "indexed": true,
          "internalType": "address",
          "name": "from",
          "type": "address"
        },
        {
          "indexed": true,
          "internalType": "address",
          "name": "to",
          "type": "address"
        },
        {
          "indexed": false,
          "internalType": "uint256[]",
          "name": "tokenIds",
          "type": "uint256[]"
        },
        {
          "indexed": false,
          "internalType": "uint256[]",
          "name": "amounts",
          "type": "uint256[]"
        },
        {
          "indexed": false,
          "internalType": "address",
          "name": "ERC20Token",
          "type": "address"
        },
        {
          "indexed": false,
          "internalType": "uint256",
          "name": "ERC20TokenValue",
          "type": "uint256"
        }
      ],
      "name": "MerchantPayment",
      "type": "event"
    },
    {
      "anonymous": false,
      "inputs": [
        {
          "indexed": true,
          "internalType": "address",
          "name": "previousOwner",
          "type": "address"
        },
        {
          "indexed": true,
          "internalType": "address",
          "name": "newOwner",
          "type": "address"
        }
      ],
      "name": "OwnershipTransferred",
      "type": "event"
    },
    {
      "anonymous": false,
      "inputs": [
        {
          "indexed": false,
          "internalType": "address",
          "name": "beneficiary",
          "type": "address"
        },
        {
          "indexed": false,
          "internalType": "uint256",
          "name": "PBMTokenId",
          "type": "uint256"
        },
        {
          "indexed": false,
          "internalType": "address",
          "name": "ERC20Token",
          "type": "address"
        },
        {
          "indexed": false,
          "internalType": "uint256",
          "name": "ERC20TokenValue",
          "type": "uint256"
        }
      ],
      "name": "PBMrevokeWithdraw",
      "type": "event"
    },
    {
      "anonymous": false,
      "inputs": [
        {
          "indexed": false,
          "internalType": "address",
          "name": "account",
          "type": "address"
        }
      ],
      "name": "Paused",
      "type": "event"
    },
    {
      "anonymous": false,
      "inputs": [
        {
          "indexed": true,
          "internalType": "address",
          "name": "operator",
          "type": "address"
        },
        {
          "indexed": true,
          "internalType": "address",
          "name": "from",
          "type": "address"
        },
        {
          "indexed": true,
          "internalType": "address",
          "name": "to",
          "type": "address"
        },
        {
          "indexed": false,
          "internalType": "uint256[]",
          "name": "ids",
          "type": "uint256[]"
        },
        {
          "indexed": false,
          "internalType": "uint256[]",
          "name": "values",
          "type": "uint256[]"
        }
      ],
      "name": "TransferBatch",
      "type": "event"
    },
    {
      "anonymous": false,
      "inputs": [
        {
          "indexed": true,
          "internalType": "address",
          "name": "operator",
          "type": "address"
        },
        {
          "indexed": true,
          "internalType": "address",
          "name": "from",
          "type": "address"
        },
        {
          "indexed": true,
          "internalType": "address",
          "name": "to",
          "type": "address"
        },
        {
          "indexed": false,
          "internalType": "uint256",
          "name": "id",
          "type": "uint256"
        },
        {
          "indexed": false,
          "internalType": "uint256",
          "name": "value",
          "type": "uint256"
        }
      ],
      "name": "TransferSingle",
      "type": "event"
    },
    {
      "anonymous": false,
      "inputs": [
        {
          "indexed": false,
          "internalType": "string",
          "name": "value",
          "type": "string"
        },
        {
          "indexed": true,
          "internalType": "uint256",
          "name": "id",
          "type": "uint256"
        }
      ],
      "name": "URI",
      "type": "event"
    },
    {
      "anonymous": false,
      "inputs": [
        {
          "indexed": false,
          "internalType": "address",
          "name": "account",
          "type": "address"
        }
      ],
      "name": "Unpaused",
      "type": "event"
    },
    {
      "inputs": [
        {
          "internalType": "address",
          "name": "account",
          "type": "address"
        },
        {
          "internalType": "uint256",
          "name": "tokenId",
          "type": "uint256"
        }
      ],
      "name": "balanceOf",
      "outputs": [
        {
          "internalType": "uint256",
          "name": "",
          "type": "uint256"
        }
      ],
      "stateMutability": "view",
      "type": "function"
    },
    {
      "inputs": [
        {
          "internalType": "address[]",
          "name": "accounts",
          "type": "address[]"
        },
        {
          "internalType": "uint256[]",
          "name": "ids",
          "type": "uint256[]"
        }
      ],
      "name": "balanceOfBatch",
      "outputs": [
        {
          "internalType": "uint256[]",
          "name": "",
          "type": "uint256[]"
        }
      ],
      "stateMutability": "view",
      "type": "function"
    },
    {
      "inputs": [
        {
          "internalType": "uint256[]",
          "name": "tokenIds",
          "type": "uint256[]"
        },
        {
          "internalType": "uint256[]",
          "name": "amounts",
          "type": "uint256[]"
        },
        {
          "internalType": "address",
          "name": "receiver",
          "type": "address"
        }
      ],
      "name": "batchMint",
      "outputs": [],
      "stateMutability": "nonpayable",
      "type": "function"
    },
    {
      "inputs": [],
      "name": "contractExpiry",
      "outputs": [
        {
          "internalType": "uint256",
          "name": "",
          "type": "uint256"
        }
      ],
      "stateMutability": "view",
      "type": "function"
    },
    {
      "inputs": [
        {
          "internalType": "string",
          "name": "companyName",
          "type": "string"
        },
        {
          "internalType": "uint256",
          "name": "spotAmount",
          "type": "uint256"
        },
        {
          "internalType": "string",
          "name": "spotType",
          "type": "string"
        },
        {
          "internalType": "uint256",
          "name": "tokenExpiry",
          "type": "uint256"
        },
        {
          "internalType": "address",
          "name": "creator",
          "type": "address"
        },
        {
          "internalType": "string",
          "name": "tokenURI",
          "type": "string"
        },
        {
          "internalType": "string",
          "name": "postExpiryURI",
          "type": "string"
        }
      ],
      "name": "createPBMTokenType",
      "outputs": [],
      "stateMutability": "nonpayable",
      "type": "function"
    },
    {
      "inputs": [],
      "name": "dsgdToken",
      "outputs": [
        {
          "internalType": "address",
          "name": "",
          "type": "address"
        }
      ],
      "stateMutability": "view",
      "type": "function"
    },
    {
      "inputs": [
        {
          "internalType": "uint256",
          "name": "tokenId",
          "type": "uint256"
        }
      ],
      "name": "getSpotAddress",
      "outputs": [
        {
          "internalType": "address",
          "name": "",
          "type": "address"
        }
      ],
      "stateMutability": "view",
      "type": "function"
    },
    {
      "inputs": [
        {
          "internalType": "uint256",
          "name": "tokenId",
          "type": "uint256"
        }
      ],
      "name": "getTokenDetails",
      "outputs": [
        {
          "internalType": "string",
          "name": "",
          "type": "string"
        },
        {
          "internalType": "uint256",
          "name": "",
          "type": "uint256"
        },
        {
          "internalType": "uint256",
          "name": "",
          "type": "uint256"
        },
        {
          "internalType": "address",
          "name": "",
          "type": "address"
        }
      ],
      "stateMutability": "view",
      "type": "function"
    },
    {
      "inputs": [],
      "name": "heroNFT",
      "outputs": [
        {
          "internalType": "address",
          "name": "",
          "type": "address"
        }
      ],
      "stateMutability": "view",
      "type": "function"
    },
    {
      "inputs": [
        {
          "internalType": "address",
          "name": "_xsgdToken",
          "type": "address"
        },
        {
          "internalType": "address",
          "name": "_dsgdToken",
          "type": "address"
        },
        {
          "internalType": "address",
          "name": "_swapContract",
          "type": "address"
        },
        {
          "internalType": "uint256",
          "name": "_expiry",
          "type": "uint256"
        },
        {
          "internalType": "address",
          "name": "_pbmAddressList",
          "type": "address"
        },
        {
          "internalType": "address",
          "name": "_heroNFT",
          "type": "address"
        }
      ],
      "name": "initialise",
      "outputs": [],
      "stateMutability": "nonpayable",
      "type": "function"
    },
    {
      "inputs": [
        {
          "internalType": "address",
          "name": "account",
          "type": "address"
        },
        {
          "internalType": "address",
          "name": "operator",
          "type": "address"
        }
      ],
      "name": "isApprovedForAll",
      "outputs": [
        {
          "internalType": "bool",
          "name": "",
          "type": "bool"
        }
      ],
      "stateMutability": "view",
      "type": "function"
    },
    {
      "inputs": [
        {
          "internalType": "uint256",
          "name": "tokenId",
          "type": "uint256"
        },
        {
          "internalType": "uint256",
          "name": "amount",
          "type": "uint256"
        },
        {
          "internalType": "address",
          "name": "receiver",
          "type": "address"
        }
      ],
      "name": "mint",
      "outputs": [],
      "stateMutability": "nonpayable",
      "type": "function"
    },
    {
      "inputs": [],
      "name": "owner",
      "outputs": [
        {
          "internalType": "address",
          "name": "",
          "type": "address"
        }
      ],
      "stateMutability": "view",
      "type": "function"
    },
    {
      "inputs": [],
      "name": "pause",
      "outputs": [],
      "stateMutability": "nonpayable",
      "type": "function"
    },
    {
      "inputs": [],
      "name": "paused",
      "outputs": [
        {
          "internalType": "bool",
          "name": "",
          "type": "bool"
        }
      ],
      "stateMutability": "view",
      "type": "function"
    },
    {
      "inputs": [],
      "name": "pbmAddressList",
      "outputs": [
        {
          "internalType": "address",
          "name": "",
          "type": "address"
        }
      ],
      "stateMutability": "view",
      "type": "function"
    },
    {
      "inputs": [],
      "name": "pbmTokenManager",
      "outputs": [
        {
          "internalType": "address",
          "name": "",
          "type": "address"
        }
      ],
      "stateMutability": "view",
      "type": "function"
    },
    {
      "inputs": [
        {
          "internalType": "address",
          "name": "_token",
          "type": "address"
        }
      ],
      "name": "recoverAllERC20",
      "outputs": [],
      "stateMutability": "nonpayable",
      "type": "function"
    },
    {
      "inputs": [
        {
          "internalType": "address",
          "name": "_token",
          "type": "address"
        },
        {
          "internalType": "uint256",
          "name": "amount",
          "type": "uint256"
        }
      ],
      "name": "recoverERC20",
      "outputs": [],
      "stateMutability": "nonpayable",
      "type": "function"
    },
    {
      "inputs": [],
      "name": "renounceOwnership",
      "outputs": [],
      "stateMutability": "nonpayable",
      "type": "function"
    },
    {
      "inputs": [
        {
          "internalType": "uint256",
          "name": "tokenId",
          "type": "uint256"
        }
      ],
      "name": "revokePBM",
      "outputs": [],
      "stateMutability": "nonpayable",
      "type": "function"
    },
    {
      "inputs": [
        {
          "internalType": "address",
          "name": "from",
          "type": "address"
        },
        {
          "internalType": "address",
          "name": "to",
          "type": "address"
        },
        {
          "internalType": "uint256[]",
          "name": "ids",
          "type": "uint256[]"
        },
        {
          "internalType": "uint256[]",
          "name": "amounts",
          "type": "uint256[]"
        },
        {
          "internalType": "bytes",
          "name": "data",
          "type": "bytes"
        }
      ],
      "name": "safeBatchTransferFrom",
      "outputs": [],
      "stateMutability": "nonpayable",
      "type": "function"
    },
    {
      "inputs": [
        {
          "internalType": "address",
          "name": "from",
          "type": "address"
        },
        {
          "internalType": "address",
          "name": "to",
          "type": "address"
        },
        {
          "internalType": "uint256",
          "name": "id",
          "type": "uint256"
        },
        {
          "internalType": "uint256",
          "name": "amount",
          "type": "uint256"
        },
        {
          "internalType": "bytes",
          "name": "data",
          "type": "bytes"
        }
      ],
      "name": "safeTransferFrom",
      "outputs": [],
      "stateMutability": "nonpayable",
      "type": "function"
    },
    {
      "inputs": [
        {
          "internalType": "address",
          "name": "operator",
          "type": "address"
        },
        {
          "internalType": "bool",
          "name": "approved",
          "type": "bool"
        }
      ],
      "name": "setApprovalForAll",
      "outputs": [],
      "stateMutability": "nonpayable",
      "type": "function"
    },
    {
      "inputs": [],
      "name": "spotToken",
      "outputs": [
        {
          "internalType": "address",
          "name": "",
          "type": "address"
        }
      ],
      "stateMutability": "view",
      "type": "function"
    },
    {
      "inputs": [
        {
          "internalType": "bytes4",
          "name": "interfaceId",
          "type": "bytes4"
        }
      ],
      "name": "supportsInterface",
      "outputs": [
        {
          "internalType": "bool",
          "name": "",
          "type": "bool"
        }
      ],
      "stateMutability": "view",
      "type": "function"
    },
    {
      "inputs": [],
      "name": "swapContract",
      "outputs": [
        {
          "internalType": "address",
          "name": "",
          "type": "address"
        }
      ],
      "stateMutability": "view",
      "type": "function"
    },
    {
      "inputs": [
        {
          "internalType": "address",
          "name": "newOwner",
          "type": "address"
        }
      ],
      "name": "transferOwnership",
      "outputs": [],
      "stateMutability": "nonpayable",
      "type": "function"
    },
    {
      "inputs": [],
      "name": "unpause",
      "outputs": [],
      "stateMutability": "nonpayable",
      "type": "function"
    },
    {
      "inputs": [
        {
          "internalType": "uint256",
          "name": "tokenId",
          "type": "uint256"
        },
        {
          "internalType": "string",
          "name": "postExpiryURI",
          "type": "string"
        }
      ],
      "name": "updatePostExpiryURI",
      "outputs": [],
      "stateMutability": "nonpayable",
      "type": "function"
    },
    {
      "inputs": [
        {
          "internalType": "uint256",
          "name": "tokenId",
          "type": "uint256"
        },
        {
          "internalType": "uint256",
          "name": "expiry",
          "type": "uint256"
        }
      ],
      "name": "updateTokenExpiry",
      "outputs": [],
      "stateMutability": "nonpayable",
      "type": "function"
    },
    {
      "inputs": [
        {
          "internalType": "uint256",
          "name": "tokenId",
          "type": "uint256"
        },
        {
          "internalType": "string",
          "name": "tokenURI",
          "type": "string"
        }
      ],
      "name": "updateTokenURI",
      "outputs": [],
      "stateMutability": "nonpayable",
      "type": "function"
    },
    {
      "inputs": [
        {
          "internalType": "uint256",
          "name": "tokenId",
          "type": "uint256"
        }
      ],
      "name": "uri",
      "outputs": [
        {
          "internalType": "string",
          "name": "",
          "type": "string"
        }
      ],
      "stateMutability": "view",
      "type": "function"
    },
    {
      "inputs": [],
      "name": "xsgdToken",
      "outputs": [
        {
          "internalType": "address",
          "name": "",
          "type": "address"
        }
      ],
      "stateMutability": "view",
      "type": "function"
    }
  ],
  "transactionHash": "0x53465c2eeedb4c972dcfc508ee3ec2bb06f3e4e99f4d0d44ac283e4a30b41f24",
  "args": [],
  "numDeployments": 1,
  "solcInputHash": "dc2deea69cda6b2d4099bcb05dd08cb8",
  "bytecode": "0x6080604052600480546001600160a01b03199081169091556005805482169055600680548216905560078054821690556008805482169055600980549091169055600a80546001600160a81b03191690553480156200005d57600080fd5b506040805160208101909152600081526200007881620000e3565b506200008433620000fc565b6003805460ff60a01b191690556040516200009f906200014e565b604051809103906000f080158015620000bc573d6000803e3d6000fd5b50600780546001600160a01b0319166001600160a01b03929092169190911790556200023f565b8051620000f89060029060208401906200015c565b5050565b600380546001600160a01b038381166001600160a01b0319831681179093556040519116919082907f8be0079c531659141344cd1fd0a4f28419497f9722a3daafe3b4186f6b6457e090600090a35050565b61183d8062003f2783390190565b8280546200016a9062000202565b90600052602060002090601f0160209004810192826200018e5760008555620001d9565b82601f10620001a957805160ff1916838001178555620001d9565b82800160010185558215620001d9579182015b82811115620001d9578251825591602001919060010190620001bc565b50620001e7929150620001eb565b5090565b5b80821115620001e75760008155600101620001ec565b600181811c908216806200021757607f821691505b602082108114156200023957634e487b7160e01b600052602260045260246000fd5b50919050565b613cd8806200024f6000396000f3fe608060405234801561001057600080fd5b50600436106102055760003560e01c806373e17e761161011a578063b054b536116100ad578063e985e9c51161007c578063e985e9c51461046a578063f19d0370146104a6578063f242432a146104b9578063f2fde38b146104cc578063fb34b201146104df57600080fd5b8063b054b5361461040e578063c1e0372814610421578063d8597f5714610444578063e7d3fe6b1461045757600080fd5b80638da5cb5b116100e95780638da5cb5b146103c45780638ea83031146103d5578063a22cb465146103e8578063a5bfafbe146103fb57600080fd5b806373e17e761461038d5780638456cb59146103a05780638980f11f146103a857806389aba642146103bb57600080fd5b806331a8bfc31161019d57806351f317c01161016c57806351f317c01461033a5780635c975abb1461034d578063606df5401461035f57806363be47d214610372578063715018a61461038557600080fd5b806331a8bfc3146102ec5780633f4ba83a146102ff5780634e1273f41461030757806351e86cf61461032757600080fd5b80630d5a4858116101d95780630d5a4858146102915780630e89341c146102a457806318e97fd1146102c45780632eb2c2d6146102d957600080fd5b8062fdd58e1461020a57806301ffc9a71461023057806302b83c8a146102535780630ad894621461027e575b600080fd5b61021d610218366004612ed6565b6104f2565b6040519081526020015b60405180910390f35b61024361023e366004612f18565b610609565b6040519015158152602001610227565b610266610261366004612f35565b610659565b6040516001600160a01b039091168152602001610227565b600454610266906001600160a01b031681565b600554610266906001600160a01b031681565b6102b76102b2366004612f35565b61075b565b6040516102279190612fa6565b6102d76102d236600461307e565b6107dc565b005b6102d76102e7366004613158565b61084c565b600954610266906001600160a01b031681565b6102d7610b37565b61031a610315366004613205565b610b49565b6040516102279190613302565b600854610266906001600160a01b031681565b600654610266906001600160a01b031681565b600354600160a01b900460ff16610243565b6102d761036d366004613315565b610c72565b600754610266906001600160a01b031681565b6102d7610cf5565b6102d761039b366004612f35565b610d07565b6102d7610e7a565b6102d76103b6366004612ed6565b610e8a565b61021d600b5481565b6003546001600160a01b0316610266565b600a54610266906001600160a01b031681565b6102d76103f63660046133f3565b610eb4565b6102d761040936600461342c565b610ec3565b6102d761041c36600461344e565b610f03565b61043461042f366004612f35565b610f9e565b604051610227949392919061346b565b6102d761045236600461307e565b611037565b6102d76104653660046134a3565b611071565b6102436104783660046134dc565b6001600160a01b03918216600090815260016020908152604080832093909416825291909152205460ff1690565b6102d76104b436600461350a565b611265565b6102d76104c7366004613583565b6114c3565b6102d76104da36600461344e565b6116f4565b6102d76104ed3660046135eb565b61176d565b60006001600160a01b0383166105635760405162461bcd60e51b815260206004820152602b60248201527f455243313135353a2062616c616e636520717565727920666f7220746865207a60448201526a65726f206164647265737360a81b60648201526084015b60405180910390fd5b6007546001600160a01b03166348fd09f561057d84611a11565b6040518263ffffffff1660e01b81526004016105999190613302565b60206040518083038186803b1580156105b157600080fd5b505afa1580156105c5573d6000803e3d6000fd5b505050506040513d601f19601f820116820180604052508101906105e99190613657565b156105ff576105f88383611a5c565b9050610603565b5060005b92915050565b60006001600160e01b03198216636cdb3d1360e11b148061063a57506001600160e01b031982166303a24d0760e21b145b8061060357506301ffc9a760e01b6001600160e01b0319831614610603565b60075460405163f6314d5760e01b81526004810183905260009182916001600160a01b039091169063f6314d579060240160006040518083038186803b1580156106a257600080fd5b505afa1580156106b6573d6000803e3d6000fd5b505050506040513d6000823e601f3d908101601f191682016040526106de91908101906136cc565b604051631614d1d160e21b6020820152909150602401604051602081830303815290604052805190602001208160405160200161071b9190613708565b6040516020818303038152906040528051906020012014610747576006546001600160a01b0316610754565b6005546001600160a01b03165b9392505050565b6007546040516303a24d0760e21b8152600481018390526060916001600160a01b031690630e89341c9060240160006040518083038186803b1580156107a057600080fd5b505afa1580156107b4573d6000803e3d6000fd5b505050506040513d6000823e601f3d908101601f1916820160405261060391908101906136cc565b6107e4611aed565b6007546040516318e97fd160e01b81526001600160a01b03909116906318e97fd1906108169085908590600401613724565b600060405180830381600087803b15801561083057600080fd5b505af1158015610844573d6000803e3d6000fd5b505050505050565b610854611b47565b61085e8585611b94565b81518351146108af5760405162461bcd60e51b815260206004820181905260248201527f556e657175616c2069647320616e6420616d6f756e747320737570706c696564604482015260640161055a565b600854604051631a2f716760e01b81526001600160a01b03868116600483015290911690631a2f716790602401602060405180830381600087803b1580156108f657600080fd5b505af115801561090a573d6000803e3d6000fd5b505050506040513d601f19601f8201168201806040525081019061092e9190613657565b15610b23576000805b8451811015610a395760008582815181106109545761095461373d565b6020026020010151905060008583815181106109725761097261373d565b602090810291909101015160075460405163d10424c760e01b8152600481018590529192506000916001600160a01b039091169063d10424c79060240160206040518083038186803b1580156109c757600080fd5b505afa1580156109db573d6000803e3d6000fd5b505050506040513d601f19601f820116820180604052508101906109ff9190613753565b610a099083613782565b9050610a158382611cb0565b9050610a2181866137a1565b94505050508080610a31906137b9565b915050610937565b50610a45868585611ea1565b60075460405163e21c8b5960e01b81526001600160a01b039091169063e21c8b5990610a7790879087906004016137d4565b600060405180830381600087803b158015610a9157600080fd5b505af1158015610aa5573d6000803e3d6000fd5b5050600554610ac192506001600160a01b03169050868361202b565b6005546040516001600160a01b0387811692898216927f68c9cd42836993caa70415e61f3c3baceb0bb31dcb22af6e5e0db98fa8870fac92610b0c928a928a929091169088906137f9565b60405180910390a3610b1d856121e7565b50610b30565b610b3085858585856122bb565b5050505050565b610b3f611aed565b610b4761244f565b565b60608151835114610bae5760405162461bcd60e51b815260206004820152602960248201527f455243313135353a206163636f756e747320616e6420696473206c656e677468604482015268040dad2e6dac2e8c6d60bb1b606482015260840161055a565b600083516001600160401b03811115610bc957610bc9612fb9565b604051908082528060200260200182016040528015610bf2578160200160208202803683370190505b50905060005b8451811015610c6a57610c3d858281518110610c1657610c1661373d565b6020026020010151858381518110610c3057610c3061373d565b60200260200101516104f2565b828281518110610c4f57610c4f61373d565b6020908102919091010152610c63816137b9565b9050610bf8565b509392505050565b610c7a611aed565b600754600b5460405163c054764360e01b81526001600160a01b039092169163c054764391610cba918b918b918b918b918b918b918b919060040161383b565b600060405180830381600087803b158015610cd457600080fd5b505af1158015610ce8573d6000803e3d6000fd5b5050505050505050505050565b610cfd611aed565b610b4760006124a4565b610d0f611b47565b600754604051631a410e9b60e31b8152600481018390526000916001600160a01b03169063d20874d89060240160206040518083038186803b158015610d5457600080fd5b505afa158015610d68573d6000803e3d6000fd5b505050506040513d601f19601f82011682018060405250810190610d8c9190613753565b600754604051630da8d02760e21b8152600481018590523360248201529192506001600160a01b0316906336a3409c90604401600060405180830381600087803b158015610dd957600080fd5b505af1158015610ded573d6000803e3d6000fd5b50505050610dfa82610659565b600480546001600160a01b0319166001600160a01b03929092169182179055610e2490338361202b565b60045460408051338152602081018590526001600160a01b039092168282015260608201839052517fa1c359e2aefcb2a02fa122099023552498d16ee2c91b81d3cfd8cd086f037d449181900360800190a15050565b610e82611aed565b610b476124f6565b610e92611aed565b81610eaf81610ea96003546001600160a01b031690565b8461202b565b505050565b610ebf338383612539565b5050565b610ecb611aed565b6007546040516352dfd7df60e11b815260048101849052602481018390526001600160a01b039091169063a5bfafbe90604401610816565b610f0b611aed565b80610ebf81610f226003546001600160a01b031690565b6040516370a0823160e01b81523060048201526001600160a01b038516906370a082319060240160206040518083038186803b158015610f6157600080fd5b505afa158015610f75573d6000803e3d6000fd5b505050506040513d601f19601f82011682018060405250810190610f999190613753565b61202b565b60075460405163183c06e560e31b815260048101839052606091600091829182916001600160a01b039091169063c1e037289060240160006040518083038186803b158015610fec57600080fd5b505afa158015611000573d6000803e3d6000fd5b505050506040513d6000823e601f3d908101601f1916820160405261102891908101906138bd565b93509350935093509193509193565b61103f611aed565b60075460405163d8597f5760e01b81526001600160a01b039091169063d8597f57906108169085908590600401613724565b611079611b47565b60085460405163fe575a8760e01b81526001600160a01b0383811660048301529091169063fe575a8790602401602060405180830381600087803b1580156110c057600080fd5b505af11580156110d4573d6000803e3d6000fd5b505050506040513d601f19601f820116820180604052508101906110f89190613657565b156111155760405162461bcd60e51b815260040161055a9061391f565b60075460405163d10424c760e01b8152600481018590526000916001600160a01b03169063d10424c79060240160206040518083038186803b15801561115a57600080fd5b505afa15801561116e573d6000803e3d6000fd5b505050506040513d601f19601f820116820180604052508101906111929190613753565b61119c9084613782565b90506111a784610659565b600480546001600160a01b0319166001600160a01b039290921691821790556111d29033308461261a565b6007546001600160a01b031663f600d9f46111ec86611a11565b6111f586611a11565b6040518363ffffffff1660e01b81526004016112129291906137d4565b600060405180830381600087803b15801561122c57600080fd5b505af1158015611240573d6000803e3d6000fd5b5050505061125f828585604051806020016040528060008152506127dd565b50505050565b61126d611aed565b600a54600160a01b900460ff16156112c75760405162461bcd60e51b815260206004820152601860248201527f50424d3a20416c726561647920696e697469616c697365640000000000000000604482015260640161055a565b6001600160a01b0386163b6113135760405162461bcd60e51b815260206004820152601260248201527124b73b30b634b2102c29a3a2103a37b5b2b760711b604482015260640161055a565b6001600160a01b0385163b61135f5760405162461bcd60e51b815260206004820152601260248201527124b73b30b634b2102229a3a2103a37b5b2b760711b604482015260640161055a565b6001600160a01b0384163b6113ae5760405162461bcd60e51b8152602060048201526015602482015274125b9d985b1a59081cddd85c0818dbdb9d1c9858dd605a1b604482015260640161055a565b6001600160a01b0382163b6114055760405162461bcd60e51b815260206004820152601860248201527f496e76616c69642070626d2061646472657373206c6973740000000000000000604482015260640161055a565b6001600160a01b0381163b61144f5760405162461bcd60e51b815260206004820152601060248201526f125b9d985b1a59081a195c9bc81b999d60821b604482015260640161055a565b600580546001600160a01b039788166001600160a01b0319918216179091556006805496881696821696909617909555600a8054600b9490945560088054938816938716939093179092556009805491871691909516179093556001600160a81b031916921691909117600160a01b179055565b6114cb611b47565b6114d58585611b94565b600854604051631a2f716760e01b81526001600160a01b03868116600483015290911690631a2f716790602401602060405180830381600087803b15801561151c57600080fd5b505af1158015611530573d6000803e3d6000fd5b505050506040513d601f19601f820116820180604052508101906115549190613657565b156116e75760075460405163d10424c760e01b8152600481018590526000916001600160a01b03169063d10424c79060240160206040518083038186803b15801561159e57600080fd5b505afa1580156115b2573d6000803e3d6000fd5b505050506040513d601f19601f820116820180604052508101906115d69190613753565b6115e09084613782565b90506115ed8685856128b7565b6007546001600160a01b031663e21c8b5961160786611a11565b61161086611a11565b6040518363ffffffff1660e01b815260040161162d9291906137d4565b600060405180830381600087803b15801561164757600080fd5b505af115801561165b573d6000803e3d6000fd5b505050506116698482611cb0565b600554909150611683906001600160a01b0316868361202b565b846001600160a01b0316866001600160a01b03167f68c9cd42836993caa70415e61f3c3baceb0bb31dcb22af6e5e0db98fa8870fac6116c187611a11565b6116ca87611a11565b600554604051610b0c9392916001600160a01b03169088906137f9565b610b3085858585856129bb565b6116fc611aed565b6001600160a01b0381166117615760405162461bcd60e51b815260206004820152602660248201527f4f776e61626c653a206e6577206f776e657220697320746865207a65726f206160448201526564647265737360d01b606482015260840161055a565b61176a816124a4565b50565b611775611b47565b60085460405163fe575a8760e01b81526001600160a01b0383811660048301529091169063fe575a8790602401602060405180830381600087803b1580156117bc57600080fd5b505af11580156117d0573d6000803e3d6000fd5b505050506040513d601f19601f820116820180604052508101906117f49190613657565b156118115760405162461bcd60e51b815260040161055a9061391f565b81518351146118625760405162461bcd60e51b815260206004820181905260248201527f556e657175616c2069647320616e6420616d6f756e747320737570706c696564604482015260640161055a565b60005b83518110156119f55760008482815181106118825761188261373d565b6020026020010151905060008483815181106118a0576118a061373d565b602090810291909101015160075460405163d10424c760e01b8152600481018590529192506000916001600160a01b039091169063d10424c79060240160206040518083038186803b1580156118f557600080fd5b505afa158015611909573d6000803e3d6000fd5b505050506040513d601f19601f8201168201806040525081019061192d9190613753565b6119379083613782565b905061194283610659565b600480546001600160a01b0319166001600160a01b0392909216918217905561196d9033308461261a565b6007546001600160a01b031663f600d9f461198785611a11565b61199085611a11565b6040518363ffffffff1660e01b81526004016119ad9291906137d4565b600060405180830381600087803b1580156119c757600080fd5b505af11580156119db573d6000803e3d6000fd5b5050505050505080806119ed906137b9565b915050611865565b50610eaf81848460405180602001604052806000815250612ae5565b60408051600180825281830190925260609160009190602080830190803683370190505090508281600081518110611a4b57611a4b61373d565b602090810291909101015292915050565b60006001600160a01b038316611ac75760405162461bcd60e51b815260206004820152602a60248201527f455243313135353a2061646472657373207a65726f206973206e6f742061207660448201526930b634b21037bbb732b960b11b606482015260840161055a565b506000908152602081815260408083206001600160a01b03949094168352929052205490565b6003546001600160a01b03163314610b475760405162461bcd60e51b815260206004820181905260248201527f4f776e61626c653a2063616c6c6572206973206e6f7420746865206f776e6572604482015260640161055a565b600354600160a01b900460ff1615610b475760405162461bcd60e51b815260206004820152601060248201526f14185d5cd8589b194e881c185d5cd95960821b604482015260640161055a565b6001600160a01b038216331480611bb05750611bb08233610478565b611c145760405162461bcd60e51b815260206004820152602f60248201527f455243313135353a2063616c6c6572206973206e6f7420746f6b656e206f776e60448201526e195c881b9bdc88185c1c1c9bdd9959608a1b606482015260840161055a565b60085460405163fe575a8760e01b81526001600160a01b0383811660048301529091169063fe575a8790602401602060405180830381600087803b158015611c5b57600080fd5b505af1158015611c6f573d6000803e3d6000fd5b505050506040513d601f19601f82011682018060405250810190611c939190613657565b15610ebf5760405162461bcd60e51b815260040161055a9061391f565b604051631114d1d160e21b602082015260009060240160408051808303601f1901815290829052805160209091012060075463f6314d5760e01b83526004830186905290916001600160a01b039091169063f6314d579060240160006040518083038186803b158015611d2257600080fd5b505afa158015611d36573d6000803e3d6000fd5b505050506040513d6000823e601f3d908101601f19168201604052611d5e91908101906136cc565b604051602001611d6e9190613708565b604051602081830303815290604052805190602001201415611e9b57600654600a54604051633950935160e01b81526001600160a01b03918216600482015260248101859052911690633950935190604401602060405180830381600087803b158015611dda57600080fd5b505af1158015611dee573d6000803e3d6000fd5b505050506040513d601f19601f82011682018060405250810190611e129190613657565b50600a54604051630a8d475760e41b8152600481018490526000916001600160a01b03169063a8d4757090602401602060405180830381600087803b158015611e5a57600080fd5b505af1158015611e6e573d6000803e3d6000fd5b505050506040513d601f19601f82011682018060405250810190611e929190613753565b91506106039050565b50919050565b6001600160a01b038316611ec75760405162461bcd60e51b815260040161055a90613956565b8051825114611ee85760405162461bcd60e51b815260040161055a90613999565b604080516020810190915260009081905233905b8351811015611fbe576000848281518110611f1957611f1961373d565b602002602001015190506000848381518110611f3757611f3761373d565b602090810291909101810151600084815280835260408082206001600160a01b038c168352909352919091205490915081811015611f875760405162461bcd60e51b815260040161055a906139e1565b6000928352602083815260408085206001600160a01b038b1686529091529092209103905580611fb6816137b9565b915050611efc565b5060006001600160a01b0316846001600160a01b0316826001600160a01b03167f4a39dc06d4c0dbc64b70af90fd698a233a518aa5d07e595d983b8c0526c8f7fb868660405161200f9291906137d4565b60405180910390a460408051602081019091526000905261125f565b6001600160a01b0383166120765760405162461bcd60e51b815260206004820152601260248201527145524332303a204e696c206164647265737360701b604482015260640161055a565b6001600160a01b0383163b6120c35760405162461bcd60e51b8152602060048201526013602482015272115490cc8c0e881153d0481c1c9bdd9a591959606a1b604482015260640161055a565b604080516001600160a01b038481166024830152604480830185905283518084039091018152606490920183526020820180516001600160e01b031663a9059cbb60e01b179052915160009283929087169161211f9190613708565b6000604051808303816000865af19150503d806000811461215c576040519150601f19603f3d011682016040523d82523d6000602084013e612161565b606091505b509150915081801561218b57508051158061218b57508080602001905181019061218b9190613657565b610b305760405162461bcd60e51b815260206004820152602760248201527f496e746572616374696f6e2077697468207468652073706f7420746f6b656e206044820152663330b4b632b21760c91b606482015260840161055a565b6008546040516331c3322160e01b81526001600160a01b03838116600483015260009216906331c3322190602401602060405180830381600087803b15801561222f57600080fd5b505af1158015612243573d6000803e3d6000fd5b505050506040513d601f19601f820116820180604052508101906122679190613753565b90508015610ebf5760095460405163301a7dc760e01b8152336004820152602481018390526001604482015260806064820152600060848201526001600160a01b039091169063301a7dc79060a401610816565b81518351146122dc5760405162461bcd60e51b815260040161055a90613999565b6001600160a01b0384166123025760405162461bcd60e51b815260040161055a90613a25565b3360005b84518110156123e95760008582815181106123235761232361373d565b6020026020010151905060008583815181106123415761234161373d565b602090810291909101810151600084815280835260408082206001600160a01b038e1683529093529190912054909150818110156123915760405162461bcd60e51b815260040161055a90613a6a565b6000838152602081815260408083206001600160a01b038e8116855292528083208585039055908b168252812080548492906123ce9084906137a1565b92505081905550505050806123e2906137b9565b9050612306565b50846001600160a01b0316866001600160a01b0316826001600160a01b03167f4a39dc06d4c0dbc64b70af90fd698a233a518aa5d07e595d983b8c0526c8f7fb87876040516124399291906137d4565b60405180910390a4610844818787878787612c2c565b612457612d97565b6003805460ff60a01b191690557f5db9ee0a495bf2e6ff9c91a7834c1ba4fdd244a5e8aa4e537bd38aeae4b073aa335b6040516001600160a01b03909116815260200160405180910390a1565b600380546001600160a01b038381166001600160a01b0319831681179093556040519116919082907f8be0079c531659141344cd1fd0a4f28419497f9722a3daafe3b4186f6b6457e090600090a35050565b6124fe611b47565b6003805460ff60a01b1916600160a01b1790557f62e78cea01bee320cd4e420270b5ea74000d11b0c9f74754ebdbfc544b05a2586124873390565b816001600160a01b0316836001600160a01b031614156125ad5760405162461bcd60e51b815260206004820152602960248201527f455243313135353a2073657474696e6720617070726f76616c20737461747573604482015268103337b91039b2b63360b91b606482015260840161055a565b6001600160a01b03838116600081815260016020908152604080832094871680845294825291829020805460ff191686151590811790915591519182527f17307eab39ab6107e8899845ad3d59bd9653f200f220920489ca2b5937696c31910160405180910390a3505050565b6001600160a01b0384166126655760405162461bcd60e51b815260206004820152601260248201527145524332303a204e696c206164647265737360701b604482015260640161055a565b6001600160a01b0384163b6126b25760405162461bcd60e51b8152602060048201526013602482015272115490cc8c0e881153d0481c1c9bdd9a591959606a1b604482015260640161055a565b604080516001600160a01b0385811660248301528481166044830152606480830185905283518084039091018152608490920183526020820180516001600160e01b03166323b872dd60e01b17905291516000928392908816916127169190613708565b6000604051808303816000865af19150503d8060008114612753576040519150601f19603f3d011682016040523d82523d6000602084013e612758565b606091505b50915091508180156127825750805115806127825750808060200190518101906127829190613657565b6108445760405162461bcd60e51b815260206004820152602660248201527f45524332303a20496e737566666963656e742062616c616e6365206f722061706044820152651c1c9bdd985b60d21b606482015260840161055a565b6001600160a01b0384166128035760405162461bcd60e51b815260040161055a90613ab4565b33600061280f85611a11565b9050600061281c85611a11565b90506000868152602081815260408083206001600160a01b038b1684529091528120805487929061284e9084906137a1565b909155505060408051878152602081018790526001600160a01b03808a1692600092918716917fc3d58168c5ae7397731d063d5bbf3d657854427343f4c083240f7aacaa2d0f62910160405180910390a46128ae83600089898989612de7565b50505050505050565b6001600160a01b0383166128dd5760405162461bcd60e51b815260040161055a90613956565b3360006128e984611a11565b905060006128f684611a11565b60408051602080820183526000918290528882528181528282206001600160a01b038b16835290522054909150848110156129435760405162461bcd60e51b815260040161055a906139e1565b6000868152602081815260408083206001600160a01b038b81168086529184528285208a8703905582518b81529384018a90529092908816917fc3d58168c5ae7397731d063d5bbf3d657854427343f4c083240f7aacaa2d0f62910160405180910390a46040805160208101909152600090526128ae565b6001600160a01b0384166129e15760405162461bcd60e51b815260040161055a90613a25565b3360006129ed85611a11565b905060006129fa85611a11565b90506000868152602081815260408083206001600160a01b038c16845290915290205485811015612a3d5760405162461bcd60e51b815260040161055a90613a6a565b6000878152602081815260408083206001600160a01b038d8116855292528083208985039055908a16825281208054889290612a7a9084906137a1565b909155505060408051888152602081018890526001600160a01b03808b16928c821692918816917fc3d58168c5ae7397731d063d5bbf3d657854427343f4c083240f7aacaa2d0f62910160405180910390a4612ada848a8a8a8a8a612de7565b505050505050505050565b6001600160a01b038416612b0b5760405162461bcd60e51b815260040161055a90613ab4565b8151835114612b2c5760405162461bcd60e51b815260040161055a90613999565b3360005b8451811015612bc857838181518110612b4b57612b4b61373d565b6020026020010151600080878481518110612b6857612b6861373d565b602002602001015181526020019081526020016000206000886001600160a01b03166001600160a01b031681526020019081526020016000206000828254612bb091906137a1565b90915550819050612bc0816137b9565b915050612b30565b50846001600160a01b031660006001600160a01b0316826001600160a01b03167f4a39dc06d4c0dbc64b70af90fd698a233a518aa5d07e595d983b8c0526c8f7fb8787604051612c199291906137d4565b60405180910390a4610b30816000878787875b6001600160a01b0384163b156108445760405163bc197c8160e01b81526001600160a01b0385169063bc197c8190612c709089908990889088908890600401613af5565b602060405180830381600087803b158015612c8a57600080fd5b505af1925050508015612cba575060408051601f3d908101601f19168201909252612cb791810190613b53565b60015b612d6757612cc6613b70565b806308c379a01415612d005750612cdb613b8c565b80612ce65750612d02565b8060405162461bcd60e51b815260040161055a9190612fa6565b505b60405162461bcd60e51b815260206004820152603460248201527f455243313135353a207472616e7366657220746f206e6f6e2d455243313135356044820152732932b1b2b4bb32b91034b6b83632b6b2b73a32b960611b606482015260840161055a565b6001600160e01b0319811663bc197c8160e01b146128ae5760405162461bcd60e51b815260040161055a90613c15565b600354600160a01b900460ff16610b475760405162461bcd60e51b815260206004820152601460248201527314185d5cd8589b194e881b9bdd081c185d5cd95960621b604482015260640161055a565b6001600160a01b0384163b156108445760405163f23a6e6160e01b81526001600160a01b0385169063f23a6e6190612e2b9089908990889088908890600401613c5d565b602060405180830381600087803b158015612e4557600080fd5b505af1925050508015612e75575060408051601f3d908101601f19168201909252612e7291810190613b53565b60015b612e8157612cc6613b70565b6001600160e01b0319811663f23a6e6160e01b146128ae5760405162461bcd60e51b815260040161055a90613c15565b6001600160a01b038116811461176a57600080fd5b8035612ed181612eb1565b919050565b60008060408385031215612ee957600080fd5b8235612ef481612eb1565b946020939093013593505050565b6001600160e01b03198116811461176a57600080fd5b600060208284031215612f2a57600080fd5b813561075481612f02565b600060208284031215612f4757600080fd5b5035919050565b60005b83811015612f69578181015183820152602001612f51565b8381111561125f5750506000910152565b60008151808452612f92816020860160208601612f4e565b601f01601f19169290920160200192915050565b6020815260006107546020830184612f7a565b634e487b7160e01b600052604160045260246000fd5b601f8201601f191681016001600160401b0381118282101715612ff457612ff4612fb9565b6040525050565b60006001600160401b0382111561301457613014612fb9565b50601f01601f191660200190565b600082601f83011261303357600080fd5b813561303e81612ffb565b60405161304b8282612fcf565b82815285602084870101111561306057600080fd5b82602086016020830137600092810160200192909252509392505050565b6000806040838503121561309157600080fd5b8235915060208301356001600160401b038111156130ae57600080fd5b6130ba85828601613022565b9150509250929050565b60006001600160401b038211156130dd576130dd612fb9565b5060051b60200190565b600082601f8301126130f857600080fd5b81356020613105826130c4565b6040516131128282612fcf565b83815260059390931b850182019282810191508684111561313257600080fd5b8286015b8481101561314d5780358352918301918301613136565b509695505050505050565b600080600080600060a0868803121561317057600080fd5b853561317b81612eb1565b9450602086013561318b81612eb1565b935060408601356001600160401b03808211156131a757600080fd5b6131b389838a016130e7565b945060608801359150808211156131c957600080fd5b6131d589838a016130e7565b935060808801359150808211156131eb57600080fd5b506131f888828901613022565b9150509295509295909350565b6000806040838503121561321857600080fd5b82356001600160401b038082111561322f57600080fd5b818501915085601f83011261324357600080fd5b81356020613250826130c4565b60405161325d8282612fcf565b83815260059390931b850182019282810191508984111561327d57600080fd5b948201945b838610156132a457853561329581612eb1565b82529482019490820190613282565b965050860135925050808211156132ba57600080fd5b506130ba858286016130e7565b600081518084526020808501945080840160005b838110156132f7578151875295820195908201906001016132db565b509495945050505050565b60208152600061075460208301846132c7565b600080600080600080600060e0888a03121561333057600080fd5b87356001600160401b038082111561334757600080fd5b6133538b838c01613022565b985060208a0135975060408a013591508082111561337057600080fd5b61337c8b838c01613022565b965060608a0135955061339160808b01612ec6565b945060a08a01359150808211156133a757600080fd5b6133b38b838c01613022565b935060c08a01359150808211156133c957600080fd5b506133d68a828b01613022565b91505092959891949750929550565b801515811461176a57600080fd5b6000806040838503121561340657600080fd5b823561341181612eb1565b91506020830135613421816133e5565b809150509250929050565b6000806040838503121561343f57600080fd5b50508035926020909101359150565b60006020828403121561346057600080fd5b813561075481612eb1565b60808152600061347e6080830187612f7a565b60208301959095525060408101929092526001600160a01b0316606090910152919050565b6000806000606084860312156134b857600080fd5b833592506020840135915060408401356134d181612eb1565b809150509250925092565b600080604083850312156134ef57600080fd5b82356134fa81612eb1565b9150602083013561342181612eb1565b60008060008060008060c0878903121561352357600080fd5b863561352e81612eb1565b9550602087013561353e81612eb1565b9450604087013561354e81612eb1565b935060608701359250608087013561356581612eb1565b915060a087013561357581612eb1565b809150509295509295509295565b600080600080600060a0868803121561359b57600080fd5b85356135a681612eb1565b945060208601356135b681612eb1565b9350604086013592506060860135915060808601356001600160401b038111156135df57600080fd5b6131f888828901613022565b60008060006060848603121561360057600080fd5b83356001600160401b038082111561361757600080fd5b613623878388016130e7565b9450602086013591508082111561363957600080fd5b50613646868287016130e7565b92505060408401356134d181612eb1565b60006020828403121561366957600080fd5b8151610754816133e5565b600082601f83011261368557600080fd5b815161369081612ffb565b60405161369d8282612fcf565b8281528560208487010111156136b257600080fd5b6136c3836020830160208801612f4e565b95945050505050565b6000602082840312156136de57600080fd5b81516001600160401b038111156136f457600080fd5b61370084828501613674565b949350505050565b6000825161371a818460208701612f4e565b9190910192915050565b8281526040602082015260006137006040830184612f7a565b634e487b7160e01b600052603260045260246000fd5b60006020828403121561376557600080fd5b5051919050565b634e487b7160e01b600052601160045260246000fd5b600081600019048311821515161561379c5761379c61376c565b500290565b600082198211156137b4576137b461376c565b500190565b60006000198214156137cd576137cd61376c565b5060010190565b6040815260006137e760408301856132c7565b82810360208401526136c381856132c7565b60808152600061380c60808301876132c7565b828103602084015261381e81876132c7565b6001600160a01b0395909516604084015250506060015292915050565b600061010080835261384f8184018c612f7a565b90508960208401528281036040840152613869818a612f7a565b606084018990526001600160a01b038816608085015283810360a085015290506138938187612f7a565b905082810360c08401526138a78186612f7a565b9150508260e08301529998505050505050505050565b600080600080608085870312156138d357600080fd5b84516001600160401b038111156138e957600080fd5b6138f587828801613674565b9450506020850151925060408501519150606085015161391481612eb1565b939692955090935050565b6020808252601d908201527f50424d3a2027746f27206164647265737320626c61636b6c6973746564000000604082015260600190565b60208082526023908201527f455243313135353a206275726e2066726f6d20746865207a65726f206164647260408201526265737360e81b606082015260800190565b60208082526028908201527f455243313135353a2069647320616e6420616d6f756e7473206c656e677468206040820152670dad2e6dac2e8c6d60c31b606082015260800190565b60208082526024908201527f455243313135353a206275726e20616d6f756e7420657863656564732062616c604082015263616e636560e01b606082015260800190565b60208082526025908201527f455243313135353a207472616e7366657220746f20746865207a65726f206164604082015264647265737360d81b606082015260800190565b6020808252602a908201527f455243313135353a20696e73756666696369656e742062616c616e636520666f60408201526939103a3930b739b332b960b11b606082015260800190565b60208082526021908201527f455243313135353a206d696e7420746f20746865207a65726f206164647265736040820152607360f81b606082015260800190565b6001600160a01b0386811682528516602082015260a060408201819052600090613b21908301866132c7565b8281036060840152613b3381866132c7565b90508281036080840152613b478185612f7a565b98975050505050505050565b600060208284031215613b6557600080fd5b815161075481612f02565b600060033d1115613b895760046000803e5060005160e01c5b90565b600060443d1015613b9a5790565b6040516003193d81016004833e81513d6001600160401b038160248401118184111715613bc957505050505090565b8285019150815181811115613be15750505050505090565b843d8701016020828501011115613bfb5750505050505090565b613c0a60208286010187612fcf565b509095945050505050565b60208082526028908201527f455243313135353a204552433131353552656365697665722072656a656374656040820152676420746f6b656e7360c01b606082015260800190565b6001600160a01b03868116825285166020820152604081018490526060810183905260a060808201819052600090613c9790830184612f7a565b97965050505050505056fea26469706673582212202bd8795f2c7775fe6be6187986be55b278386fa6fca34fabb4595fe1a1efdd3264736f6c6343000809003360a0604052600060015534801561001557600080fd5b5061001f33610028565b30608052610078565b600080546001600160a01b038381166001600160a01b0319831681178455604051919092169283917f8be0079c531659141344cd1fd0a4f28419497f9722a3daafe3b4186f6b6457e09190a35050565b6080516117aa6100936000396000610f0901526117aa6000f3fe608060405234801561001057600080fd5b50600436106101165760003560e01c8063c0547643116100a2578063d8597f5711610071578063d8597f571461025f578063e21c8b5914610272578063f2fde38b14610285578063f600d9f414610298578063f6314d57146102ab57600080fd5b8063c054764314610203578063c1e0372814610216578063d10424c714610239578063d20874d81461024c57600080fd5b806348fd09f5116100e957806348fd09f51461018d578063715018a6146101b05780638da5cb5b146101b8578063934689a9146101dd578063a5bfafbe146101f057600080fd5b80630e89341c1461011b57806318e97fd114610144578063234661c41461015957806336a3409c1461017a575b600080fd5b61012e610129366004611184565b6102be565b60405161013b91906111f9565b60405180910390f35b6101576101523660046112ca565b610396565b005b61016c610167366004611184565b6103f2565b60405190815260200161013b565b61015761018836600461132d565b610454565b6101a061019b3660046113d9565b6104ee565b604051901515815260200161013b565b610157610577565b6000546001600160a01b03165b6040516001600160a01b03909116815260200161013b565b6101c56101eb366004611184565b61058b565b6101576101fe366004611416565b6105f6565b610157610211366004611438565b610634565b610229610224366004611184565b61096f565b60405161013b9493929190611513565b61016c610247366004611184565b610a6a565b61016c61025a366004611184565b610acc565b61015761026d3660046112ca565b610b23565b61015761028036600461154b565b610b71565b6101576102933660046115a5565b610c7f565b6101576102a636600461154b565b610cf8565b61012e6102b9366004611184565b610e06565b600081815260026020526040902060030154606090421061037a57600082815260026020526040902060070180546102f5906115c0565b80601f0160208091040260200160405190810160405280929190818152602001828054610321906115c0565b801561036e5780601f106103435761010080835404028352916020019161036e565b820191906000526020600020905b81548152906001019060200180831161035157829003601f168201915b50505050509050919050565b600082815260026020526040902060060180546102f5906115c0565b61039e610e54565b60015482106103c85760405162461bcd60e51b81526004016103bf906115fb565b60405180910390fd5b600082815260026020908152604090912082516103ed926006909201918401906110eb565b505050565b60008181526002602052604081206001015415801590610422575060008281526002602052604090206003015442105b61043e5760405162461bcd60e51b81526004016103bf90611624565b5060009081526002602052604090206005015490565b61045c610e54565b6000828152600260205260409020600401546001600160a01b03828116911614801561049957506000828152600260205260409020600301544210155b6104d95760405162461bcd60e51b815260206004820152601160248201527050424d206e6f74207265766f6b61626c6560781b60448201526064016103bf565b50600090815260026020526040812060050155565b6000805b825181101561056e57600083828151811061050f5761050f61165b565b60200260200101519050600260008281526020019081526020016000206003015442118061054c5750600081815260026020526040902060010154155b1561055b575060009392505050565b508061056681611687565b9150506104f2565b50600192915050565b61057f610e54565b6105896000610eae565b565b600081815260026020526040812060010154158015906105bb575060008281526002602052604090206003015442105b6105d75760405162461bcd60e51b81526004016103bf90611624565b506000908152600260205260409020600401546001600160a01b031690565b6105fe610e54565b600154821061061f5760405162461bcd60e51b81526004016103bf906115fb565b60009182526002602052604090912060030155565b61063c610e54565b610644610efe565b8085111561068d5760405162461bcd60e51b8152602060048201526016602482015275496e76616c696420746f6b656e206578706972792d3160501b60448201526064016103bf565b4285116106d55760405162461bcd60e51b815260206004820152601660248201527524b73b30b634b2103a37b5b2b71032bc3834b93c969960511b60448201526064016103bf565b866107155760405162461bcd60e51b815260206004820152601060248201526f053706f7420616d6f756e7420697320360841b60448201526064016103bf565b6040805180820190915260048152631114d1d160e21b6020918201528651908701207f9a65929866ae42f3ddfb8ff31c33a823ce2cb757a3f8dd13029c13172a1aa94814806107a457506040805180820190915260048152631614d1d160e21b6020918201528651908701207feb356c5daf1440f443e24bbff91f802d2dffce265d2df807e65146012098ade8145b6107f05760405162461bcd60e51b815260206004820152601d60248201527f53706f7454797065206d7573742062652044534744206f72205853474400000060448201526064016103bf565b6000886107fc89610f76565b60405160200161080d9291906116a2565b60408051601f1981840301815291815260015460009081526002602090815291902082519293506108429290918401906110eb565b5060018054600090815260026020818152604080842085018d905593548352929091208951610879939190920191908a01906110eb565b506001805460009081526002602090815260408083206003018a90558354835280832060040180546001600160a01b0319166001600160a01b038b16179055835483528083206005018390559254825291902085516108e0926006909201918701906110eb565b5060015460009081526002602090815260409091208451610909926007909201918601906110eb565b507f8731f63f2195dc94a743578b0aab9468b3dc40f26fc96c5be6249093616ba8f2600154828a8a8a8a604051610945969594939291906116d1565b60405180910390a1600180600082825461095f9190611726565b9091555050505050505050505050565b60008181526002602052604081206001015460609190819081906109a55760405162461bcd60e51b81526004016103bf90611624565b600085815260026020526040902060018101546003820154600483015483546001600160a01b039091169084906109db906115c0565b80601f0160208091040260200160405190810160405280929190818152602001828054610a07906115c0565b8015610a545780601f10610a2957610100808354040283529160200191610a54565b820191906000526020600020905b815481529060010190602001808311610a3757829003601f168201915b5050505050935093509350935093509193509193565b60008181526002602052604081206001015415801590610a9a575060008281526002602052604090206003015442105b610ab65760405162461bcd60e51b81526004016103bf90611624565b5060009081526002602052604090206001015490565b600081815260026020526040812060010154610afa5760405162461bcd60e51b81526004016103bf90611624565b60008281526002602052604090206005810154600190910154610b1d919061173e565b92915050565b610b2b610e54565b6001548210610b4c5760405162461bcd60e51b81526004016103bf906115fb565b600082815260026020908152604090912082516103ed926007909201918401906110eb565b610b79610e54565b60005b82518110156103ed5760026000848381518110610b9b57610b9b61165b565b6020026020010151815260200190815260200160002060010154600014158015610bf3575060026000848381518110610bd657610bd661165b565b602002602001015181526020019081526020016000206003015442105b610c0f5760405162461bcd60e51b81526004016103bf90611624565b818181518110610c2157610c2161165b565b602002602001015160026000858481518110610c3f57610c3f61165b565b602002602001015181526020019081526020016000206005016000828254610c67919061175d565b90915550819050610c7781611687565b915050610b7c565b610c87610e54565b6001600160a01b038116610cec5760405162461bcd60e51b815260206004820152602660248201527f4f776e61626c653a206e6577206f776e657220697320746865207a65726f206160448201526564647265737360d01b60648201526084016103bf565b610cf581610eae565b50565b610d00610e54565b60005b82518110156103ed5760026000848381518110610d2257610d2261165b565b6020026020010151815260200190815260200160002060010154600014158015610d7a575060026000848381518110610d5d57610d5d61165b565b602002602001015181526020019081526020016000206003015442105b610d965760405162461bcd60e51b81526004016103bf90611624565b818181518110610da857610da861165b565b602002602001015160026000858481518110610dc657610dc661165b565b602002602001015181526020019081526020016000206005016000828254610dee9190611726565b90915550819050610dfe81611687565b915050610d03565b600081815260026020526040902060010154606090610e375760405162461bcd60e51b81526004016103bf90611624565b60008281526002602081905260409091200180546102f5906115c0565b6000546001600160a01b031633146105895760405162461bcd60e51b815260206004820181905260248201527f4f776e61626c653a2063616c6c6572206973206e6f7420746865206f776e657260448201526064016103bf565b600080546001600160a01b038381166001600160a01b0319831681178455604051919092169283917f8be0079c531659141344cd1fd0a4f28419497f9722a3daafe3b4186f6b6457e09190a35050565b306001600160a01b037f000000000000000000000000000000000000000000000000000000000000000016146105895760405162461bcd60e51b815260206004820152601960248201527f44656c65676174652063616c6c7320726573747269637465640000000000000060448201526064016103bf565b60606000610f8383611013565b600101905060008167ffffffffffffffff811115610fa357610fa3611213565b6040519080825280601f01601f191660200182016040528015610fcd576020820181803683370190505b5090508181016020015b600019016f181899199a1a9b1b9c1cb0b131b232b360811b600a86061a8153600a85049450846110065761100b565b610fd7565b509392505050565b60008072184f03e93ff9f4daa797ed6e38ed64bf6a1f0160401b83106110525772184f03e93ff9f4daa797ed6e38ed64bf6a1f0160401b830492506040015b6d04ee2d6d415b85acef8100000000831061107e576d04ee2d6d415b85acef8100000000830492506020015b662386f26fc10000831061109c57662386f26fc10000830492506010015b6305f5e10083106110b4576305f5e100830492506008015b61271083106110c857612710830492506004015b606483106110da576064830492506002015b600a8310610b1d5760010192915050565b8280546110f7906115c0565b90600052602060002090601f016020900481019282611119576000855561115f565b82601f1061113257805160ff191683800117855561115f565b8280016001018555821561115f579182015b8281111561115f578251825591602001919060010190611144565b5061116b92915061116f565b5090565b5b8082111561116b5760008155600101611170565b60006020828403121561119657600080fd5b5035919050565b60005b838110156111b85781810151838201526020016111a0565b838111156111c7576000848401525b50505050565b600081518084526111e581602086016020860161119d565b601f01601f19169290920160200192915050565b60208152600061120c60208301846111cd565b9392505050565b634e487b7160e01b600052604160045260246000fd5b604051601f8201601f1916810167ffffffffffffffff8111828210171561125257611252611213565b604052919050565b600082601f83011261126b57600080fd5b813567ffffffffffffffff81111561128557611285611213565b611298601f8201601f1916602001611229565b8181528460208386010111156112ad57600080fd5b816020850160208301376000918101602001919091529392505050565b600080604083850312156112dd57600080fd5b82359150602083013567ffffffffffffffff8111156112fb57600080fd5b6113078582860161125a565b9150509250929050565b80356001600160a01b038116811461132857600080fd5b919050565b6000806040838503121561134057600080fd5b8235915061135060208401611311565b90509250929050565b600082601f83011261136a57600080fd5b8135602067ffffffffffffffff82111561138657611386611213565b8160051b611395828201611229565b92835284810182019282810190878511156113af57600080fd5b83870192505b848310156113ce578235825291830191908301906113b5565b979650505050505050565b6000602082840312156113eb57600080fd5b813567ffffffffffffffff81111561140257600080fd5b61140e84828501611359565b949350505050565b6000806040838503121561142957600080fd5b50508035926020909101359150565b600080600080600080600080610100898b03121561145557600080fd5b883567ffffffffffffffff8082111561146d57600080fd5b6114798c838d0161125a565b995060208b0135985060408b013591508082111561149657600080fd5b6114a28c838d0161125a565b975060608b013596506114b760808c01611311565b955060a08b01359150808211156114cd57600080fd5b6114d98c838d0161125a565b945060c08b01359150808211156114ef57600080fd5b506114fc8b828c0161125a565b92505060e089013590509295985092959890939650565b60808152600061152660808301876111cd565b60208301959095525060408101929092526001600160a01b0316606090910152919050565b6000806040838503121561155e57600080fd5b823567ffffffffffffffff8082111561157657600080fd5b61158286838701611359565b9350602085013591508082111561159857600080fd5b5061130785828601611359565b6000602082840312156115b757600080fd5b61120c82611311565b600181811c908216806115d457607f821691505b602082108114156115f557634e487b7160e01b600052602260045260246000fd5b50919050565b6020808252600f908201526e125b9d985b1a59081d1bdad95b9259608a1b604082015260600190565b60208082526018908201527f50424d3a20496e76616c696420546f6b656e2049642873290000000000000000604082015260600190565b634e487b7160e01b600052603260045260246000fd5b634e487b7160e01b600052601160045260246000fd5b600060001982141561169b5761169b611671565b5060010190565b600083516116b481846020880161119d565b8351908301906116c881836020880161119d565b01949350505050565b86815260c0602082015260006116ea60c08301886111cd565b866040840152828103606084015261170281876111cd565b608084019590955250506001600160a01b039190911660a090910152949350505050565b6000821982111561173957611739611671565b500190565b600081600019048311821515161561175857611758611671565b500290565b60008282101561176f5761176f611671565b50039056fea26469706673582212208edb64a6c46015bba1309eac5f6971d4cb1db77421d08eb1054d29e85ac3df1c64736f6c63430008090033",
  "devdoc": {
    "kind": "dev",
    "methods": {
      "balanceOf(address,uint256)": {
        "details": "See {IPBM-balanceOf}."
      },
      "balanceOfBatch(address[],uint256[])": {
        "details": "See {IERC1155-balanceOfBatch}. Requirements: - `accounts` and `ids` must have the same length."
      },
      "batchMint(uint256[],uint256[],address)": {
        "details": "See {IPBM-batchMint}.      IMPT: Before minting, the caller should approve the contract address to spend ERC-20 tokens on behalf of the caller.       This can be done by calling the `approve` or `increaseMinterAllowance` functions of the ERC-20 contract and specifying `_spender` to be the PBM contract address.  Ref : https://eips.ethereum.org/EIPS/eip-20 WARNING: Any contracts that externally call these mint() and batchMint() functions should implement some sort of reentrancy guard procedure (such as OpenZeppelin's ReentrancyGuard). Requirements: - contract must not be paused - tokens must not be expired - `tokenIds` should all be valid ids that have already been created - `tokenIds` and `amounts` list need to have the same number of values - caller should have the necessary amount of the ERC-20 tokens required to mint - caller should have approved the PBM contract to spend the ERC-20 tokens - receiver should not be blacklisted"
      },
      "createPBMTokenType(string,uint256,string,uint256,address,string,string)": {
        "details": "See {IPBM-createPBMTokenType}. Requirements: - caller must be owner - contract must not be expired - `tokenExpiry` must be less than contract expiry - `amount` should not be 0 - `spotType` should be either \"XSGD\" or \"DSGD\""
      },
      "getSpotAddress(uint256)": {
        "details": "See {IPBM-getSpotAddress}."
      },
      "getTokenDetails(uint256)": {
        "details": "See {IPBM-getTokenDetails}."
      },
      "initialise(address,address,address,uint256,address,address)": {
        "params": {
          "_dsgdToken": "address of the DSGD",
          "_expiry": "contract wide expiry ( in epoch )",
          "_heroNFT": "address of the HeroNFT smartcontract",
          "_pbmAddressList": "address of the PBMAddressList smartcontract",
          "_swapContract": "address of the Swap contract",
          "_xsgdToken": "address of the XSGD"
        }
      },
      "isApprovedForAll(address,address)": {
        "details": "See {IERC1155-isApprovedForAll}."
      },
      "mint(uint256,uint256,address)": {
        "details": "See {IPBM-mint}.      IMPT: Before minting, the caller should approve the contract address to spend ERC-20 tokens on behalf of the caller.       This can be done by calling the `approve` or `increaseMinterAllowance` functions of the ERC-20 contract and specifying `_spender` to be the PBM contract address.  Ref : https://eips.ethereum.org/EIPS/eip-20 WARNING: Any contracts that externally call these mint() and batchMint() functions should implement some sort of reentrancy guard procedure (such as OpenZeppelin's ReentrancyGuard). Requirements: - contract must not be paused - tokens must not be expired - `tokenId` should be a valid id that has already been created - caller should have the necessary amount of the ERC-20 tokens required to mint - caller should have approved the PBM contract to spend the ERC-20 tokens - receiver should not be blacklisted"
      },
      "owner()": {
        "details": "Returns the address of the current owner."
      },
      "pause()": {
        "details": "see {Pausable _pause} Requirements : - caller should be owner"
      },
      "paused()": {
        "details": "Returns true if the contract is paused, and false otherwise."
      },
      "renounceOwnership()": {
        "details": "Leaves the contract without owner. It will not be possible to call `onlyOwner` functions. Can only be called by the current owner. NOTE: Renouncing ownership will leave the contract without an owner, thereby disabling any functionality that is only available to the owner."
      },
      "revokePBM(uint256)": {
        "details": "See {IPBM-revokePBM}. Requirements: - `tokenId` should be a valid ids that has already been created - caller must be the creator of the tokenType - token must be expired"
      },
      "safeBatchTransferFrom(address,address,uint256[],uint256[],bytes)": {
        "details": "See {IPBM-safeBatchTransferFrom}. Requirements: - contract must not be paused - tokens must not be expired - `tokenIds` should all be  valid ids that has already been created - `tokenIds` and `amounts` list need to have the same number of values - caller should have the PBMs that are being transferred (or)          caller should have the approval to spend the PBMs on behalf of the owner (`from` addresss)"
      },
      "safeTransferFrom(address,address,uint256,uint256,bytes)": {
        "details": "See {IPBM-safeTransferFrom}. Requirements: - contract must not be paused - tokens must not be expired - `tokenId` should be a valid ids that has already been created - caller should have the PBMs that are being transferred (or)          caller should have the approval to spend the PBMs on behalf of the owner (`from` addresss)"
      },
      "setApprovalForAll(address,bool)": {
        "details": "See {IERC1155-setApprovalForAll}."
      },
      "supportsInterface(bytes4)": {
        "details": "See {IERC165-supportsInterface}."
      },
      "transferOwnership(address)": {
        "details": "Transfers ownership of the contract to a new account (`newOwner`). Can only be called by the current owner."
      },
      "unpause()": {
        "details": "see {Pausable _unpause} Requirements : - caller should be owner"
      },
      "uri(uint256)": {
        "details": "See {IPBM-uri}."
      }
    },
    "version": 1
  },
  "userdoc": {
    "events": {
      "MerchantPayment(address,address,uint256[],uint256[],address,uint256)": {
        "notice": "Emitted when underlying ERC-20 tokens are transferred to a whitelisted merchant ( payment )"
      },
      "PBMrevokeWithdraw(address,uint256,address,uint256)": {
        "notice": "Emitted when a PBM type creator withdraws the underlying ERC-20 tokens from all the remaining expired PBMs"
      }
    },
    "kind": "user",
    "methods": {
      "initialise(address,address,address,uint256,address,address)": {
        "notice": "sets the address of the underlying ERC20 token, Contract Expiry, and the address of pbm address list"
      }
    },
    "version": 1
  },
  "storageLayout": {
    "storage": [
      {
        "astId": 249,
        "contract": "contracts/PBM.sol:PBM",
        "label": "_balances",
        "offset": 0,
        "slot": "0",
        "type": "t_mapping(t_uint256,t_mapping(t_address,t_uint256))"
      },
      {
        "astId": 255,
        "contract": "contracts/PBM.sol:PBM",
        "label": "_operatorApprovals",
        "offset": 0,
        "slot": "1",
        "type": "t_mapping(t_address,t_mapping(t_address,t_bool))"
      },
      {
        "astId": 257,
        "contract": "contracts/PBM.sol:PBM",
        "label": "_uri",
        "offset": 0,
        "slot": "2",
        "type": "t_string_storage"
      },
      {
        "astId": 7,
        "contract": "contracts/PBM.sol:PBM",
        "label": "_owner",
        "offset": 0,
        "slot": "3",
        "type": "t_address"
      },
      {
        "astId": 133,
        "contract": "contracts/PBM.sol:PBM",
        "label": "_paused",
        "offset": 20,
        "slot": "3",
        "type": "t_bool"
      },
      {
        "astId": 4535,
        "contract": "contracts/PBM.sol:PBM",
        "label": "spotToken",
        "offset": 0,
        "slot": "4",
        "type": "t_address"
      },
      {
        "astId": 4541,
        "contract": "contracts/PBM.sol:PBM",
        "label": "xsgdToken",
        "offset": 0,
        "slot": "5",
        "type": "t_address"
      },
      {
        "astId": 4547,
        "contract": "contracts/PBM.sol:PBM",
        "label": "dsgdToken",
        "offset": 0,
        "slot": "6",
        "type": "t_address"
      },
      {
        "astId": 4553,
        "contract": "contracts/PBM.sol:PBM",
        "label": "pbmTokenManager",
        "offset": 0,
        "slot": "7",
        "type": "t_address"
      },
      {
        "astId": 4559,
        "contract": "contracts/PBM.sol:PBM",
        "label": "pbmAddressList",
        "offset": 0,
        "slot": "8",
        "type": "t_address"
      },
      {
        "astId": 4565,
        "contract": "contracts/PBM.sol:PBM",
        "label": "heroNFT",
        "offset": 0,
        "slot": "9",
        "type": "t_address"
      },
      {
        "astId": 4571,
        "contract": "contracts/PBM.sol:PBM",
        "label": "swapContract",
        "offset": 0,
        "slot": "10",
        "type": "t_address"
      },
      {
        "astId": 4574,
        "contract": "contracts/PBM.sol:PBM",
        "label": "initialised",
        "offset": 20,
        "slot": "10",
        "type": "t_bool"
      },
      {
        "astId": 4576,
        "contract": "contracts/PBM.sol:PBM",
        "label": "contractExpiry",
        "offset": 0,
        "slot": "11",
        "type": "t_uint256"
      }
    ],
    "types": {
      "t_address": {
        "encoding": "inplace",
        "label": "address",
        "numberOfBytes": "20"
      },
      "t_bool": {
        "encoding": "inplace",
        "label": "bool",
        "numberOfBytes": "1"
      },
      "t_mapping(t_address,t_bool)": {
        "encoding": "mapping",
        "key": "t_address",
        "label": "mapping(address => bool)",
        "numberOfBytes": "32",
        "value": "t_bool"
      },
      "t_mapping(t_address,t_mapping(t_address,t_bool))": {
        "encoding": "mapping",
        "key": "t_address",
        "label": "mapping(address => mapping(address => bool))",
        "numberOfBytes": "32",
        "value": "t_mapping(t_address,t_bool)"
      },
      "t_mapping(t_address,t_uint256)": {
        "encoding": "mapping",
        "key": "t_address",
        "label": "mapping(address => uint256)",
        "numberOfBytes": "32",
        "value": "t_uint256"
      },
      "t_mapping(t_uint256,t_mapping(t_address,t_uint256))": {
        "encoding": "mapping",
        "key": "t_uint256",
        "label": "mapping(uint256 => mapping(address => uint256))",
        "numberOfBytes": "32",
        "value": "t_mapping(t_address,t_uint256)"
      },
      "t_string_storage": {
        "encoding": "bytes",
        "label": "string",
        "numberOfBytes": "32"
      },
      "t_uint256": {
        "encoding": "inplace",
        "label": "uint256",
        "numberOfBytes": "32"
      }
    }
  }
}