{
  "address": "0x78DC0Afb8d934AB72C4C70845ff86589633B2856",
  "abi": [
    {
      "inputs": [],
      "stateMutability": "nonpayable",
      "type": "constructor"
    },
    {
      "anonymous": false,
      "inputs": [
        {
          "indexed": true,
          "internalType": "address",
          "name": "account",
          "type": "address"
        },
        {
          "indexed": true,
          "internalType": "address",
          "name": "operator",
          "type": "address"
        },
        {
          "indexed": false,
          "internalType": "bool",
          "name": "approved",
          "type": "bool"
        }
      ],
      "name": "ApprovalForAll",
      "type": "event"
    },
    {
      "anonymous": false,
      "inputs": [
        {
          "indexed": false,
          "internalType": "address",
          "name": "from",
          "type": "address"
        },
        {
          "indexed": false,
          "internalType": "address",
          "name": "to",
          "type": "address"
        },
        {
          "indexed": false,
          "internalType": "uint256[]",
          "name": "tokenIds",
          "type": "uint256[]"
        },
        {
          "indexed": false,
          "internalType": "uint256[]",
          "name": "amounts",
          "type": "uint256[]"
        },
        {
          "indexed": false,
          "internalType": "address",
          "name": "ERC20Token",
          "type": "address"
        },
        {
          "indexed": false,
          "internalType": "uint256",
          "name": "ERC20TokenValue",
          "type": "uint256"
        }
      ],
      "name": "MerchantPayment",
      "type": "event"
    },
    {
      "anonymous": false,
      "inputs": [
        {
          "indexed": true,
          "internalType": "address",
          "name": "previousOwner",
          "type": "address"
        },
        {
          "indexed": true,
          "internalType": "address",
          "name": "newOwner",
          "type": "address"
        }
      ],
      "name": "OwnershipTransferred",
      "type": "event"
    },
    {
      "anonymous": false,
      "inputs": [
        {
          "indexed": false,
          "internalType": "address",
          "name": "beneficiary",
          "type": "address"
        },
        {
          "indexed": false,
          "internalType": "uint256",
          "name": "PBMTokenId",
          "type": "uint256"
        },
        {
          "indexed": false,
          "internalType": "address",
          "name": "ERC20Token",
          "type": "address"
        },
        {
          "indexed": false,
          "internalType": "uint256",
          "name": "ERC20TokenValue",
          "type": "uint256"
        }
      ],
      "name": "PBMrevokeWithdraw",
      "type": "event"
    },
    {
      "anonymous": false,
      "inputs": [
        {
          "indexed": false,
          "internalType": "address",
          "name": "account",
          "type": "address"
        }
      ],
      "name": "Paused",
      "type": "event"
    },
    {
      "anonymous": false,
      "inputs": [
        {
          "indexed": true,
          "internalType": "address",
          "name": "operator",
          "type": "address"
        },
        {
          "indexed": true,
          "internalType": "address",
          "name": "from",
          "type": "address"
        },
        {
          "indexed": true,
          "internalType": "address",
          "name": "to",
          "type": "address"
        },
        {
          "indexed": false,
          "internalType": "uint256[]",
          "name": "ids",
          "type": "uint256[]"
        },
        {
          "indexed": false,
          "internalType": "uint256[]",
          "name": "values",
          "type": "uint256[]"
        }
      ],
      "name": "TransferBatch",
      "type": "event"
    },
    {
      "anonymous": false,
      "inputs": [
        {
          "indexed": true,
          "internalType": "address",
          "name": "operator",
          "type": "address"
        },
        {
          "indexed": true,
          "internalType": "address",
          "name": "from",
          "type": "address"
        },
        {
          "indexed": true,
          "internalType": "address",
          "name": "to",
          "type": "address"
        },
        {
          "indexed": false,
          "internalType": "uint256",
          "name": "id",
          "type": "uint256"
        },
        {
          "indexed": false,
          "internalType": "uint256",
          "name": "value",
          "type": "uint256"
        }
      ],
      "name": "TransferSingle",
      "type": "event"
    },
    {
      "anonymous": false,
      "inputs": [
        {
          "indexed": false,
          "internalType": "string",
          "name": "value",
          "type": "string"
        },
        {
          "indexed": true,
          "internalType": "uint256",
          "name": "id",
          "type": "uint256"
        }
      ],
      "name": "URI",
      "type": "event"
    },
    {
      "anonymous": false,
      "inputs": [
        {
          "indexed": false,
          "internalType": "address",
          "name": "account",
          "type": "address"
        }
      ],
      "name": "Unpaused",
      "type": "event"
    },
    {
      "inputs": [
        {
          "internalType": "address",
          "name": "account",
          "type": "address"
        },
        {
          "internalType": "uint256",
          "name": "id",
          "type": "uint256"
        }
      ],
      "name": "balanceOf",
      "outputs": [
        {
          "internalType": "uint256",
          "name": "",
          "type": "uint256"
        }
      ],
      "stateMutability": "view",
      "type": "function"
    },
    {
      "inputs": [
        {
          "internalType": "address[]",
          "name": "accounts",
          "type": "address[]"
        },
        {
          "internalType": "uint256[]",
          "name": "ids",
          "type": "uint256[]"
        }
      ],
      "name": "balanceOfBatch",
      "outputs": [
        {
          "internalType": "uint256[]",
          "name": "",
          "type": "uint256[]"
        }
      ],
      "stateMutability": "view",
      "type": "function"
    },
    {
      "inputs": [
        {
          "internalType": "uint256[]",
          "name": "tokenIds",
          "type": "uint256[]"
        },
        {
          "internalType": "uint256[]",
          "name": "amounts",
          "type": "uint256[]"
        },
        {
          "internalType": "address",
          "name": "receiver",
          "type": "address"
        }
      ],
      "name": "batchMint",
      "outputs": [],
      "stateMutability": "nonpayable",
      "type": "function"
    },
    {
      "inputs": [],
      "name": "contractExpiry",
      "outputs": [
        {
          "internalType": "uint256",
          "name": "",
          "type": "uint256"
        }
      ],
      "stateMutability": "view",
      "type": "function"
    },
    {
      "inputs": [
        {
          "internalType": "string",
          "name": "companyName",
          "type": "string"
        },
        {
          "internalType": "uint256",
          "name": "spotAmount",
          "type": "uint256"
        },
        {
          "internalType": "uint256",
          "name": "tokenExpiry",
          "type": "uint256"
        },
        {
          "internalType": "address",
          "name": "creator",
          "type": "address"
        },
        {
          "internalType": "string",
          "name": "tokenURI",
          "type": "string"
        },
        {
          "internalType": "string",
          "name": "postExpiryURI",
          "type": "string"
        }
      ],
      "name": "createPBMTokenType",
      "outputs": [],
      "stateMutability": "nonpayable",
      "type": "function"
    },
    {
      "inputs": [
        {
          "internalType": "uint256",
          "name": "tokenId",
          "type": "uint256"
        }
      ],
      "name": "getTokenDetails",
      "outputs": [
        {
          "internalType": "string",
          "name": "",
          "type": "string"
        },
        {
          "internalType": "uint256",
          "name": "",
          "type": "uint256"
        },
        {
          "internalType": "uint256",
          "name": "",
          "type": "uint256"
        },
        {
          "internalType": "address",
          "name": "",
          "type": "address"
        }
      ],
      "stateMutability": "view",
      "type": "function"
    },
    {
      "inputs": [
        {
          "internalType": "address",
          "name": "_spotToken",
          "type": "address"
        },
        {
          "internalType": "uint256",
          "name": "_expiry",
          "type": "uint256"
        },
        {
          "internalType": "address",
          "name": "_pbmAddressList",
          "type": "address"
        }
      ],
      "name": "initialise",
      "outputs": [],
      "stateMutability": "nonpayable",
      "type": "function"
    },
    {
      "inputs": [
        {
          "internalType": "address",
          "name": "account",
          "type": "address"
        },
        {
          "internalType": "address",
          "name": "operator",
          "type": "address"
        }
      ],
      "name": "isApprovedForAll",
      "outputs": [
        {
          "internalType": "bool",
          "name": "",
          "type": "bool"
        }
      ],
      "stateMutability": "view",
      "type": "function"
    },
    {
      "inputs": [
        {
          "internalType": "uint256",
          "name": "tokenId",
          "type": "uint256"
        },
        {
          "internalType": "uint256",
          "name": "amount",
          "type": "uint256"
        },
        {
          "internalType": "address",
          "name": "receiver",
          "type": "address"
        }
      ],
      "name": "mint",
      "outputs": [],
      "stateMutability": "nonpayable",
      "type": "function"
    },
    {
      "inputs": [],
      "name": "owner",
      "outputs": [
        {
          "internalType": "address",
          "name": "",
          "type": "address"
        }
      ],
      "stateMutability": "view",
      "type": "function"
    },
    {
      "inputs": [],
      "name": "pause",
      "outputs": [],
      "stateMutability": "nonpayable",
      "type": "function"
    },
    {
      "inputs": [],
      "name": "paused",
      "outputs": [
        {
          "internalType": "bool",
          "name": "",
          "type": "bool"
        }
      ],
      "stateMutability": "view",
      "type": "function"
    },
    {
      "inputs": [],
      "name": "pbmAddressList",
      "outputs": [
        {
          "internalType": "address",
          "name": "",
          "type": "address"
        }
      ],
      "stateMutability": "view",
      "type": "function"
    },
    {
      "inputs": [],
      "name": "pbmTokenManager",
      "outputs": [
        {
          "internalType": "address",
          "name": "",
          "type": "address"
        }
      ],
      "stateMutability": "view",
      "type": "function"
    },
    {
      "inputs": [],
      "name": "renounceOwnership",
      "outputs": [],
      "stateMutability": "nonpayable",
      "type": "function"
    },
    {
      "inputs": [
        {
          "internalType": "uint256",
          "name": "tokenId",
          "type": "uint256"
        }
      ],
      "name": "revokePBM",
      "outputs": [],
      "stateMutability": "nonpayable",
      "type": "function"
    },
    {
      "inputs": [
        {
          "internalType": "address",
          "name": "from",
          "type": "address"
        },
        {
          "internalType": "address",
          "name": "to",
          "type": "address"
        },
        {
          "internalType": "uint256[]",
          "name": "ids",
          "type": "uint256[]"
        },
        {
          "internalType": "uint256[]",
          "name": "amounts",
          "type": "uint256[]"
        },
        {
          "internalType": "bytes",
          "name": "data",
          "type": "bytes"
        }
      ],
      "name": "safeBatchTransferFrom",
      "outputs": [],
      "stateMutability": "nonpayable",
      "type": "function"
    },
    {
      "inputs": [
        {
          "internalType": "address",
          "name": "from",
          "type": "address"
        },
        {
          "internalType": "address",
          "name": "to",
          "type": "address"
        },
        {
          "internalType": "uint256",
          "name": "id",
          "type": "uint256"
        },
        {
          "internalType": "uint256",
          "name": "amount",
          "type": "uint256"
        },
        {
          "internalType": "bytes",
          "name": "data",
          "type": "bytes"
        }
      ],
      "name": "safeTransferFrom",
      "outputs": [],
      "stateMutability": "nonpayable",
      "type": "function"
    },
    {
      "inputs": [
        {
          "internalType": "address",
          "name": "operator",
          "type": "address"
        },
        {
          "internalType": "bool",
          "name": "approved",
          "type": "bool"
        }
      ],
      "name": "setApprovalForAll",
      "outputs": [],
      "stateMutability": "nonpayable",
      "type": "function"
    },
    {
      "inputs": [],
      "name": "spotToken",
      "outputs": [
        {
          "internalType": "address",
          "name": "",
          "type": "address"
        }
      ],
      "stateMutability": "view",
      "type": "function"
    },
    {
      "inputs": [
        {
          "internalType": "bytes4",
          "name": "interfaceId",
          "type": "bytes4"
        }
      ],
      "name": "supportsInterface",
      "outputs": [
        {
          "internalType": "bool",
          "name": "",
          "type": "bool"
        }
      ],
      "stateMutability": "view",
      "type": "function"
    },
    {
      "inputs": [
        {
          "internalType": "address",
          "name": "newOwner",
          "type": "address"
        }
      ],
      "name": "transferOwnership",
      "outputs": [],
      "stateMutability": "nonpayable",
      "type": "function"
    },
    {
      "inputs": [],
      "name": "unpause",
      "outputs": [],
      "stateMutability": "nonpayable",
      "type": "function"
    },
    {
      "inputs": [
        {
          "internalType": "uint256",
          "name": "tokenId",
          "type": "uint256"
        }
      ],
      "name": "uri",
      "outputs": [
        {
          "internalType": "string",
          "name": "",
          "type": "string"
        }
      ],
      "stateMutability": "view",
      "type": "function"
    }
  ],
  "transactionHash": "0x2ac82e749d677f4181126dfd1f46974b7d800100aa2c0005e74b55e1bd44be25",
  "args": [],
  "numDeployments": 1,
  "solcInputHash": "25634cfbe1fc43f6cfbac2337a44292a",
  "bytecode": "0x6080604052600480546001600160a01b0319908116909155600580549091169055600680546001600160a81b03191690553480156200003d57600080fd5b506040805160208101909152600081526200005881620000c3565b506200006433620000dc565b6003805460ff60a01b191690556040516200007f906200012e565b604051809103906000f0801580156200009c573d6000803e3d6000fd5b50600580546001600160a01b0319166001600160a01b03929092169190911790556200021f565b8051620000d89060029060208401906200013c565b5050565b600380546001600160a01b038381166001600160a01b0319831681179093556040519116919082907f8be0079c531659141344cd1fd0a4f28419497f9722a3daafe3b4186f6b6457e090600090a35050565b6114b6806200353f83390190565b8280546200014a90620001e2565b90600052602060002090601f0160209004810192826200016e5760008555620001b9565b82601f106200018957805160ff1916838001178555620001b9565b82800160010185558215620001b9579182015b82811115620001b95782518255916020019190600101906200019c565b50620001c7929150620001cb565b5090565b5b80821115620001c75760008155600101620001cc565b600181811c90821680620001f757607f821691505b602082108114156200021957634e487b7160e01b600052602260045260246000fd5b50919050565b613310806200022f6000396000f3fe608060405234801561001057600080fd5b50600436106101575760003560e01c8063715018a6116100c3578063c1e037281161007c578063c1e03728146102db578063e7d3fe6b146102fe578063e985e9c514610311578063f242432a1461034d578063f2fde38b14610360578063fb34b2011461037357600080fd5b8063715018a61461028b57806373e17e76146102935780638456cb59146102a657806389aba642146102ae5780638da5cb5b146102b7578063a22cb465146102c857600080fd5b80633f4ba83a116101155780633f4ba83a146102185780634e1273f41461022057806351e86cf6146102405780635c975abb1461025357806361fc81211461026557806363be47d21461027857600080fd5b8062fdd58e1461015c57806301ffc9a71461018257806307e82e0f146101a55780630ad89462146101ba5780630e89341c146101e55780632eb2c2d614610205575b600080fd5b61016f61016a36600461258e565b610386565b6040519081526020015b60405180910390f35b6101956101903660046125d0565b61041c565b6040519015158152602001610179565b6101b86101b33660046125f4565b61046e565b005b6004546101cd906001600160a01b031681565b6040516001600160a01b039091168152602001610179565b6101f86101f3366004612636565b6105a9565b60405161017991906126a7565b6101b8610213366004612816565b61062a565b6101b86109ba565b61023361022e3660046128c4565b6109cc565b60405161017991906129cc565b6006546101cd906001600160a01b031681565b600354600160a01b900460ff16610195565b6101b86102733660046129df565b610af6565b6005546101cd906001600160a01b031681565b6101b8610b75565b6101b86102a1366004612636565b610b87565b6101b8610cdf565b61016f60075481565b6003546001600160a01b03166101cd565b6101b86102d6366004612a9c565b610cef565b6102ee6102e9366004612636565b610cfe565b6040516101799493929190612ad5565b6101b861030c366004612b0d565b610d97565b61019561031f366004612b3b565b6001600160a01b03918216600090815260016020908152604080832093909416825291909152205460ff1690565b6101b861035b366004612b69565b610f70565b6101b861036e366004612bd2565b61124f565b6101b8610381366004612bef565b6112c8565b60006001600160a01b0383166103f65760405162461bcd60e51b815260206004820152602a60248201527f455243313135353a2061646472657373207a65726f206973206e6f742061207660448201526930b634b21037bbb732b960b11b60648201526084015b60405180910390fd5b506000908152602081815260408083206001600160a01b03949094168352929052205490565b60006001600160e01b03198216636cdb3d1360e11b148061044d57506001600160e01b031982166303a24d0760e21b145b8061046857506301ffc9a760e01b6001600160e01b03198316145b92915050565b610476611543565b600654600160a01b900460ff16156104d05760405162461bcd60e51b815260206004820152601860248201527f50424d3a20416c726561647920696e697469616c69736564000000000000000060448201526064016103ed565b6001600160a01b0383163b61051c5760405162461bcd60e51b815260206004820152601260248201527124b73b30b634b21039b837ba103a37b5b2b760711b60448201526064016103ed565b6001600160a01b0381163b6105685760405162461bcd60e51b815260206004820152601260248201527124b73b30b634b21039b837ba103a37b5b2b760711b60448201526064016103ed565b600480546001600160a01b039485166001600160a01b0319909116179055600791909155600680546001600160a81b0319169190921617600160a01b179055565b6005546040516303a24d0760e21b8152600481018390526060916001600160a01b031690630e89341c9060240160006040518083038186803b1580156105ee57600080fd5b505afa158015610602573d6000803e3d6000fd5b505050506040513d6000823e601f3d908101601f191682016040526104689190810190612cb4565b61063261159d565b6001600160a01b03851633148061064e575061064e853361031f565b61066a5760405162461bcd60e51b81526004016103ed90612cf1565b60065460405163fe575a8760e01b81526001600160a01b0386811660048301529091169063fe575a8790602401602060405180830381600087803b1580156106b157600080fd5b505af11580156106c5573d6000803e3d6000fd5b505050506040513d601f19601f820116820180604052508101906106e99190612d40565b156107065760405162461bcd60e51b81526004016103ed90612d5d565b81518351146107575760405162461bcd60e51b815260206004820181905260248201527f556e657175616c2069647320616e6420616d6f756e747320737570706c69656460448201526064016103ed565b600654604051631a2f716760e01b81526001600160a01b03868116600483015290911690631a2f716790602401602060405180830381600087803b15801561079e57600080fd5b505af11580156107b2573d6000803e3d6000fd5b505050506040513d601f19601f820116820180604052508101906107d69190612d40565b156109a6576000805b84518110156108c95760055485516001600160a01b039091169063d10424c79087908490811061081157610811612d94565b60200260200101516040518263ffffffff1660e01b815260040161083791815260200190565b60206040518083038186803b15801561084f57600080fd5b505afa158015610863573d6000803e3d6000fd5b505050506040513d601f19601f820116820180604052508101906108879190612daa565b84828151811061089957610899612d94565b60200260200101516108ab9190612dd9565b6108b59083612df8565b9150806108c181612e10565b9150506107df565b506108d58685856115ea565b60055460405163e21c8b5960e01b81526001600160a01b039091169063e21c8b59906109079087908790600401612e2b565b600060405180830381600087803b15801561092157600080fd5b505af1158015610935573d6000803e3d6000fd5b505060045461095192506001600160a01b031690508683611774565b6004546040517f68c9cd42836993caa70415e61f3c3baceb0bb31dcb22af6e5e0db98fa8870fac916109989189918991899189916001600160a01b03909116908890612e50565b60405180910390a1506109b3565b6109b38585858585611930565b5050505050565b6109c2611543565b6109ca611acc565b565b60608151835114610a315760405162461bcd60e51b815260206004820152602960248201527f455243313135353a206163636f756e747320616e6420696473206c656e677468604482015268040dad2e6dac2e8c6d60bb1b60648201526084016103ed565b6000835167ffffffffffffffff811115610a4d57610a4d6126ba565b604051908082528060200260200182016040528015610a76578160200160208202803683370190505b50905060005b8451811015610aee57610ac1858281518110610a9a57610a9a612d94565b6020026020010151858381518110610ab457610ab4612d94565b6020026020010151610386565b828281518110610ad357610ad3612d94565b6020908102919091010152610ae781612e10565b9050610a7c565b509392505050565b610afe611543565b600554600754604051633f06d4ed60e11b81526001600160a01b0390921691637e0da9da91610b3b918a918a918a918a918a918a91600401612ea3565b600060405180830381600087803b158015610b5557600080fd5b505af1158015610b69573d6000803e3d6000fd5b50505050505050505050565b610b7d611543565b6109ca6000611b21565b610b8f61159d565b600554604051631a410e9b60e31b8152600481018390526000916001600160a01b03169063d20874d89060240160206040518083038186803b158015610bd457600080fd5b505afa158015610be8573d6000803e3d6000fd5b505050506040513d601f19601f82011682018060405250810190610c0c9190612daa565b600554604051630da8d02760e21b8152600481018590523360248201529192506001600160a01b0316906336a3409c90604401600060405180830381600087803b158015610c5957600080fd5b505af1158015610c6d573d6000803e3d6000fd5b5050600454610c8992506001600160a01b031690503383611774565b60045460408051338152602081018590526001600160a01b039092168282015260608201839052517fa1c359e2aefcb2a02fa122099023552498d16ee2c91b81d3cfd8cd086f037d449181900360800190a15050565b610ce7611543565b6109ca611b73565b610cfa338383611bb6565b5050565b60055460405163183c06e560e31b815260048101839052606091600091829182916001600160a01b039091169063c1e037289060240160006040518083038186803b158015610d4c57600080fd5b505afa158015610d60573d6000803e3d6000fd5b505050506040513d6000823e601f3d908101601f19168201604052610d889190810190612f0e565b93509350935093509193509193565b610d9f61159d565b60065460405163fe575a8760e01b81526001600160a01b0383811660048301529091169063fe575a8790602401602060405180830381600087803b158015610de657600080fd5b505af1158015610dfa573d6000803e3d6000fd5b505050506040513d601f19601f82011682018060405250810190610e1e9190612d40565b15610e3b5760405162461bcd60e51b81526004016103ed90612d5d565b60055460405163d10424c760e01b8152600481018590526000916001600160a01b03169063d10424c79060240160206040518083038186803b158015610e8057600080fd5b505afa158015610e94573d6000803e3d6000fd5b505050506040513d601f19601f82011682018060405250810190610eb89190612daa565b610ec29084612dd9565b600454909150610edd906001600160a01b0316333084611c97565b6005546001600160a01b031663f600d9f4610ef786611e5a565b610f0086611e5a565b6040518363ffffffff1660e01b8152600401610f1d929190612e2b565b600060405180830381600087803b158015610f3757600080fd5b505af1158015610f4b573d6000803e3d6000fd5b50505050610f6a82858560405180602001604052806000815250611ea5565b50505050565b610f7861159d565b6001600160a01b038516331480610f945750610f94853361031f565b610fb05760405162461bcd60e51b81526004016103ed90612cf1565b60065460405163fe575a8760e01b81526001600160a01b0386811660048301529091169063fe575a8790602401602060405180830381600087803b158015610ff757600080fd5b505af115801561100b573d6000803e3d6000fd5b505050506040513d601f19601f8201168201806040525081019061102f9190612d40565b1561104c5760405162461bcd60e51b81526004016103ed90612d5d565b600654604051631a2f716760e01b81526001600160a01b03868116600483015290911690631a2f716790602401602060405180830381600087803b15801561109357600080fd5b505af11580156110a7573d6000803e3d6000fd5b505050506040513d601f19601f820116820180604052508101906110cb9190612d40565b156112425760055460405163d10424c760e01b8152600481018590526000916001600160a01b03169063d10424c79060240160206040518083038186803b15801561111557600080fd5b505afa158015611129573d6000803e3d6000fd5b505050506040513d601f19601f8201168201806040525081019061114d9190612daa565b6111579084612dd9565b9050611164868585611f7f565b6005546001600160a01b031663e21c8b5961117e86611e5a565b61118786611e5a565b6040518363ffffffff1660e01b81526004016111a4929190612e2b565b600060405180830381600087803b1580156111be57600080fd5b505af11580156111d2573d6000803e3d6000fd5b50506004546111ee92506001600160a01b031690508683611774565b7f68c9cd42836993caa70415e61f3c3baceb0bb31dcb22af6e5e0db98fa8870fac868661121a87611e5a565b61122387611e5a565b60045460405161099895949392916001600160a01b0316908890612e50565b6109b38585858585612083565b611257611543565b6001600160a01b0381166112bc5760405162461bcd60e51b815260206004820152602660248201527f4f776e61626c653a206e6577206f776e657220697320746865207a65726f206160448201526564647265737360d01b60648201526084016103ed565b6112c581611b21565b50565b6112d061159d565b60065460405163fe575a8760e01b81526001600160a01b0383811660048301529091169063fe575a8790602401602060405180830381600087803b15801561131757600080fd5b505af115801561132b573d6000803e3d6000fd5b505050506040513d601f19601f8201168201806040525081019061134f9190612d40565b1561136c5760405162461bcd60e51b81526004016103ed90612d5d565b81518351146113bd5760405162461bcd60e51b815260206004820181905260248201527f556e657175616c2069647320616e6420616d6f756e747320737570706c69656460448201526064016103ed565b6000805b84518110156114ab5760055485516001600160a01b039091169063d10424c7908790849081106113f3576113f3612d94565b60200260200101516040518263ffffffff1660e01b815260040161141991815260200190565b60206040518083038186803b15801561143157600080fd5b505afa158015611445573d6000803e3d6000fd5b505050506040513d601f19601f820116820180604052508101906114699190612daa565b84828151811061147b5761147b612d94565b602002602001015161148d9190612dd9565b6114979083612df8565b9150806114a381612e10565b9150506113c1565b506004546114c4906001600160a01b0316333084611c97565b600554604051633d80367d60e21b81526001600160a01b039091169063f600d9f4906114f69087908790600401612e2b565b600060405180830381600087803b15801561151057600080fd5b505af1158015611524573d6000803e3d6000fd5b50505050610f6a828585604051806020016040528060008152506121ad565b6003546001600160a01b031633146109ca5760405162461bcd60e51b815260206004820181905260248201527f4f776e61626c653a2063616c6c6572206973206e6f7420746865206f776e657260448201526064016103ed565b600354600160a01b900460ff16156109ca5760405162461bcd60e51b815260206004820152601060248201526f14185d5cd8589b194e881c185d5cd95960821b60448201526064016103ed565b6001600160a01b0383166116105760405162461bcd60e51b81526004016103ed90612f71565b80518251146116315760405162461bcd60e51b81526004016103ed90612fb4565b604080516020810190915260009081905233905b835181101561170757600084828151811061166257611662612d94565b60200260200101519050600084838151811061168057611680612d94565b602090810291909101810151600084815280835260408082206001600160a01b038c1683529093529190912054909150818110156116d05760405162461bcd60e51b81526004016103ed90612ffc565b6000928352602083815260408085206001600160a01b038b16865290915290922091039055806116ff81612e10565b915050611645565b5060006001600160a01b0316846001600160a01b0316826001600160a01b03167f4a39dc06d4c0dbc64b70af90fd698a233a518aa5d07e595d983b8c0526c8f7fb8686604051611758929190612e2b565b60405180910390a4604080516020810190915260009052610f6a565b6001600160a01b0383166117bf5760405162461bcd60e51b815260206004820152601260248201527145524332303a204e696c206164647265737360701b60448201526064016103ed565b6001600160a01b0383163b61180c5760405162461bcd60e51b8152602060048201526013602482015272115490cc8c0e881153d0481c1c9bdd9a591959606a1b60448201526064016103ed565b604080516001600160a01b038481166024830152604480830185905283518084039091018152606490920183526020820180516001600160e01b031663a9059cbb60e01b17905291516000928392908716916118689190613040565b6000604051808303816000865af19150503d80600081146118a5576040519150601f19603f3d011682016040523d82523d6000602084013e6118aa565b606091505b50915091508180156118d45750805115806118d45750808060200190518101906118d49190612d40565b6109b35760405162461bcd60e51b815260206004820152602760248201527f496e746572616374696f6e2077697468207468652073706f7420746f6b656e206044820152663330b4b632b21760c91b60648201526084016103ed565b81518351146119515760405162461bcd60e51b81526004016103ed90612fb4565b6001600160a01b0384166119775760405162461bcd60e51b81526004016103ed9061305c565b3360005b8451811015611a5e57600085828151811061199857611998612d94565b6020026020010151905060008583815181106119b6576119b6612d94565b602090810291909101810151600084815280835260408082206001600160a01b038e168352909352919091205490915081811015611a065760405162461bcd60e51b81526004016103ed906130a1565b6000838152602081815260408083206001600160a01b038e8116855292528083208585039055908b16825281208054849290611a43908490612df8565b9250508190555050505080611a5790612e10565b905061197b565b50846001600160a01b0316866001600160a01b0316826001600160a01b03167f4a39dc06d4c0dbc64b70af90fd698a233a518aa5d07e595d983b8c0526c8f7fb8787604051611aae929190612e2b565b60405180910390a4611ac48187878787876122f4565b505050505050565b611ad461245f565b6003805460ff60a01b191690557f5db9ee0a495bf2e6ff9c91a7834c1ba4fdd244a5e8aa4e537bd38aeae4b073aa335b6040516001600160a01b03909116815260200160405180910390a1565b600380546001600160a01b038381166001600160a01b0319831681179093556040519116919082907f8be0079c531659141344cd1fd0a4f28419497f9722a3daafe3b4186f6b6457e090600090a35050565b611b7b61159d565b6003805460ff60a01b1916600160a01b1790557f62e78cea01bee320cd4e420270b5ea74000d11b0c9f74754ebdbfc544b05a258611b043390565b816001600160a01b0316836001600160a01b03161415611c2a5760405162461bcd60e51b815260206004820152602960248201527f455243313135353a2073657474696e6720617070726f76616c20737461747573604482015268103337b91039b2b63360b91b60648201526084016103ed565b6001600160a01b03838116600081815260016020908152604080832094871680845294825291829020805460ff191686151590811790915591519182527f17307eab39ab6107e8899845ad3d59bd9653f200f220920489ca2b5937696c31910160405180910390a3505050565b6001600160a01b038416611ce25760405162461bcd60e51b815260206004820152601260248201527145524332303a204e696c206164647265737360701b60448201526064016103ed565b6001600160a01b0384163b611d2f5760405162461bcd60e51b8152602060048201526013602482015272115490cc8c0e881153d0481c1c9bdd9a591959606a1b60448201526064016103ed565b604080516001600160a01b0385811660248301528481166044830152606480830185905283518084039091018152608490920183526020820180516001600160e01b03166323b872dd60e01b1790529151600092839290881691611d939190613040565b6000604051808303816000865af19150503d8060008114611dd0576040519150601f19603f3d011682016040523d82523d6000602084013e611dd5565b606091505b5091509150818015611dff575080511580611dff575080806020019051810190611dff9190612d40565b611ac45760405162461bcd60e51b815260206004820152602660248201527f45524332303a20496e737566666963656e742062616c616e6365206f722061706044820152651c1c9bdd985b60d21b60648201526084016103ed565b60408051600180825281830190925260609160009190602080830190803683370190505090508281600081518110611e9457611e94612d94565b602090810291909101015292915050565b6001600160a01b038416611ecb5760405162461bcd60e51b81526004016103ed906130eb565b336000611ed785611e5a565b90506000611ee485611e5a565b90506000868152602081815260408083206001600160a01b038b16845290915281208054879290611f16908490612df8565b909155505060408051878152602081018790526001600160a01b03808a1692600092918716917fc3d58168c5ae7397731d063d5bbf3d657854427343f4c083240f7aacaa2d0f62910160405180910390a4611f76836000898989896124af565b50505050505050565b6001600160a01b038316611fa55760405162461bcd60e51b81526004016103ed90612f71565b336000611fb184611e5a565b90506000611fbe84611e5a565b60408051602080820183526000918290528882528181528282206001600160a01b038b168352905220549091508481101561200b5760405162461bcd60e51b81526004016103ed90612ffc565b6000868152602081815260408083206001600160a01b038b81168086529184528285208a8703905582518b81529384018a90529092908816917fc3d58168c5ae7397731d063d5bbf3d657854427343f4c083240f7aacaa2d0f62910160405180910390a4604080516020810190915260009052611f76565b6001600160a01b0384166120a95760405162461bcd60e51b81526004016103ed9061305c565b3360006120b585611e5a565b905060006120c285611e5a565b90506000868152602081815260408083206001600160a01b038c168452909152902054858110156121055760405162461bcd60e51b81526004016103ed906130a1565b6000878152602081815260408083206001600160a01b038d8116855292528083208985039055908a16825281208054889290612142908490612df8565b909155505060408051888152602081018890526001600160a01b03808b16928c821692918816917fc3d58168c5ae7397731d063d5bbf3d657854427343f4c083240f7aacaa2d0f62910160405180910390a46121a2848a8a8a8a8a6124af565b505050505050505050565b6001600160a01b0384166121d35760405162461bcd60e51b81526004016103ed906130eb565b81518351146121f45760405162461bcd60e51b81526004016103ed90612fb4565b3360005b84518110156122905783818151811061221357612213612d94565b602002602001015160008087848151811061223057612230612d94565b602002602001015181526020019081526020016000206000886001600160a01b03166001600160a01b0316815260200190815260200160002060008282546122789190612df8565b9091555081905061228881612e10565b9150506121f8565b50846001600160a01b031660006001600160a01b0316826001600160a01b03167f4a39dc06d4c0dbc64b70af90fd698a233a518aa5d07e595d983b8c0526c8f7fb87876040516122e1929190612e2b565b60405180910390a46109b3816000878787875b6001600160a01b0384163b15611ac45760405163bc197c8160e01b81526001600160a01b0385169063bc197c8190612338908990899088908890889060040161312c565b602060405180830381600087803b15801561235257600080fd5b505af1925050508015612382575060408051601f3d908101601f1916820190925261237f9181019061318a565b60015b61242f5761238e6131a7565b806308c379a014156123c857506123a36131c3565b806123ae57506123ca565b8060405162461bcd60e51b81526004016103ed91906126a7565b505b60405162461bcd60e51b815260206004820152603460248201527f455243313135353a207472616e7366657220746f206e6f6e2d455243313135356044820152732932b1b2b4bb32b91034b6b83632b6b2b73a32b960611b60648201526084016103ed565b6001600160e01b0319811663bc197c8160e01b14611f765760405162461bcd60e51b81526004016103ed9061324d565b600354600160a01b900460ff166109ca5760405162461bcd60e51b815260206004820152601460248201527314185d5cd8589b194e881b9bdd081c185d5cd95960621b60448201526064016103ed565b6001600160a01b0384163b15611ac45760405163f23a6e6160e01b81526001600160a01b0385169063f23a6e61906124f39089908990889088908890600401613295565b602060405180830381600087803b15801561250d57600080fd5b505af192505050801561253d575060408051601f3d908101601f1916820190925261253a9181019061318a565b60015b6125495761238e6131a7565b6001600160e01b0319811663f23a6e6160e01b14611f765760405162461bcd60e51b81526004016103ed9061324d565b6001600160a01b03811681146112c557600080fd5b600080604083850312156125a157600080fd5b82356125ac81612579565b946020939093013593505050565b6001600160e01b0319811681146112c557600080fd5b6000602082840312156125e257600080fd5b81356125ed816125ba565b9392505050565b60008060006060848603121561260957600080fd5b833561261481612579565b925060208401359150604084013561262b81612579565b809150509250925092565b60006020828403121561264857600080fd5b5035919050565b60005b8381101561266a578181015183820152602001612652565b83811115610f6a5750506000910152565b6000815180845261269381602086016020860161264f565b601f01601f19169290920160200192915050565b6020815260006125ed602083018461267b565b634e487b7160e01b600052604160045260246000fd5b601f8201601f1916810167ffffffffffffffff811182821017156126f6576126f66126ba565b6040525050565b600067ffffffffffffffff821115612717576127176126ba565b5060051b60200190565b600082601f83011261273257600080fd5b8135602061273f826126fd565b60405161274c82826126d0565b83815260059390931b850182019282810191508684111561276c57600080fd5b8286015b848110156127875780358352918301918301612770565b509695505050505050565b600067ffffffffffffffff8211156127ac576127ac6126ba565b50601f01601f191660200190565b600082601f8301126127cb57600080fd5b81356127d681612792565b6040516127e382826126d0565b8281528560208487010111156127f857600080fd5b82602086016020830137600092810160200192909252509392505050565b600080600080600060a0868803121561282e57600080fd5b853561283981612579565b9450602086013561284981612579565b9350604086013567ffffffffffffffff8082111561286657600080fd5b61287289838a01612721565b9450606088013591508082111561288857600080fd5b61289489838a01612721565b935060808801359150808211156128aa57600080fd5b506128b7888289016127ba565b9150509295509295909350565b600080604083850312156128d757600080fd5b823567ffffffffffffffff808211156128ef57600080fd5b818501915085601f83011261290357600080fd5b81356020612910826126fd565b60405161291d82826126d0565b83815260059390931b850182019282810191508984111561293d57600080fd5b948201945b8386101561296457853561295581612579565b82529482019490820190612942565b9650508601359250508082111561297a57600080fd5b5061298785828601612721565b9150509250929050565b600081518084526020808501945080840160005b838110156129c1578151875295820195908201906001016129a5565b509495945050505050565b6020815260006125ed6020830184612991565b60008060008060008060c087890312156129f857600080fd5b863567ffffffffffffffff80821115612a1057600080fd5b612a1c8a838b016127ba565b9750602089013596506040890135955060608901359150612a3c82612579565b90935060808801359080821115612a5257600080fd5b612a5e8a838b016127ba565b935060a0890135915080821115612a7457600080fd5b50612a8189828a016127ba565b9150509295509295509295565b80151581146112c557600080fd5b60008060408385031215612aaf57600080fd5b8235612aba81612579565b91506020830135612aca81612a8e565b809150509250929050565b608081526000612ae8608083018761267b565b60208301959095525060408101929092526001600160a01b0316606090910152919050565b600080600060608486031215612b2257600080fd5b8335925060208401359150604084013561262b81612579565b60008060408385031215612b4e57600080fd5b8235612b5981612579565b91506020830135612aca81612579565b600080600080600060a08688031215612b8157600080fd5b8535612b8c81612579565b94506020860135612b9c81612579565b93506040860135925060608601359150608086013567ffffffffffffffff811115612bc657600080fd5b6128b7888289016127ba565b600060208284031215612be457600080fd5b81356125ed81612579565b600080600060608486031215612c0457600080fd5b833567ffffffffffffffff80821115612c1c57600080fd5b612c2887838801612721565b94506020860135915080821115612c3e57600080fd5b50612c4b86828701612721565b925050604084013561262b81612579565b600082601f830112612c6d57600080fd5b8151612c7881612792565b604051612c8582826126d0565b828152856020848701011115612c9a57600080fd5b612cab83602083016020880161264f565b95945050505050565b600060208284031215612cc657600080fd5b815167ffffffffffffffff811115612cdd57600080fd5b612ce984828501612c5c565b949350505050565b6020808252602f908201527f455243313135353a2063616c6c6572206973206e6f7420746f6b656e206f776e60408201526e195c881b9bdc88185c1c1c9bdd9959608a1b606082015260800190565b600060208284031215612d5257600080fd5b81516125ed81612a8e565b6020808252601d908201527f50424d3a2027746f27206164647265737320626c61636b6c6973746564000000604082015260600190565b634e487b7160e01b600052603260045260246000fd5b600060208284031215612dbc57600080fd5b5051919050565b634e487b7160e01b600052601160045260246000fd5b6000816000190483118215151615612df357612df3612dc3565b500290565b60008219821115612e0b57612e0b612dc3565b500190565b6000600019821415612e2457612e24612dc3565b5060010190565b604081526000612e3e6040830185612991565b8281036020840152612cab8185612991565b600060018060a01b038089168352808816602084015260c06040840152612e7a60c0840188612991565b8381036060850152612e8c8188612991565b959091166080840152505060a00152949350505050565b60e081526000612eb660e083018a61267b565b60208301899052604083018890526001600160a01b03871660608401528281036080840152612ee5818761267b565b905082810360a0840152612ef9818661267b565b9150508260c083015298975050505050505050565b60008060008060808587031215612f2457600080fd5b845167ffffffffffffffff811115612f3b57600080fd5b612f4787828801612c5c565b94505060208501519250604085015191506060850151612f6681612579565b939692955090935050565b60208082526023908201527f455243313135353a206275726e2066726f6d20746865207a65726f206164647260408201526265737360e81b606082015260800190565b60208082526028908201527f455243313135353a2069647320616e6420616d6f756e7473206c656e677468206040820152670dad2e6dac2e8c6d60c31b606082015260800190565b60208082526024908201527f455243313135353a206275726e20616d6f756e7420657863656564732062616c604082015263616e636560e01b606082015260800190565b6000825161305281846020870161264f565b9190910192915050565b60208082526025908201527f455243313135353a207472616e7366657220746f20746865207a65726f206164604082015264647265737360d81b606082015260800190565b6020808252602a908201527f455243313135353a20696e73756666696369656e742062616c616e636520666f60408201526939103a3930b739b332b960b11b606082015260800190565b60208082526021908201527f455243313135353a206d696e7420746f20746865207a65726f206164647265736040820152607360f81b606082015260800190565b6001600160a01b0386811682528516602082015260a06040820181905260009061315890830186612991565b828103606084015261316a8186612991565b9050828103608084015261317e818561267b565b98975050505050505050565b60006020828403121561319c57600080fd5b81516125ed816125ba565b600060033d11156131c05760046000803e5060005160e01c5b90565b600060443d10156131d15790565b6040516003193d81016004833e81513d67ffffffffffffffff816024840111818411171561320157505050505090565b82850191508151818111156132195750505050505090565b843d87010160208285010111156132335750505050505090565b613242602082860101876126d0565b509095945050505050565b60208082526028908201527f455243313135353a204552433131353552656365697665722072656a656374656040820152676420746f6b656e7360c01b606082015260800190565b6001600160a01b03868116825285166020820152604081018490526060810183905260a0608082018190526000906132cf9083018461267b565b97965050505050505056fea2646970667358221220bbb4a717b2cb9a6e385efc470d52d532f7e58007f6780209dc37a29e040b188464736f6c6343000809003360a0604052600060015534801561001557600080fd5b5061001f33610028565b30608052610078565b600080546001600160a01b038381166001600160a01b0319831681178455604051919092169283917f8be0079c531659141344cd1fd0a4f28419497f9722a3daafe3b4186f6b6457e09190a35050565b6080516114236100936000396000610c4501526114236000f3fe608060405234801561001057600080fd5b50600436106100ea5760003560e01c8063934689a91161008c578063d20874d811610066578063d20874d8146101fa578063e21c8b591461020d578063f2fde38b14610220578063f600d9f41461023357600080fd5b8063934689a9146101b1578063c1e03728146101c4578063d10424c7146101e757600080fd5b806348fd09f5116100c857806348fd09f51461014e578063715018a6146101715780637e0da9da146101795780638da5cb5b1461018c57600080fd5b80630e89341c146100ef578063234661c41461011857806336a3409c14610139575b600080fd5b6101026100fd366004610ec0565b610246565b60405161010f9190610f35565b60405180910390f35b61012b610126366004610ec0565b61031f565b60405190815260200161010f565b61014c610147366004610f6b565b61038b565b005b61016161015c36600461105e565b610426565b604051901515815260200161010f565b61014c61048b565b61014c61018736600461110b565b61049f565b6000546001600160a01b03165b6040516001600160a01b03909116815260200161010f565b6101996101bf366004610ec0565b6106d0565b6101d76101d2366004610ec0565b61073c565b60405161010f94939291906111c1565b61012b6101f5366004610ec0565b61083c565b61012b610208366004610ec0565b61089f565b61014c61021b3660046111f9565b6108f6565b61014c61022e36600461125d565b610a09565b61014c6102413660046111f9565b610a82565b600081815260026020819052604090912001546060904210610303576000828152600260205260409020600601805461027e90611278565b80601f01602080910402602001604051908101604052809291908181526020018280546102aa90611278565b80156102f75780601f106102cc576101008083540402835291602001916102f7565b820191906000526020600020905b8154815290600101906020018083116102da57829003601f168201915b50505050509050919050565b6000828152600260205260409020600501805461027e90611278565b6000818152600260205260408120600101541580159061035057506000828152600260208190526040909120015442105b6103755760405162461bcd60e51b815260040161036c906112b3565b60405180910390fd5b5060009081526002602052604090206004015490565b610393610b90565b6000828152600260205260409020600301546001600160a01b0382811691161480156103d15750600082815260026020819052604090912001544210155b6104115760405162461bcd60e51b815260206004820152601160248201527050424d206e6f74207265766f6b61626c6560781b604482015260640161036c565b50600090815260026020526040812060040155565b6000805b825181101561048257600081815260026020819052604090912001544211806104625750600081815260026020526040902060010154155b156104705750600092915050565b8061047a81611300565b91505061042a565b50600192915050565b610493610b90565b61049d6000610bea565b565b6104a7610b90565b6104af610c3a565b808511156104f85760405162461bcd60e51b8152602060048201526016602482015275496e76616c696420746f6b656e206578706972792d3160501b604482015260640161036c565b4285116105405760405162461bcd60e51b815260206004820152601660248201527524b73b30b634b2103a37b5b2b71032bc3834b93c969960511b604482015260640161036c565b856105805760405162461bcd60e51b815260206004820152601060248201526f053706f7420616d6f756e7420697320360841b604482015260640161036c565b60008761058c88610cb2565b60405160200161059d92919061131b565b60408051601f1981840301815291815260015460009081526002602090815291902082519293506105d2929091840190610e27565b5060018054600090815260026020818152604080842085018c9055845484528084209092018a90558354835281832060030180546001600160a01b0319166001600160a01b038b1617905583548352818320600401839055925482529020855161064492600590920191870190610e27565b506001546000908152600260209081526040909120845161066d92600690920191860190610e27565b507fbbb805bf89819da42bb55052edd2bf6db1c2256ec4c19cf1607de95efc92762f600154828989896040516106a795949392919061134a565b60405180910390a160018060008282546106c19190611389565b90915550505050505050505050565b6000818152600260205260408120600101541580159061070157506000828152600260208190526040909120015442105b61071d5760405162461bcd60e51b815260040161036c906112b3565b506000908152600260205260409020600301546001600160a01b031690565b60008181526002602052604081206001015460609190819081906107725760405162461bcd60e51b815260040161036c906112b3565b6000858152600260208190526040909120600181015491810154600382015482549293926001600160a01b039091169084906107ad90611278565b80601f01602080910402602001604051908101604052809291908181526020018280546107d990611278565b80156108265780601f106107fb57610100808354040283529160200191610826565b820191906000526020600020905b81548152906001019060200180831161080957829003601f168201915b5050505050935093509350935093509193509193565b6000818152600260205260408120600101541580159061086d57506000828152600260208190526040909120015442105b6108895760405162461bcd60e51b815260040161036c906112b3565b5060009081526002602052604090206001015490565b6000818152600260205260408120600101546108cd5760405162461bcd60e51b815260040161036c906112b3565b600082815260026020526040902060048101546001909101546108f091906113a1565b92915050565b6108fe610b90565b60005b8251811015610a045760026000848381518110610920576109206113c0565b602002602001015181526020019081526020016000206001015460001415801561097857506002600084838151811061095b5761095b6113c0565b602002602001015181526020019081526020016000206002015442105b6109945760405162461bcd60e51b815260040161036c906112b3565b8181815181106109a6576109a66113c0565b6020026020010151600260008584815181106109c4576109c46113c0565b6020026020010151815260200190815260200160002060040160008282546109ec91906113d6565b909155508190506109fc81611300565b915050610901565b505050565b610a11610b90565b6001600160a01b038116610a765760405162461bcd60e51b815260206004820152602660248201527f4f776e61626c653a206e6577206f776e657220697320746865207a65726f206160448201526564647265737360d01b606482015260840161036c565b610a7f81610bea565b50565b610a8a610b90565b60005b8251811015610a045760026000848381518110610aac57610aac6113c0565b6020026020010151815260200190815260200160002060010154600014158015610b04575060026000848381518110610ae757610ae76113c0565b602002602001015181526020019081526020016000206002015442105b610b205760405162461bcd60e51b815260040161036c906112b3565b818181518110610b3257610b326113c0565b602002602001015160026000858481518110610b5057610b506113c0565b602002602001015181526020019081526020016000206004016000828254610b789190611389565b90915550819050610b8881611300565b915050610a8d565b6000546001600160a01b0316331461049d5760405162461bcd60e51b815260206004820181905260248201527f4f776e61626c653a2063616c6c6572206973206e6f7420746865206f776e6572604482015260640161036c565b600080546001600160a01b038381166001600160a01b0319831681178455604051919092169283917f8be0079c531659141344cd1fd0a4f28419497f9722a3daafe3b4186f6b6457e09190a35050565b306001600160a01b037f0000000000000000000000000000000000000000000000000000000000000000161461049d5760405162461bcd60e51b815260206004820152601960248201527f44656c65676174652063616c6c73207265737472696374656400000000000000604482015260640161036c565b60606000610cbf83610d4f565b600101905060008167ffffffffffffffff811115610cdf57610cdf610f97565b6040519080825280601f01601f191660200182016040528015610d09576020820181803683370190505b5090508181016020015b600019016f181899199a1a9b1b9c1cb0b131b232b360811b600a86061a8153600a8504945084610d4257610d47565b610d13565b509392505050565b60008072184f03e93ff9f4daa797ed6e38ed64bf6a1f0160401b8310610d8e5772184f03e93ff9f4daa797ed6e38ed64bf6a1f0160401b830492506040015b6d04ee2d6d415b85acef81000000008310610dba576d04ee2d6d415b85acef8100000000830492506020015b662386f26fc100008310610dd857662386f26fc10000830492506010015b6305f5e1008310610df0576305f5e100830492506008015b6127108310610e0457612710830492506004015b60648310610e16576064830492506002015b600a83106108f05760010192915050565b828054610e3390611278565b90600052602060002090601f016020900481019282610e555760008555610e9b565b82601f10610e6e57805160ff1916838001178555610e9b565b82800160010185558215610e9b579182015b82811115610e9b578251825591602001919060010190610e80565b50610ea7929150610eab565b5090565b5b80821115610ea75760008155600101610eac565b600060208284031215610ed257600080fd5b5035919050565b60005b83811015610ef4578181015183820152602001610edc565b83811115610f03576000848401525b50505050565b60008151808452610f21816020860160208601610ed9565b601f01601f19169290920160200192915050565b602081526000610f486020830184610f09565b9392505050565b80356001600160a01b0381168114610f6657600080fd5b919050565b60008060408385031215610f7e57600080fd5b82359150610f8e60208401610f4f565b90509250929050565b634e487b7160e01b600052604160045260246000fd5b604051601f8201601f1916810167ffffffffffffffff81118282101715610fd657610fd6610f97565b604052919050565b600082601f830112610fef57600080fd5b8135602067ffffffffffffffff82111561100b5761100b610f97565b8160051b61101a828201610fad565b928352848101820192828101908785111561103457600080fd5b83870192505b848310156110535782358252918301919083019061103a565b979650505050505050565b60006020828403121561107057600080fd5b813567ffffffffffffffff81111561108757600080fd5b61109384828501610fde565b949350505050565b600082601f8301126110ac57600080fd5b813567ffffffffffffffff8111156110c6576110c6610f97565b6110d9601f8201601f1916602001610fad565b8181528460208386010111156110ee57600080fd5b816020850160208301376000918101602001919091529392505050565b600080600080600080600060e0888a03121561112657600080fd5b873567ffffffffffffffff8082111561113e57600080fd5b61114a8b838c0161109b565b985060208a0135975060408a0135965061116660608b01610f4f565b955060808a013591508082111561117c57600080fd5b6111888b838c0161109b565b945060a08a013591508082111561119e57600080fd5b506111ab8a828b0161109b565b92505060c0880135905092959891949750929550565b6080815260006111d46080830187610f09565b60208301959095525060408101929092526001600160a01b0316606090910152919050565b6000806040838503121561120c57600080fd5b823567ffffffffffffffff8082111561122457600080fd5b61123086838701610fde565b9350602085013591508082111561124657600080fd5b5061125385828601610fde565b9150509250929050565b60006020828403121561126f57600080fd5b610f4882610f4f565b600181811c9082168061128c57607f821691505b602082108114156112ad57634e487b7160e01b600052602260045260246000fd5b50919050565b60208082526018908201527f50424d3a20496e76616c696420546f6b656e2049642873290000000000000000604082015260600190565b634e487b7160e01b600052601160045260246000fd5b6000600019821415611314576113146112ea565b5060010190565b6000835161132d818460208801610ed9565b835190830190611341818360208801610ed9565b01949350505050565b85815260a06020820152600061136360a0830187610f09565b60408301959095525060608101929092526001600160a01b031660809091015292915050565b6000821982111561139c5761139c6112ea565b500190565b60008160001904831182151516156113bb576113bb6112ea565b500290565b634e487b7160e01b600052603260045260246000fd5b6000828210156113e8576113e86112ea565b50039056fea26469706673582212200f12dc8cbabfcfe8a7611e78271cb7ad181a04db6bebd96c5e4eb7edcc7f484f64736f6c63430008090033",
  "devdoc": {
    "kind": "dev",
    "methods": {
      "balanceOf(address,uint256)": {
        "details": "See {IERC1155-balanceOf}. Requirements: - `account` cannot be the zero address."
      },
      "balanceOfBatch(address[],uint256[])": {
        "details": "See {IERC1155-balanceOfBatch}. Requirements: - `accounts` and `ids` must have the same length."
      },
      "batchMint(uint256[],uint256[],address)": {
        "details": "See {IPBM-batchMint}.      IMPT: Before minting, the caller should approve the contract address to spend ERC-20 tokens on behalf of the caller.       This can be done by calling the `approve` or `increaseMinterAllowance` functions of the ERC-20 contract and specifying `_spender` to be the PBM contract address.  Ref : https://eips.ethereum.org/EIPS/eip-20 WARNING: Any contracts that externally call these mint() and batchMint() functions should implement some sort of reentrancy guard procedure (such as OpenZeppelin's ReentrancyGuard). Requirements: - contract must not be paused - tokens must not be expired - `tokenIds` should all be valid ids that have already been created - `tokenIds` and `amounts` list need to have the same number of values - caller should have the necessary amount of the ERC-20 tokens required to mint - caller should have approved the PBM contract to spend the ERC-20 tokens - receiver should not be blacklisted"
      },
      "createPBMTokenType(string,uint256,uint256,address,string,string)": {
        "details": "See {IPBM-createPBMTokenType}. Requirements: - caller must be owner - contract must not be expired - `tokenExpiry` must be less than contract expiry - `amount` should not be 0"
      },
      "getTokenDetails(uint256)": {
        "details": "See {IPBM-getTokenDetails}."
      },
      "initialise(address,uint256,address)": {
        "params": {
          "_expiry": "contract wide expiry ( in epoch )",
          "_pbmAddressList": "address of the PBMAddressList smartcontract",
          "_spotToken": "address of the underlying ERC20 token"
        }
      },
      "isApprovedForAll(address,address)": {
        "details": "See {IERC1155-isApprovedForAll}."
      },
      "mint(uint256,uint256,address)": {
        "details": "See {IPBM-mint}.      IMPT: Before minting, the caller should approve the contract address to spend ERC-20 tokens on behalf of the caller.       This can be done by calling the `approve` or `increaseMinterAllowance` functions of the ERC-20 contract and specifying `_spender` to be the PBM contract address.  Ref : https://eips.ethereum.org/EIPS/eip-20 WARNING: Any contracts that externally call these mint() and batchMint() functions should implement some sort of reentrancy guard procedure (such as OpenZeppelin's ReentrancyGuard). Requirements: - contract must not be paused - tokens must not be expired - `tokenId` should be a valid id that has already been created - caller should have the necessary amount of the ERC-20 tokens required to mint - caller should have approved the PBM contract to spend the ERC-20 tokens - receiver should not be blacklisted"
      },
      "owner()": {
        "details": "Returns the address of the current owner."
      },
      "pause()": {
        "details": "see {Pausable _pause} Requirements : - caller should be owner"
      },
      "paused()": {
        "details": "Returns true if the contract is paused, and false otherwise."
      },
      "renounceOwnership()": {
        "details": "Leaves the contract without owner. It will not be possible to call `onlyOwner` functions. Can only be called by the current owner. NOTE: Renouncing ownership will leave the contract without an owner, thereby disabling any functionality that is only available to the owner."
      },
      "revokePBM(uint256)": {
        "details": "See {IPBM-revokePBM}. Requirements: - `tokenId` should be a valid ids that has already been created - caller must be the creator of the tokenType - token must be expired"
      },
      "safeBatchTransferFrom(address,address,uint256[],uint256[],bytes)": {
        "details": "See {IPBM-safeBatchTransferFrom}. Requirements: - contract must not be paused - tokens must not be expired - `tokenIds` should all be  valid ids that has already been created - `tokenIds` and `amounts` list need to have the same number of values - caller should have the PBMs that are being transferred (or)          caller should have the approval to spend the PBMs on behalf of the owner (`from` addresss)"
      },
      "safeTransferFrom(address,address,uint256,uint256,bytes)": {
        "details": "See {IPBM-safeTransferFrom}. Requirements: - contract must not be paused - tokens must not be expired - `tokenId` should be a valid ids that has already been created - caller should have the PBMs that are being transferred (or)          caller should have the approval to spend the PBMs on behalf of the owner (`from` addresss)"
      },
      "setApprovalForAll(address,bool)": {
        "details": "See {IERC1155-setApprovalForAll}."
      },
      "supportsInterface(bytes4)": {
        "details": "See {IERC165-supportsInterface}."
      },
      "transferOwnership(address)": {
        "details": "Transfers ownership of the contract to a new account (`newOwner`). Can only be called by the current owner."
      },
      "unpause()": {
        "details": "see {Pausable _unpause} Requirements : - caller should be owner"
      },
      "uri(uint256)": {
        "details": "See {IPBM-uri}."
      }
    },
    "version": 1
  },
  "userdoc": {
    "events": {
      "MerchantPayment(address,address,uint256[],uint256[],address,uint256)": {
        "notice": "Emitted when underlying ERC-20 tokens are transferred to a whitelisted merchant ( payment )"
      },
      "PBMrevokeWithdraw(address,uint256,address,uint256)": {
        "notice": "Emitted when a PBM type creator withdraws the underlying ERC-20 tokens from all the remaining expired PBMs"
      }
    },
    "kind": "user",
    "methods": {
      "initialise(address,uint256,address)": {
        "notice": "sets the address of the underlying ERC20 token, Contract Expiry, and the address of pbm address list"
      }
    },
    "version": 1
  },
  "storageLayout": {
    "storage": [
      {
        "astId": 249,
        "contract": "contracts/PBM.sol:PBM",
        "label": "_balances",
        "offset": 0,
        "slot": "0",
        "type": "t_mapping(t_uint256,t_mapping(t_address,t_uint256))"
      },
      {
        "astId": 255,
        "contract": "contracts/PBM.sol:PBM",
        "label": "_operatorApprovals",
        "offset": 0,
        "slot": "1",
        "type": "t_mapping(t_address,t_mapping(t_address,t_bool))"
      },
      {
        "astId": 257,
        "contract": "contracts/PBM.sol:PBM",
        "label": "_uri",
        "offset": 0,
        "slot": "2",
        "type": "t_string_storage"
      },
      {
        "astId": 7,
        "contract": "contracts/PBM.sol:PBM",
        "label": "_owner",
        "offset": 0,
        "slot": "3",
        "type": "t_address"
      },
      {
        "astId": 133,
        "contract": "contracts/PBM.sol:PBM",
        "label": "_paused",
        "offset": 20,
        "slot": "3",
        "type": "t_bool"
      },
      {
        "astId": 4477,
        "contract": "contracts/PBM.sol:PBM",
        "label": "spotToken",
        "offset": 0,
        "slot": "4",
        "type": "t_address"
      },
      {
        "astId": 4483,
        "contract": "contracts/PBM.sol:PBM",
        "label": "pbmTokenManager",
        "offset": 0,
        "slot": "5",
        "type": "t_address"
      },
      {
        "astId": 4489,
        "contract": "contracts/PBM.sol:PBM",
        "label": "pbmAddressList",
        "offset": 0,
        "slot": "6",
        "type": "t_address"
      },
      {
        "astId": 4492,
        "contract": "contracts/PBM.sol:PBM",
        "label": "initialised",
        "offset": 20,
        "slot": "6",
        "type": "t_bool"
      },
      {
        "astId": 4494,
        "contract": "contracts/PBM.sol:PBM",
        "label": "contractExpiry",
        "offset": 0,
        "slot": "7",
        "type": "t_uint256"
      }
    ],
    "types": {
      "t_address": {
        "encoding": "inplace",
        "label": "address",
        "numberOfBytes": "20"
      },
      "t_bool": {
        "encoding": "inplace",
        "label": "bool",
        "numberOfBytes": "1"
      },
      "t_mapping(t_address,t_bool)": {
        "encoding": "mapping",
        "key": "t_address",
        "label": "mapping(address => bool)",
        "numberOfBytes": "32",
        "value": "t_bool"
      },
      "t_mapping(t_address,t_mapping(t_address,t_bool))": {
        "encoding": "mapping",
        "key": "t_address",
        "label": "mapping(address => mapping(address => bool))",
        "numberOfBytes": "32",
        "value": "t_mapping(t_address,t_bool)"
      },
      "t_mapping(t_address,t_uint256)": {
        "encoding": "mapping",
        "key": "t_address",
        "label": "mapping(address => uint256)",
        "numberOfBytes": "32",
        "value": "t_uint256"
      },
      "t_mapping(t_uint256,t_mapping(t_address,t_uint256))": {
        "encoding": "mapping",
        "key": "t_uint256",
        "label": "mapping(uint256 => mapping(address => uint256))",
        "numberOfBytes": "32",
        "value": "t_mapping(t_address,t_uint256)"
      },
      "t_string_storage": {
        "encoding": "bytes",
        "label": "string",
        "numberOfBytes": "32"
      },
      "t_uint256": {
        "encoding": "inplace",
        "label": "uint256",
        "numberOfBytes": "32"
      }
    }
  }
}