{
  "address": "0x399a4B29FA1A2B9E81962D6815e66A7E527080cB",
  "abi": [
    {
      "anonymous": false,
      "inputs": [
        {
          "indexed": false,
          "internalType": "string",
          "name": "action",
          "type": "string"
        },
        {
          "indexed": false,
          "internalType": "address[]",
          "name": "addresses",
          "type": "address[]"
        },
        {
          "indexed": false,
          "internalType": "string",
          "name": "metadata",
          "type": "string"
        }
      ],
      "name": "Blacklist",
      "type": "event"
    },
    {
      "anonymous": false,
      "inputs": [
        {
          "indexed": false,
          "internalType": "string",
          "name": "action",
          "type": "string"
        },
        {
          "indexed": false,
          "internalType": "address[]",
          "name": "addresses",
          "type": "address[]"
        },
        {
          "indexed": false,
          "internalType": "string",
          "name": "metadata",
          "type": "string"
        }
      ],
      "name": "MerchantList",
      "type": "event"
    },
    {
      "anonymous": false,
      "inputs": [
        {
          "indexed": true,
          "internalType": "address",
          "name": "previousOwner",
          "type": "address"
        },
        {
          "indexed": true,
          "internalType": "address",
          "name": "newOwner",
          "type": "address"
        }
      ],
      "name": "OwnershipTransferred",
      "type": "event"
    },
    {
      "inputs": [
        {
          "internalType": "address[]",
          "name": "addresses",
          "type": "address[]"
        },
        {
          "internalType": "string",
          "name": "metadata",
          "type": "string"
        }
      ],
      "name": "addMerchantAddresses",
      "outputs": [],
      "stateMutability": "nonpayable",
      "type": "function"
    },
    {
      "inputs": [
        {
          "internalType": "address[]",
          "name": "addresses",
          "type": "address[]"
        },
        {
          "internalType": "string",
          "name": "metadata",
          "type": "string"
        }
      ],
      "name": "blacklistAddresses",
      "outputs": [],
      "stateMutability": "nonpayable",
      "type": "function"
    },
    {
      "inputs": [
        {
          "internalType": "address",
          "name": "_address",
          "type": "address"
        }
      ],
      "name": "isBlacklisted",
      "outputs": [
        {
          "internalType": "bool",
          "name": "",
          "type": "bool"
        }
      ],
      "stateMutability": "view",
      "type": "function"
    },
    {
      "inputs": [
        {
          "internalType": "address",
          "name": "_address",
          "type": "address"
        }
      ],
      "name": "isMerchant",
      "outputs": [
        {
          "internalType": "bool",
          "name": "",
          "type": "bool"
        }
      ],
      "stateMutability": "view",
      "type": "function"
    },
    {
      "inputs": [],
      "name": "owner",
      "outputs": [
        {
          "internalType": "address",
          "name": "",
          "type": "address"
        }
      ],
      "stateMutability": "view",
      "type": "function"
    },
    {
      "inputs": [
        {
          "internalType": "address[]",
          "name": "addresses",
          "type": "address[]"
        },
        {
          "internalType": "string",
          "name": "metadata",
          "type": "string"
        }
      ],
      "name": "removeMerchantAddresses",
      "outputs": [],
      "stateMutability": "nonpayable",
      "type": "function"
    },
    {
      "inputs": [],
      "name": "renounceOwnership",
      "outputs": [],
      "stateMutability": "nonpayable",
      "type": "function"
    },
    {
      "inputs": [
        {
          "internalType": "address",
          "name": "newOwner",
          "type": "address"
        }
      ],
      "name": "transferOwnership",
      "outputs": [],
      "stateMutability": "nonpayable",
      "type": "function"
    },
    {
      "inputs": [
        {
          "internalType": "address[]",
          "name": "addresses",
          "type": "address[]"
        },
        {
          "internalType": "string",
          "name": "metadata",
          "type": "string"
        }
      ],
      "name": "unBlacklistAddresses",
      "outputs": [],
      "stateMutability": "nonpayable",
      "type": "function"
    }
  ],
  "transactionHash": "0x0daf0bfbf08c9df7c40def91ede2b5c470a2fc442e9566af215325d6eedbce63",
  "args": [],
  "numDeployments": 1,
  "solcInputHash": "25634cfbe1fc43f6cfbac2337a44292a",
  "bytecode": "0x608060405234801561001057600080fd5b5061001a3361001f565b61006f565b600080546001600160a01b038381166001600160a01b0319831681178455604051919092169283917f8be0079c531659141344cd1fd0a4f28419497f9722a3daafe3b4186f6b6457e09190a35050565b61089a8061007e6000396000f3fe608060405234801561001057600080fd5b50600436106100935760003560e01c80638da5cb5b116100665780638da5cb5b146101095780639e662bf214610124578063d99940e614610137578063f2fde38b1461014a578063fe575a871461015d57600080fd5b8063194ef60b146100985780631a2f7167146100ad578063380518e9146100ee578063715018a614610101575b600080fd5b6100ab6100a636600461062b565b610189565b005b6100d96100bb3660046106fa565b6001600160a01b031660009081526001602052604090205460ff1690565b60405190151581526020015b60405180910390f35b6100ab6100fc36600461062b565b610237565b6100ab6102d9565b6000546040516001600160a01b0390911681526020016100e5565b6100ab61013236600461062b565b6102ed565b6100ab61014536600461062b565b61038e565b6100ab6101583660046106fa565b610430565b6100d961016b3660046106fa565b6001600160a01b031660009081526002602052604090205460ff1690565b6101916104ae565b60005b82518110156101f9576001600260008584815181106101b5576101b561071c565b6020908102919091018101516001600160a01b03168252810191909152604001600020805460ff1916911515919091179055806101f181610732565b915050610194565b507ffd601646bc86d816d9448e5951578f6b37509d32182b7d514dac8c544bcde82a828260405161022b9291906107ec565b60405180910390a15050565b61023f6104ae565b60005b82518110156102a7576000600260008584815181106102635761026361071c565b6020908102919091018101516001600160a01b03168252810191909152604001600020805460ff19169115159190911790558061029f81610732565b915050610242565b507ffd601646bc86d816d9448e5951578f6b37509d32182b7d514dac8c544bcde82a828260405161022b929190610834565b6102e16104ae565b6102eb6000610508565b565b6102f56104ae565b60005b825181101561035c5760018060008584815181106103185761031861071c565b6020908102919091018101516001600160a01b03168252810191909152604001600020805460ff19169115159190911790558061035481610732565b9150506102f8565b507f255c7bb3f43b415fcde5cc3fd6b38794d983721f30b0a924ab3db736c38c4573828260405161022b9291906107ec565b6103966104ae565b60005b82518110156103fe576000600160008584815181106103ba576103ba61071c565b6020908102919091018101516001600160a01b03168252810191909152604001600020805460ff1916911515919091179055806103f681610732565b915050610399565b507f255c7bb3f43b415fcde5cc3fd6b38794d983721f30b0a924ab3db736c38c4573828260405161022b929190610834565b6104386104ae565b6001600160a01b0381166104a25760405162461bcd60e51b815260206004820152602660248201527f4f776e61626c653a206e6577206f776e657220697320746865207a65726f206160448201526564647265737360d01b60648201526084015b60405180910390fd5b6104ab81610508565b50565b6000546001600160a01b031633146102eb5760405162461bcd60e51b815260206004820181905260248201527f4f776e61626c653a2063616c6c6572206973206e6f7420746865206f776e65726044820152606401610499565b600080546001600160a01b038381166001600160a01b0319831681178455604051919092169283917f8be0079c531659141344cd1fd0a4f28419497f9722a3daafe3b4186f6b6457e09190a35050565b634e487b7160e01b600052604160045260246000fd5b604051601f8201601f1916810167ffffffffffffffff8111828210171561059757610597610558565b604052919050565b80356001600160a01b03811681146105b657600080fd5b919050565b600082601f8301126105cc57600080fd5b813567ffffffffffffffff8111156105e6576105e6610558565b6105f9601f8201601f191660200161056e565b81815284602083860101111561060e57600080fd5b816020850160208301376000918101602001919091529392505050565b6000806040838503121561063e57600080fd5b823567ffffffffffffffff8082111561065657600080fd5b818501915085601f83011261066a57600080fd5b813560208282111561067e5761067e610558565b8160051b61068d82820161056e565b928352848101820192828101908a8511156106a757600080fd5b958301955b848710156106cc576106bd8761059f565b825295830195908301906106ac565b97505050860135925050808211156106e357600080fd5b506106f0858286016105bb565b9150509250929050565b60006020828403121561070c57600080fd5b6107158261059f565b9392505050565b634e487b7160e01b600052603260045260246000fd5b600060001982141561075457634e487b7160e01b600052601160045260246000fd5b5060010190565b600081518084526020808501945080840160005b838110156107945781516001600160a01b03168752958201959082019060010161076f565b509495945050505050565b6000815180845260005b818110156107c5576020818501810151868301820152016107a9565b818111156107d7576000602083870101525b50601f01601f19169290920160200192915050565b60608152600360608201526218591960ea1b608082015260a06020820152600061081960a083018561075b565b828103604084015261082b818561079f565b95945050505050565b60608152600660608201526572656d6f766560d01b608082015260a06020820152600061081960a083018561075b56fea2646970667358221220dea8937d9463abf43e3619d49b66f3f3da0d483fc89802bef4f3b1bd38e13e3264736f6c63430008090033",
  "devdoc": {
    "kind": "dev",
    "methods": {
      "addMerchantAddresses(address[],string)": {
        "details": "See {IPBMAddressList-addMerchantAddresses}. Requirements: - caller must be owner"
      },
      "blacklistAddresses(address[],string)": {
        "details": "See {IPBMAddressList-blacklistAddresses}. Requirements: - caller must be owner"
      },
      "isBlacklisted(address)": {
        "details": "See {IPBMAddressList-isBlacklisted}."
      },
      "isMerchant(address)": {
        "details": "See {IPBMAddressList-isMerchant}."
      },
      "owner()": {
        "details": "Returns the address of the current owner."
      },
      "removeMerchantAddresses(address[],string)": {
        "details": "See {IPBMAddressList-removeMerchantAddresses}. Requirements: - caller must be owner"
      },
      "renounceOwnership()": {
        "details": "Leaves the contract without owner. It will not be possible to call `onlyOwner` functions. Can only be called by the current owner. NOTE: Renouncing ownership will leave the contract without an owner, thereby disabling any functionality that is only available to the owner."
      },
      "transferOwnership(address)": {
        "details": "Transfers ownership of the contract to a new account (`newOwner`). Can only be called by the current owner."
      },
      "unBlacklistAddresses(address[],string)": {
        "details": "See {IPBMAddressList-unBlacklistAddresses}. Requirements: - caller must be owner"
      }
    },
    "version": 1
  },
  "userdoc": {
    "events": {
      "Blacklist(string,address[],string)": {
        "notice": "Event emitted when the Blacklist is edited"
      },
      "MerchantList(string,address[],string)": {
        "notice": "Event emitted when the Merchant List is edited"
      }
    },
    "kind": "user",
    "methods": {},
    "version": 1
  },
  "storageLayout": {
    "storage": [
      {
        "astId": 7,
        "contract": "contracts/PBMAddressList.sol:PBMAddressList",
        "label": "_owner",
        "offset": 0,
        "slot": "0",
        "type": "t_address"
      },
      {
        "astId": 5161,
        "contract": "contracts/PBMAddressList.sol:PBMAddressList",
        "label": "merchantList",
        "offset": 0,
        "slot": "1",
        "type": "t_mapping(t_address,t_bool)"
      },
      {
        "astId": 5165,
        "contract": "contracts/PBMAddressList.sol:PBMAddressList",
        "label": "blacklistedAddresses",
        "offset": 0,
        "slot": "2",
        "type": "t_mapping(t_address,t_bool)"
      }
    ],
    "types": {
      "t_address": {
        "encoding": "inplace",
        "label": "address",
        "numberOfBytes": "20"
      },
      "t_bool": {
        "encoding": "inplace",
        "label": "bool",
        "numberOfBytes": "1"
      },
      "t_mapping(t_address,t_bool)": {
        "encoding": "mapping",
        "key": "t_address",
        "label": "mapping(address => bool)",
        "numberOfBytes": "32",
        "value": "t_bool"
      }
    }
  }
}