{
  "address": "0xbA7894a04CFB920C725128a957D1a853fBb4773D",
  "abi": [
    {
      "inputs": [],
      "stateMutability": "nonpayable",
      "type": "constructor"
    },
    {
      "anonymous": false,
      "inputs": [
        {
          "indexed": true,
          "internalType": "address",
          "name": "account",
          "type": "address"
        },
        {
          "indexed": true,
          "internalType": "address",
          "name": "operator",
          "type": "address"
        },
        {
          "indexed": false,
          "internalType": "bool",
          "name": "approved",
          "type": "bool"
        }
      ],
      "name": "ApprovalForAll",
      "type": "event"
    },
    {
      "anonymous": false,
      "inputs": [
        {
          "indexed": true,
          "internalType": "address",
          "name": "previousOwner",
          "type": "address"
        },
        {
          "indexed": true,
          "internalType": "address",
          "name": "newOwner",
          "type": "address"
        }
      ],
      "name": "OwnershipTransferred",
      "type": "event"
    },
    {
      "anonymous": false,
      "inputs": [
        {
          "indexed": false,
          "internalType": "address",
          "name": "account",
          "type": "address"
        }
      ],
      "name": "Paused",
      "type": "event"
    },
    {
      "anonymous": false,
      "inputs": [
        {
          "indexed": true,
          "internalType": "address",
          "name": "operator",
          "type": "address"
        },
        {
          "indexed": true,
          "internalType": "address",
          "name": "from",
          "type": "address"
        },
        {
          "indexed": true,
          "internalType": "address",
          "name": "to",
          "type": "address"
        },
        {
          "indexed": false,
          "internalType": "uint256[]",
          "name": "ids",
          "type": "uint256[]"
        },
        {
          "indexed": false,
          "internalType": "uint256[]",
          "name": "values",
          "type": "uint256[]"
        }
      ],
      "name": "TransferBatch",
      "type": "event"
    },
    {
      "anonymous": false,
      "inputs": [
        {
          "indexed": true,
          "internalType": "address",
          "name": "operator",
          "type": "address"
        },
        {
          "indexed": true,
          "internalType": "address",
          "name": "from",
          "type": "address"
        },
        {
          "indexed": true,
          "internalType": "address",
          "name": "to",
          "type": "address"
        },
        {
          "indexed": false,
          "internalType": "uint256",
          "name": "id",
          "type": "uint256"
        },
        {
          "indexed": false,
          "internalType": "uint256",
          "name": "value",
          "type": "uint256"
        }
      ],
      "name": "TransferSingle",
      "type": "event"
    },
    {
      "anonymous": false,
      "inputs": [
        {
          "indexed": false,
          "internalType": "string",
          "name": "value",
          "type": "string"
        },
        {
          "indexed": true,
          "internalType": "uint256",
          "name": "id",
          "type": "uint256"
        }
      ],
      "name": "URI",
      "type": "event"
    },
    {
      "anonymous": false,
      "inputs": [
        {
          "indexed": false,
          "internalType": "address",
          "name": "account",
          "type": "address"
        }
      ],
      "name": "Unpaused",
      "type": "event"
    },
    {
      "inputs": [
        {
          "internalType": "address",
          "name": "_whitelistAddress",
          "type": "address"
        }
      ],
      "name": "addWhitelisted",
      "outputs": [],
      "stateMutability": "nonpayable",
      "type": "function"
    },
    {
      "inputs": [
        {
          "internalType": "address",
          "name": "account",
          "type": "address"
        },
        {
          "internalType": "uint256",
          "name": "id",
          "type": "uint256"
        }
      ],
      "name": "balanceOf",
      "outputs": [
        {
          "internalType": "uint256",
          "name": "",
          "type": "uint256"
        }
      ],
      "stateMutability": "view",
      "type": "function"
    },
    {
      "inputs": [
        {
          "internalType": "address[]",
          "name": "accounts",
          "type": "address[]"
        },
        {
          "internalType": "uint256[]",
          "name": "ids",
          "type": "uint256[]"
        }
      ],
      "name": "balanceOfBatch",
      "outputs": [
        {
          "internalType": "uint256[]",
          "name": "",
          "type": "uint256[]"
        }
      ],
      "stateMutability": "view",
      "type": "function"
    },
    {
      "inputs": [
        {
          "internalType": "address",
          "name": "account",
          "type": "address"
        },
        {
          "internalType": "uint256",
          "name": "id",
          "type": "uint256"
        },
        {
          "internalType": "uint256",
          "name": "value",
          "type": "uint256"
        }
      ],
      "name": "burn",
      "outputs": [],
      "stateMutability": "nonpayable",
      "type": "function"
    },
    {
      "inputs": [
        {
          "internalType": "address",
          "name": "account",
          "type": "address"
        },
        {
          "internalType": "uint256[]",
          "name": "ids",
          "type": "uint256[]"
        },
        {
          "internalType": "uint256[]",
          "name": "values",
          "type": "uint256[]"
        }
      ],
      "name": "burnBatch",
      "outputs": [],
      "stateMutability": "nonpayable",
      "type": "function"
    },
    {
      "inputs": [
        {
          "internalType": "uint256",
          "name": "id",
          "type": "uint256"
        }
      ],
      "name": "exists",
      "outputs": [
        {
          "internalType": "bool",
          "name": "",
          "type": "bool"
        }
      ],
      "stateMutability": "view",
      "type": "function"
    },
    {
      "inputs": [
        {
          "internalType": "address",
          "name": "account",
          "type": "address"
        },
        {
          "internalType": "address",
          "name": "operator",
          "type": "address"
        }
      ],
      "name": "isApprovedForAll",
      "outputs": [
        {
          "internalType": "bool",
          "name": "",
          "type": "bool"
        }
      ],
      "stateMutability": "view",
      "type": "function"
    },
    {
      "inputs": [
        {
          "internalType": "address",
          "name": "account",
          "type": "address"
        },
        {
          "internalType": "uint256",
          "name": "id",
          "type": "uint256"
        },
        {
          "internalType": "uint256",
          "name": "amount",
          "type": "uint256"
        },
        {
          "internalType": "bytes",
          "name": "data",
          "type": "bytes"
        }
      ],
      "name": "mintUnique",
      "outputs": [],
      "stateMutability": "nonpayable",
      "type": "function"
    },
    {
      "inputs": [
        {
          "internalType": "address",
          "name": "to",
          "type": "address"
        },
        {
          "internalType": "uint256[]",
          "name": "ids",
          "type": "uint256[]"
        },
        {
          "internalType": "uint256[]",
          "name": "amounts",
          "type": "uint256[]"
        },
        {
          "internalType": "bytes",
          "name": "data",
          "type": "bytes"
        }
      ],
      "name": "mintUniqueBatch",
      "outputs": [],
      "stateMutability": "nonpayable",
      "type": "function"
    },
    {
      "inputs": [],
      "name": "owner",
      "outputs": [
        {
          "internalType": "address",
          "name": "",
          "type": "address"
        }
      ],
      "stateMutability": "view",
      "type": "function"
    },
    {
      "inputs": [
        {
          "internalType": "uint256",
          "name": "",
          "type": "uint256"
        },
        {
          "internalType": "address",
          "name": "",
          "type": "address"
        }
      ],
      "name": "ownersMap",
      "outputs": [
        {
          "internalType": "bool",
          "name": "",
          "type": "bool"
        }
      ],
      "stateMutability": "view",
      "type": "function"
    },
    {
      "inputs": [],
      "name": "pause",
      "outputs": [],
      "stateMutability": "nonpayable",
      "type": "function"
    },
    {
      "inputs": [],
      "name": "paused",
      "outputs": [
        {
          "internalType": "bool",
          "name": "",
          "type": "bool"
        }
      ],
      "stateMutability": "view",
      "type": "function"
    },
    {
      "inputs": [
        {
          "internalType": "address",
          "name": "_whitelistAddress",
          "type": "address"
        }
      ],
      "name": "removeWhitelisted",
      "outputs": [],
      "stateMutability": "nonpayable",
      "type": "function"
    },
    {
      "inputs": [],
      "name": "renounceOwnership",
      "outputs": [],
      "stateMutability": "nonpayable",
      "type": "function"
    },
    {
      "inputs": [
        {
          "internalType": "address",
          "name": "from",
          "type": "address"
        },
        {
          "internalType": "address",
          "name": "to",
          "type": "address"
        },
        {
          "internalType": "uint256[]",
          "name": "ids",
          "type": "uint256[]"
        },
        {
          "internalType": "uint256[]",
          "name": "amounts",
          "type": "uint256[]"
        },
        {
          "internalType": "bytes",
          "name": "data",
          "type": "bytes"
        }
      ],
      "name": "safeBatchTransferFrom",
      "outputs": [],
      "stateMutability": "nonpayable",
      "type": "function"
    },
    {
      "inputs": [
        {
          "internalType": "address",
          "name": "from",
          "type": "address"
        },
        {
          "internalType": "address",
          "name": "to",
          "type": "address"
        },
        {
          "internalType": "uint256",
          "name": "id",
          "type": "uint256"
        },
        {
          "internalType": "uint256",
          "name": "amount",
          "type": "uint256"
        },
        {
          "internalType": "bytes",
          "name": "data",
          "type": "bytes"
        }
      ],
      "name": "safeTransferFrom",
      "outputs": [],
      "stateMutability": "nonpayable",
      "type": "function"
    },
    {
      "inputs": [
        {
          "internalType": "address",
          "name": "operator",
          "type": "address"
        },
        {
          "internalType": "bool",
          "name": "approved",
          "type": "bool"
        }
      ],
      "name": "setApprovalForAll",
      "outputs": [],
      "stateMutability": "nonpayable",
      "type": "function"
    },
    {
      "inputs": [
        {
          "internalType": "string",
          "name": "baseUri",
          "type": "string"
        }
      ],
      "name": "setURI",
      "outputs": [],
      "stateMutability": "nonpayable",
      "type": "function"
    },
    {
      "inputs": [
        {
          "internalType": "bytes4",
          "name": "interfaceId",
          "type": "bytes4"
        }
      ],
      "name": "supportsInterface",
      "outputs": [
        {
          "internalType": "bool",
          "name": "",
          "type": "bool"
        }
      ],
      "stateMutability": "view",
      "type": "function"
    },
    {
      "inputs": [
        {
          "internalType": "uint256",
          "name": "id",
          "type": "uint256"
        }
      ],
      "name": "totalSupply",
      "outputs": [
        {
          "internalType": "uint256",
          "name": "",
          "type": "uint256"
        }
      ],
      "stateMutability": "view",
      "type": "function"
    },
    {
      "inputs": [
        {
          "internalType": "address",
          "name": "newOwner",
          "type": "address"
        }
      ],
      "name": "transferOwnership",
      "outputs": [],
      "stateMutability": "nonpayable",
      "type": "function"
    },
    {
      "inputs": [],
      "name": "unpause",
      "outputs": [],
      "stateMutability": "nonpayable",
      "type": "function"
    },
    {
      "inputs": [
        {
          "internalType": "uint256",
          "name": "token_id",
          "type": "uint256"
        }
      ],
      "name": "uri",
      "outputs": [
        {
          "internalType": "string",
          "name": "",
          "type": "string"
        }
      ],
      "stateMutability": "view",
      "type": "function"
    },
    {
      "inputs": [
        {
          "internalType": "address",
          "name": "",
          "type": "address"
        }
      ],
      "name": "whitelisted",
      "outputs": [
        {
          "internalType": "bool",
          "name": "",
          "type": "bool"
        }
      ],
      "stateMutability": "view",
      "type": "function"
    }
  ],
  "transactionHash": "0x72774a3ad019811acb76f33513e45c4ba202af79a47f5addc9ffadd450966700",
  "args": [],
  "numDeployments": 1,
  "solcInputHash": "f14540a069c5f08730b9bde39bd4bd73",
  "bytecode": "0x61010060405260556080818152906200291360a03980516200002a91600591602090910190620000dd565b503480156200003857600080fd5b50604080516020810190915260008152620000538162000072565b506200005f336200008b565b6003805460ff60a01b19169055620001c0565b805162000087906002906020840190620000dd565b5050565b600380546001600160a01b038381166001600160a01b0319831681179093556040519116919082907f8be0079c531659141344cd1fd0a4f28419497f9722a3daafe3b4186f6b6457e090600090a35050565b828054620000eb9062000183565b90600052602060002090601f0160209004810192826200010f57600085556200015a565b82601f106200012a57805160ff19168380011785556200015a565b828001600101855582156200015a579182015b828111156200015a5782518255916020019190600101906200013d565b50620001689291506200016c565b5090565b5b808211156200016857600081556001016200016d565b600181811c908216806200019857607f821691505b60208210811415620001ba57634e487b7160e01b600052602260045260246000fd5b50919050565b61274380620001d06000396000f3fe608060405234801561001057600080fd5b50600436106101725760003560e01c80635c975abb116100de578063bd85b03911610097578063e985e9c511610071578063e985e9c514610372578063f242432a146103ae578063f2fde38b146103c1578063f5298aca146103d457600080fd5b8063bd85b03914610301578063d936547e14610321578063dad69ebc1461034457600080fd5b80635c975abb1461029e5780636b20c454146102b0578063715018a6146102c35780638456cb59146102cb5780638da5cb5b146102d3578063a22cb465146102ee57600080fd5b80632b1b8f70116101305780632b1b8f701461021b5780632eb2c2d61461022e578063301a7dc7146102415780633f4ba83a146102545780634e1273f41461025c5780634f558e791461027c57600080fd5b8062fdd58e1461017757806301ffc9a71461019d57806302fe5305146101c05780630e89341c146101d557806310154bad146101f5578063291d954914610208575b600080fd5b61018a610185366004611add565b6103e7565b6040519081526020015b60405180910390f35b6101b06101ab366004611b1d565b61047d565b6040519015158152602001610194565b6101d36101ce366004611be0565b6104cf565b005b6101e86101e3366004611c30565b6104ee565b6040516101949190611ca1565b6101d3610203366004611cb4565b610522565b6101d3610216366004611cb4565b61054e565b6101d3610229366004611d83565b610577565b6101d361023c366004611e1b565b61073c565b6101d361024f366004611ec4565b610781565b6101d3610881565b61026f61026a366004611f18565b610893565b604051610194919061201d565b6101b061028a366004611c30565b600090815260046020526040902054151590565b600354600160a01b900460ff166101b0565b6101d36102be366004612030565b6109bc565b6101d3610a04565b6101d3610a16565b6003546040516001600160a01b039091168152602001610194565b6101d36102fc3660046120a3565b610a26565b61018a61030f366004611c30565b60009081526004602052604090205490565b6101b061032f366004611cb4565b60066020526000908152604090205460ff1681565b6101b06103523660046120df565b600760209081526000928352604080842090915290825290205460ff1681565b6101b061038036600461210b565b6001600160a01b03918216600090815260016020908152604080832093909416825291909152205460ff1690565b6101d36103bc366004612135565b610a31565b6101d36103cf366004611cb4565b610a76565b6101d36103e2366004612199565b610aef565b60006001600160a01b0383166104575760405162461bcd60e51b815260206004820152602a60248201527f455243313135353a2061646472657373207a65726f206973206e6f742061207660448201526930b634b21037bbb732b960b11b60648201526084015b60405180910390fd5b506000908152602081815260408083206001600160a01b03949094168352929052205490565b60006001600160e01b03198216636cdb3d1360e11b14806104ae57506001600160e01b031982166303a24d0760e21b145b806104c957506301ffc9a760e01b6001600160e01b03198316145b92915050565b6104d7610b32565b80516104ea906005906020840190611a28565b5050565b606060056104fb83610b8c565b60405160200161050c929190612223565b6040516020818303038152906040529050919050565b61052a610b32565b6001600160a01b03166000908152600660205260409020805460ff19166001179055565b610556610b32565b6001600160a01b03166000908152600660205260409020805460ff19169055565b3360009081526006602052604090205460ff168061059f57506003546001600160a01b031633145b6105bb5760405162461bcd60e51b815260040161044e906122de565b60005b83518110156107355761060d8482815181106105dc576105dc612330565b60209081029190910181015160009081526007825260408082206001600160a01b038a168352909252205460ff1690565b1561061757610723565b82818151811061062957610629612330565b602002602001015160011461067c5760405162461bcd60e51b81526020600482015260196024820152784865726f4e46543a20416d6f756e74206d757374206265203160381b604482015260640161044e565b6106ba8585838151811061069257610692612330565b60200260200101518584815181106106ac576106ac612330565b602002602001015185610c20565b6001600760008684815181106106d2576106d2612330565b602002602001015181526020019081526020016000206000876001600160a01b03166001600160a01b0316815260200190815260200160002060006101000a81548160ff0219169083151502179055505b8061072d8161235c565b9150506105be565b5050505050565b6001600160a01b03851633148061075857506107588533610380565b6107745760405162461bcd60e51b815260040161044e90612377565b6107358585858585610d43565b3360009081526006602052604090205460ff16806107a957506003546001600160a01b031633145b6107c55760405162461bcd60e51b815260040161044e906122de565b816001146108115760405162461bcd60e51b81526020600482015260196024820152784865726f4e46543a20416d6f756e74206d757374206265203160381b604482015260640161044e565b60008381526007602090815260408083206001600160a01b038816845290915290205460ff16156108415761087b565b61084d84848484610c20565b60008381526007602090815260408083206001600160a01b03881684529091529020805460ff191660011790555b50505050565b610889610b32565b610891610eed565b565b606081518351146108f85760405162461bcd60e51b815260206004820152602960248201527f455243313135353a206163636f756e747320616e6420696473206c656e677468604482015268040dad2e6dac2e8c6d60bb1b606482015260840161044e565b600083516001600160401b0381111561091357610913611b41565b60405190808252806020026020018201604052801561093c578160200160208202803683370190505b50905060005b84518110156109b45761098785828151811061096057610960612330565b602002602001015185838151811061097a5761097a612330565b60200260200101516103e7565b82828151811061099957610999612330565b60209081029190910101526109ad8161235c565b9050610942565b509392505050565b6001600160a01b0383163314806109d857506109d88333610380565b6109f45760405162461bcd60e51b815260040161044e90612377565b6109ff838383610f42565b505050565b610a0c610b32565b61089160006110de565b610a1e610b32565b610891611130565b6104ea338383611173565b6001600160a01b038516331480610a4d5750610a4d8533610380565b610a695760405162461bcd60e51b815260040161044e90612377565b6107358585858585611254565b610a7e610b32565b6001600160a01b038116610ae35760405162461bcd60e51b815260206004820152602660248201527f4f776e61626c653a206e6577206f776e657220697320746865207a65726f206160448201526564647265737360d01b606482015260840161044e565b610aec816110de565b50565b6001600160a01b038316331480610b0b5750610b0b8333610380565b610b275760405162461bcd60e51b815260040161044e90612377565b6109ff83838361138c565b6003546001600160a01b031633146108915760405162461bcd60e51b815260206004820181905260248201527f4f776e61626c653a2063616c6c6572206973206e6f7420746865206f776e6572604482015260640161044e565b60606000610b99836114a4565b60010190506000816001600160401b03811115610bb857610bb8611b41565b6040519080825280601f01601f191660200182016040528015610be2576020820181803683370190505b5090508181016020015b600019016f181899199a1a9b1b9c1cb0b131b232b360811b600a86061a8153600a8504945084610c1b576109b4565b610bec565b6001600160a01b038416610c805760405162461bcd60e51b815260206004820152602160248201527f455243313135353a206d696e7420746f20746865207a65726f206164647265736044820152607360f81b606482015260840161044e565b336000610c8c8561157c565b90506000610c998561157c565b9050610caa836000898585896115c7565b6000868152602081815260408083206001600160a01b038b16845290915281208054879290610cda9084906123c5565b909155505060408051878152602081018790526001600160a01b03808a1692600092918716917fc3d58168c5ae7397731d063d5bbf3d657854427343f4c083240f7aacaa2d0f62910160405180910390a4610d3a836000898989896115dd565b50505050505050565b8151835114610d645760405162461bcd60e51b815260040161044e906123dd565b6001600160a01b038416610d8a5760405162461bcd60e51b815260040161044e90612425565b33610d998187878787876115c7565b60005b8451811015610e7f576000858281518110610db957610db9612330565b602002602001015190506000858381518110610dd757610dd7612330565b602090810291909101810151600084815280835260408082206001600160a01b038e168352909352919091205490915081811015610e275760405162461bcd60e51b815260040161044e9061246a565b6000838152602081815260408083206001600160a01b038e8116855292528083208585039055908b16825281208054849290610e649084906123c5565b9250508190555050505080610e789061235c565b9050610d9c565b50846001600160a01b0316866001600160a01b0316826001600160a01b03167f4a39dc06d4c0dbc64b70af90fd698a233a518aa5d07e595d983b8c0526c8f7fb8787604051610ecf9291906124b4565b60405180910390a4610ee5818787878787611748565b505050505050565b610ef5611812565b6003805460ff60a01b191690557f5db9ee0a495bf2e6ff9c91a7834c1ba4fdd244a5e8aa4e537bd38aeae4b073aa335b6040516001600160a01b03909116815260200160405180910390a1565b6001600160a01b038316610f685760405162461bcd60e51b815260040161044e906124d9565b8051825114610f895760405162461bcd60e51b815260040161044e906123dd565b6000339050610fac818560008686604051806020016040528060008152506115c7565b60005b8351811015611071576000848281518110610fcc57610fcc612330565b602002602001015190506000848381518110610fea57610fea612330565b602090810291909101810151600084815280835260408082206001600160a01b038c16835290935291909120549091508181101561103a5760405162461bcd60e51b815260040161044e9061251c565b6000928352602083815260408085206001600160a01b038b16865290915290922091039055806110698161235c565b915050610faf565b5060006001600160a01b0316846001600160a01b0316826001600160a01b03167f4a39dc06d4c0dbc64b70af90fd698a233a518aa5d07e595d983b8c0526c8f7fb86866040516110c29291906124b4565b60405180910390a460408051602081019091526000905261087b565b600380546001600160a01b038381166001600160a01b0319831681179093556040519116919082907f8be0079c531659141344cd1fd0a4f28419497f9722a3daafe3b4186f6b6457e090600090a35050565b611138611862565b6003805460ff60a01b1916600160a01b1790557f62e78cea01bee320cd4e420270b5ea74000d11b0c9f74754ebdbfc544b05a258610f253390565b816001600160a01b0316836001600160a01b031614156111e75760405162461bcd60e51b815260206004820152602960248201527f455243313135353a2073657474696e6720617070726f76616c20737461747573604482015268103337b91039b2b63360b91b606482015260840161044e565b6001600160a01b03838116600081815260016020908152604080832094871680845294825291829020805460ff191686151590811790915591519182527f17307eab39ab6107e8899845ad3d59bd9653f200f220920489ca2b5937696c31910160405180910390a3505050565b6001600160a01b03841661127a5760405162461bcd60e51b815260040161044e90612425565b3360006112868561157c565b905060006112938561157c565b90506112a38389898585896115c7565b6000868152602081815260408083206001600160a01b038c168452909152902054858110156112e45760405162461bcd60e51b815260040161044e9061246a565b6000878152602081815260408083206001600160a01b038d8116855292528083208985039055908a168252812080548892906113219084906123c5565b909155505060408051888152602081018890526001600160a01b03808b16928c821692918816917fc3d58168c5ae7397731d063d5bbf3d657854427343f4c083240f7aacaa2d0f62910160405180910390a4611381848a8a8a8a8a6115dd565b505050505050505050565b6001600160a01b0383166113b25760405162461bcd60e51b815260040161044e906124d9565b3360006113be8461157c565b905060006113cb8461157c565b90506113eb838760008585604051806020016040528060008152506115c7565b6000858152602081815260408083206001600160a01b038a1684529091529020548481101561142c5760405162461bcd60e51b815260040161044e9061251c565b6000868152602081815260408083206001600160a01b038b81168086529184528285208a8703905582518b81529384018a90529092908816917fc3d58168c5ae7397731d063d5bbf3d657854427343f4c083240f7aacaa2d0f62910160405180910390a4604080516020810190915260009052610d3a565b60008072184f03e93ff9f4daa797ed6e38ed64bf6a1f0160401b83106114e35772184f03e93ff9f4daa797ed6e38ed64bf6a1f0160401b830492506040015b6d04ee2d6d415b85acef8100000000831061150f576d04ee2d6d415b85acef8100000000830492506020015b662386f26fc10000831061152d57662386f26fc10000830492506010015b6305f5e1008310611545576305f5e100830492506008015b612710831061155957612710830492506004015b6064831061156b576064830492506002015b600a83106104c95760010192915050565b604080516001808252818301909252606091600091906020808301908036833701905050905082816000815181106115b6576115b6612330565b602090810291909101015292915050565b6115cf611862565b610ee58686868686866118af565b6001600160a01b0384163b15610ee55760405163f23a6e6160e01b81526001600160a01b0385169063f23a6e61906116219089908990889088908890600401612560565b602060405180830381600087803b15801561163b57600080fd5b505af192505050801561166b575060408051601f3d908101601f19168201909252611668918101906125a5565b60015b611718576116776125c2565b806308c379a014156116b1575061168c6125de565b8061169757506116b3565b8060405162461bcd60e51b815260040161044e9190611ca1565b505b60405162461bcd60e51b815260206004820152603460248201527f455243313135353a207472616e7366657220746f206e6f6e2d455243313135356044820152732932b1b2b4bb32b91034b6b83632b6b2b73a32b960611b606482015260840161044e565b6001600160e01b0319811663f23a6e6160e01b14610d3a5760405162461bcd60e51b815260040161044e90612667565b6001600160a01b0384163b15610ee55760405163bc197c8160e01b81526001600160a01b0385169063bc197c819061178c90899089908890889088906004016126af565b602060405180830381600087803b1580156117a657600080fd5b505af19250505080156117d6575060408051601f3d908101601f191682019092526117d3918101906125a5565b60015b6117e2576116776125c2565b6001600160e01b0319811663bc197c8160e01b14610d3a5760405162461bcd60e51b815260040161044e90612667565b600354600160a01b900460ff166108915760405162461bcd60e51b815260206004820152601460248201527314185d5cd8589b194e881b9bdd081c185d5cd95960621b604482015260640161044e565b600354600160a01b900460ff16156108915760405162461bcd60e51b815260206004820152601060248201526f14185d5cd8589b194e881c185d5cd95960821b604482015260640161044e565b6001600160a01b0385166119365760005b8351811015611934578281815181106118db576118db612330565b6020026020010151600460008684815181106118f9576118f9612330565b60200260200101518152602001908152602001600020600082825461191e91906123c5565b9091555061192d90508161235c565b90506118c0565b505b6001600160a01b038416610ee55760005b8351811015610d3a57600084828151811061196457611964612330565b60200260200101519050600084838151811061198257611982612330565b6020026020010151905060006004600084815260200190815260200160002054905081811015611a055760405162461bcd60e51b815260206004820152602860248201527f455243313135353a206275726e20616d6f756e74206578636565647320746f74604482015267616c537570706c7960c01b606482015260840161044e565b60009283526004602052604090922091039055611a218161235c565b9050611947565b828054611a34906121cc565b90600052602060002090601f016020900481019282611a565760008555611a9c565b82601f10611a6f57805160ff1916838001178555611a9c565b82800160010185558215611a9c579182015b82811115611a9c578251825591602001919060010190611a81565b50611aa8929150611aac565b5090565b5b80821115611aa85760008155600101611aad565b80356001600160a01b0381168114611ad857600080fd5b919050565b60008060408385031215611af057600080fd5b611af983611ac1565b946020939093013593505050565b6001600160e01b031981168114610aec57600080fd5b600060208284031215611b2f57600080fd5b8135611b3a81611b07565b9392505050565b634e487b7160e01b600052604160045260246000fd5b601f8201601f191681016001600160401b0381118282101715611b7c57611b7c611b41565b6040525050565b60006001600160401b03831115611b9c57611b9c611b41565b604051611bb3601f8501601f191660200182611b57565b809150838152848484011115611bc857600080fd5b83836020830137600060208583010152509392505050565b600060208284031215611bf257600080fd5b81356001600160401b03811115611c0857600080fd5b8201601f81018413611c1957600080fd5b611c2884823560208401611b83565b949350505050565b600060208284031215611c4257600080fd5b5035919050565b60005b83811015611c64578181015183820152602001611c4c565b8381111561087b5750506000910152565b60008151808452611c8d816020860160208601611c49565b601f01601f19169290920160200192915050565b602081526000611b3a6020830184611c75565b600060208284031215611cc657600080fd5b611b3a82611ac1565b60006001600160401b03821115611ce857611ce8611b41565b5060051b60200190565b600082601f830112611d0357600080fd5b81356020611d1082611ccf565b604051611d1d8282611b57565b83815260059390931b8501820192828101915086841115611d3d57600080fd5b8286015b84811015611d585780358352918301918301611d41565b509695505050505050565b600082601f830112611d7457600080fd5b611b3a83833560208501611b83565b60008060008060808587031215611d9957600080fd5b611da285611ac1565b935060208501356001600160401b0380821115611dbe57600080fd5b611dca88838901611cf2565b94506040870135915080821115611de057600080fd5b611dec88838901611cf2565b93506060870135915080821115611e0257600080fd5b50611e0f87828801611d63565b91505092959194509250565b600080600080600060a08688031215611e3357600080fd5b611e3c86611ac1565b9450611e4a60208701611ac1565b935060408601356001600160401b0380821115611e6657600080fd5b611e7289838a01611cf2565b94506060880135915080821115611e8857600080fd5b611e9489838a01611cf2565b93506080880135915080821115611eaa57600080fd5b50611eb788828901611d63565b9150509295509295909350565b60008060008060808587031215611eda57600080fd5b611ee385611ac1565b9350602085013592506040850135915060608501356001600160401b03811115611f0c57600080fd5b611e0f87828801611d63565b60008060408385031215611f2b57600080fd5b82356001600160401b0380821115611f4257600080fd5b818501915085601f830112611f5657600080fd5b81356020611f6382611ccf565b604051611f708282611b57565b83815260059390931b8501820192828101915089841115611f9057600080fd5b948201945b83861015611fb557611fa686611ac1565b82529482019490820190611f95565b96505086013592505080821115611fcb57600080fd5b50611fd885828601611cf2565b9150509250929050565b600081518084526020808501945080840160005b8381101561201257815187529582019590820190600101611ff6565b509495945050505050565b602081526000611b3a6020830184611fe2565b60008060006060848603121561204557600080fd5b61204e84611ac1565b925060208401356001600160401b038082111561206a57600080fd5b61207687838801611cf2565b9350604086013591508082111561208c57600080fd5b5061209986828701611cf2565b9150509250925092565b600080604083850312156120b657600080fd5b6120bf83611ac1565b9150602083013580151581146120d457600080fd5b809150509250929050565b600080604083850312156120f257600080fd5b8235915061210260208401611ac1565b90509250929050565b6000806040838503121561211e57600080fd5b61212783611ac1565b915061210260208401611ac1565b600080600080600060a0868803121561214d57600080fd5b61215686611ac1565b945061216460208701611ac1565b9350604086013592506060860135915060808601356001600160401b0381111561218d57600080fd5b611eb788828901611d63565b6000806000606084860312156121ae57600080fd5b6121b784611ac1565b95602085013595506040909401359392505050565b600181811c908216806121e057607f821691505b6020821081141561220157634e487b7160e01b600052602260045260246000fd5b50919050565b60008151612219818560208601611c49565b9290920192915050565b600080845481600182811c91508083168061223f57607f831692505b602080841082141561225f57634e487b7160e01b86526022600452602486fd5b8180156122735760018114612284576122b1565b60ff198616895284890196506122b1565b60008b81526020902060005b868110156122a95781548b820152908501908301612290565b505084890196505b5050505050506122d56122c48286612207565b64173539b7b760d91b815260050190565b95945050505050565b60208082526032908201527f43616c6c6572206973206e6f7420616e2077686974656c6973746564206164646040820152713932b9b9903737b9103a34329037bbb732b960711b606082015260800190565b634e487b7160e01b600052603260045260246000fd5b634e487b7160e01b600052601160045260246000fd5b600060001982141561237057612370612346565b5060010190565b6020808252602e908201527f455243313135353a2063616c6c6572206973206e6f7420746f6b656e206f776e60408201526d195c881bdc88185c1c1c9bdd995960921b606082015260800190565b600082198211156123d8576123d8612346565b500190565b60208082526028908201527f455243313135353a2069647320616e6420616d6f756e7473206c656e677468206040820152670dad2e6dac2e8c6d60c31b606082015260800190565b60208082526025908201527f455243313135353a207472616e7366657220746f20746865207a65726f206164604082015264647265737360d81b606082015260800190565b6020808252602a908201527f455243313135353a20696e73756666696369656e742062616c616e636520666f60408201526939103a3930b739b332b960b11b606082015260800190565b6040815260006124c76040830185611fe2565b82810360208401526122d58185611fe2565b60208082526023908201527f455243313135353a206275726e2066726f6d20746865207a65726f206164647260408201526265737360e81b606082015260800190565b60208082526024908201527f455243313135353a206275726e20616d6f756e7420657863656564732062616c604082015263616e636560e01b606082015260800190565b6001600160a01b03868116825285166020820152604081018490526060810183905260a06080820181905260009061259a90830184611c75565b979650505050505050565b6000602082840312156125b757600080fd5b8151611b3a81611b07565b600060033d11156125db5760046000803e5060005160e01c5b90565b600060443d10156125ec5790565b6040516003193d81016004833e81513d6001600160401b03816024840111818411171561261b57505050505090565b82850191508151818111156126335750505050505090565b843d870101602082850101111561264d5750505050505090565b61265c60208286010187611b57565b509095945050505050565b60208082526028908201527f455243313135353a204552433131353552656365697665722072656a656374656040820152676420746f6b656e7360c01b606082015260800190565b6001600160a01b0386811682528516602082015260a0604082018190526000906126db90830186611fe2565b82810360608401526126ed8186611fe2565b905082810360808401526127018185611c75565b9897505050505050505056fea26469706673582212200622aa39738986b0c7ae8f9aa9be5dcc3794b41411ef935f8bbef6172b04fa7c64736f6c6343000809003368747470733a2f2f73747870696c6f74362e6d7970696e6174612e636c6f75642f697066732f516d56714d34636f7551663832696f7a363877597551456f7843443533554c3877666f59574375723734434d41742f",
  "devdoc": {
    "kind": "dev",
    "methods": {
      "balanceOf(address,uint256)": {
        "details": "See {IERC1155-balanceOf}. Requirements: - `account` cannot be the zero address."
      },
      "balanceOfBatch(address[],uint256[])": {
        "details": "See {IERC1155-balanceOfBatch}. Requirements: - `accounts` and `ids` must have the same length."
      },
      "exists(uint256)": {
        "details": "Indicates whether any token exist with a given id, or not."
      },
      "isApprovedForAll(address,address)": {
        "details": "See {IERC1155-isApprovedForAll}."
      },
      "owner()": {
        "details": "Returns the address of the current owner."
      },
      "paused()": {
        "details": "Returns true if the contract is paused, and false otherwise."
      },
      "renounceOwnership()": {
        "details": "Leaves the contract without owner. It will not be possible to call `onlyOwner` functions. Can only be called by the current owner. NOTE: Renouncing ownership will leave the contract without an owner, thereby disabling any functionality that is only available to the owner."
      },
      "safeBatchTransferFrom(address,address,uint256[],uint256[],bytes)": {
        "details": "See {IERC1155-safeBatchTransferFrom}."
      },
      "safeTransferFrom(address,address,uint256,uint256,bytes)": {
        "details": "See {IERC1155-safeTransferFrom}."
      },
      "setApprovalForAll(address,bool)": {
        "details": "See {IERC1155-setApprovalForAll}."
      },
      "supportsInterface(bytes4)": {
        "details": "See {IERC165-supportsInterface}."
      },
      "totalSupply(uint256)": {
        "details": "Total amount of tokens in with a given id."
      },
      "transferOwnership(address)": {
        "details": "Transfers ownership of the contract to a new account (`newOwner`). Can only be called by the current owner."
      }
    },
    "version": 1
  },
  "userdoc": {
    "kind": "user",
    "methods": {},
    "version": 1
  },
  "storageLayout": {
    "storage": [
      {
        "astId": 246,
        "contract": "contracts/HeroNFT.sol:HeroNFT",
        "label": "_balances",
        "offset": 0,
        "slot": "0",
        "type": "t_mapping(t_uint256,t_mapping(t_address,t_uint256))"
      },
      {
        "astId": 252,
        "contract": "contracts/HeroNFT.sol:HeroNFT",
        "label": "_operatorApprovals",
        "offset": 0,
        "slot": "1",
        "type": "t_mapping(t_address,t_mapping(t_address,t_bool))"
      },
      {
        "astId": 254,
        "contract": "contracts/HeroNFT.sol:HeroNFT",
        "label": "_uri",
        "offset": 0,
        "slot": "2",
        "type": "t_string_storage"
      },
      {
        "astId": 7,
        "contract": "contracts/HeroNFT.sol:HeroNFT",
        "label": "_owner",
        "offset": 0,
        "slot": "3",
        "type": "t_address"
      },
      {
        "astId": 130,
        "contract": "contracts/HeroNFT.sol:HeroNFT",
        "label": "_paused",
        "offset": 20,
        "slot": "3",
        "type": "t_bool"
      },
      {
        "astId": 1685,
        "contract": "contracts/HeroNFT.sol:HeroNFT",
        "label": "_totalSupply",
        "offset": 0,
        "slot": "4",
        "type": "t_mapping(t_uint256,t_uint256)"
      },
      {
        "astId": 3463,
        "contract": "contracts/HeroNFT.sol:HeroNFT",
        "label": "baseURI",
        "offset": 0,
        "slot": "5",
        "type": "t_string_storage"
      },
      {
        "astId": 3467,
        "contract": "contracts/HeroNFT.sol:HeroNFT",
        "label": "whitelisted",
        "offset": 0,
        "slot": "6",
        "type": "t_mapping(t_address,t_bool)"
      },
      {
        "astId": 3473,
        "contract": "contracts/HeroNFT.sol:HeroNFT",
        "label": "ownersMap",
        "offset": 0,
        "slot": "7",
        "type": "t_mapping(t_uint256,t_mapping(t_address,t_bool))"
      }
    ],
    "types": {
      "t_address": {
        "encoding": "inplace",
        "label": "address",
        "numberOfBytes": "20"
      },
      "t_bool": {
        "encoding": "inplace",
        "label": "bool",
        "numberOfBytes": "1"
      },
      "t_mapping(t_address,t_bool)": {
        "encoding": "mapping",
        "key": "t_address",
        "label": "mapping(address => bool)",
        "numberOfBytes": "32",
        "value": "t_bool"
      },
      "t_mapping(t_address,t_mapping(t_address,t_bool))": {
        "encoding": "mapping",
        "key": "t_address",
        "label": "mapping(address => mapping(address => bool))",
        "numberOfBytes": "32",
        "value": "t_mapping(t_address,t_bool)"
      },
      "t_mapping(t_address,t_uint256)": {
        "encoding": "mapping",
        "key": "t_address",
        "label": "mapping(address => uint256)",
        "numberOfBytes": "32",
        "value": "t_uint256"
      },
      "t_mapping(t_uint256,t_mapping(t_address,t_bool))": {
        "encoding": "mapping",
        "key": "t_uint256",
        "label": "mapping(uint256 => mapping(address => bool))",
        "numberOfBytes": "32",
        "value": "t_mapping(t_address,t_bool)"
      },
      "t_mapping(t_uint256,t_mapping(t_address,t_uint256))": {
        "encoding": "mapping",
        "key": "t_uint256",
        "label": "mapping(uint256 => mapping(address => uint256))",
        "numberOfBytes": "32",
        "value": "t_mapping(t_address,t_uint256)"
      },
      "t_mapping(t_uint256,t_uint256)": {
        "encoding": "mapping",
        "key": "t_uint256",
        "label": "mapping(uint256 => uint256)",
        "numberOfBytes": "32",
        "value": "t_uint256"
      },
      "t_string_storage": {
        "encoding": "bytes",
        "label": "string",
        "numberOfBytes": "32"
      },
      "t_uint256": {
        "encoding": "inplace",
        "label": "uint256",
        "numberOfBytes": "32"
      }
    }
  }
}