{
  "address": "0x773135F3B394F6334b35CD84003267F48eDB6547",
  "abi": [
    {
      "inputs": [],
      "stateMutability": "nonpayable",
      "type": "constructor"
    },
    {
      "anonymous": false,
      "inputs": [
        {
          "indexed": true,
          "internalType": "address",
          "name": "account",
          "type": "address"
        },
        {
          "indexed": true,
          "internalType": "address",
          "name": "operator",
          "type": "address"
        },
        {
          "indexed": false,
          "internalType": "bool",
          "name": "approved",
          "type": "bool"
        }
      ],
      "name": "ApprovalForAll",
      "type": "event"
    },
    {
      "anonymous": false,
      "inputs": [
        {
          "indexed": true,
          "internalType": "address",
          "name": "previousOwner",
          "type": "address"
        },
        {
          "indexed": true,
          "internalType": "address",
          "name": "newOwner",
          "type": "address"
        }
      ],
      "name": "OwnershipTransferred",
      "type": "event"
    },
    {
      "anonymous": false,
      "inputs": [
        {
          "indexed": false,
          "internalType": "address",
          "name": "account",
          "type": "address"
        }
      ],
      "name": "Paused",
      "type": "event"
    },
    {
      "anonymous": false,
      "inputs": [
        {
          "indexed": true,
          "internalType": "address",
          "name": "operator",
          "type": "address"
        },
        {
          "indexed": true,
          "internalType": "address",
          "name": "from",
          "type": "address"
        },
        {
          "indexed": true,
          "internalType": "address",
          "name": "to",
          "type": "address"
        },
        {
          "indexed": false,
          "internalType": "uint256[]",
          "name": "ids",
          "type": "uint256[]"
        },
        {
          "indexed": false,
          "internalType": "uint256[]",
          "name": "values",
          "type": "uint256[]"
        }
      ],
      "name": "TransferBatch",
      "type": "event"
    },
    {
      "anonymous": false,
      "inputs": [
        {
          "indexed": true,
          "internalType": "address",
          "name": "operator",
          "type": "address"
        },
        {
          "indexed": true,
          "internalType": "address",
          "name": "from",
          "type": "address"
        },
        {
          "indexed": true,
          "internalType": "address",
          "name": "to",
          "type": "address"
        },
        {
          "indexed": false,
          "internalType": "uint256",
          "name": "id",
          "type": "uint256"
        },
        {
          "indexed": false,
          "internalType": "uint256",
          "name": "value",
          "type": "uint256"
        }
      ],
      "name": "TransferSingle",
      "type": "event"
    },
    {
      "anonymous": false,
      "inputs": [
        {
          "indexed": false,
          "internalType": "string",
          "name": "value",
          "type": "string"
        },
        {
          "indexed": true,
          "internalType": "uint256",
          "name": "id",
          "type": "uint256"
        }
      ],
      "name": "URI",
      "type": "event"
    },
    {
      "anonymous": false,
      "inputs": [
        {
          "indexed": false,
          "internalType": "address",
          "name": "account",
          "type": "address"
        }
      ],
      "name": "Unpaused",
      "type": "event"
    },
    {
      "inputs": [
        {
          "internalType": "address",
          "name": "_whitelistAddress",
          "type": "address"
        }
      ],
      "name": "addWhitelisted",
      "outputs": [],
      "stateMutability": "nonpayable",
      "type": "function"
    },
    {
      "inputs": [
        {
          "internalType": "address",
          "name": "account",
          "type": "address"
        },
        {
          "internalType": "uint256",
          "name": "id",
          "type": "uint256"
        }
      ],
      "name": "balanceOf",
      "outputs": [
        {
          "internalType": "uint256",
          "name": "",
          "type": "uint256"
        }
      ],
      "stateMutability": "view",
      "type": "function"
    },
    {
      "inputs": [
        {
          "internalType": "address[]",
          "name": "accounts",
          "type": "address[]"
        },
        {
          "internalType": "uint256[]",
          "name": "ids",
          "type": "uint256[]"
        }
      ],
      "name": "balanceOfBatch",
      "outputs": [
        {
          "internalType": "uint256[]",
          "name": "",
          "type": "uint256[]"
        }
      ],
      "stateMutability": "view",
      "type": "function"
    },
    {
      "inputs": [
        {
          "internalType": "address",
          "name": "account",
          "type": "address"
        },
        {
          "internalType": "uint256",
          "name": "id",
          "type": "uint256"
        },
        {
          "internalType": "uint256",
          "name": "value",
          "type": "uint256"
        }
      ],
      "name": "burn",
      "outputs": [],
      "stateMutability": "nonpayable",
      "type": "function"
    },
    {
      "inputs": [
        {
          "internalType": "address",
          "name": "account",
          "type": "address"
        },
        {
          "internalType": "uint256[]",
          "name": "ids",
          "type": "uint256[]"
        },
        {
          "internalType": "uint256[]",
          "name": "values",
          "type": "uint256[]"
        }
      ],
      "name": "burnBatch",
      "outputs": [],
      "stateMutability": "nonpayable",
      "type": "function"
    },
    {
      "inputs": [
        {
          "internalType": "uint256",
          "name": "id",
          "type": "uint256"
        }
      ],
      "name": "exists",
      "outputs": [
        {
          "internalType": "bool",
          "name": "",
          "type": "bool"
        }
      ],
      "stateMutability": "view",
      "type": "function"
    },
    {
      "inputs": [
        {
          "internalType": "address",
          "name": "account",
          "type": "address"
        },
        {
          "internalType": "address",
          "name": "operator",
          "type": "address"
        }
      ],
      "name": "isApprovedForAll",
      "outputs": [
        {
          "internalType": "bool",
          "name": "",
          "type": "bool"
        }
      ],
      "stateMutability": "view",
      "type": "function"
    },
    {
      "inputs": [
        {
          "internalType": "address",
          "name": "account",
          "type": "address"
        },
        {
          "internalType": "uint256",
          "name": "id",
          "type": "uint256"
        },
        {
          "internalType": "uint256",
          "name": "amount",
          "type": "uint256"
        },
        {
          "internalType": "bytes",
          "name": "data",
          "type": "bytes"
        }
      ],
      "name": "mint",
      "outputs": [],
      "stateMutability": "nonpayable",
      "type": "function"
    },
    {
      "inputs": [
        {
          "internalType": "address",
          "name": "to",
          "type": "address"
        },
        {
          "internalType": "uint256[]",
          "name": "ids",
          "type": "uint256[]"
        },
        {
          "internalType": "uint256[]",
          "name": "amounts",
          "type": "uint256[]"
        },
        {
          "internalType": "bytes",
          "name": "data",
          "type": "bytes"
        }
      ],
      "name": "mintBatch",
      "outputs": [],
      "stateMutability": "nonpayable",
      "type": "function"
    },
    {
      "inputs": [],
      "name": "owner",
      "outputs": [
        {
          "internalType": "address",
          "name": "",
          "type": "address"
        }
      ],
      "stateMutability": "view",
      "type": "function"
    },
    {
      "inputs": [],
      "name": "pause",
      "outputs": [],
      "stateMutability": "nonpayable",
      "type": "function"
    },
    {
      "inputs": [],
      "name": "paused",
      "outputs": [
        {
          "internalType": "bool",
          "name": "",
          "type": "bool"
        }
      ],
      "stateMutability": "view",
      "type": "function"
    },
    {
      "inputs": [
        {
          "internalType": "address",
          "name": "_whitelistAddress",
          "type": "address"
        }
      ],
      "name": "removeWhitelisted",
      "outputs": [],
      "stateMutability": "nonpayable",
      "type": "function"
    },
    {
      "inputs": [],
      "name": "renounceOwnership",
      "outputs": [],
      "stateMutability": "nonpayable",
      "type": "function"
    },
    {
      "inputs": [
        {
          "internalType": "address",
          "name": "from",
          "type": "address"
        },
        {
          "internalType": "address",
          "name": "to",
          "type": "address"
        },
        {
          "internalType": "uint256[]",
          "name": "ids",
          "type": "uint256[]"
        },
        {
          "internalType": "uint256[]",
          "name": "amounts",
          "type": "uint256[]"
        },
        {
          "internalType": "bytes",
          "name": "data",
          "type": "bytes"
        }
      ],
      "name": "safeBatchTransferFrom",
      "outputs": [],
      "stateMutability": "nonpayable",
      "type": "function"
    },
    {
      "inputs": [
        {
          "internalType": "address",
          "name": "from",
          "type": "address"
        },
        {
          "internalType": "address",
          "name": "to",
          "type": "address"
        },
        {
          "internalType": "uint256",
          "name": "id",
          "type": "uint256"
        },
        {
          "internalType": "uint256",
          "name": "amount",
          "type": "uint256"
        },
        {
          "internalType": "bytes",
          "name": "data",
          "type": "bytes"
        }
      ],
      "name": "safeTransferFrom",
      "outputs": [],
      "stateMutability": "nonpayable",
      "type": "function"
    },
    {
      "inputs": [
        {
          "internalType": "address",
          "name": "operator",
          "type": "address"
        },
        {
          "internalType": "bool",
          "name": "approved",
          "type": "bool"
        }
      ],
      "name": "setApprovalForAll",
      "outputs": [],
      "stateMutability": "nonpayable",
      "type": "function"
    },
    {
      "inputs": [
        {
          "internalType": "string",
          "name": "baseUri",
          "type": "string"
        }
      ],
      "name": "setURI",
      "outputs": [],
      "stateMutability": "nonpayable",
      "type": "function"
    },
    {
      "inputs": [
        {
          "internalType": "bytes4",
          "name": "interfaceId",
          "type": "bytes4"
        }
      ],
      "name": "supportsInterface",
      "outputs": [
        {
          "internalType": "bool",
          "name": "",
          "type": "bool"
        }
      ],
      "stateMutability": "view",
      "type": "function"
    },
    {
      "inputs": [
        {
          "internalType": "uint256",
          "name": "id",
          "type": "uint256"
        }
      ],
      "name": "totalSupply",
      "outputs": [
        {
          "internalType": "uint256",
          "name": "",
          "type": "uint256"
        }
      ],
      "stateMutability": "view",
      "type": "function"
    },
    {
      "inputs": [
        {
          "internalType": "address",
          "name": "newOwner",
          "type": "address"
        }
      ],
      "name": "transferOwnership",
      "outputs": [],
      "stateMutability": "nonpayable",
      "type": "function"
    },
    {
      "inputs": [],
      "name": "unpause",
      "outputs": [],
      "stateMutability": "nonpayable",
      "type": "function"
    },
    {
      "inputs": [
        {
          "internalType": "uint256",
          "name": "token_id",
          "type": "uint256"
        }
      ],
      "name": "uri",
      "outputs": [
        {
          "internalType": "string",
          "name": "",
          "type": "string"
        }
      ],
      "stateMutability": "view",
      "type": "function"
    },
    {
      "inputs": [
        {
          "internalType": "address",
          "name": "",
          "type": "address"
        }
      ],
      "name": "whitelisted",
      "outputs": [
        {
          "internalType": "bool",
          "name": "",
          "type": "bool"
        }
      ],
      "stateMutability": "view",
      "type": "function"
    }
  ],
  "transactionHash": "0x6c77af98980a13c38a36a5e3c11a71d6081100a4b8ea5d7d2a15c561338ca81a",
  "args": [],
  "numDeployments": 1,
  "solcInputHash": "c11e015573c87218a9f799daf1f48f58",
  "bytecode": "0x61010060405260436080818152906200296560a03980516200002a91600591602090910190620000dd565b503480156200003857600080fd5b50604080516020810190915260008152620000538162000072565b506200005f336200008b565b6003805460ff60a01b19169055620001c0565b805162000087906002906020840190620000dd565b5050565b600380546001600160a01b038381166001600160a01b0319831681179093556040519116919082907f8be0079c531659141344cd1fd0a4f28419497f9722a3daafe3b4186f6b6457e090600090a35050565b828054620000eb9062000183565b90600052602060002090601f0160209004810192826200010f57600085556200015a565b82601f106200012a57805160ff19168380011785556200015a565b828001600101855582156200015a579182015b828111156200015a5782518255916020019190600101906200013d565b50620001689291506200016c565b5090565b5b808211156200016857600081556001016200016d565b600181811c908216806200019857607f821691505b60208210811415620001ba57634e487b7160e01b600052602260045260246000fd5b50919050565b61279580620001d06000396000f3fe608060405234801561001057600080fd5b50600436106101575760003560e01c80636b20c454116100c3578063bd85b0391161007c578063bd85b039146102e6578063d936547e14610306578063e985e9c514610329578063f242432a14610365578063f2fde38b14610378578063f5298aca1461038b57600080fd5b80636b20c45414610282578063715018a614610295578063731133e91461029d5780638456cb59146102b05780638da5cb5b146102b8578063a22cb465146102d357600080fd5b8063291d954911610115578063291d9549146102005780632eb2c2d6146102135780633f4ba83a146102265780634e1273f41461022e5780634f558e791461024e5780635c975abb1461027057600080fd5b8062fdd58e1461015c57806301ffc9a71461018257806302fe5305146101a55780630e89341c146101ba57806310154bad146101da5780631f7fdffa146101ed575b600080fd5b61016f61016a366004611ac6565b61039e565b6040519081526020015b60405180910390f35b610195610190366004611b06565b610434565b6040519015158152602001610179565b6101b86101b3366004611bc9565b610486565b005b6101cd6101c8366004611c19565b6104a5565b6040516101799190611c8a565b6101b86101e8366004611c9d565b6104d9565b6101b86101fb366004611d6c565b610505565b6101b861020e366004611c9d565b61061f565b6101b8610221366004611e04565b610648565b6101b8610694565b61024161023c366004611ead565b6106a6565b6040516101799190611fb2565b61019561025c366004611c19565b600090815260046020526040902054151590565b600354600160a01b900460ff16610195565b6101b8610290366004611fc5565b6107c2565b6101b861080a565b6101b86102ab366004612038565b61081c565b6101b86108df565b6003546040516001600160a01b039091168152602001610179565b6101b86102e136600461208c565b6108ef565b61016f6102f4366004611c19565b60009081526004602052604090205490565b610195610314366004611c9d565b60066020526000908152604090205460ff1681565b6101956103373660046120c8565b6001600160a01b03918216600090815260016020908152604080832093909416825291909152205460ff1690565b6101b86103733660046120fb565b6108fa565b6101b8610386366004611c9d565b61093f565b6101b861039936600461215f565b6109b8565b60006001600160a01b03831661040e5760405162461bcd60e51b815260206004820152602a60248201527f455243313135353a2061646472657373207a65726f206973206e6f742061207660448201526930b634b21037bbb732b960b11b60648201526084015b60405180910390fd5b506000908152602081815260408083206001600160a01b03949094168352929052205490565b60006001600160e01b03198216636cdb3d1360e11b148061046557506001600160e01b031982166303a24d0760e21b145b8061048057506301ffc9a760e01b6001600160e01b03198316145b92915050565b61048e6109fb565b80516104a1906005906020840190611a11565b5050565b606060056104b283610a55565b6040516020016104c39291906121e9565b6040516020818303038152906040529050919050565b6104e16109fb565b6001600160a01b03166000908152600660205260409020805460ff19166001179055565b3360009081526006602052604090205460ff168061052d57506003546001600160a01b031633145b6105495760405162461bcd60e51b8152600401610405906122a4565b60005b835181101561060c57828181518110610567576105676122f6565b60200260200101516001146105ba5760405162461bcd60e51b81526020600482015260196024820152784865726f4e46543a20416d6f756e74206d757374206265203160381b6044820152606401610405565b6105dd858583815181106105d0576105d06122f6565b602002602001015161039e565b156105fa5760405162461bcd60e51b81526004016104059061230c565b806106048161236d565b91505061054c565b5061061984848484610ae9565b50505050565b6106276109fb565b6001600160a01b03166000908152600660205260409020805460ff19169055565b6001600160a01b03851633148061066457506106648533610337565b6106805760405162461bcd60e51b815260040161040590612388565b61068d8585858585610c43565b5050505050565b61069c6109fb565b6106a4610ded565b565b6060815183511461070b5760405162461bcd60e51b815260206004820152602960248201527f455243313135353a206163636f756e747320616e6420696473206c656e677468604482015268040dad2e6dac2e8c6d60bb1b6064820152608401610405565b600083516001600160401b0381111561072657610726611b2a565b60405190808252806020026020018201604052801561074f578160200160208202803683370190505b50905060005b84518110156107ba5761078d858281518110610773576107736122f6565b60200260200101518583815181106105d0576105d06122f6565b82828151811061079f5761079f6122f6565b60209081029190910101526107b38161236d565b9050610755565b509392505050565b6001600160a01b0383163314806107de57506107de8333610337565b6107fa5760405162461bcd60e51b815260040161040590612388565b610805838383610e42565b505050565b6108126109fb565b6106a46000610fde565b3360009081526006602052604090205460ff168061084457506003546001600160a01b031633145b6108605760405162461bcd60e51b8152600401610405906122a4565b816001146108ac5760405162461bcd60e51b81526020600482015260196024820152784865726f4e46543a20416d6f756e74206d757374206265203160381b6044820152606401610405565b6108b6848461039e565b156108d35760405162461bcd60e51b81526004016104059061230c565b61061984848484611030565b6108e76109fb565b6106a4611119565b6104a133838361115c565b6001600160a01b03851633148061091657506109168533610337565b6109325760405162461bcd60e51b815260040161040590612388565b61068d858585858561123d565b6109476109fb565b6001600160a01b0381166109ac5760405162461bcd60e51b815260206004820152602660248201527f4f776e61626c653a206e6577206f776e657220697320746865207a65726f206160448201526564647265737360d01b6064820152608401610405565b6109b581610fde565b50565b6001600160a01b0383163314806109d457506109d48333610337565b6109f05760405162461bcd60e51b815260040161040590612388565b610805838383611375565b6003546001600160a01b031633146106a45760405162461bcd60e51b815260206004820181905260248201527f4f776e61626c653a2063616c6c6572206973206e6f7420746865206f776e65726044820152606401610405565b60606000610a628361148d565b60010190506000816001600160401b03811115610a8157610a81611b2a565b6040519080825280601f01601f191660200182016040528015610aab576020820181803683370190505b5090508181016020015b600019016f181899199a1a9b1b9c1cb0b131b232b360811b600a86061a8153600a8504945084610ae4576107ba565b610ab5565b6001600160a01b038416610b0f5760405162461bcd60e51b8152600401610405906123d6565b8151835114610b305760405162461bcd60e51b815260040161040590612417565b33610b4081600087878787611565565b60005b8451811015610bdb57838181518110610b5e57610b5e6122f6565b6020026020010151600080878481518110610b7b57610b7b6122f6565b602002602001015181526020019081526020016000206000886001600160a01b03166001600160a01b031681526020019081526020016000206000828254610bc3919061245f565b90915550819050610bd38161236d565b915050610b43565b50846001600160a01b031660006001600160a01b0316826001600160a01b03167f4a39dc06d4c0dbc64b70af90fd698a233a518aa5d07e595d983b8c0526c8f7fb8787604051610c2c929190612477565b60405180910390a461068d8160008787878761157b565b8151835114610c645760405162461bcd60e51b815260040161040590612417565b6001600160a01b038416610c8a5760405162461bcd60e51b81526004016104059061249c565b33610c99818787878787611565565b60005b8451811015610d7f576000858281518110610cb957610cb96122f6565b602002602001015190506000858381518110610cd757610cd76122f6565b602090810291909101810151600084815280835260408082206001600160a01b038e168352909352919091205490915081811015610d275760405162461bcd60e51b8152600401610405906124e1565b6000838152602081815260408083206001600160a01b038e8116855292528083208585039055908b16825281208054849290610d6490849061245f565b9250508190555050505080610d789061236d565b9050610c9c565b50846001600160a01b0316866001600160a01b0316826001600160a01b03167f4a39dc06d4c0dbc64b70af90fd698a233a518aa5d07e595d983b8c0526c8f7fb8787604051610dcf929190612477565b60405180910390a4610de581878787878761157b565b505050505050565b610df56116e6565b6003805460ff60a01b191690557f5db9ee0a495bf2e6ff9c91a7834c1ba4fdd244a5e8aa4e537bd38aeae4b073aa335b6040516001600160a01b03909116815260200160405180910390a1565b6001600160a01b038316610e685760405162461bcd60e51b81526004016104059061252b565b8051825114610e895760405162461bcd60e51b815260040161040590612417565b6000339050610eac81856000868660405180602001604052806000815250611565565b60005b8351811015610f71576000848281518110610ecc57610ecc6122f6565b602002602001015190506000848381518110610eea57610eea6122f6565b602090810291909101810151600084815280835260408082206001600160a01b038c168352909352919091205490915081811015610f3a5760405162461bcd60e51b81526004016104059061256e565b6000928352602083815260408085206001600160a01b038b1686529091529092209103905580610f698161236d565b915050610eaf565b5060006001600160a01b0316846001600160a01b0316826001600160a01b03167f4a39dc06d4c0dbc64b70af90fd698a233a518aa5d07e595d983b8c0526c8f7fb8686604051610fc2929190612477565b60405180910390a4604080516020810190915260009052610619565b600380546001600160a01b038381166001600160a01b0319831681179093556040519116919082907f8be0079c531659141344cd1fd0a4f28419497f9722a3daafe3b4186f6b6457e090600090a35050565b6001600160a01b0384166110565760405162461bcd60e51b8152600401610405906123d6565b33600061106285611736565b9050600061106f85611736565b905061108083600089858589611565565b6000868152602081815260408083206001600160a01b038b168452909152812080548792906110b090849061245f565b909155505060408051878152602081018790526001600160a01b03808a1692600092918716917fc3d58168c5ae7397731d063d5bbf3d657854427343f4c083240f7aacaa2d0f62910160405180910390a461111083600089898989611781565b50505050505050565b61112161184b565b6003805460ff60a01b1916600160a01b1790557f62e78cea01bee320cd4e420270b5ea74000d11b0c9f74754ebdbfc544b05a258610e253390565b816001600160a01b0316836001600160a01b031614156111d05760405162461bcd60e51b815260206004820152602960248201527f455243313135353a2073657474696e6720617070726f76616c20737461747573604482015268103337b91039b2b63360b91b6064820152608401610405565b6001600160a01b03838116600081815260016020908152604080832094871680845294825291829020805460ff191686151590811790915591519182527f17307eab39ab6107e8899845ad3d59bd9653f200f220920489ca2b5937696c31910160405180910390a3505050565b6001600160a01b0384166112635760405162461bcd60e51b81526004016104059061249c565b33600061126f85611736565b9050600061127c85611736565b905061128c838989858589611565565b6000868152602081815260408083206001600160a01b038c168452909152902054858110156112cd5760405162461bcd60e51b8152600401610405906124e1565b6000878152602081815260408083206001600160a01b038d8116855292528083208985039055908a1682528120805488929061130a90849061245f565b909155505060408051888152602081018890526001600160a01b03808b16928c821692918816917fc3d58168c5ae7397731d063d5bbf3d657854427343f4c083240f7aacaa2d0f62910160405180910390a461136a848a8a8a8a8a611781565b505050505050505050565b6001600160a01b03831661139b5760405162461bcd60e51b81526004016104059061252b565b3360006113a784611736565b905060006113b484611736565b90506113d483876000858560405180602001604052806000815250611565565b6000858152602081815260408083206001600160a01b038a168452909152902054848110156114155760405162461bcd60e51b81526004016104059061256e565b6000868152602081815260408083206001600160a01b038b81168086529184528285208a8703905582518b81529384018a90529092908816917fc3d58168c5ae7397731d063d5bbf3d657854427343f4c083240f7aacaa2d0f62910160405180910390a4604080516020810190915260009052611110565b60008072184f03e93ff9f4daa797ed6e38ed64bf6a1f0160401b83106114cc5772184f03e93ff9f4daa797ed6e38ed64bf6a1f0160401b830492506040015b6d04ee2d6d415b85acef810000000083106114f8576d04ee2d6d415b85acef8100000000830492506020015b662386f26fc10000831061151657662386f26fc10000830492506010015b6305f5e100831061152e576305f5e100830492506008015b612710831061154257612710830492506004015b60648310611554576064830492506002015b600a83106104805760010192915050565b61156d61184b565b610de5868686868686611898565b6001600160a01b0384163b15610de55760405163bc197c8160e01b81526001600160a01b0385169063bc197c81906115bf90899089908890889088906004016125b2565b602060405180830381600087803b1580156115d957600080fd5b505af1925050508015611609575060408051601f3d908101601f1916820190925261160691810190612610565b60015b6116b65761161561262d565b806308c379a0141561164f575061162a612649565b806116355750611651565b8060405162461bcd60e51b81526004016104059190611c8a565b505b60405162461bcd60e51b815260206004820152603460248201527f455243313135353a207472616e7366657220746f206e6f6e2d455243313135356044820152732932b1b2b4bb32b91034b6b83632b6b2b73a32b960611b6064820152608401610405565b6001600160e01b0319811663bc197c8160e01b146111105760405162461bcd60e51b8152600401610405906126d2565b600354600160a01b900460ff166106a45760405162461bcd60e51b815260206004820152601460248201527314185d5cd8589b194e881b9bdd081c185d5cd95960621b6044820152606401610405565b60408051600180825281830190925260609160009190602080830190803683370190505090508281600081518110611770576117706122f6565b602090810291909101015292915050565b6001600160a01b0384163b15610de55760405163f23a6e6160e01b81526001600160a01b0385169063f23a6e61906117c5908990899088908890889060040161271a565b602060405180830381600087803b1580156117df57600080fd5b505af192505050801561180f575060408051601f3d908101601f1916820190925261180c91810190612610565b60015b61181b5761161561262d565b6001600160e01b0319811663f23a6e6160e01b146111105760405162461bcd60e51b8152600401610405906126d2565b600354600160a01b900460ff16156106a45760405162461bcd60e51b815260206004820152601060248201526f14185d5cd8589b194e881c185d5cd95960821b6044820152606401610405565b6001600160a01b03851661191f5760005b835181101561191d578281815181106118c4576118c46122f6565b6020026020010151600460008684815181106118e2576118e26122f6565b602002602001015181526020019081526020016000206000828254611907919061245f565b9091555061191690508161236d565b90506118a9565b505b6001600160a01b038416610de55760005b835181101561111057600084828151811061194d5761194d6122f6565b60200260200101519050600084838151811061196b5761196b6122f6565b60200260200101519050600060046000848152602001908152602001600020549050818110156119ee5760405162461bcd60e51b815260206004820152602860248201527f455243313135353a206275726e20616d6f756e74206578636565647320746f74604482015267616c537570706c7960c01b6064820152608401610405565b60009283526004602052604090922091039055611a0a8161236d565b9050611930565b828054611a1d90612192565b90600052602060002090601f016020900481019282611a3f5760008555611a85565b82601f10611a5857805160ff1916838001178555611a85565b82800160010185558215611a85579182015b82811115611a85578251825591602001919060010190611a6a565b50611a91929150611a95565b5090565b5b80821115611a915760008155600101611a96565b80356001600160a01b0381168114611ac157600080fd5b919050565b60008060408385031215611ad957600080fd5b611ae283611aaa565b946020939093013593505050565b6001600160e01b0319811681146109b557600080fd5b600060208284031215611b1857600080fd5b8135611b2381611af0565b9392505050565b634e487b7160e01b600052604160045260246000fd5b601f8201601f191681016001600160401b0381118282101715611b6557611b65611b2a565b6040525050565b60006001600160401b03831115611b8557611b85611b2a565b604051611b9c601f8501601f191660200182611b40565b809150838152848484011115611bb157600080fd5b83836020830137600060208583010152509392505050565b600060208284031215611bdb57600080fd5b81356001600160401b03811115611bf157600080fd5b8201601f81018413611c0257600080fd5b611c1184823560208401611b6c565b949350505050565b600060208284031215611c2b57600080fd5b5035919050565b60005b83811015611c4d578181015183820152602001611c35565b838111156106195750506000910152565b60008151808452611c76816020860160208601611c32565b601f01601f19169290920160200192915050565b602081526000611b236020830184611c5e565b600060208284031215611caf57600080fd5b611b2382611aaa565b60006001600160401b03821115611cd157611cd1611b2a565b5060051b60200190565b600082601f830112611cec57600080fd5b81356020611cf982611cb8565b604051611d068282611b40565b83815260059390931b8501820192828101915086841115611d2657600080fd5b8286015b84811015611d415780358352918301918301611d2a565b509695505050505050565b600082601f830112611d5d57600080fd5b611b2383833560208501611b6c565b60008060008060808587031215611d8257600080fd5b611d8b85611aaa565b935060208501356001600160401b0380821115611da757600080fd5b611db388838901611cdb565b94506040870135915080821115611dc957600080fd5b611dd588838901611cdb565b93506060870135915080821115611deb57600080fd5b50611df887828801611d4c565b91505092959194509250565b600080600080600060a08688031215611e1c57600080fd5b611e2586611aaa565b9450611e3360208701611aaa565b935060408601356001600160401b0380821115611e4f57600080fd5b611e5b89838a01611cdb565b94506060880135915080821115611e7157600080fd5b611e7d89838a01611cdb565b93506080880135915080821115611e9357600080fd5b50611ea088828901611d4c565b9150509295509295909350565b60008060408385031215611ec057600080fd5b82356001600160401b0380821115611ed757600080fd5b818501915085601f830112611eeb57600080fd5b81356020611ef882611cb8565b604051611f058282611b40565b83815260059390931b8501820192828101915089841115611f2557600080fd5b948201945b83861015611f4a57611f3b86611aaa565b82529482019490820190611f2a565b96505086013592505080821115611f6057600080fd5b50611f6d85828601611cdb565b9150509250929050565b600081518084526020808501945080840160005b83811015611fa757815187529582019590820190600101611f8b565b509495945050505050565b602081526000611b236020830184611f77565b600080600060608486031215611fda57600080fd5b611fe384611aaa565b925060208401356001600160401b0380821115611fff57600080fd5b61200b87838801611cdb565b9350604086013591508082111561202157600080fd5b5061202e86828701611cdb565b9150509250925092565b6000806000806080858703121561204e57600080fd5b61205785611aaa565b9350602085013592506040850135915060608501356001600160401b0381111561208057600080fd5b611df887828801611d4c565b6000806040838503121561209f57600080fd5b6120a883611aaa565b9150602083013580151581146120bd57600080fd5b809150509250929050565b600080604083850312156120db57600080fd5b6120e483611aaa565b91506120f260208401611aaa565b90509250929050565b600080600080600060a0868803121561211357600080fd5b61211c86611aaa565b945061212a60208701611aaa565b9350604086013592506060860135915060808601356001600160401b0381111561215357600080fd5b611ea088828901611d4c565b60008060006060848603121561217457600080fd5b61217d84611aaa565b95602085013595506040909401359392505050565b600181811c908216806121a657607f821691505b602082108114156121c757634e487b7160e01b600052602260045260246000fd5b50919050565b600081516121df818560208601611c32565b9290920192915050565b600080845481600182811c91508083168061220557607f831692505b602080841082141561222557634e487b7160e01b86526022600452602486fd5b818015612239576001811461224a57612277565b60ff19861689528489019650612277565b60008b81526020902060005b8681101561226f5781548b820152908501908301612256565b505084890196505b50505050505061229b61228a82866121cd565b64173539b7b760d91b815260050190565b95945050505050565b60208082526032908201527f43616c6c6572206973206e6f7420616e2077686974656c6973746564206164646040820152713932b9b9903737b9103a34329037bbb732b960711b606082015260800190565b634e487b7160e01b600052603260045260246000fd5b6020808252602b908201527f4865726f4e46543a204163636f756e7420616c7265616479206f776e7320746860408201526a1a5cc81d1bdad95b97da5960aa1b606082015260800190565b634e487b7160e01b600052601160045260246000fd5b600060001982141561238157612381612357565b5060010190565b6020808252602e908201527f455243313135353a2063616c6c6572206973206e6f7420746f6b656e206f776e60408201526d195c881bdc88185c1c1c9bdd995960921b606082015260800190565b60208082526021908201527f455243313135353a206d696e7420746f20746865207a65726f206164647265736040820152607360f81b606082015260800190565b60208082526028908201527f455243313135353a2069647320616e6420616d6f756e7473206c656e677468206040820152670dad2e6dac2e8c6d60c31b606082015260800190565b6000821982111561247257612472612357565b500190565b60408152600061248a6040830185611f77565b828103602084015261229b8185611f77565b60208082526025908201527f455243313135353a207472616e7366657220746f20746865207a65726f206164604082015264647265737360d81b606082015260800190565b6020808252602a908201527f455243313135353a20696e73756666696369656e742062616c616e636520666f60408201526939103a3930b739b332b960b11b606082015260800190565b60208082526023908201527f455243313135353a206275726e2066726f6d20746865207a65726f206164647260408201526265737360e81b606082015260800190565b60208082526024908201527f455243313135353a206275726e20616d6f756e7420657863656564732062616c604082015263616e636560e01b606082015260800190565b6001600160a01b0386811682528516602082015260a0604082018190526000906125de90830186611f77565b82810360608401526125f08186611f77565b905082810360808401526126048185611c5e565b98975050505050505050565b60006020828403121561262257600080fd5b8151611b2381611af0565b600060033d11156126465760046000803e5060005160e01c5b90565b600060443d10156126575790565b6040516003193d81016004833e81513d6001600160401b03816024840111818411171561268657505050505090565b828501915081518181111561269e5750505050505090565b843d87010160208285010111156126b85750505050505090565b6126c760208286010187611b40565b509095945050505050565b60208082526028908201527f455243313135353a204552433131353552656365697665722072656a656374656040820152676420746f6b656e7360c01b606082015260800190565b6001600160a01b03868116825285166020820152604081018490526060810183905260a06080820181905260009061275490830184611c5e565b97965050505050505056fea264697066735822122044e117558f05d67ef87337009338afdc5b7234b3ea6d54612f6744eec93a6bae64736f6c6343000809003368747470733a2f2f7261772e67697468756275736572636f6e74656e742e636f6d2f53747261697473582f4e46542f6d61696e2f6865726f4e4654323032335345502f",
  "devdoc": {
    "kind": "dev",
    "methods": {
      "balanceOf(address,uint256)": {
        "details": "See {IERC1155-balanceOf}. Requirements: - `account` cannot be the zero address."
      },
      "balanceOfBatch(address[],uint256[])": {
        "details": "See {IERC1155-balanceOfBatch}. Requirements: - `accounts` and `ids` must have the same length."
      },
      "exists(uint256)": {
        "details": "Indicates whether any token exist with a given id, or not."
      },
      "isApprovedForAll(address,address)": {
        "details": "See {IERC1155-isApprovedForAll}."
      },
      "owner()": {
        "details": "Returns the address of the current owner."
      },
      "paused()": {
        "details": "Returns true if the contract is paused, and false otherwise."
      },
      "renounceOwnership()": {
        "details": "Leaves the contract without owner. It will not be possible to call `onlyOwner` functions. Can only be called by the current owner. NOTE: Renouncing ownership will leave the contract without an owner, thereby disabling any functionality that is only available to the owner."
      },
      "safeBatchTransferFrom(address,address,uint256[],uint256[],bytes)": {
        "details": "See {IERC1155-safeBatchTransferFrom}."
      },
      "safeTransferFrom(address,address,uint256,uint256,bytes)": {
        "details": "See {IERC1155-safeTransferFrom}."
      },
      "setApprovalForAll(address,bool)": {
        "details": "See {IERC1155-setApprovalForAll}."
      },
      "supportsInterface(bytes4)": {
        "details": "See {IERC165-supportsInterface}."
      },
      "totalSupply(uint256)": {
        "details": "Total amount of tokens in with a given id."
      },
      "transferOwnership(address)": {
        "details": "Transfers ownership of the contract to a new account (`newOwner`). Can only be called by the current owner."
      }
    },
    "version": 1
  },
  "userdoc": {
    "kind": "user",
    "methods": {},
    "version": 1
  },
  "storageLayout": {
    "storage": [
      {
        "astId": 246,
        "contract": "contracts/HeroNFT.sol:HeroNFT",
        "label": "_balances",
        "offset": 0,
        "slot": "0",
        "type": "t_mapping(t_uint256,t_mapping(t_address,t_uint256))"
      },
      {
        "astId": 252,
        "contract": "contracts/HeroNFT.sol:HeroNFT",
        "label": "_operatorApprovals",
        "offset": 0,
        "slot": "1",
        "type": "t_mapping(t_address,t_mapping(t_address,t_bool))"
      },
      {
        "astId": 254,
        "contract": "contracts/HeroNFT.sol:HeroNFT",
        "label": "_uri",
        "offset": 0,
        "slot": "2",
        "type": "t_string_storage"
      },
      {
        "astId": 7,
        "contract": "contracts/HeroNFT.sol:HeroNFT",
        "label": "_owner",
        "offset": 0,
        "slot": "3",
        "type": "t_address"
      },
      {
        "astId": 130,
        "contract": "contracts/HeroNFT.sol:HeroNFT",
        "label": "_paused",
        "offset": 20,
        "slot": "3",
        "type": "t_bool"
      },
      {
        "astId": 1685,
        "contract": "contracts/HeroNFT.sol:HeroNFT",
        "label": "_totalSupply",
        "offset": 0,
        "slot": "4",
        "type": "t_mapping(t_uint256,t_uint256)"
      },
      {
        "astId": 3463,
        "contract": "contracts/HeroNFT.sol:HeroNFT",
        "label": "baseURI",
        "offset": 0,
        "slot": "5",
        "type": "t_string_storage"
      },
      {
        "astId": 3467,
        "contract": "contracts/HeroNFT.sol:HeroNFT",
        "label": "whitelisted",
        "offset": 0,
        "slot": "6",
        "type": "t_mapping(t_address,t_bool)"
      }
    ],
    "types": {
      "t_address": {
        "encoding": "inplace",
        "label": "address",
        "numberOfBytes": "20"
      },
      "t_bool": {
        "encoding": "inplace",
        "label": "bool",
        "numberOfBytes": "1"
      },
      "t_mapping(t_address,t_bool)": {
        "encoding": "mapping",
        "key": "t_address",
        "label": "mapping(address => bool)",
        "numberOfBytes": "32",
        "value": "t_bool"
      },
      "t_mapping(t_address,t_mapping(t_address,t_bool))": {
        "encoding": "mapping",
        "key": "t_address",
        "label": "mapping(address => mapping(address => bool))",
        "numberOfBytes": "32",
        "value": "t_mapping(t_address,t_bool)"
      },
      "t_mapping(t_address,t_uint256)": {
        "encoding": "mapping",
        "key": "t_address",
        "label": "mapping(address => uint256)",
        "numberOfBytes": "32",
        "value": "t_uint256"
      },
      "t_mapping(t_uint256,t_mapping(t_address,t_uint256))": {
        "encoding": "mapping",
        "key": "t_uint256",
        "label": "mapping(uint256 => mapping(address => uint256))",
        "numberOfBytes": "32",
        "value": "t_mapping(t_address,t_uint256)"
      },
      "t_mapping(t_uint256,t_uint256)": {
        "encoding": "mapping",
        "key": "t_uint256",
        "label": "mapping(uint256 => uint256)",
        "numberOfBytes": "32",
        "value": "t_uint256"
      },
      "t_string_storage": {
        "encoding": "bytes",
        "label": "string",
        "numberOfBytes": "32"
      },
      "t_uint256": {
        "encoding": "inplace",
        "label": "uint256",
        "numberOfBytes": "32"
      }
    }
  }
}